{
  "_format": "hh-sol-artifact-1",
  "contractName": "BattleShipFactory",
  "sourceName": "contracts/BattleShipFactory.sol",
  "abi": [
    {
      "anonymous": false,
      "inputs": [
        {
          "indexed": false,
          "internalType": "uint256",
          "name": "shipId",
          "type": "uint256"
        },
        {
          "indexed": false,
          "internalType": "string",
          "name": "name",
          "type": "string"
        }
      ],
      "name": "NewBattleShip",
      "type": "event"
    },
    {
      "anonymous": false,
      "inputs": [
        {
          "indexed": true,
          "internalType": "address",
          "name": "previousOwner",
          "type": "address"
        },
        {
          "indexed": true,
          "internalType": "address",
          "name": "newOwner",
          "type": "address"
        }
      ],
      "name": "OwnershipTransferred",
      "type": "event"
    },
    {
      "inputs": [
        {
          "internalType": "uint256",
          "name": "",
          "type": "uint256"
        }
      ],
      "name": "battleShips",
      "outputs": [
        {
          "internalType": "string",
          "name": "name",
          "type": "string"
        },
        {
          "internalType": "uint256",
          "name": "shipType",
          "type": "uint256"
        },
        {
          "internalType": "uint256",
          "name": "exp",
          "type": "uint256"
        },
        {
          "internalType": "uint32",
          "name": "level",
          "type": "uint32"
        },
        {
          "internalType": "uint16",
          "name": "health",
          "type": "uint16"
        },
        {
          "internalType": "uint32",
          "name": "damage",
          "type": "uint32"
        }
      ],
      "stateMutability": "view",
      "type": "function"
    },
    {
      "inputs": [],
      "name": "isOwner",
      "outputs": [
        {
          "internalType": "bool",
          "name": "",
          "type": "bool"
        }
      ],
      "stateMutability": "view",
      "type": "function"
    },
    {
      "inputs": [],
      "name": "owner",
      "outputs": [
        {
          "internalType": "address",
          "name": "",
          "type": "address"
        }
      ],
      "stateMutability": "view",
      "type": "function"
    },
    {
      "inputs": [],
      "name": "renounceOwnership",
      "outputs": [],
      "stateMutability": "nonpayable",
      "type": "function"
    },
    {
      "inputs": [
        {
          "internalType": "address",
          "name": "newOwner",
          "type": "address"
        }
      ],
      "name": "transferOwnership",
      "outputs": [],
      "stateMutability": "nonpayable",
      "type": "function"
    }
  ],
  "bytecode": "0x608060405234801561001057600080fd5b50336000806101000a81548173ffffffffffffffffffffffffffffffffffffffff021916908373ffffffffffffffffffffffffffffffffffffffff16021790555060008054906101000a900473ffffffffffffffffffffffffffffffffffffffff1673ffffffffffffffffffffffffffffffffffffffff16600073ffffffffffffffffffffffffffffffffffffffff167f8be0079c531659141344cd1fd0a4f28419497f9722a3daafe3b4186f6b6457e060405160405180910390a3610781806100db6000396000f3fe608060405234801561001057600080fd5b50600436106100575760003560e01c8063715018a61461005c5780638da5cb5b146100665780638f32d59b14610084578063cacc9e0b146100a2578063f2fde38b146100d7575b600080fd5b6100646100f3565b005b61006e6101c2565b60405161007b9190610558565b60405180910390f35b61008c6101eb565b6040516100999190610573565b60405180910390f35b6100bc60048036038101906100b791906104ab565b610242565b6040516100ce9695949392919061058e565b60405180910390f35b6100f160048036038101906100ec9190610482565b610344565b005b6100fb6101eb565b61010457600080fd5b600073ffffffffffffffffffffffffffffffffffffffff1660008054906101000a900473ffffffffffffffffffffffffffffffffffffffff1673ffffffffffffffffffffffffffffffffffffffff167f8be0079c531659141344cd1fd0a4f28419497f9722a3daafe3b4186f6b6457e060405160405180910390a360008060006101000a81548173ffffffffffffffffffffffffffffffffffffffff021916908373ffffffffffffffffffffffffffffffffffffffff160217905550565b60008060009054906101000a900473ffffffffffffffffffffffffffffffffffffffff16905090565b60008060009054906101000a900473ffffffffffffffffffffffffffffffffffffffff1673ffffffffffffffffffffffffffffffffffffffff163373ffffffffffffffffffffffffffffffffffffffff1614905090565b6001818154811061025257600080fd5b9060005260206000209060040201600091509050806000018054610275906106ab565b80601f01602080910402602001604051908101604052809291908181526020018280546102a1906106ab565b80156102ee5780601f106102c3576101008083540402835291602001916102ee565b820191906000526020600020905b8154815290600101906020018083116102d157829003601f168201915b5050505050908060010154908060020154908060030160009054906101000a900463ffffffff16908060030160049054906101000a900461ffff16908060030160069054906101000a900463ffffffff16905086565b61034c6101eb565b61035557600080fd5b61035e81610361565b50565b600073ffffffffffffffffffffffffffffffffffffffff168173ffffffffffffffffffffffffffffffffffffffff16141561039b57600080fd5b8073ffffffffffffffffffffffffffffffffffffffff1660008054906101000a900473ffffffffffffffffffffffffffffffffffffffff1673ffffffffffffffffffffffffffffffffffffffff167f8be0079c531659141344cd1fd0a4f28419497f9722a3daafe3b4186f6b6457e060405160405180910390a3806000806101000a81548173ffffffffffffffffffffffffffffffffffffffff021916908373ffffffffffffffffffffffffffffffffffffffff16021790555050565b6000813590506104678161071d565b92915050565b60008135905061047c81610734565b92915050565b60006020828403121561049457600080fd5b60006104a284828501610458565b91505092915050565b6000602082840312156104bd57600080fd5b60006104cb8482850161046d565b91505092915050565b6104dd81610612565b82525050565b6104ec81610624565b82525050565b60006104fd826105f6565b6105078185610601565b9350610517818560208601610678565b6105208161070c565b840191505092915050565b61053481610630565b82525050565b6105438161065e565b82525050565b61055281610668565b82525050565b600060208201905061056d60008301846104d4565b92915050565b600060208201905061058860008301846104e3565b92915050565b600060c08201905081810360008301526105a881896104f2565b90506105b7602083018861053a565b6105c4604083018761053a565b6105d16060830186610549565b6105de608083018561052b565b6105eb60a0830184610549565b979650505050505050565b600081519050919050565b600082825260208201905092915050565b600061061d8261063e565b9050919050565b60008115159050919050565b600061ffff82169050919050565b600073ffffffffffffffffffffffffffffffffffffffff82169050919050565b6000819050919050565b600063ffffffff82169050919050565b60005b8381101561069657808201518184015260208101905061067b565b838111156106a5576000848401525b50505050565b600060028204905060018216806106c357607f821691505b602082108114156106d7576106d66106dd565b5b50919050565b7f4e487b7100000000000000000000000000000000000000000000000000000000600052602260045260246000fd5b6000601f19601f8301169050919050565b61072681610612565b811461073157600080fd5b50565b61073d8161065e565b811461074857600080fd5b5056fea26469706673582212202560ac0f60ba6352a37542d30fb1edfdbeb5595ac43b4695203cad38f029504764736f6c63430008040033",
  "linkReferences": {},
  "deployedLinkReferences": {}
}