{
  "_format": "hh-sol-artifact-1",
  "contractName": "BattleShipFactory",
  "sourceName": "contracts/BattleShipFactory.sol",
  "abi": [
    {
      "anonymous": false,
      "inputs": [
        {
          "indexed": false,
          "internalType": "uint256",
          "name": "shipId",
          "type": "uint256"
        }
      ],
      "name": "NewBattleShip",
      "type": "event"
    },
    {
      "anonymous": false,
      "inputs": [
        {
          "indexed": true,
          "internalType": "address",
          "name": "previousOwner",
          "type": "address"
        },
        {
          "indexed": true,
          "internalType": "address",
          "name": "newOwner",
          "type": "address"
        }
      ],
      "name": "OwnershipTransferred",
      "type": "event"
    },
    {
      "inputs": [
        {
          "internalType": "uint256",
          "name": "",
          "type": "uint256"
        }
      ],
      "name": "battleShips",
      "outputs": [
        {
          "internalType": "uint256",
          "name": "id",
          "type": "uint256"
        },
        {
          "internalType": "uint256",
          "name": "shipType",
          "type": "uint256"
        },
        {
          "internalType": "uint256",
          "name": "exp",
          "type": "uint256"
        },
        {
          "internalType": "uint32",
          "name": "level",
          "type": "uint32"
        },
        {
          "internalType": "uint256",
          "name": "health",
          "type": "uint256"
        },
        {
          "internalType": "uint256",
          "name": "damage",
          "type": "uint256"
        }
      ],
      "stateMutability": "view",
      "type": "function"
    },
    {
      "inputs": [
        {
          "internalType": "address",
          "name": "tokenAddress",
          "type": "address"
        }
      ],
      "name": "createRandomBattleShip",
      "outputs": [],
      "stateMutability": "nonpayable",
      "type": "function"
    },
    {
      "inputs": [],
      "name": "isOwner",
      "outputs": [
        {
          "internalType": "bool",
          "name": "",
          "type": "bool"
        }
      ],
      "stateMutability": "view",
      "type": "function"
    },
    {
      "inputs": [],
      "name": "owner",
      "outputs": [
        {
          "internalType": "address",
          "name": "",
          "type": "address"
        }
      ],
      "stateMutability": "view",
      "type": "function"
    },
    {
      "inputs": [],
      "name": "renounceOwnership",
      "outputs": [],
      "stateMutability": "nonpayable",
      "type": "function"
    },
    {
      "inputs": [
        {
          "internalType": "address",
          "name": "newOwner",
          "type": "address"
        }
      ],
      "name": "transferOwnership",
      "outputs": [],
      "stateMutability": "nonpayable",
      "type": "function"
    }
  ],
  "bytecode": "0x6080604052601e600260006101000a81548161ffff021916908361ffff16021790555034801561002e57600080fd5b50336000806101000a81548173ffffffffffffffffffffffffffffffffffffffff021916908373ffffffffffffffffffffffffffffffffffffffff16021790555060008054906101000a900473ffffffffffffffffffffffffffffffffffffffff1673ffffffffffffffffffffffffffffffffffffffff16600073ffffffffffffffffffffffffffffffffffffffff167f8be0079c531659141344cd1fd0a4f28419497f9722a3daafe3b4186f6b6457e060405160405180910390a3610de4806100f96000396000f3fe608060405234801561001057600080fd5b50600436106100625760003560e01c806306fb632614610067578063715018a6146100835780638da5cb5b1461008d5780638f32d59b146100ab578063cacc9e0b146100c9578063f2fde38b146100fe575b600080fd5b610081600480360381019061007c91906108ab565b61011a565b005b61008b6104ca565b005b610095610599565b6040516100a29190610a41565b60405180910390f35b6100b36105c2565b6040516100c09190610a85565b60405180910390f35b6100e360048036038101906100de91906108d4565b610619565b6040516100f596959493929190610adb565b60405180910390f35b610118600480360381019061011391906108ab565b610675565b005b600260009054906101000a900461ffff1661ffff168173ffffffffffffffffffffffffffffffffffffffff166370a08231336040518263ffffffff1660e01b81526004016101689190610a41565b60206040518083038186803b15801561018057600080fd5b505afa158015610194573d6000803e3d6000fd5b505050506040513d601f19601f820116820180604052508101906101b891906108fd565b116101f8576040517f08c379a00000000000000000000000000000000000000000000000000000000081526004016101ef90610aa0565b60405180910390fd5b6000610202610692565b905060006102456040518060400160405280600381526020017f646d6700000000000000000000000000000000000000000000000000000000008152508361070a565b905060006003826102569190610bb9565b6102956040518060400160405280600281526020017f68700000000000000000000000000000000000000000000000000000000000008152508561070a565b61029f9190610b63565b9050600060018054905090506001600460003373ffffffffffffffffffffffffffffffffffffffff1673ffffffffffffffffffffffffffffffffffffffff16815260200190815260200160002060008282546102fb9190610b63565b92505081905550336003600083815260200190815260200160002060006101000a81548173ffffffffffffffffffffffffffffffffffffffff021916908373ffffffffffffffffffffffffffffffffffffffff16021790555060016040518060c0016040528083815260200186815260200160008152602001600163ffffffff16815260200184815260200185815250908060018154018082558091505060019003906000526020600020906006020160009091909190915060008201518160000155602082015181600101556040820151816002015560608201518160030160006101000a81548163ffffffff021916908363ffffffff1602179055506080820151816004015560a0820151816005015550508473ffffffffffffffffffffffffffffffffffffffff16639dc29fac33600260009054906101000a900461ffff166040518363ffffffff1660e01b815260040161045a929190610a5c565b600060405180830381600087803b15801561047457600080fd5b505af1158015610488573d6000803e3d6000fd5b505050507f489c3e474816917eca955f4c7664a3bdb292d84aa72bb5246c73dfb300e795ae816040516104bb9190610ac0565b60405180910390a15050505050565b6104d26105c2565b6104db57600080fd5b600073ffffffffffffffffffffffffffffffffffffffff1660008054906101000a900473ffffffffffffffffffffffffffffffffffffffff1673ffffffffffffffffffffffffffffffffffffffff167f8be0079c531659141344cd1fd0a4f28419497f9722a3daafe3b4186f6b6457e060405160405180910390a360008060006101000a81548173ffffffffffffffffffffffffffffffffffffffff021916908373ffffffffffffffffffffffffffffffffffffffff160217905550565b60008060009054906101000a900473ffffffffffffffffffffffffffffffffffffffff16905090565b60008060009054906101000a900473ffffffffffffffffffffffffffffffffffffffff1673ffffffffffffffffffffffffffffffffffffffff163373ffffffffffffffffffffffffffffffffffffffff1614905090565b6001818154811061062957600080fd5b90600052602060002090600602016000915090508060000154908060010154908060020154908060030160009054906101000a900463ffffffff16908060040154908060050154905086565b61067d6105c2565b61068657600080fd5b61068f81610775565b50565b60008044426040516020016106a89291906109dc565b6040516020818303038152906040528051906020012060001c9050603c6064826106d29190610cc8565b10156106e2576001915050610707565b605a6064826106f19190610cc8565b1015610701576002915050610707565b60039150505b90565b60008044428560405160200161072293929190610a08565b6040516020818303038152906040528051906020012060001c905082600a61074a9190610bb9565b83600a836107589190610cc8565b6107629190610bb9565b61076c9190610b63565b91505092915050565b600073ffffffffffffffffffffffffffffffffffffffff168173ffffffffffffffffffffffffffffffffffffffff1614156107af57600080fd5b8073ffffffffffffffffffffffffffffffffffffffff1660008054906101000a900473ffffffffffffffffffffffffffffffffffffffff1673ffffffffffffffffffffffffffffffffffffffff167f8be0079c531659141344cd1fd0a4f28419497f9722a3daafe3b4186f6b6457e060405160405180910390a3806000806101000a81548173ffffffffffffffffffffffffffffffffffffffff021916908373ffffffffffffffffffffffffffffffffffffffff16021790555050565b60008135905061087b81610d80565b92915050565b60008135905061089081610d97565b92915050565b6000815190506108a581610d97565b92915050565b6000602082840312156108bd57600080fd5b60006108cb8482850161086c565b91505092915050565b6000602082840312156108e657600080fd5b60006108f484828501610881565b91505092915050565b60006020828403121561090f57600080fd5b600061091d84828501610896565b91505092915050565b61092f81610c13565b82525050565b61093e81610c25565b82525050565b600061094f82610b3c565b6109598185610b58565b9350610969818560208601610c8b565b80840191505092915050565b6000610982601583610b47565b915061098d82610d57565b602082019050919050565b6109a181610c79565b82525050565b6109b081610c5f565b82525050565b6109c76109c282610c5f565b610cbe565b82525050565b6109d681610c69565b82525050565b60006109e882856109b6565b6020820191506109f882846109b6565b6020820191508190509392505050565b6000610a1482866109b6565b602082019150610a2482856109b6565b602082019150610a348284610944565b9150819050949350505050565b6000602082019050610a566000830184610926565b92915050565b6000604082019050610a716000830185610926565b610a7e6020830184610998565b9392505050565b6000602082019050610a9a6000830184610935565b92915050565b60006020820190508181036000830152610ab981610975565b9050919050565b6000602082019050610ad560008301846109a7565b92915050565b600060c082019050610af060008301896109a7565b610afd60208301886109a7565b610b0a60408301876109a7565b610b1760608301866109cd565b610b2460808301856109a7565b610b3160a08301846109a7565b979650505050505050565b600081519050919050565b600082825260208201905092915050565b600081905092915050565b6000610b6e82610c5f565b9150610b7983610c5f565b9250827fffffffffffffffffffffffffffffffffffffffffffffffffffffffffffffffff03821115610bae57610bad610cf9565b5b828201905092915050565b6000610bc482610c5f565b9150610bcf83610c5f565b9250817fffffffffffffffffffffffffffffffffffffffffffffffffffffffffffffffff0483118215151615610c0857610c07610cf9565b5b828202905092915050565b6000610c1e82610c3f565b9050919050565b60008115159050919050565b600061ffff82169050919050565b600073ffffffffffffffffffffffffffffffffffffffff82169050919050565b6000819050919050565b600063ffffffff82169050919050565b6000610c8482610c31565b9050919050565b60005b83811015610ca9578082015181840152602081019050610c8e565b83811115610cb8576000848401525b50505050565b6000819050919050565b6000610cd382610c5f565b9150610cde83610c5f565b925082610cee57610ced610d28565b5b828206905092915050565b7f4e487b7100000000000000000000000000000000000000000000000000000000600052601160045260246000fd5b7f4e487b7100000000000000000000000000000000000000000000000000000000600052601260045260246000fd5b7f496e73756666696369656e742062616c616e6365210000000000000000000000600082015250565b610d8981610c13565b8114610d9457600080fd5b50565b610da081610c5f565b8114610dab57600080fd5b5056fea26469706673582212208090bff95faf29364d9d830b8631df846c15b36ff29ec8e2cc67274d493c736d64736f6c63430008040033",
  "linkReferences": {},
  "deployedLinkReferences": {}
}