{
  "_format": "hh-sol-artifact-1",
  "contractName": "BattleShipFactory",
  "sourceName": "contracts/BattleShipFactory.sol",
  "abi": [
    {
      "anonymous": false,
      "inputs": [
        {
          "indexed": false,
          "internalType": "uint256",
          "name": "shipId",
          "type": "uint256"
        }
      ],
      "name": "NewBattleShip",
      "type": "event"
    },
    {
      "anonymous": false,
      "inputs": [
        {
          "indexed": true,
          "internalType": "address",
          "name": "previousOwner",
          "type": "address"
        },
        {
          "indexed": true,
          "internalType": "address",
          "name": "newOwner",
          "type": "address"
        }
      ],
      "name": "OwnershipTransferred",
      "type": "event"
    },
    {
      "inputs": [
        {
          "internalType": "uint256",
          "name": "",
          "type": "uint256"
        }
      ],
      "name": "battleShips",
      "outputs": [
        {
          "internalType": "uint256",
          "name": "shipType",
          "type": "uint256"
        },
        {
          "internalType": "uint256",
          "name": "exp",
          "type": "uint256"
        },
        {
          "internalType": "uint32",
          "name": "level",
          "type": "uint32"
        },
        {
          "internalType": "uint256",
          "name": "health",
          "type": "uint256"
        },
        {
          "internalType": "uint256",
          "name": "damage",
          "type": "uint256"
        }
      ],
      "stateMutability": "view",
      "type": "function"
    },
    {
      "inputs": [
        {
          "internalType": "address",
          "name": "tokenAddress",
          "type": "address"
        }
      ],
      "name": "createRandomBattleShip",
      "outputs": [],
      "stateMutability": "nonpayable",
      "type": "function"
    },
    {
      "inputs": [],
      "name": "isOwner",
      "outputs": [
        {
          "internalType": "bool",
          "name": "",
          "type": "bool"
        }
      ],
      "stateMutability": "view",
      "type": "function"
    },
    {
      "inputs": [],
      "name": "owner",
      "outputs": [
        {
          "internalType": "address",
          "name": "",
          "type": "address"
        }
      ],
      "stateMutability": "view",
      "type": "function"
    },
    {
      "inputs": [],
      "name": "renounceOwnership",
      "outputs": [],
      "stateMutability": "nonpayable",
      "type": "function"
    },
    {
      "inputs": [
        {
          "internalType": "address",
          "name": "newOwner",
          "type": "address"
        }
      ],
      "name": "transferOwnership",
      "outputs": [],
      "stateMutability": "nonpayable",
      "type": "function"
    }
  ],
  "bytecode": "0x6080604052601e600260006101000a81548161ffff021916908361ffff16021790555034801561002e57600080fd5b50336000806101000a81548173ffffffffffffffffffffffffffffffffffffffff021916908373ffffffffffffffffffffffffffffffffffffffff16021790555060008054906101000a900473ffffffffffffffffffffffffffffffffffffffff1673ffffffffffffffffffffffffffffffffffffffff16600073ffffffffffffffffffffffffffffffffffffffff167f8be0079c531659141344cd1fd0a4f28419497f9722a3daafe3b4186f6b6457e060405160405180910390a3610dbf806100f96000396000f3fe608060405234801561001057600080fd5b50600436106100625760003560e01c806306fb632614610067578063715018a6146100835780638da5cb5b1461008d5780638f32d59b146100ab578063cacc9e0b146100c9578063f2fde38b146100fd575b600080fd5b610081600480360381019061007c9190610894565b610119565b005b61008b6104b9565b005b610095610588565b6040516100a29190610a2a565b60405180910390f35b6100b36105b1565b6040516100c09190610a6e565b60405180910390f35b6100e360048036038101906100de91906108bd565b610608565b6040516100f4959493929190610ac4565b60405180910390f35b61011760048036038101906101129190610894565b61065e565b005b600260009054906101000a900461ffff1661ffff168173ffffffffffffffffffffffffffffffffffffffff166370a08231336040518263ffffffff1660e01b81526004016101679190610a2a565b60206040518083038186803b15801561017f57600080fd5b505afa158015610193573d6000803e3d6000fd5b505050506040513d601f19601f820116820180604052508101906101b791906108e6565b116101f7576040517f08c379a00000000000000000000000000000000000000000000000000000000081526004016101ee90610a89565b60405180910390fd5b600061020161067b565b905060006102446040518060400160405280600381526020017f646d670000000000000000000000000000000000000000000000000000000000815250836106f3565b905060006003826102559190610b94565b6102946040518060400160405280600281526020017f6870000000000000000000000000000000000000000000000000000000000000815250856106f3565b61029e9190610b3e565b905060016040518060a0016040528085815260200160008152602001600163ffffffff168152602001838152602001848152509080600181540180825580915050600190039060005260206000209060050201600090919091909150600082015181600001556020820151816001015560408201518160020160006101000a81548163ffffffff021916908363ffffffff16021790555060608201518160030155608082015181600401555050600060018054905090506001600460003373ffffffffffffffffffffffffffffffffffffffff1673ffffffffffffffffffffffffffffffffffffffff16815260200190815260200160002060008282546103a59190610b3e565b92505081905550336003600083815260200190815260200160002060006101000a81548173ffffffffffffffffffffffffffffffffffffffff021916908373ffffffffffffffffffffffffffffffffffffffff1602179055508473ffffffffffffffffffffffffffffffffffffffff16639dc29fac33600260009054906101000a900461ffff166040518363ffffffff1660e01b8152600401610449929190610a45565b600060405180830381600087803b15801561046357600080fd5b505af1158015610477573d6000803e3d6000fd5b505050507f489c3e474816917eca955f4c7664a3bdb292d84aa72bb5246c73dfb300e795ae816040516104aa9190610aa9565b60405180910390a15050505050565b6104c16105b1565b6104ca57600080fd5b600073ffffffffffffffffffffffffffffffffffffffff1660008054906101000a900473ffffffffffffffffffffffffffffffffffffffff1673ffffffffffffffffffffffffffffffffffffffff167f8be0079c531659141344cd1fd0a4f28419497f9722a3daafe3b4186f6b6457e060405160405180910390a360008060006101000a81548173ffffffffffffffffffffffffffffffffffffffff021916908373ffffffffffffffffffffffffffffffffffffffff160217905550565b60008060009054906101000a900473ffffffffffffffffffffffffffffffffffffffff16905090565b60008060009054906101000a900473ffffffffffffffffffffffffffffffffffffffff1673ffffffffffffffffffffffffffffffffffffffff163373ffffffffffffffffffffffffffffffffffffffff1614905090565b6001818154811061061857600080fd5b90600052602060002090600502016000915090508060000154908060010154908060020160009054906101000a900463ffffffff16908060030154908060040154905085565b6106666105b1565b61066f57600080fd5b6106788161075e565b50565b60008044426040516020016106919291906109c5565b6040516020818303038152906040528051906020012060001c9050603c6064826106bb9190610ca3565b10156106cb5760019150506106f0565b605a6064826106da9190610ca3565b10156106ea5760029150506106f0565b60039150505b90565b60008044428560405160200161070b939291906109f1565b6040516020818303038152906040528051906020012060001c905082600a6107339190610b94565b83600a836107419190610ca3565b61074b9190610b94565b6107559190610b3e565b91505092915050565b600073ffffffffffffffffffffffffffffffffffffffff168173ffffffffffffffffffffffffffffffffffffffff16141561079857600080fd5b8073ffffffffffffffffffffffffffffffffffffffff1660008054906101000a900473ffffffffffffffffffffffffffffffffffffffff1673ffffffffffffffffffffffffffffffffffffffff167f8be0079c531659141344cd1fd0a4f28419497f9722a3daafe3b4186f6b6457e060405160405180910390a3806000806101000a81548173ffffffffffffffffffffffffffffffffffffffff021916908373ffffffffffffffffffffffffffffffffffffffff16021790555050565b60008135905061086481610d5b565b92915050565b60008135905061087981610d72565b92915050565b60008151905061088e81610d72565b92915050565b6000602082840312156108a657600080fd5b60006108b484828501610855565b91505092915050565b6000602082840312156108cf57600080fd5b60006108dd8482850161086a565b91505092915050565b6000602082840312156108f857600080fd5b60006109068482850161087f565b91505092915050565b61091881610bee565b82525050565b61092781610c00565b82525050565b600061093882610b17565b6109428185610b33565b9350610952818560208601610c66565b80840191505092915050565b600061096b601583610b22565b915061097682610d32565b602082019050919050565b61098a81610c54565b82525050565b61099981610c3a565b82525050565b6109b06109ab82610c3a565b610c99565b82525050565b6109bf81610c44565b82525050565b60006109d1828561099f565b6020820191506109e1828461099f565b6020820191508190509392505050565b60006109fd828661099f565b602082019150610a0d828561099f565b602082019150610a1d828461092d565b9150819050949350505050565b6000602082019050610a3f600083018461090f565b92915050565b6000604082019050610a5a600083018561090f565b610a676020830184610981565b9392505050565b6000602082019050610a83600083018461091e565b92915050565b60006020820190508181036000830152610aa28161095e565b9050919050565b6000602082019050610abe6000830184610990565b92915050565b600060a082019050610ad96000830188610990565b610ae66020830187610990565b610af360408301866109b6565b610b006060830185610990565b610b0d6080830184610990565b9695505050505050565b600081519050919050565b600082825260208201905092915050565b600081905092915050565b6000610b4982610c3a565b9150610b5483610c3a565b9250827fffffffffffffffffffffffffffffffffffffffffffffffffffffffffffffffff03821115610b8957610b88610cd4565b5b828201905092915050565b6000610b9f82610c3a565b9150610baa83610c3a565b9250817fffffffffffffffffffffffffffffffffffffffffffffffffffffffffffffffff0483118215151615610be357610be2610cd4565b5b828202905092915050565b6000610bf982610c1a565b9050919050565b60008115159050919050565b600061ffff82169050919050565b600073ffffffffffffffffffffffffffffffffffffffff82169050919050565b6000819050919050565b600063ffffffff82169050919050565b6000610c5f82610c0c565b9050919050565b60005b83811015610c84578082015181840152602081019050610c69565b83811115610c93576000848401525b50505050565b6000819050919050565b6000610cae82610c3a565b9150610cb983610c3a565b925082610cc957610cc8610d03565b5b828206905092915050565b7f4e487b7100000000000000000000000000000000000000000000000000000000600052601160045260246000fd5b7f4e487b7100000000000000000000000000000000000000000000000000000000600052601260045260246000fd5b7f496e73756666696369656e742062616c616e6365210000000000000000000000600082015250565b610d6481610bee565b8114610d6f57600080fd5b50565b610d7b81610c3a565b8114610d8657600080fd5b5056fea2646970667358221220533d5f85301c2e3e48d8123d2c6ae4051bb0fcea56edc87de378a96d26b89e6464736f6c63430008040033",
  "linkReferences": {},
  "deployedLinkReferences": {}
}