{
  "_format": "hh-sol-artifact-1",
  "contractName": "StakingAztec",
  "sourceName": "contracts/AztecToken/StakingAztec.sol",
  "abi": [
    {
      "inputs": [
        {
          "internalType": "string",
          "name": "name_",
          "type": "string"
        },
        {
          "internalType": "string",
          "name": "symbol_",
          "type": "string"
        }
      ],
      "stateMutability": "nonpayable",
      "type": "constructor"
    },
    {
      "anonymous": false,
      "inputs": [
        {
          "indexed": true,
          "internalType": "address",
          "name": "_owner",
          "type": "address"
        },
        {
          "indexed": true,
          "internalType": "address",
          "name": "_spender",
          "type": "address"
        },
        {
          "indexed": false,
          "internalType": "uint256",
          "name": "_value",
          "type": "uint256"
        }
      ],
      "name": "Approval",
      "type": "event"
    },
    {
      "anonymous": false,
      "inputs": [
        {
          "indexed": true,
          "internalType": "address",
          "name": "previousOwner",
          "type": "address"
        },
        {
          "indexed": true,
          "internalType": "address",
          "name": "newOwner",
          "type": "address"
        }
      ],
      "name": "OwnershipTransferred",
      "type": "event"
    },
    {
      "anonymous": false,
      "inputs": [
        {
          "indexed": true,
          "internalType": "address",
          "name": "_from",
          "type": "address"
        },
        {
          "indexed": true,
          "internalType": "address",
          "name": "_to",
          "type": "address"
        },
        {
          "indexed": false,
          "internalType": "uint256",
          "name": "_value",
          "type": "uint256"
        }
      ],
      "name": "Transfer",
      "type": "event"
    },
    {
      "inputs": [
        {
          "internalType": "address",
          "name": "owner",
          "type": "address"
        },
        {
          "internalType": "address",
          "name": "spender",
          "type": "address"
        }
      ],
      "name": "allowance",
      "outputs": [
        {
          "internalType": "uint256",
          "name": "",
          "type": "uint256"
        }
      ],
      "stateMutability": "view",
      "type": "function"
    },
    {
      "inputs": [
        {
          "internalType": "address",
          "name": "spender",
          "type": "address"
        },
        {
          "internalType": "uint256",
          "name": "amount",
          "type": "uint256"
        }
      ],
      "name": "approve",
      "outputs": [
        {
          "internalType": "bool",
          "name": "",
          "type": "bool"
        }
      ],
      "stateMutability": "nonpayable",
      "type": "function"
    },
    {
      "inputs": [
        {
          "internalType": "address",
          "name": "account",
          "type": "address"
        }
      ],
      "name": "balanceOf",
      "outputs": [
        {
          "internalType": "uint256",
          "name": "",
          "type": "uint256"
        }
      ],
      "stateMutability": "view",
      "type": "function"
    },
    {
      "inputs": [
        {
          "internalType": "address",
          "name": "sender",
          "type": "address"
        },
        {
          "internalType": "uint256",
          "name": "amount",
          "type": "uint256"
        }
      ],
      "name": "burn",
      "outputs": [],
      "stateMutability": "nonpayable",
      "type": "function"
    },
    {
      "inputs": [
        {
          "internalType": "address",
          "name": "_stakeholder",
          "type": "address"
        }
      ],
      "name": "calculateReward",
      "outputs": [
        {
          "internalType": "uint256",
          "name": "",
          "type": "uint256"
        }
      ],
      "stateMutability": "nonpayable",
      "type": "function"
    },
    {
      "inputs": [
        {
          "internalType": "uint256",
          "name": "_stake",
          "type": "uint256"
        }
      ],
      "name": "createStake",
      "outputs": [],
      "stateMutability": "nonpayable",
      "type": "function"
    },
    {
      "inputs": [],
      "name": "decimals",
      "outputs": [
        {
          "internalType": "uint8",
          "name": "",
          "type": "uint8"
        }
      ],
      "stateMutability": "view",
      "type": "function"
    },
    {
      "inputs": [],
      "name": "distributeRewards",
      "outputs": [],
      "stateMutability": "nonpayable",
      "type": "function"
    },
    {
      "inputs": [],
      "name": "getMaxStakeReward",
      "outputs": [
        {
          "internalType": "uint256",
          "name": "",
          "type": "uint256"
        }
      ],
      "stateMutability": "view",
      "type": "function"
    },
    {
      "inputs": [],
      "name": "getPrice",
      "outputs": [
        {
          "internalType": "uint256",
          "name": "",
          "type": "uint256"
        }
      ],
      "stateMutability": "view",
      "type": "function"
    },
    {
      "inputs": [],
      "name": "getTotalStakeReward",
      "outputs": [
        {
          "internalType": "uint256",
          "name": "",
          "type": "uint256"
        }
      ],
      "stateMutability": "view",
      "type": "function"
    },
    {
      "inputs": [],
      "name": "isOwner",
      "outputs": [
        {
          "internalType": "bool",
          "name": "",
          "type": "bool"
        }
      ],
      "stateMutability": "view",
      "type": "function"
    },
    {
      "inputs": [
        {
          "internalType": "address",
          "name": "_address",
          "type": "address"
        }
      ],
      "name": "isStakeholder",
      "outputs": [
        {
          "internalType": "bool",
          "name": "",
          "type": "bool"
        },
        {
          "internalType": "uint256",
          "name": "",
          "type": "uint256"
        }
      ],
      "stateMutability": "view",
      "type": "function"
    },
    {
      "inputs": [
        {
          "internalType": "uint256",
          "name": "amount",
          "type": "uint256"
        }
      ],
      "name": "mint",
      "outputs": [],
      "stateMutability": "payable",
      "type": "function"
    },
    {
      "inputs": [],
      "name": "name",
      "outputs": [
        {
          "internalType": "string",
          "name": "",
          "type": "string"
        }
      ],
      "stateMutability": "view",
      "type": "function"
    },
    {
      "inputs": [],
      "name": "owner",
      "outputs": [
        {
          "internalType": "address",
          "name": "",
          "type": "address"
        }
      ],
      "stateMutability": "view",
      "type": "function"
    },
    {
      "inputs": [
        {
          "internalType": "uint256",
          "name": "_stake",
          "type": "uint256"
        }
      ],
      "name": "removeStake",
      "outputs": [],
      "stateMutability": "nonpayable",
      "type": "function"
    },
    {
      "inputs": [
        {
          "internalType": "address",
          "name": "_stakeholder",
          "type": "address"
        }
      ],
      "name": "removeStakeholder",
      "outputs": [],
      "stateMutability": "nonpayable",
      "type": "function"
    },
    {
      "inputs": [],
      "name": "renounceOwnership",
      "outputs": [],
      "stateMutability": "nonpayable",
      "type": "function"
    },
    {
      "inputs": [
        {
          "internalType": "address",
          "name": "_stakeholder",
          "type": "address"
        }
      ],
      "name": "rewardOf",
      "outputs": [
        {
          "internalType": "uint256",
          "name": "",
          "type": "uint256"
        }
      ],
      "stateMutability": "view",
      "type": "function"
    },
    {
      "inputs": [
        {
          "internalType": "address",
          "name": "_stakeholder",
          "type": "address"
        }
      ],
      "name": "stakeOf",
      "outputs": [
        {
          "internalType": "uint256",
          "name": "",
          "type": "uint256"
        }
      ],
      "stateMutability": "view",
      "type": "function"
    },
    {
      "inputs": [],
      "name": "symbol",
      "outputs": [
        {
          "internalType": "string",
          "name": "",
          "type": "string"
        }
      ],
      "stateMutability": "view",
      "type": "function"
    },
    {
      "inputs": [],
      "name": "totalRewards",
      "outputs": [
        {
          "internalType": "uint256",
          "name": "",
          "type": "uint256"
        }
      ],
      "stateMutability": "view",
      "type": "function"
    },
    {
      "inputs": [],
      "name": "totalStakes",
      "outputs": [
        {
          "internalType": "uint256",
          "name": "",
          "type": "uint256"
        }
      ],
      "stateMutability": "view",
      "type": "function"
    },
    {
      "inputs": [],
      "name": "totalSupply",
      "outputs": [
        {
          "internalType": "uint256",
          "name": "",
          "type": "uint256"
        }
      ],
      "stateMutability": "view",
      "type": "function"
    },
    {
      "inputs": [
        {
          "internalType": "address",
          "name": "recipient",
          "type": "address"
        },
        {
          "internalType": "uint256",
          "name": "amount",
          "type": "uint256"
        }
      ],
      "name": "transfer",
      "outputs": [
        {
          "internalType": "bool",
          "name": "",
          "type": "bool"
        }
      ],
      "stateMutability": "nonpayable",
      "type": "function"
    },
    {
      "inputs": [
        {
          "internalType": "address",
          "name": "sender",
          "type": "address"
        },
        {
          "internalType": "address",
          "name": "recipient",
          "type": "address"
        },
        {
          "internalType": "uint256",
          "name": "amount",
          "type": "uint256"
        }
      ],
      "name": "transferFrom",
      "outputs": [
        {
          "internalType": "bool",
          "name": "",
          "type": "bool"
        }
      ],
      "stateMutability": "nonpayable",
      "type": "function"
    },
    {
      "inputs": [
        {
          "internalType": "address",
          "name": "newOwner",
          "type": "address"
        }
      ],
      "name": "transferOwnership",
      "outputs": [],
      "stateMutability": "nonpayable",
      "type": "function"
    },
    {
      "inputs": [],
      "name": "withdrawReward",
      "outputs": [],
      "stateMutability": "nonpayable",
      "type": "function"
    }
  ],
  "bytecode": "0x60806040526509184e72a0006007553480156200001b57600080fd5b5060405162003b6438038062003b64833981810160405281019062000041919062000460565b818169d3c21bcecceda1000000600381905550620000763360056003546200006a919062000660565b6200019760201b60201c565b81600590805190602001906200008e9291906200033e565b508060069080519060200190620000a79291906200033e565b50505033600860006101000a81548173ffffffffffffffffffffffffffffffffffffffff021916908373ffffffffffffffffffffffffffffffffffffffff160217905550600860009054906101000a900473ffffffffffffffffffffffffffffffffffffffff1673ffffffffffffffffffffffffffffffffffffffff16600073ffffffffffffffffffffffffffffffffffffffff167f8be0079c531659141344cd1fd0a4f28419497f9722a3daafe3b4186f6b6457e060405160405180910390a3600a60035462000179919062000660565b600a819055506000600b819055506014600981905550505062000863565b600073ffffffffffffffffffffffffffffffffffffffff168273ffffffffffffffffffffffffffffffffffffffff1614156200020a576040517f08c379a0000000000000000000000000000000000000000000000000000000008152600401620002019062000554565b60405180910390fd5b600354816002546200021d919062000603565b1062000260576040517f08c379a0000000000000000000000000000000000000000000000000000000008152600401620002579062000532565b60405180910390fd5b806002600082825462000274919062000603565b92505081905550806000808473ffffffffffffffffffffffffffffffffffffffff1673ffffffffffffffffffffffffffffffffffffffff1681526020019081526020016000206000828254620002cb919062000603565b925050819055508173ffffffffffffffffffffffffffffffffffffffff16600073ffffffffffffffffffffffffffffffffffffffff167fddf252ad1be2c89b69c2b068fc378daa952ba7f163c4a11628f55a4df523b3ef8360405162000332919062000576565b60405180910390a35050565b8280546200034c90620006d8565b90600052602060002090601f016020900481019282620003705760008555620003bc565b82601f106200038b57805160ff1916838001178555620003bc565b82800160010185558215620003bc579182015b82811115620003bb5782518255916020019190600101906200039e565b5b509050620003cb9190620003cf565b5090565b5b80821115620003ea576000816000905550600101620003d0565b5090565b600062000405620003ff84620005bc565b62000593565b9050828152602081018484840111156200041e57600080fd5b6200042b848285620006a2565b509392505050565b600082601f8301126200044557600080fd5b815162000457848260208601620003ee565b91505092915050565b600080604083850312156200047457600080fd5b600083015167ffffffffffffffff8111156200048f57600080fd5b6200049d8582860162000433565b925050602083015167ffffffffffffffff811115620004bb57600080fd5b620004c98582860162000433565b9150509250929050565b6000620004e2601183620005f2565b9150620004ef8262000811565b602082019050919050565b600062000509601f83620005f2565b915062000516826200083a565b602082019050919050565b6200052c8162000698565b82525050565b600060208201905081810360008301526200054d81620004d3565b9050919050565b600060208201905081810360008301526200056f81620004fa565b9050919050565b60006020820190506200058d600083018462000521565b92915050565b60006200059f620005b2565b9050620005ad82826200070e565b919050565b6000604051905090565b600067ffffffffffffffff821115620005da57620005d9620007d1565b5b620005e58262000800565b9050602081019050919050565b600082825260208201905092915050565b6000620006108262000698565b91506200061d8362000698565b9250827fffffffffffffffffffffffffffffffffffffffffffffffffffffffffffffffff0382111562000655576200065462000744565b5b828201905092915050565b60006200066d8262000698565b91506200067a8362000698565b9250826200068d576200068c62000773565b5b828204905092915050565b6000819050919050565b60005b83811015620006c2578082015181840152602081019050620006a5565b83811115620006d2576000848401525b50505050565b60006002820490506001821680620006f157607f821691505b60208210811415620007085762000707620007a2565b5b50919050565b620007198262000800565b810181811067ffffffffffffffff821117156200073b576200073a620007d1565b5b80604052505050565b7f4e487b7100000000000000000000000000000000000000000000000000000000600052601160045260246000fd5b7f4e487b7100000000000000000000000000000000000000000000000000000000600052601260045260246000fd5b7f4e487b7100000000000000000000000000000000000000000000000000000000600052602260045260246000fd5b7f4e487b7100000000000000000000000000000000000000000000000000000000600052604160045260246000fd5b6000601f19601f8301169050919050565b7f457874656e64206d617820737570706c79000000000000000000000000000000600082015250565b7f45524332303a206d696e7420746f20746865207a65726f206164647265737300600082015250565b6132f180620008736000396000f3fe6080604052600436106101c25760003560e01c8063939624ab116100f7578063bf9befb111610095578063d82e396211610064578063d82e396214610613578063dd62ed3e14610650578063ef037b901461068d578063f2fde38b146106cb576101c2565b8063bf9befb11461057b578063c885bc58146105a6578063d09d5dc3146105bd578063d3d32d1d146105e8576101c2565b80639dc29fac116100d15780639dc29fac146104d0578063a0712d68146104f9578063a9059cbb14610515578063bcb0c2d714610552576101c2565b8063939624ab1461045157806395d89b411461047a57806398d5fdca146104a5576101c2565b8063313ce5671161016457806370a082311161013e57806370a08231146103a7578063715018a6146103e45780638da5cb5b146103fb5780638f32d59b14610426576101c2565b8063313ce5671461032857806342623360146103535780636f4a2cd014610390576101c2565b806318160ddd116101a057806318160ddd1461025a5780631bf6ddae146102855780631d62ebd9146102ae57806323b872dd146102eb576101c2565b806306fdde03146101c7578063095ea7b3146101f25780630e15561a1461022f575b600080fd5b3480156101d357600080fd5b506101dc6106f4565b6040516101e991906128b0565b60405180910390f35b3480156101fe57600080fd5b50610219600480360381019061021491906125f6565b610786565b604051610226919061286c565b60405180910390f35b34801561023b57600080fd5b5061024461079d565b6040516102519190612a32565b60405180910390f35b34801561026657600080fd5b5061026f610888565b60405161027c9190612a32565b60405180910390f35b34801561029157600080fd5b506102ac60048036038101906102a79190612632565b610892565b005b3480156102ba57600080fd5b506102d560048036038101906102d09190612542565b610a30565b6040516102e29190612a32565b60405180910390f35b3480156102f757600080fd5b50610312600480360381019061030d91906125a7565b610a79565b60405161031f919061286c565b60405180910390f35b34801561033457600080fd5b5061033d610b63565b60405161034a9190612a4d565b60405180910390f35b34801561035f57600080fd5b5061037a60048036038101906103759190612542565b610b6c565b6040516103879190612a32565b60405180910390f35b34801561039c57600080fd5b506103a5610bb5565b005b3480156103b357600080fd5b506103ce60048036038101906103c99190612542565b610cfa565b6040516103db9190612a32565b60405180910390f35b3480156103f057600080fd5b506103f9610d42565b005b34801561040757600080fd5b50610410610e14565b60405161041d9190612851565b60405180910390f35b34801561043257600080fd5b5061043b610e3e565b604051610448919061286c565b60405180910390f35b34801561045d57600080fd5b5061047860048036038101906104739190612632565b610e96565b005b34801561048657600080fd5b5061048f610fa0565b60405161049c91906128b0565b60405180910390f35b3480156104b157600080fd5b506104ba611032565b6040516104c79190612a32565b60405180910390f35b3480156104dc57600080fd5b506104f760048036038101906104f291906125f6565b61103c565b005b610513600480360381019061050e9190612632565b61104a565b005b34801561052157600080fd5b5061053c600480360381019061053791906125f6565b611107565b604051610549919061286c565b60405180910390f35b34801561055e57600080fd5b5061057960048036038101906105749190612542565b61111e565b005b34801561058757600080fd5b5061059061129f565b60405161059d9190612a32565b60405180910390f35b3480156105b257600080fd5b506105bb61138a565b005b3480156105c957600080fd5b506105d2611436565b6040516105df9190612a32565b60405180910390f35b3480156105f457600080fd5b506105fd611440565b60405161060a9190612a32565b60405180910390f35b34801561061f57600080fd5b5061063a60048036038101906106359190612542565b61144a565b6040516106479190612a32565b60405180910390f35b34801561065c57600080fd5b506106776004803603810190610672919061256b565b611573565b6040516106849190612a32565b60405180910390f35b34801561069957600080fd5b506106b460048036038101906106af9190612542565b6115fa565b6040516106c2929190612887565b60405180910390f35b3480156106d757600080fd5b506106f260048036038101906106ed9190612542565b6116d4565b005b60606005805461070390612e69565b80601f016020809104026020016040519081016040528092919081815260200182805461072f90612e69565b801561077c5780601f106107515761010080835404028352916020019161077c565b820191906000526020600020905b81548152906001019060200180831161075f57829003601f168201915b5050505050905090565b60006107933384846116f1565b6001905092915050565b6000806000905060005b600c805490508110156108805761086a600f6000600c84815481106107f5577f4e487b7100000000000000000000000000000000000000000000000000000000600052603260045260246000fd5b9060005260206000200160009054906101000a900473ffffffffffffffffffffffffffffffffffffffff1673ffffffffffffffffffffffffffffffffffffffff1673ffffffffffffffffffffffffffffffffffffffff16815260200190815260200160002054836118bc90919063ffffffff16565b91506001816108799190612a84565b90506107a7565b508091505090565b6000600254905090565b670de0b6b3a7640000816108a69190612ce4565b90506108b2338261190e565b6000600e60003373ffffffffffffffffffffffffffffffffffffffff1673ffffffffffffffffffffffffffffffffffffffff168152602001908152602001600020541415610909576109043342611ad9565b610998565b600954600d60003373ffffffffffffffffffffffffffffffffffffffff1673ffffffffffffffffffffffffffffffffffffffff168152602001908152602001600020546109569190612a84565b4211610997576040517f08c379a000000000000000000000000000000000000000000000000000000000815260040161098e90612972565b60405180910390fd5b5b6109ea81600e60003373ffffffffffffffffffffffffffffffffffffffff1673ffffffffffffffffffffffffffffffffffffffff168152602001908152602001600020546118bc90919063ffffffff16565b600e60003373ffffffffffffffffffffffffffffffffffffffff1673ffffffffffffffffffffffffffffffffffffffff1681526020019081526020016000208190555050565b6000600f60008373ffffffffffffffffffffffffffffffffffffffff1673ffffffffffffffffffffffffffffffffffffffff168152602001908152602001600020549050919050565b6000610a86848484611b99565b6000600160008673ffffffffffffffffffffffffffffffffffffffff1673ffffffffffffffffffffffffffffffffffffffff16815260200190815260200160002060003373ffffffffffffffffffffffffffffffffffffffff1673ffffffffffffffffffffffffffffffffffffffff16815260200190815260200160002054905082811015610b4a576040517f08c379a0000000000000000000000000000000000000000000000000000000008152600401610b4190612952565b60405180910390fd5b610b5785338584036116f1565b60019150509392505050565b60006012905090565b6000600e60008373ffffffffffffffffffffffffffffffffffffffff1673ffffffffffffffffffffffffffffffffffffffff168152602001908152602001600020549050919050565b610bbd610e3e565b610bc657600080fd5b60005b600c80549050811015610cf7576000600c8281548110610c12577f4e487b7100000000000000000000000000000000000000000000000000000000600052603260045260246000fd5b9060005260206000200160009054906101000a900473ffffffffffffffffffffffffffffffffffffffff1690506000610c4a8261144a565b9050610c9e81600f60008573ffffffffffffffffffffffffffffffffffffffff1673ffffffffffffffffffffffffffffffffffffffff168152602001908152602001600020546118bc90919063ffffffff16565b600f60008473ffffffffffffffffffffffffffffffffffffffff1673ffffffffffffffffffffffffffffffffffffffff168152602001908152602001600020819055505050600181610cf09190612a84565b9050610bc9565b50565b60008060008373ffffffffffffffffffffffffffffffffffffffff1673ffffffffffffffffffffffffffffffffffffffff168152602001908152602001600020549050919050565b610d4a610e3e565b610d5357600080fd5b600073ffffffffffffffffffffffffffffffffffffffff16600860009054906101000a900473ffffffffffffffffffffffffffffffffffffffff1673ffffffffffffffffffffffffffffffffffffffff167f8be0079c531659141344cd1fd0a4f28419497f9722a3daafe3b4186f6b6457e060405160405180910390a36000600860006101000a81548173ffffffffffffffffffffffffffffffffffffffff021916908373ffffffffffffffffffffffffffffffffffffffff160217905550565b6000600860009054906101000a900473ffffffffffffffffffffffffffffffffffffffff16905090565b6000600860009054906101000a900473ffffffffffffffffffffffffffffffffffffffff1673ffffffffffffffffffffffffffffffffffffffff163373ffffffffffffffffffffffffffffffffffffffff1614905090565b670de0b6b3a764000081610eaa9190612ce4565b9050610efe81600e60003373ffffffffffffffffffffffffffffffffffffffff1673ffffffffffffffffffffffffffffffffffffffff16815260200190815260200160002054611e1090919063ffffffff16565b600e60003373ffffffffffffffffffffffffffffffffffffffff1673ffffffffffffffffffffffffffffffffffffffff168152602001908152602001600020819055506000600e60003373ffffffffffffffffffffffffffffffffffffffff1673ffffffffffffffffffffffffffffffffffffffff168152602001908152602001600020541415610f9357610f923361111e565b5b610f9d3382611e5d565b50565b606060068054610faf90612e69565b80601f0160208091040260200160405190810160405280929190818152602001828054610fdb90612e69565b80156110285780601f10610ffd57610100808354040283529160200191611028565b820191906000526020600020905b81548152906001019060200180831161100b57829003601f168201915b5050505050905090565b6000600754905090565b611046828261190e565b5050565b60008111801561106657506000600a826110649190612ee4565b145b6110a5576040517f08c379a000000000000000000000000000000000000000000000000000000000815260040161109c90612912565b60405180910390fd5b6000600754826110b59190612ce4565b90508034146110f9576040517f08c379a00000000000000000000000000000000000000000000000000000000081526004016110f0906129f2565b60405180910390fd5b6111033383611e5d565b5050565b6000611114338484611b99565b6001905092915050565b60008061112a836115fa565b91509150811561129a57600c6001600c805490506111489190612d79565b8154811061117f577f4e487b7100000000000000000000000000000000000000000000000000000000600052603260045260246000fd5b9060005260206000200160009054906101000a900473ffffffffffffffffffffffffffffffffffffffff16600c82815481106111e4577f4e487b7100000000000000000000000000000000000000000000000000000000600052603260045260246000fd5b9060005260206000200160006101000a81548173ffffffffffffffffffffffffffffffffffffffff021916908373ffffffffffffffffffffffffffffffffffffffff160217905550600c805480611264577f4e487b7100000000000000000000000000000000000000000000000000000000600052603160045260246000fd5b6001900381819060005260206000200160006101000a81549073ffffffffffffffffffffffffffffffffffffffff021916905590555b505050565b6000806000905060005b600c805490508110156113825761136c600e6000600c84815481106112f7577f4e487b7100000000000000000000000000000000000000000000000000000000600052603260045260246000fd5b9060005260206000200160009054906101000a900473ffffffffffffffffffffffffffffffffffffffff1673ffffffffffffffffffffffffffffffffffffffff1673ffffffffffffffffffffffffffffffffffffffff16815260200190815260200160002054836118bc90919063ffffffff16565b915060018161137b9190612a84565b90506112a9565b508091505090565b6000600f60003373ffffffffffffffffffffffffffffffffffffffff1673ffffffffffffffffffffffffffffffffffffffff1681526020019081526020016000205490506000600f60003373ffffffffffffffffffffffffffffffffffffffff1673ffffffffffffffffffffffffffffffffffffffff1681526020019081526020016000208190555061141d3382611e5d565b61143281600b546118bc90919063ffffffff16565b5050565b6000600a54905090565b6000600b54905090565b60006014600d60008473ffffffffffffffffffffffffffffffffffffffff1673ffffffffffffffffffffffffffffffffffffffff168152602001908152602001600020546114989190612a84565b4211156115695742600d60008473ffffffffffffffffffffffffffffffffffffffff1673ffffffffffffffffffffffffffffffffffffffff1681526020019081526020016000208190555060006064600e60008573ffffffffffffffffffffffffffffffffffffffff1673ffffffffffffffffffffffffffffffffffffffff168152602001908152602001600020546115319190612b11565b600b5461153e9190612a84565b9050600a5481111561156057600a54816115589190612d79565b91505061156e565b8091505061156e565b600090505b919050565b6000600160008473ffffffffffffffffffffffffffffffffffffffff1673ffffffffffffffffffffffffffffffffffffffff16815260200190815260200160002060008373ffffffffffffffffffffffffffffffffffffffff1673ffffffffffffffffffffffffffffffffffffffff16815260200190815260200160002054905092915050565b60008060005b600c805490508110156116c657600c8181548110611647577f4e487b7100000000000000000000000000000000000000000000000000000000600052603260045260246000fd5b9060005260206000200160009054906101000a900473ffffffffffffffffffffffffffffffffffffffff1673ffffffffffffffffffffffffffffffffffffffff168473ffffffffffffffffffffffffffffffffffffffff1614156116b25760018192509250506116cf565b6001816116bf9190612a84565b9050611600565b50600080915091505b915091565b6116dc610e3e565b6116e557600080fd5b6116ee81611ff6565b50565b600073ffffffffffffffffffffffffffffffffffffffff168373ffffffffffffffffffffffffffffffffffffffff161415611761576040517f08c379a0000000000000000000000000000000000000000000000000000000008152600401611758906129d2565b60405180910390fd5b600073ffffffffffffffffffffffffffffffffffffffff168273ffffffffffffffffffffffffffffffffffffffff1614156117d1576040517f08c379a00000000000000000000000000000000000000000000000000000000081526004016117c8906128f2565b60405180910390fd5b80600160008573ffffffffffffffffffffffffffffffffffffffff1673ffffffffffffffffffffffffffffffffffffffff16815260200190815260200160002060008473ffffffffffffffffffffffffffffffffffffffff1673ffffffffffffffffffffffffffffffffffffffff168152602001908152602001600020819055508173ffffffffffffffffffffffffffffffffffffffff168373ffffffffffffffffffffffffffffffffffffffff167f8c5be1e5ebec7d5bd14f71427d1e84f3dd0314c0f7b2291e5b200ac8c7c3b925836040516118af9190612a32565b60405180910390a3505050565b60008082846118cb9190612a84565b905083811015611904577f4e487b7100000000000000000000000000000000000000000000000000000000600052600160045260246000fd5b8091505092915050565b600073ffffffffffffffffffffffffffffffffffffffff168273ffffffffffffffffffffffffffffffffffffffff16141561197e576040517f08c379a000000000000000000000000000000000000000000000000000000000815260040161197590612992565b60405180910390fd5b60008060008473ffffffffffffffffffffffffffffffffffffffff1673ffffffffffffffffffffffffffffffffffffffff168152602001908152602001600020549050818110156119ce846120f0565b90611a0f576040517f08c379a0000000000000000000000000000000000000000000000000000000008152600401611a0691906128b0565b60405180910390fd5b508181036000808573ffffffffffffffffffffffffffffffffffffffff1673ffffffffffffffffffffffffffffffffffffffff168152602001908152602001600020819055508160026000828254611a679190612d79565b92505081905550600073ffffffffffffffffffffffffffffffffffffffff168373ffffffffffffffffffffffffffffffffffffffff167fddf252ad1be2c89b69c2b068fc378daa952ba7f163c4a11628f55a4df523b3ef84604051611acc9190612a32565b60405180910390a3505050565b6000611ae4836115fa565b50905080611b9457600c839080600181540180825580915050600190039060005260206000200160009091909190916101000a81548173ffffffffffffffffffffffffffffffffffffffff021916908373ffffffffffffffffffffffffffffffffffffffff16021790555081600d60008573ffffffffffffffffffffffffffffffffffffffff1673ffffffffffffffffffffffffffffffffffffffff168152602001908152602001600020819055505b505050565b600073ffffffffffffffffffffffffffffffffffffffff168373ffffffffffffffffffffffffffffffffffffffff161415611c09576040517f08c379a0000000000000000000000000000000000000000000000000000000008152600401611c00906129b2565b60405180910390fd5b600073ffffffffffffffffffffffffffffffffffffffff168273ffffffffffffffffffffffffffffffffffffffff161415611c79576040517f08c379a0000000000000000000000000000000000000000000000000000000008152600401611c70906128d2565b60405180910390fd5b60008060008573ffffffffffffffffffffffffffffffffffffffff1673ffffffffffffffffffffffffffffffffffffffff16815260200190815260200160002054905081811015611cc982612325565b90611d0a576040517f08c379a0000000000000000000000000000000000000000000000000000000008152600401611d0191906128b0565b60405180910390fd5b508181036000808673ffffffffffffffffffffffffffffffffffffffff1673ffffffffffffffffffffffffffffffffffffffff16815260200190815260200160002081905550816000808573ffffffffffffffffffffffffffffffffffffffff1673ffffffffffffffffffffffffffffffffffffffff1681526020019081526020016000206000828254611d9e9190612a84565b925050819055508273ffffffffffffffffffffffffffffffffffffffff168473ffffffffffffffffffffffffffffffffffffffff167fddf252ad1be2c89b69c2b068fc378daa952ba7f163c4a11628f55a4df523b3ef84604051611e029190612a32565b60405180910390a350505050565b600082821115611e49577f4e487b7100000000000000000000000000000000000000000000000000000000600052600160045260246000fd5b8183611e559190612d79565b905092915050565b600073ffffffffffffffffffffffffffffffffffffffff168273ffffffffffffffffffffffffffffffffffffffff161415611ecd576040517f08c379a0000000000000000000000000000000000000000000000000000000008152600401611ec490612a12565b60405180910390fd5b60035481600254611ede9190612a84565b10611f1e576040517f08c379a0000000000000000000000000000000000000000000000000000000008152600401611f1590612932565b60405180910390fd5b8060026000828254611f309190612a84565b92505081905550806000808473ffffffffffffffffffffffffffffffffffffffff1673ffffffffffffffffffffffffffffffffffffffff1681526020019081526020016000206000828254611f859190612a84565b925050819055508173ffffffffffffffffffffffffffffffffffffffff16600073ffffffffffffffffffffffffffffffffffffffff167fddf252ad1be2c89b69c2b068fc378daa952ba7f163c4a11628f55a4df523b3ef83604051611fea9190612a32565b60405180910390a35050565b600073ffffffffffffffffffffffffffffffffffffffff168173ffffffffffffffffffffffffffffffffffffffff16141561203057600080fd5b8073ffffffffffffffffffffffffffffffffffffffff16600860009054906101000a900473ffffffffffffffffffffffffffffffffffffffff1673ffffffffffffffffffffffffffffffffffffffff167f8be0079c531659141344cd1fd0a4f28419497f9722a3daafe3b4186f6b6457e060405160405180910390a380600860006101000a81548173ffffffffffffffffffffffffffffffffffffffff021916908373ffffffffffffffffffffffffffffffffffffffff16021790555050565b60606000602867ffffffffffffffff811115612135577f4e487b7100000000000000000000000000000000000000000000000000000000600052604160045260246000fd5b6040519080825280601f01601f1916602001820160405280156121675781602001600182028036833780820191505090505b50905060005b601481101561231b5760008160136121859190612d79565b60086121919190612ce4565b600261219d9190612bc6565b8573ffffffffffffffffffffffffffffffffffffffff166121be9190612b11565b60f81b9050600060108260f81c6121d59190612b42565b60f81b905060008160f81c60106121ec9190612d3e565b8360f81c6121fa9190612dad565b60f81b9050612208826124d2565b858560026122169190612ce4565b8151811061224d577f4e487b7100000000000000000000000000000000000000000000000000000000600052603260045260246000fd5b60200101907effffffffffffffffffffffffffffffffffffffffffffffffffffffffffffff1916908160001a905350612285816124d2565b8560018660026122959190612ce4565b61229f9190612a84565b815181106122d6577f4e487b7100000000000000000000000000000000000000000000000000000000600052603260045260246000fd5b60200101907effffffffffffffffffffffffffffffffffffffffffffffffffffffffffffff1916908160001a905350505050808061231390612e9b565b91505061216d565b5080915050919050565b6060600082141561236d576040518060400160405280600181526020017f300000000000000000000000000000000000000000000000000000000000000081525090506124cd565b600082905060005b6000821461239f57808061238890612e9b565b915050600a826123989190612b11565b9150612375565b60008167ffffffffffffffff8111156123e1577f4e487b7100000000000000000000000000000000000000000000000000000000600052604160045260246000fd5b6040519080825280601f01601f1916602001820160405280156124135781602001600182028036833780820191505090505b5090505b600085146124c65760018261242c9190612d79565b9150600a8561243b9190612ee4565b60306124479190612a84565b60f81b818381518110612483577f4e487b7100000000000000000000000000000000000000000000000000000000600052603260045260246000fd5b60200101907effffffffffffffffffffffffffffffffffffffffffffffffffffffffffffff1916908160001a905350600a856124bf9190612b11565b9450612417565b8093505050505b919050565b6000600a8260f81c60ff1610156124fd5760308260f81c6124f39190612ada565b60f81b9050612513565b60578260f81c61250d9190612ada565b60f81b90505b919050565b6000813590506125278161328d565b92915050565b60008135905061253c816132a4565b92915050565b60006020828403121561255457600080fd5b600061256284828501612518565b91505092915050565b6000806040838503121561257e57600080fd5b600061258c85828601612518565b925050602061259d85828601612518565b9150509250929050565b6000806000606084860312156125bc57600080fd5b60006125ca86828701612518565b93505060206125db86828701612518565b92505060406125ec8682870161252d565b9150509250925092565b6000806040838503121561260957600080fd5b600061261785828601612518565b92505060206126288582860161252d565b9150509250929050565b60006020828403121561264457600080fd5b60006126528482850161252d565b91505092915050565b61266481612de1565b82525050565b61267381612df3565b82525050565b600061268482612a68565b61268e8185612a73565b935061269e818560208601612e36565b6126a781612fa2565b840191505092915050565b60006126bf602383612a73565b91506126ca82612fc0565b604082019050919050565b60006126e2602283612a73565b91506126ed8261300f565b604082019050919050565b6000612705602183612a73565b91506127108261305e565b604082019050919050565b6000612728601183612a73565b9150612733826130ad565b602082019050919050565b600061274b602883612a73565b9150612756826130d6565b604082019050919050565b600061276e601e83612a73565b915061277982613125565b602082019050919050565b6000612791602183612a73565b915061279c8261314e565b604082019050919050565b60006127b4602583612a73565b91506127bf8261319d565b604082019050919050565b60006127d7602483612a73565b91506127e2826131ec565b604082019050919050565b60006127fa601b83612a73565b91506128058261323b565b602082019050919050565b600061281d601f83612a73565b915061282882613264565b602082019050919050565b61283c81612e1f565b82525050565b61284b81612e29565b82525050565b6000602082019050612866600083018461265b565b92915050565b6000602082019050612881600083018461266a565b92915050565b600060408201905061289c600083018561266a565b6128a96020830184612833565b9392505050565b600060208201905081810360008301526128ca8184612679565b905092915050565b600060208201905081810360008301526128eb816126b2565b9050919050565b6000602082019050818103600083015261290b816126d5565b9050919050565b6000602082019050818103600083015261292b816126f8565b9050919050565b6000602082019050818103600083015261294b8161271b565b9050919050565b6000602082019050818103600083015261296b8161273e565b9050919050565b6000602082019050818103600083015261298b81612761565b9050919050565b600060208201905081810360008301526129ab81612784565b9050919050565b600060208201905081810360008301526129cb816127a7565b9050919050565b600060208201905081810360008301526129eb816127ca565b9050919050565b60006020820190508181036000830152612a0b816127ed565b9050919050565b60006020820190508181036000830152612a2b81612810565b9050919050565b6000602082019050612a476000830184612833565b92915050565b6000602082019050612a626000830184612842565b92915050565b600081519050919050565b600082825260208201905092915050565b6000612a8f82612e1f565b9150612a9a83612e1f565b9250827fffffffffffffffffffffffffffffffffffffffffffffffffffffffffffffffff03821115612acf57612ace612f15565b5b828201905092915050565b6000612ae582612e29565b9150612af083612e29565b92508260ff03821115612b0657612b05612f15565b5b828201905092915050565b6000612b1c82612e1f565b9150612b2783612e1f565b925082612b3757612b36612f44565b5b828204905092915050565b6000612b4d82612e29565b9150612b5883612e29565b925082612b6857612b67612f44565b5b828204905092915050565b6000808291508390505b6001851115612bbd57808604811115612b9957612b98612f15565b5b6001851615612ba85780820291505b8081029050612bb685612fb3565b9450612b7d565b94509492505050565b6000612bd182612e1f565b9150612bdc83612e1f565b9250612c097fffffffffffffffffffffffffffffffffffffffffffffffffffffffffffffffff8484612c11565b905092915050565b600082612c215760019050612cdd565b81612c2f5760009050612cdd565b8160018114612c455760028114612c4f57612c7e565b6001915050612cdd565b60ff841115612c6157612c60612f15565b5b8360020a915084821115612c7857612c77612f15565b5b50612cdd565b5060208310610133831016604e8410600b8410161715612cb35782820a905083811115612cae57612cad612f15565b5b612cdd565b612cc08484846001612b73565b92509050818404811115612cd757612cd6612f15565b5b81810290505b9392505050565b6000612cef82612e1f565b9150612cfa83612e1f565b9250817fffffffffffffffffffffffffffffffffffffffffffffffffffffffffffffffff0483118215151615612d3357612d32612f15565b5b828202905092915050565b6000612d4982612e29565b9150612d5483612e29565b92508160ff0483118215151615612d6e57612d6d612f15565b5b828202905092915050565b6000612d8482612e1f565b9150612d8f83612e1f565b925082821015612da257612da1612f15565b5b828203905092915050565b6000612db882612e29565b9150612dc383612e29565b925082821015612dd657612dd5612f15565b5b828203905092915050565b6000612dec82612dff565b9050919050565b60008115159050919050565b600073ffffffffffffffffffffffffffffffffffffffff82169050919050565b6000819050919050565b600060ff82169050919050565b60005b83811015612e54578082015181840152602081019050612e39565b83811115612e63576000848401525b50505050565b60006002820490506001821680612e8157607f821691505b60208210811415612e9557612e94612f73565b5b50919050565b6000612ea682612e1f565b91507fffffffffffffffffffffffffffffffffffffffffffffffffffffffffffffffff821415612ed957612ed8612f15565b5b600182019050919050565b6000612eef82612e1f565b9150612efa83612e1f565b925082612f0a57612f09612f44565b5b828206905092915050565b7f4e487b7100000000000000000000000000000000000000000000000000000000600052601160045260246000fd5b7f4e487b7100000000000000000000000000000000000000000000000000000000600052601260045260246000fd5b7f4e487b7100000000000000000000000000000000000000000000000000000000600052602260045260246000fd5b6000601f19601f8301169050919050565b60008160011c9050919050565b7f45524332303a207472616e7366657220746f20746865207a65726f206164647260008201527f6573730000000000000000000000000000000000000000000000000000000000602082015250565b7f45524332303a20617070726f766520746f20746865207a65726f20616464726560008201527f7373000000000000000000000000000000000000000000000000000000000000602082015250565b7f7265717569726520616d6f756e7420697320646976697369626c65206279203160008201527f3000000000000000000000000000000000000000000000000000000000000000602082015250565b7f457874656e64206d617820737570706c79000000000000000000000000000000600082015250565b7f45524332303a207472616e7366657220616d6f756e742065786365656473206160008201527f6c6c6f77616e6365000000000000000000000000000000000000000000000000602082015250565b7f506c6561736520776169742032307320666f72207374616b65206d6f72650000600082015250565b7f45524332303a206275726e2066726f6d20746865207a65726f2061646472657360008201527f7300000000000000000000000000000000000000000000000000000000000000602082015250565b7f45524332303a207472616e736665722066726f6d20746865207a65726f20616460008201527f6472657373000000000000000000000000000000000000000000000000000000602082015250565b7f45524332303a20617070726f76652066726f6d20746865207a65726f2061646460008201527f7265737300000000000000000000000000000000000000000000000000000000602082015250565b7f7265717569726520636f72726573706f6e64696e672076616c75650000000000600082015250565b7f45524332303a206d696e7420746f20746865207a65726f206164647265737300600082015250565b61329681612de1565b81146132a157600080fd5b50565b6132ad81612e1f565b81146132b857600080fd5b5056fea26469706673582212200c4f05c598c2b41afb5c6bbd408f293650ad579a8cafe88bec5acf67033c38ff64736f6c63430008040033",
  "linkReferences": {},
  "deployedLinkReferences": {}
}