{
  "_format": "hh-sol-artifact-1",
  "contractName": "Marketplace",
  "sourceName": "contracts/Marketplace.sol",
  "abi": [
    {
      "inputs": [],
      "stateMutability": "nonpayable",
      "type": "constructor"
    },
    {
      "anonymous": false,
      "inputs": [
        {
          "indexed": true,
          "internalType": "uint256",
          "name": "itemId",
          "type": "uint256"
        },
        {
          "indexed": true,
          "internalType": "address",
          "name": "nftContract",
          "type": "address"
        },
        {
          "indexed": true,
          "internalType": "uint256",
          "name": "tokenId",
          "type": "uint256"
        },
        {
          "indexed": false,
          "internalType": "address",
          "name": "seller",
          "type": "address"
        },
        {
          "indexed": false,
          "internalType": "address",
          "name": "owner",
          "type": "address"
        },
        {
          "indexed": false,
          "internalType": "uint256",
          "name": "price",
          "type": "uint256"
        },
        {
          "indexed": false,
          "internalType": "bool",
          "name": "sold",
          "type": "bool"
        }
      ],
      "name": "MarketItemCreated",
      "type": "event"
    },
    {
      "anonymous": false,
      "inputs": [
        {
          "indexed": true,
          "internalType": "address",
          "name": "previousOwner",
          "type": "address"
        },
        {
          "indexed": true,
          "internalType": "address",
          "name": "newOwner",
          "type": "address"
        }
      ],
      "name": "OwnershipTransferred",
      "type": "event"
    },
    {
      "inputs": [
        {
          "internalType": "address",
          "name": "nftContract",
          "type": "address"
        },
        {
          "internalType": "uint256",
          "name": "tokenId",
          "type": "uint256"
        },
        {
          "internalType": "uint256",
          "name": "price",
          "type": "uint256"
        }
      ],
      "name": "createMarketItem",
      "outputs": [
        {
          "internalType": "uint256",
          "name": "",
          "type": "uint256"
        }
      ],
      "stateMutability": "payable",
      "type": "function"
    },
    {
      "inputs": [
        {
          "internalType": "address",
          "name": "tokenContract",
          "type": "address"
        },
        {
          "internalType": "address",
          "name": "nftContract",
          "type": "address"
        },
        {
          "internalType": "uint256",
          "name": "itemId",
          "type": "uint256"
        }
      ],
      "name": "createMarketSale",
      "outputs": [],
      "stateMutability": "payable",
      "type": "function"
    },
    {
      "inputs": [],
      "name": "fetchItemsCreated",
      "outputs": [
        {
          "components": [
            {
              "internalType": "uint256",
              "name": "itemId",
              "type": "uint256"
            },
            {
              "internalType": "address",
              "name": "nftContract",
              "type": "address"
            },
            {
              "internalType": "uint256",
              "name": "tokenId",
              "type": "uint256"
            },
            {
              "internalType": "address payable",
              "name": "seller",
              "type": "address"
            },
            {
              "internalType": "address payable",
              "name": "owner",
              "type": "address"
            },
            {
              "internalType": "uint256",
              "name": "price",
              "type": "uint256"
            },
            {
              "internalType": "bool",
              "name": "sold",
              "type": "bool"
            }
          ],
          "internalType": "struct Marketplace.MarketItem[]",
          "name": "",
          "type": "tuple[]"
        }
      ],
      "stateMutability": "view",
      "type": "function"
    },
    {
      "inputs": [],
      "name": "fetchMarketItems",
      "outputs": [
        {
          "components": [
            {
              "internalType": "uint256",
              "name": "itemId",
              "type": "uint256"
            },
            {
              "internalType": "address",
              "name": "nftContract",
              "type": "address"
            },
            {
              "internalType": "uint256",
              "name": "tokenId",
              "type": "uint256"
            },
            {
              "internalType": "address payable",
              "name": "seller",
              "type": "address"
            },
            {
              "internalType": "address payable",
              "name": "owner",
              "type": "address"
            },
            {
              "internalType": "uint256",
              "name": "price",
              "type": "uint256"
            },
            {
              "internalType": "bool",
              "name": "sold",
              "type": "bool"
            }
          ],
          "internalType": "struct Marketplace.MarketItem[]",
          "name": "",
          "type": "tuple[]"
        }
      ],
      "stateMutability": "view",
      "type": "function"
    },
    {
      "inputs": [],
      "name": "getListingPrice",
      "outputs": [
        {
          "internalType": "uint256",
          "name": "",
          "type": "uint256"
        }
      ],
      "stateMutability": "view",
      "type": "function"
    },
    {
      "inputs": [],
      "name": "getUnsoldItemCount",
      "outputs": [
        {
          "internalType": "uint256",
          "name": "",
          "type": "uint256"
        }
      ],
      "stateMutability": "view",
      "type": "function"
    },
    {
      "inputs": [],
      "name": "isOwner",
      "outputs": [
        {
          "internalType": "bool",
          "name": "",
          "type": "bool"
        }
      ],
      "stateMutability": "view",
      "type": "function"
    },
    {
      "inputs": [
        {
          "internalType": "uint256",
          "name": "",
          "type": "uint256"
        }
      ],
      "name": "marketItems",
      "outputs": [
        {
          "internalType": "uint256",
          "name": "itemId",
          "type": "uint256"
        },
        {
          "internalType": "address",
          "name": "nftContract",
          "type": "address"
        },
        {
          "internalType": "uint256",
          "name": "tokenId",
          "type": "uint256"
        },
        {
          "internalType": "address payable",
          "name": "seller",
          "type": "address"
        },
        {
          "internalType": "address payable",
          "name": "owner",
          "type": "address"
        },
        {
          "internalType": "uint256",
          "name": "price",
          "type": "uint256"
        },
        {
          "internalType": "bool",
          "name": "sold",
          "type": "bool"
        }
      ],
      "stateMutability": "view",
      "type": "function"
    },
    {
      "inputs": [],
      "name": "owner",
      "outputs": [
        {
          "internalType": "address",
          "name": "",
          "type": "address"
        }
      ],
      "stateMutability": "view",
      "type": "function"
    },
    {
      "inputs": [],
      "name": "renounceOwnership",
      "outputs": [],
      "stateMutability": "nonpayable",
      "type": "function"
    },
    {
      "inputs": [
        {
          "internalType": "address",
          "name": "newOwner",
          "type": "address"
        }
      ],
      "name": "transferOwnership",
      "outputs": [],
      "stateMutability": "nonpayable",
      "type": "function"
    }
  ],
  "bytecode": "0x608060405234801561001057600080fd5b50336000806101000a81548173ffffffffffffffffffffffffffffffffffffffff021916908373ffffffffffffffffffffffffffffffffffffffff16021790555060008054906101000a900473ffffffffffffffffffffffffffffffffffffffff1673ffffffffffffffffffffffffffffffffffffffff16600073ffffffffffffffffffffffffffffffffffffffff167f8be0079c531659141344cd1fd0a4f28419497f9722a3daafe3b4186f6b6457e060405160405180910390a360008060146101000a81548163ffffffff021916908363ffffffff1602179055506608e1bc9bf0400060018190555061216f8061010a6000396000f3fe60806040526004361061009c5760003560e01c8063715018a611610064578063715018a6146101955780638da5cb5b146101ac5780638f32d59b146101d7578063a211836514610202578063f064c32e1461021e578063f2fde38b146102495761009c565b80630f08efe0146100a157806312e85585146100cc5780632832f2d5146100f757806351f28e141461012257806358eb2df514610165575b600080fd5b3480156100ad57600080fd5b506100b6610272565b6040516100c39190611c72565b60405180910390f35b3480156100d857600080fd5b506100e16105cd565b6040516100ee9190611d4f565b60405180910390f35b34801561010357600080fd5b5061010c6105d7565b6040516101199190611d4f565b60405180910390f35b34801561012e57600080fd5b50610149600480360381019061014491906118c6565b610606565b60405161015c9796959493929190611d6a565b60405180910390f35b61017f600480360381019061017a919061184e565b6106c5565b60405161018c9190611d4f565b60405180910390f35b3480156101a157600080fd5b506101aa610a54565b005b3480156101b857600080fd5b506101c1610b23565b6040516101ce9190611b52565b60405180910390f35b3480156101e357600080fd5b506101ec610b4c565b6040516101f99190611c94565b60405180910390f35b61021c600480360381019061021791906117ff565b610ba3565b005b34801561022a57600080fd5b50610233611198565b6040516102409190611c72565b60405180910390f35b34801561025557600080fd5b50610270600480360381019061026b91906117d6565b61159b565b005b606060008060149054906101000a900463ffffffff1663ffffffff1660028054905061029e9190611e79565b90506000808267ffffffffffffffff8111156102e3577f4e487b7100000000000000000000000000000000000000000000000000000000600052604160045260246000fd5b60405190808252806020026020018201604052801561031c57816020015b610309611701565b8152602001906001900390816103015790505b50905060005b6002805490508110156105c357600073ffffffffffffffffffffffffffffffffffffffff1660028281548110610381577f4e487b7100000000000000000000000000000000000000000000000000000000600052603260045260246000fd5b906000526020600020906007020160040160009054906101000a900473ffffffffffffffffffffffffffffffffffffffff1673ffffffffffffffffffffffffffffffffffffffff1614156105b05760028181548110610409577f4e487b7100000000000000000000000000000000000000000000000000000000600052603260045260246000fd5b90600052602060002090600702016040518060e0016040529081600082015481526020016001820160009054906101000a900473ffffffffffffffffffffffffffffffffffffffff1673ffffffffffffffffffffffffffffffffffffffff1673ffffffffffffffffffffffffffffffffffffffff168152602001600282015481526020016003820160009054906101000a900473ffffffffffffffffffffffffffffffffffffffff1673ffffffffffffffffffffffffffffffffffffffff1673ffffffffffffffffffffffffffffffffffffffff1681526020016004820160009054906101000a900473ffffffffffffffffffffffffffffffffffffffff1673ffffffffffffffffffffffffffffffffffffffff1673ffffffffffffffffffffffffffffffffffffffff168152602001600582015481526020016006820160009054906101000a900460ff161515151581525050828481518110610596577f4e487b7100000000000000000000000000000000000000000000000000000000600052603260045260246000fd5b602002602001018190525082806105ac90611f3d565b9350505b80806105bb90611f3d565b915050610322565b5080935050505090565b6000600154905090565b60008060149054906101000a900463ffffffff1663ffffffff166002805490506106019190611e79565b905090565b6002818154811061061657600080fd5b90600052602060002090600702016000915090508060000154908060010160009054906101000a900473ffffffffffffffffffffffffffffffffffffffff16908060020154908060030160009054906101000a900473ffffffffffffffffffffffffffffffffffffffff16908060040160009054906101000a900473ffffffffffffffffffffffffffffffffffffffff16908060050154908060060160009054906101000a900460ff16905087565b6000808211610709576040517f08c379a000000000000000000000000000000000000000000000000000000000815260040161070090611d2f565b60405180910390fd5b600154341461074d576040517f08c379a000000000000000000000000000000000000000000000000000000000815260040161074490611d0f565b60405180910390fd5b6000600280549050905060026040518060e001604052808381526020018773ffffffffffffffffffffffffffffffffffffffff1681526020018681526020013373ffffffffffffffffffffffffffffffffffffffff168152602001600073ffffffffffffffffffffffffffffffffffffffff1681526020018581526020016000151581525090806001815401808255809150506001900390600052602060002090600702016000909190919091506000820151816000015560208201518160010160006101000a81548173ffffffffffffffffffffffffffffffffffffffff021916908373ffffffffffffffffffffffffffffffffffffffff1602179055506040820151816002015560608201518160030160006101000a81548173ffffffffffffffffffffffffffffffffffffffff021916908373ffffffffffffffffffffffffffffffffffffffff16021790555060808201518160040160006101000a81548173ffffffffffffffffffffffffffffffffffffffff021916908373ffffffffffffffffffffffffffffffffffffffff16021790555060a0820151816005015560c08201518160060160006101000a81548160ff02191690831515021790555050508473ffffffffffffffffffffffffffffffffffffffff1663095ea7b330866040518363ffffffff1660e01b815260040161094b929190611c49565b600060405180830381600087803b15801561096557600080fd5b505af1158015610979573d6000803e3d6000fd5b505050508473ffffffffffffffffffffffffffffffffffffffff166323b872dd3330876040518463ffffffff1660e01b81526004016109ba93929190611bcd565b600060405180830381600087803b1580156109d457600080fd5b505af11580156109e8573d6000803e3d6000fd5b50505050838573ffffffffffffffffffffffffffffffffffffffff16827f045dfa01dcba2b36aba1d3dc4a874f4b0c5d2fbeb8d2c4b34a7d88c8d8f929d1336000886000604051610a3c9493929190611c04565b60405180910390a46002805490509150509392505050565b610a5c610b4c565b610a6557600080fd5b600073ffffffffffffffffffffffffffffffffffffffff1660008054906101000a900473ffffffffffffffffffffffffffffffffffffffff1673ffffffffffffffffffffffffffffffffffffffff167f8be0079c531659141344cd1fd0a4f28419497f9722a3daafe3b4186f6b6457e060405160405180910390a360008060006101000a81548173ffffffffffffffffffffffffffffffffffffffff021916908373ffffffffffffffffffffffffffffffffffffffff160217905550565b60008060009054906101000a900473ffffffffffffffffffffffffffffffffffffffff16905090565b60008060009054906101000a900473ffffffffffffffffffffffffffffffffffffffff1673ffffffffffffffffffffffffffffffffffffffff163373ffffffffffffffffffffffffffffffffffffffff1614905090565b60028181548110610bdd577f4e487b7100000000000000000000000000000000000000000000000000000000600052603260045260246000fd5b906000526020600020906007020160030160009054906101000a900473ffffffffffffffffffffffffffffffffffffffff1673ffffffffffffffffffffffffffffffffffffffff163373ffffffffffffffffffffffffffffffffffffffff161415610c7d576040517f08c379a0000000000000000000000000000000000000000000000000000000008152600401610c7490611ccf565b60405180910390fd5b600060028281548110610cb9577f4e487b7100000000000000000000000000000000000000000000000000000000600052603260045260246000fd5b9060005260206000209060070201600501549050600060028381548110610d09577f4e487b7100000000000000000000000000000000000000000000000000000000600052603260045260246000fd5b906000526020600020906007020160020154905060008573ffffffffffffffffffffffffffffffffffffffff166370a08231336040518263ffffffff1660e01b8152600401610d589190611b52565b60206040518083038186803b158015610d7057600080fd5b505afa158015610d84573d6000803e3d6000fd5b505050506040513d601f19601f82011682018060405250810190610da891906118ef565b905082811015610ded576040517f08c379a0000000000000000000000000000000000000000000000000000000008152600401610de490611cef565b60405180910390fd5b60008673ffffffffffffffffffffffffffffffffffffffff1663dd62ed3e33306040518363ffffffff1660e01b8152600401610e2a929190611b6d565b60206040518083038186803b158015610e4257600080fd5b505afa158015610e56573d6000803e3d6000fd5b505050506040513d601f19601f82011682018060405250810190610e7a91906118ef565b905083811015610ebf576040517f08c379a0000000000000000000000000000000000000000000000000000000008152600401610eb690611caf565b60405180910390fd5b8673ffffffffffffffffffffffffffffffffffffffff166323b872dd3360028881548110610f16577f4e487b7100000000000000000000000000000000000000000000000000000000600052603260045260246000fd5b906000526020600020906007020160030160009054906101000a900473ffffffffffffffffffffffffffffffffffffffff1660028981548110610f82577f4e487b7100000000000000000000000000000000000000000000000000000000600052603260045260246000fd5b9060005260206000209060070201600501546040518463ffffffff1660e01b8152600401610fb293929190611b96565b602060405180830381600087803b158015610fcc57600080fd5b505af1158015610fe0573d6000803e3d6000fd5b505050506040513d601f19601f82011682018060405250810190611004919061189d565b508573ffffffffffffffffffffffffffffffffffffffff166323b872dd3033866040518463ffffffff1660e01b815260040161104293929190611bcd565b600060405180830381600087803b15801561105c57600080fd5b505af1158015611070573d6000803e3d6000fd5b5050505033600286815481106110af577f4e487b7100000000000000000000000000000000000000000000000000000000600052603260045260246000fd5b906000526020600020906007020160040160006101000a81548173ffffffffffffffffffffffffffffffffffffffff021916908373ffffffffffffffffffffffffffffffffffffffff16021790555060016002868154811061113a577f4e487b7100000000000000000000000000000000000000000000000000000000600052603260045260246000fd5b906000526020600020906007020160060160006101000a81548160ff02191690831515021790555061118e6001600060149054906101000a900463ffffffff1663ffffffff166115b890919063ffffffff16565b5050505050505050565b606060008060005b60028054905081101561126f573373ffffffffffffffffffffffffffffffffffffffff16600282815481106111fe577f4e487b7100000000000000000000000000000000000000000000000000000000600052603260045260246000fd5b906000526020600020906007020160030160009054906101000a900473ffffffffffffffffffffffffffffffffffffffff1673ffffffffffffffffffffffffffffffffffffffff16141561125c576001836112599190611e23565b92505b808061126790611f3d565b9150506111a0565b5060008267ffffffffffffffff8111156112b2577f4e487b7100000000000000000000000000000000000000000000000000000000600052604160045260246000fd5b6040519080825280602002602001820160405280156112eb57816020015b6112d8611701565b8152602001906001900390816112d05790505b50905060005b600280549050811015611591573373ffffffffffffffffffffffffffffffffffffffff166002828154811061134f577f4e487b7100000000000000000000000000000000000000000000000000000000600052603260045260246000fd5b906000526020600020906007020160030160009054906101000a900473ffffffffffffffffffffffffffffffffffffffff1673ffffffffffffffffffffffffffffffffffffffff16141561157e57600281815481106113d7577f4e487b7100000000000000000000000000000000000000000000000000000000600052603260045260246000fd5b90600052602060002090600702016040518060e0016040529081600082015481526020016001820160009054906101000a900473ffffffffffffffffffffffffffffffffffffffff1673ffffffffffffffffffffffffffffffffffffffff1673ffffffffffffffffffffffffffffffffffffffff168152602001600282015481526020016003820160009054906101000a900473ffffffffffffffffffffffffffffffffffffffff1673ffffffffffffffffffffffffffffffffffffffff1673ffffffffffffffffffffffffffffffffffffffff1681526020016004820160009054906101000a900473ffffffffffffffffffffffffffffffffffffffff1673ffffffffffffffffffffffffffffffffffffffff1673ffffffffffffffffffffffffffffffffffffffff168152602001600582015481526020016006820160009054906101000a900460ff161515151581525050828481518110611564577f4e487b7100000000000000000000000000000000000000000000000000000000600052603260045260246000fd5b6020026020010181905250828061157a90611f3d565b9350505b808061158990611f3d565b9150506112f1565b5080935050505090565b6115a3610b4c565b6115ac57600080fd5b6115b58161160a565b50565b60008082846115c79190611e23565b905083811015611600577f4e487b7100000000000000000000000000000000000000000000000000000000600052600160045260246000fd5b8091505092915050565b600073ffffffffffffffffffffffffffffffffffffffff168173ffffffffffffffffffffffffffffffffffffffff16141561164457600080fd5b8073ffffffffffffffffffffffffffffffffffffffff1660008054906101000a900473ffffffffffffffffffffffffffffffffffffffff1673ffffffffffffffffffffffffffffffffffffffff167f8be0079c531659141344cd1fd0a4f28419497f9722a3daafe3b4186f6b6457e060405160405180910390a3806000806101000a81548173ffffffffffffffffffffffffffffffffffffffff021916908373ffffffffffffffffffffffffffffffffffffffff16021790555050565b6040518060e0016040528060008152602001600073ffffffffffffffffffffffffffffffffffffffff16815260200160008152602001600073ffffffffffffffffffffffffffffffffffffffff168152602001600073ffffffffffffffffffffffffffffffffffffffff168152602001600081526020016000151581525090565b600081359050611791816120f4565b92915050565b6000815190506117a68161210b565b92915050565b6000813590506117bb81612122565b92915050565b6000815190506117d081612122565b92915050565b6000602082840312156117e857600080fd5b60006117f684828501611782565b91505092915050565b60008060006060848603121561181457600080fd5b600061182286828701611782565b935050602061183386828701611782565b9250506040611844868287016117ac565b9150509250925092565b60008060006060848603121561186357600080fd5b600061187186828701611782565b9350506020611882868287016117ac565b9250506040611893868287016117ac565b9150509250925092565b6000602082840312156118af57600080fd5b60006118bd84828501611797565b91505092915050565b6000602082840312156118d857600080fd5b60006118e6848285016117ac565b91505092915050565b60006020828403121561190157600080fd5b600061190f848285016117c1565b91505092915050565b60006119248383611aa6565b60e08301905092915050565b61193981611f07565b82525050565b61194881611ebf565b82525050565b61195781611ebf565b82525050565b61196681611ead565b82525050565b61197581611ead565b82525050565b600061198682611de9565b6119908185611e01565b935061199b83611dd9565b8060005b838110156119cc5781516119b38882611918565b97506119be83611df4565b92505060018101905061199f565b5085935050505092915050565b6119e281611ed1565b82525050565b6119f181611ed1565b82525050565b6000611a04603d83611e12565b9150611a0f82611fb5565b604082019050919050565b6000611a27601c83611e12565b9150611a3282612004565b602082019050919050565b6000611a4a603c83611e12565b9150611a558261202d565b604082019050919050565b6000611a6d602483611e12565b9150611a788261207c565b604082019050919050565b6000611a90601c83611e12565b9150611a9b826120cb565b602082019050919050565b60e082016000820151611abc6000850182611b34565b506020820151611acf602085018261195d565b506040820151611ae26040850182611b34565b506060820151611af5606085018261193f565b506080820151611b08608085018261193f565b5060a0820151611b1b60a0850182611b34565b5060c0820151611b2e60c08501826119d9565b50505050565b611b3d81611efd565b82525050565b611b4c81611efd565b82525050565b6000602082019050611b67600083018461196c565b92915050565b6000604082019050611b82600083018561196c565b611b8f602083018461196c565b9392505050565b6000606082019050611bab600083018661196c565b611bb86020830185611930565b611bc56040830184611b43565b949350505050565b6000606082019050611be2600083018661196c565b611bef602083018561196c565b611bfc6040830184611b43565b949350505050565b6000608082019050611c19600083018761196c565b611c26602083018661196c565b611c336040830185611b43565b611c4060608301846119e8565b95945050505050565b6000604082019050611c5e600083018561196c565b611c6b6020830184611b43565b9392505050565b60006020820190508181036000830152611c8c818461197b565b905092915050565b6000602082019050611ca960008301846119e8565b92915050565b60006020820190508181036000830152611cc8816119f7565b9050919050565b60006020820190508181036000830152611ce881611a1a565b9050919050565b60006020820190508181036000830152611d0881611a3d565b9050919050565b60006020820190508181036000830152611d2881611a60565b9050919050565b60006020820190508181036000830152611d4881611a83565b9050919050565b6000602082019050611d646000830184611b43565b92915050565b600060e082019050611d7f600083018a611b43565b611d8c602083018961196c565b611d996040830188611b43565b611da6606083018761194e565b611db3608083018661194e565b611dc060a0830185611b43565b611dcd60c08301846119e8565b98975050505050505050565b6000819050602082019050919050565b600081519050919050565b6000602082019050919050565b600082825260208201905092915050565b600082825260208201905092915050565b6000611e2e82611efd565b9150611e3983611efd565b9250827fffffffffffffffffffffffffffffffffffffffffffffffffffffffffffffffff03821115611e6e57611e6d611f86565b5b828201905092915050565b6000611e8482611efd565b9150611e8f83611efd565b925082821015611ea257611ea1611f86565b5b828203905092915050565b6000611eb882611edd565b9050919050565b6000611eca82611edd565b9050919050565b60008115159050919050565b600073ffffffffffffffffffffffffffffffffffffffff82169050919050565b6000819050919050565b6000611f1282611f19565b9050919050565b6000611f2482611f2b565b9050919050565b6000611f3682611edd565b9050919050565b6000611f4882611efd565b91507fffffffffffffffffffffffffffffffffffffffffffffffffffffffffffffffff821415611f7b57611f7a611f86565b5b600182019050919050565b7f4e487b7100000000000000000000000000000000000000000000000000000000600052601160045260246000fd5b7f506c6561736520617070726f76652061736b696e6720707269636520696e206f60008201527f7264657220746f20636f6d706c65746520746865207075726368617365000000602082015250565b7f596f752063616e6e6f742062757920796f7572206f776e206974656d00000000600082015250565b7f506c65617365207375626d69742061736b696e6720707269636520696e206f7260008201527f64657220746f20636f6d706c6574652074686520707572636861736500000000602082015250565b7f5072696365206d75737420626520657175616c20746f206c697374696e67207060008201527f7269636500000000000000000000000000000000000000000000000000000000602082015250565b7f5072696365206d757374206265206174206c6561737420312077656900000000600082015250565b6120fd81611ead565b811461210857600080fd5b50565b61211481611ed1565b811461211f57600080fd5b50565b61212b81611efd565b811461213657600080fd5b5056fea26469706673582212209210f1a78173a7df031c7fe4546d1fb176eed5611b116095611f71201abbe0c964736f6c63430008040033",
  "linkReferences": {},
  "deployedLinkReferences": {}
}