{
  "_format": "hh-sol-artifact-1",
  "contractName": "Marketplace",
  "sourceName": "contracts/Marketplace.sol",
  "abi": [
    {
      "inputs": [],
      "stateMutability": "nonpayable",
      "type": "constructor"
    },
    {
      "anonymous": false,
      "inputs": [
        {
          "indexed": true,
          "internalType": "uint256",
          "name": "itemId",
          "type": "uint256"
        },
        {
          "indexed": true,
          "internalType": "address",
          "name": "nftContract",
          "type": "address"
        },
        {
          "indexed": true,
          "internalType": "uint256",
          "name": "tokenId",
          "type": "uint256"
        },
        {
          "indexed": false,
          "internalType": "address",
          "name": "seller",
          "type": "address"
        },
        {
          "indexed": false,
          "internalType": "address",
          "name": "owner",
          "type": "address"
        },
        {
          "indexed": false,
          "internalType": "uint256",
          "name": "price",
          "type": "uint256"
        },
        {
          "indexed": false,
          "internalType": "bool",
          "name": "sold",
          "type": "bool"
        }
      ],
      "name": "MarketItemCreated",
      "type": "event"
    },
    {
      "anonymous": false,
      "inputs": [
        {
          "indexed": true,
          "internalType": "address",
          "name": "previousOwner",
          "type": "address"
        },
        {
          "indexed": true,
          "internalType": "address",
          "name": "newOwner",
          "type": "address"
        }
      ],
      "name": "OwnershipTransferred",
      "type": "event"
    },
    {
      "inputs": [
        {
          "internalType": "address",
          "name": "nftContract",
          "type": "address"
        },
        {
          "internalType": "uint256",
          "name": "tokenId",
          "type": "uint256"
        },
        {
          "internalType": "uint256",
          "name": "price",
          "type": "uint256"
        }
      ],
      "name": "createMarketItem",
      "outputs": [
        {
          "internalType": "uint256",
          "name": "",
          "type": "uint256"
        }
      ],
      "stateMutability": "payable",
      "type": "function"
    },
    {
      "inputs": [
        {
          "internalType": "address",
          "name": "tokenContract",
          "type": "address"
        },
        {
          "internalType": "address",
          "name": "nftContract",
          "type": "address"
        },
        {
          "internalType": "uint256",
          "name": "itemId",
          "type": "uint256"
        }
      ],
      "name": "createMarketSale",
      "outputs": [],
      "stateMutability": "payable",
      "type": "function"
    },
    {
      "inputs": [],
      "name": "fetchItemsCreated",
      "outputs": [
        {
          "components": [
            {
              "internalType": "uint256",
              "name": "itemId",
              "type": "uint256"
            },
            {
              "internalType": "address",
              "name": "nftContract",
              "type": "address"
            },
            {
              "internalType": "uint256",
              "name": "tokenId",
              "type": "uint256"
            },
            {
              "internalType": "address payable",
              "name": "seller",
              "type": "address"
            },
            {
              "internalType": "address payable",
              "name": "owner",
              "type": "address"
            },
            {
              "internalType": "uint256",
              "name": "price",
              "type": "uint256"
            },
            {
              "internalType": "bool",
              "name": "sold",
              "type": "bool"
            }
          ],
          "internalType": "struct Marketplace.MarketItem[]",
          "name": "",
          "type": "tuple[]"
        }
      ],
      "stateMutability": "view",
      "type": "function"
    },
    {
      "inputs": [],
      "name": "fetchMarketItems",
      "outputs": [
        {
          "components": [
            {
              "internalType": "uint256",
              "name": "itemId",
              "type": "uint256"
            },
            {
              "internalType": "address",
              "name": "nftContract",
              "type": "address"
            },
            {
              "internalType": "uint256",
              "name": "tokenId",
              "type": "uint256"
            },
            {
              "internalType": "address payable",
              "name": "seller",
              "type": "address"
            },
            {
              "internalType": "address payable",
              "name": "owner",
              "type": "address"
            },
            {
              "internalType": "uint256",
              "name": "price",
              "type": "uint256"
            },
            {
              "internalType": "bool",
              "name": "sold",
              "type": "bool"
            }
          ],
          "internalType": "struct Marketplace.MarketItem[]",
          "name": "",
          "type": "tuple[]"
        }
      ],
      "stateMutability": "view",
      "type": "function"
    },
    {
      "inputs": [],
      "name": "getListingPrice",
      "outputs": [
        {
          "internalType": "uint256",
          "name": "",
          "type": "uint256"
        }
      ],
      "stateMutability": "view",
      "type": "function"
    },
    {
      "inputs": [],
      "name": "getUnsoldItemCount",
      "outputs": [
        {
          "internalType": "uint256",
          "name": "",
          "type": "uint256"
        }
      ],
      "stateMutability": "view",
      "type": "function"
    },
    {
      "inputs": [],
      "name": "isOwner",
      "outputs": [
        {
          "internalType": "bool",
          "name": "",
          "type": "bool"
        }
      ],
      "stateMutability": "view",
      "type": "function"
    },
    {
      "inputs": [
        {
          "internalType": "uint256",
          "name": "",
          "type": "uint256"
        }
      ],
      "name": "marketItems",
      "outputs": [
        {
          "internalType": "uint256",
          "name": "itemId",
          "type": "uint256"
        },
        {
          "internalType": "address",
          "name": "nftContract",
          "type": "address"
        },
        {
          "internalType": "uint256",
          "name": "tokenId",
          "type": "uint256"
        },
        {
          "internalType": "address payable",
          "name": "seller",
          "type": "address"
        },
        {
          "internalType": "address payable",
          "name": "owner",
          "type": "address"
        },
        {
          "internalType": "uint256",
          "name": "price",
          "type": "uint256"
        },
        {
          "internalType": "bool",
          "name": "sold",
          "type": "bool"
        }
      ],
      "stateMutability": "view",
      "type": "function"
    },
    {
      "inputs": [],
      "name": "owner",
      "outputs": [
        {
          "internalType": "address",
          "name": "",
          "type": "address"
        }
      ],
      "stateMutability": "view",
      "type": "function"
    },
    {
      "inputs": [],
      "name": "renounceOwnership",
      "outputs": [],
      "stateMutability": "nonpayable",
      "type": "function"
    },
    {
      "inputs": [],
      "name": "somthing",
      "outputs": [
        {
          "internalType": "uint256",
          "name": "",
          "type": "uint256"
        }
      ],
      "stateMutability": "view",
      "type": "function"
    },
    {
      "inputs": [
        {
          "internalType": "address",
          "name": "newOwner",
          "type": "address"
        }
      ],
      "name": "transferOwnership",
      "outputs": [],
      "stateMutability": "nonpayable",
      "type": "function"
    }
  ],
  "bytecode": "0x608060405234801561001057600080fd5b50336000806101000a81548173ffffffffffffffffffffffffffffffffffffffff021916908373ffffffffffffffffffffffffffffffffffffffff16021790555060008054906101000a900473ffffffffffffffffffffffffffffffffffffffff1673ffffffffffffffffffffffffffffffffffffffff16600073ffffffffffffffffffffffffffffffffffffffff167f8be0079c531659141344cd1fd0a4f28419497f9722a3daafe3b4186f6b6457e060405160405180910390a360008060146101000a81548163ffffffff021916908363ffffffff1602179055506608e1bc9bf040006001819055506120258061010a6000396000f3fe6080604052600436106100a75760003560e01c8063715018a611610064578063715018a6146101cb5780638da5cb5b146101e25780638f32d59b1461020d578063a211836514610238578063f064c32e14610254578063f2fde38b1461027f576100a7565b80630f08efe0146100ac57806312e85585146100d75780632832f2d51461010257806351f28e141461012d57806358eb2df514610170578063591ea998146101a0575b600080fd5b3480156100b857600080fd5b506100c16102a8565b6040516100ce9190611b97565b60405180910390f35b3480156100e357600080fd5b506100ec610603565b6040516100f99190611c54565b60405180910390f35b34801561010e57600080fd5b5061011761060d565b6040516101249190611c54565b60405180910390f35b34801561013957600080fd5b50610154600480360381019061014f9190611845565b61063c565b6040516101679796959493929190611c6f565b60405180910390f35b61018a600480360381019061018591906117cd565b6106fb565b6040516101979190611c54565b60405180910390f35b3480156101ac57600080fd5b506101b5610a8a565b6040516101c29190611c54565b60405180910390f35b3480156101d757600080fd5b506101e0610aa9565b005b3480156101ee57600080fd5b506101f7610b78565b6040516102049190611aae565b60405180910390f35b34801561021957600080fd5b50610222610ba1565b60405161022f9190611bb9565b60405180910390f35b610252600480360381019061024d919061177e565b610bf8565b005b34801561026057600080fd5b50610269611117565b6040516102769190611b97565b60405180910390f35b34801561028b57600080fd5b506102a660048036038101906102a19190611755565b61151a565b005b606060008060149054906101000a900463ffffffff1663ffffffff166002805490506102d49190611d7e565b90506000808267ffffffffffffffff811115610319577f4e487b7100000000000000000000000000000000000000000000000000000000600052604160045260246000fd5b60405190808252806020026020018201604052801561035257816020015b61033f611680565b8152602001906001900390816103375790505b50905060005b6002805490508110156105f957600073ffffffffffffffffffffffffffffffffffffffff16600282815481106103b7577f4e487b7100000000000000000000000000000000000000000000000000000000600052603260045260246000fd5b906000526020600020906007020160040160009054906101000a900473ffffffffffffffffffffffffffffffffffffffff1673ffffffffffffffffffffffffffffffffffffffff1614156105e6576002818154811061043f577f4e487b7100000000000000000000000000000000000000000000000000000000600052603260045260246000fd5b90600052602060002090600702016040518060e0016040529081600082015481526020016001820160009054906101000a900473ffffffffffffffffffffffffffffffffffffffff1673ffffffffffffffffffffffffffffffffffffffff1673ffffffffffffffffffffffffffffffffffffffff168152602001600282015481526020016003820160009054906101000a900473ffffffffffffffffffffffffffffffffffffffff1673ffffffffffffffffffffffffffffffffffffffff1673ffffffffffffffffffffffffffffffffffffffff1681526020016004820160009054906101000a900473ffffffffffffffffffffffffffffffffffffffff1673ffffffffffffffffffffffffffffffffffffffff1673ffffffffffffffffffffffffffffffffffffffff168152602001600582015481526020016006820160009054906101000a900460ff1615151515815250508284815181106105cc577f4e487b7100000000000000000000000000000000000000000000000000000000600052603260045260246000fd5b602002602001018190525082806105e290611e42565b9350505b80806105f190611e42565b915050610358565b5080935050505090565b6000600154905090565b60008060149054906101000a900463ffffffff1663ffffffff166002805490506106379190611d7e565b905090565b6002818154811061064c57600080fd5b90600052602060002090600702016000915090508060000154908060010160009054906101000a900473ffffffffffffffffffffffffffffffffffffffff16908060020154908060030160009054906101000a900473ffffffffffffffffffffffffffffffffffffffff16908060040160009054906101000a900473ffffffffffffffffffffffffffffffffffffffff16908060050154908060060160009054906101000a900460ff16905087565b600080821161073f576040517f08c379a000000000000000000000000000000000000000000000000000000000815260040161073690611c34565b60405180910390fd5b6001543414610783576040517f08c379a000000000000000000000000000000000000000000000000000000000815260040161077a90611c14565b60405180910390fd5b6000600280549050905060026040518060e001604052808381526020018773ffffffffffffffffffffffffffffffffffffffff1681526020018681526020013373ffffffffffffffffffffffffffffffffffffffff168152602001600073ffffffffffffffffffffffffffffffffffffffff1681526020018581526020016000151581525090806001815401808255809150506001900390600052602060002090600702016000909190919091506000820151816000015560208201518160010160006101000a81548173ffffffffffffffffffffffffffffffffffffffff021916908373ffffffffffffffffffffffffffffffffffffffff1602179055506040820151816002015560608201518160030160006101000a81548173ffffffffffffffffffffffffffffffffffffffff021916908373ffffffffffffffffffffffffffffffffffffffff16021790555060808201518160040160006101000a81548173ffffffffffffffffffffffffffffffffffffffff021916908373ffffffffffffffffffffffffffffffffffffffff16021790555060a0820151816005015560c08201518160060160006101000a81548160ff02191690831515021790555050508473ffffffffffffffffffffffffffffffffffffffff1663095ea7b330866040518363ffffffff1660e01b8152600401610981929190611b6e565b600060405180830381600087803b15801561099b57600080fd5b505af11580156109af573d6000803e3d6000fd5b505050508473ffffffffffffffffffffffffffffffffffffffff166323b872dd3330876040518463ffffffff1660e01b81526004016109f093929190611af2565b600060405180830381600087803b158015610a0a57600080fd5b505af1158015610a1e573d6000803e3d6000fd5b50505050838573ffffffffffffffffffffffffffffffffffffffff16827f045dfa01dcba2b36aba1d3dc4a874f4b0c5d2fbeb8d2c4b34a7d88c8d8f929d1336000886000604051610a729493929190611b29565b60405180910390a46002805490509150509392505050565b60008060149054906101000a900463ffffffff1663ffffffff16905090565b610ab1610ba1565b610aba57600080fd5b600073ffffffffffffffffffffffffffffffffffffffff1660008054906101000a900473ffffffffffffffffffffffffffffffffffffffff1673ffffffffffffffffffffffffffffffffffffffff167f8be0079c531659141344cd1fd0a4f28419497f9722a3daafe3b4186f6b6457e060405160405180910390a360008060006101000a81548173ffffffffffffffffffffffffffffffffffffffff021916908373ffffffffffffffffffffffffffffffffffffffff160217905550565b60008060009054906101000a900473ffffffffffffffffffffffffffffffffffffffff16905090565b60008060009054906101000a900473ffffffffffffffffffffffffffffffffffffffff1673ffffffffffffffffffffffffffffffffffffffff163373ffffffffffffffffffffffffffffffffffffffff1614905090565b60028181548110610c32577f4e487b7100000000000000000000000000000000000000000000000000000000600052603260045260246000fd5b906000526020600020906007020160030160009054906101000a900473ffffffffffffffffffffffffffffffffffffffff1673ffffffffffffffffffffffffffffffffffffffff163373ffffffffffffffffffffffffffffffffffffffff161415610cd2576040517f08c379a0000000000000000000000000000000000000000000000000000000008152600401610cc990611bd4565b60405180910390fd5b600060028281548110610d0e577f4e487b7100000000000000000000000000000000000000000000000000000000600052603260045260246000fd5b9060005260206000209060070201600501549050600060028381548110610d5e577f4e487b7100000000000000000000000000000000000000000000000000000000600052603260045260246000fd5b906000526020600020906007020160020154905060008573ffffffffffffffffffffffffffffffffffffffff166370a08231336040518263ffffffff1660e01b8152600401610dad9190611aae565b60206040518083038186803b158015610dc557600080fd5b505afa158015610dd9573d6000803e3d6000fd5b505050506040513d601f19601f82011682018060405250810190610dfd919061186e565b9050828110610e41576040517f08c379a0000000000000000000000000000000000000000000000000000000008152600401610e3890611bf4565b60405180910390fd5b8573ffffffffffffffffffffffffffffffffffffffff1663a9059cbb60028681548110610e97577f4e487b7100000000000000000000000000000000000000000000000000000000600052603260045260246000fd5b906000526020600020906007020160030160009054906101000a900473ffffffffffffffffffffffffffffffffffffffff1660028781548110610f03577f4e487b7100000000000000000000000000000000000000000000000000000000600052603260045260246000fd5b9060005260206000209060070201600501546040518363ffffffff1660e01b8152600401610f32929190611ac9565b602060405180830381600087803b158015610f4c57600080fd5b505af1158015610f60573d6000803e3d6000fd5b505050506040513d601f19601f82011682018060405250810190610f84919061181c565b508473ffffffffffffffffffffffffffffffffffffffff166323b872dd3033856040518463ffffffff1660e01b8152600401610fc293929190611af2565b600060405180830381600087803b158015610fdc57600080fd5b505af1158015610ff0573d6000803e3d6000fd5b50505050336002858154811061102f577f4e487b7100000000000000000000000000000000000000000000000000000000600052603260045260246000fd5b906000526020600020906007020160040160006101000a81548173ffffffffffffffffffffffffffffffffffffffff021916908373ffffffffffffffffffffffffffffffffffffffff1602179055506001600285815481106110ba577f4e487b7100000000000000000000000000000000000000000000000000000000600052603260045260246000fd5b906000526020600020906007020160060160006101000a81548160ff02191690831515021790555061110e6001600060149054906101000a900463ffffffff1663ffffffff1661153790919063ffffffff16565b50505050505050565b606060008060005b6002805490508110156111ee573373ffffffffffffffffffffffffffffffffffffffff166002828154811061117d577f4e487b7100000000000000000000000000000000000000000000000000000000600052603260045260246000fd5b906000526020600020906007020160030160009054906101000a900473ffffffffffffffffffffffffffffffffffffffff1673ffffffffffffffffffffffffffffffffffffffff1614156111db576001836111d89190611d28565b92505b80806111e690611e42565b91505061111f565b5060008267ffffffffffffffff811115611231577f4e487b7100000000000000000000000000000000000000000000000000000000600052604160045260246000fd5b60405190808252806020026020018201604052801561126a57816020015b611257611680565b81526020019060019003908161124f5790505b50905060005b600280549050811015611510573373ffffffffffffffffffffffffffffffffffffffff16600282815481106112ce577f4e487b7100000000000000000000000000000000000000000000000000000000600052603260045260246000fd5b906000526020600020906007020160030160009054906101000a900473ffffffffffffffffffffffffffffffffffffffff1673ffffffffffffffffffffffffffffffffffffffff1614156114fd5760028181548110611356577f4e487b7100000000000000000000000000000000000000000000000000000000600052603260045260246000fd5b90600052602060002090600702016040518060e0016040529081600082015481526020016001820160009054906101000a900473ffffffffffffffffffffffffffffffffffffffff1673ffffffffffffffffffffffffffffffffffffffff1673ffffffffffffffffffffffffffffffffffffffff168152602001600282015481526020016003820160009054906101000a900473ffffffffffffffffffffffffffffffffffffffff1673ffffffffffffffffffffffffffffffffffffffff1673ffffffffffffffffffffffffffffffffffffffff1681526020016004820160009054906101000a900473ffffffffffffffffffffffffffffffffffffffff1673ffffffffffffffffffffffffffffffffffffffff1673ffffffffffffffffffffffffffffffffffffffff168152602001600582015481526020016006820160009054906101000a900460ff1615151515815250508284815181106114e3577f4e487b7100000000000000000000000000000000000000000000000000000000600052603260045260246000fd5b602002602001018190525082806114f990611e42565b9350505b808061150890611e42565b915050611270565b5080935050505090565b611522610ba1565b61152b57600080fd5b61153481611589565b50565b60008082846115469190611d28565b90508381101561157f577f4e487b7100000000000000000000000000000000000000000000000000000000600052600160045260246000fd5b8091505092915050565b600073ffffffffffffffffffffffffffffffffffffffff168173ffffffffffffffffffffffffffffffffffffffff1614156115c357600080fd5b8073ffffffffffffffffffffffffffffffffffffffff1660008054906101000a900473ffffffffffffffffffffffffffffffffffffffff1673ffffffffffffffffffffffffffffffffffffffff167f8be0079c531659141344cd1fd0a4f28419497f9722a3daafe3b4186f6b6457e060405160405180910390a3806000806101000a81548173ffffffffffffffffffffffffffffffffffffffff021916908373ffffffffffffffffffffffffffffffffffffffff16021790555050565b6040518060e0016040528060008152602001600073ffffffffffffffffffffffffffffffffffffffff16815260200160008152602001600073ffffffffffffffffffffffffffffffffffffffff168152602001600073ffffffffffffffffffffffffffffffffffffffff168152602001600081526020016000151581525090565b60008135905061171081611faa565b92915050565b60008151905061172581611fc1565b92915050565b60008135905061173a81611fd8565b92915050565b60008151905061174f81611fd8565b92915050565b60006020828403121561176757600080fd5b600061177584828501611701565b91505092915050565b60008060006060848603121561179357600080fd5b60006117a186828701611701565b93505060206117b286828701611701565b92505060406117c38682870161172b565b9150509250925092565b6000806000606084860312156117e257600080fd5b60006117f086828701611701565b93505060206118018682870161172b565b92505060406118128682870161172b565b9150509250925092565b60006020828403121561182e57600080fd5b600061183c84828501611716565b91505092915050565b60006020828403121561185757600080fd5b60006118658482850161172b565b91505092915050565b60006020828403121561188057600080fd5b600061188e84828501611740565b91505092915050565b60006118a38383611a02565b60e08301905092915050565b6118b881611e0c565b82525050565b6118c781611dc4565b82525050565b6118d681611dc4565b82525050565b6118e581611db2565b82525050565b6118f481611db2565b82525050565b600061190582611cee565b61190f8185611d06565b935061191a83611cde565b8060005b8381101561194b5781516119328882611897565b975061193d83611cf9565b92505060018101905061191e565b5085935050505092915050565b61196181611dd6565b82525050565b61197081611dd6565b82525050565b6000611983601c83611d17565b915061198e82611eba565b602082019050919050565b60006119a6604083611d17565b91506119b182611ee3565b604082019050919050565b60006119c9602483611d17565b91506119d482611f32565b604082019050919050565b60006119ec601c83611d17565b91506119f782611f81565b602082019050919050565b60e082016000820151611a186000850182611a90565b506020820151611a2b60208501826118dc565b506040820151611a3e6040850182611a90565b506060820151611a5160608501826118be565b506080820151611a6460808501826118be565b5060a0820151611a7760a0850182611a90565b5060c0820151611a8a60c0850182611958565b50505050565b611a9981611e02565b82525050565b611aa881611e02565b82525050565b6000602082019050611ac360008301846118eb565b92915050565b6000604082019050611ade60008301856118af565b611aeb6020830184611a9f565b9392505050565b6000606082019050611b0760008301866118eb565b611b1460208301856118eb565b611b216040830184611a9f565b949350505050565b6000608082019050611b3e60008301876118eb565b611b4b60208301866118eb565b611b586040830185611a9f565b611b656060830184611967565b95945050505050565b6000604082019050611b8360008301856118eb565b611b906020830184611a9f565b9392505050565b60006020820190508181036000830152611bb181846118fa565b905092915050565b6000602082019050611bce6000830184611967565b92915050565b60006020820190508181036000830152611bed81611976565b9050919050565b60006020820190508181036000830152611c0d81611999565b9050919050565b60006020820190508181036000830152611c2d816119bc565b9050919050565b60006020820190508181036000830152611c4d816119df565b9050919050565b6000602082019050611c696000830184611a9f565b92915050565b600060e082019050611c84600083018a611a9f565b611c9160208301896118eb565b611c9e6040830188611a9f565b611cab60608301876118cd565b611cb860808301866118cd565b611cc560a0830185611a9f565b611cd260c0830184611967565b98975050505050505050565b6000819050602082019050919050565b600081519050919050565b6000602082019050919050565b600082825260208201905092915050565b600082825260208201905092915050565b6000611d3382611e02565b9150611d3e83611e02565b9250827fffffffffffffffffffffffffffffffffffffffffffffffffffffffffffffffff03821115611d7357611d72611e8b565b5b828201905092915050565b6000611d8982611e02565b9150611d9483611e02565b925082821015611da757611da6611e8b565b5b828203905092915050565b6000611dbd82611de2565b9050919050565b6000611dcf82611de2565b9050919050565b60008115159050919050565b600073ffffffffffffffffffffffffffffffffffffffff82169050919050565b6000819050919050565b6000611e1782611e1e565b9050919050565b6000611e2982611e30565b9050919050565b6000611e3b82611de2565b9050919050565b6000611e4d82611e02565b91507fffffffffffffffffffffffffffffffffffffffffffffffffffffffffffffffff821415611e8057611e7f611e8b565b5b600182019050919050565b7f4e487b7100000000000000000000000000000000000000000000000000000000600052601160045260246000fd5b7f596f752063616e6e6f742062757920796f7572206f776e206974656d00000000600082015250565b7f506c65617365207375626d6974207468652061736b696e67207072696365206960008201527f6e206f7264657220746f20636f6d706c65746520746865207075726368617365602082015250565b7f5072696365206d75737420626520657175616c20746f206c697374696e67207060008201527f7269636500000000000000000000000000000000000000000000000000000000602082015250565b7f5072696365206d757374206265206174206c6561737420312077656900000000600082015250565b611fb381611db2565b8114611fbe57600080fd5b50565b611fca81611dd6565b8114611fd557600080fd5b50565b611fe181611e02565b8114611fec57600080fd5b5056fea2646970667358221220145bed15956624b40610eb7b8070ac889953ed6d8ed906cc06e1d7b3543617fd64736f6c63430008040033",
  "linkReferences": {},
  "deployedLinkReferences": {}
}