{
  "_format": "hh-sol-artifact-1",
  "contractName": "Marketplace",
  "sourceName": "contracts/Marketplace.sol",
  "abi": [
    {
      "inputs": [],
      "stateMutability": "nonpayable",
      "type": "constructor"
    },
    {
      "anonymous": false,
      "inputs": [
        {
          "indexed": true,
          "internalType": "uint256",
          "name": "itemId",
          "type": "uint256"
        },
        {
          "indexed": true,
          "internalType": "address",
          "name": "nftContract",
          "type": "address"
        },
        {
          "indexed": true,
          "internalType": "uint256",
          "name": "tokenId",
          "type": "uint256"
        },
        {
          "indexed": false,
          "internalType": "address",
          "name": "seller",
          "type": "address"
        },
        {
          "indexed": false,
          "internalType": "address",
          "name": "owner",
          "type": "address"
        },
        {
          "indexed": false,
          "internalType": "uint256",
          "name": "price",
          "type": "uint256"
        },
        {
          "indexed": false,
          "internalType": "bool",
          "name": "sold",
          "type": "bool"
        }
      ],
      "name": "MarketItemCreated",
      "type": "event"
    },
    {
      "anonymous": false,
      "inputs": [
        {
          "indexed": true,
          "internalType": "address",
          "name": "previousOwner",
          "type": "address"
        },
        {
          "indexed": true,
          "internalType": "address",
          "name": "newOwner",
          "type": "address"
        }
      ],
      "name": "OwnershipTransferred",
      "type": "event"
    },
    {
      "inputs": [
        {
          "internalType": "address",
          "name": "nftContract",
          "type": "address"
        },
        {
          "internalType": "uint256",
          "name": "tokenId",
          "type": "uint256"
        },
        {
          "internalType": "uint256",
          "name": "price",
          "type": "uint256"
        }
      ],
      "name": "createMarketItem",
      "outputs": [],
      "stateMutability": "payable",
      "type": "function"
    },
    {
      "inputs": [
        {
          "internalType": "address",
          "name": "tokenContract",
          "type": "address"
        },
        {
          "internalType": "address",
          "name": "nftContract",
          "type": "address"
        },
        {
          "internalType": "uint256",
          "name": "itemId",
          "type": "uint256"
        }
      ],
      "name": "createMarketSale",
      "outputs": [],
      "stateMutability": "payable",
      "type": "function"
    },
    {
      "inputs": [],
      "name": "fetchItemsCreated",
      "outputs": [
        {
          "components": [
            {
              "internalType": "uint256",
              "name": "itemId",
              "type": "uint256"
            },
            {
              "internalType": "address",
              "name": "nftContract",
              "type": "address"
            },
            {
              "internalType": "uint256",
              "name": "tokenId",
              "type": "uint256"
            },
            {
              "internalType": "address payable",
              "name": "seller",
              "type": "address"
            },
            {
              "internalType": "address payable",
              "name": "owner",
              "type": "address"
            },
            {
              "internalType": "uint256",
              "name": "price",
              "type": "uint256"
            },
            {
              "internalType": "bool",
              "name": "sold",
              "type": "bool"
            }
          ],
          "internalType": "struct Marketplace.MarketItem[]",
          "name": "",
          "type": "tuple[]"
        }
      ],
      "stateMutability": "view",
      "type": "function"
    },
    {
      "inputs": [],
      "name": "fetchMarketItems",
      "outputs": [
        {
          "components": [
            {
              "internalType": "uint256",
              "name": "itemId",
              "type": "uint256"
            },
            {
              "internalType": "address",
              "name": "nftContract",
              "type": "address"
            },
            {
              "internalType": "uint256",
              "name": "tokenId",
              "type": "uint256"
            },
            {
              "internalType": "address payable",
              "name": "seller",
              "type": "address"
            },
            {
              "internalType": "address payable",
              "name": "owner",
              "type": "address"
            },
            {
              "internalType": "uint256",
              "name": "price",
              "type": "uint256"
            },
            {
              "internalType": "bool",
              "name": "sold",
              "type": "bool"
            }
          ],
          "internalType": "struct Marketplace.MarketItem[]",
          "name": "",
          "type": "tuple[]"
        }
      ],
      "stateMutability": "view",
      "type": "function"
    },
    {
      "inputs": [],
      "name": "getListingPrice",
      "outputs": [
        {
          "internalType": "uint256",
          "name": "",
          "type": "uint256"
        }
      ],
      "stateMutability": "view",
      "type": "function"
    },
    {
      "inputs": [],
      "name": "isOwner",
      "outputs": [
        {
          "internalType": "bool",
          "name": "",
          "type": "bool"
        }
      ],
      "stateMutability": "view",
      "type": "function"
    },
    {
      "inputs": [],
      "name": "owner",
      "outputs": [
        {
          "internalType": "address",
          "name": "",
          "type": "address"
        }
      ],
      "stateMutability": "view",
      "type": "function"
    },
    {
      "inputs": [],
      "name": "renounceOwnership",
      "outputs": [],
      "stateMutability": "nonpayable",
      "type": "function"
    },
    {
      "inputs": [
        {
          "internalType": "address",
          "name": "newOwner",
          "type": "address"
        }
      ],
      "name": "transferOwnership",
      "outputs": [],
      "stateMutability": "nonpayable",
      "type": "function"
    }
  ],
  "bytecode": "0x608060405234801561001057600080fd5b50336000806101000a81548173ffffffffffffffffffffffffffffffffffffffff021916908373ffffffffffffffffffffffffffffffffffffffff16021790555060008054906101000a900473ffffffffffffffffffffffffffffffffffffffff1673ffffffffffffffffffffffffffffffffffffffff16600073ffffffffffffffffffffffffffffffffffffffff167f8be0079c531659141344cd1fd0a4f28419497f9722a3daafe3b4186f6b6457e060405160405180910390a360008060186101000a81548163ffffffff021916908363ffffffff1602179055506608e1bc9bf04000600181905550611a3c8061010a6000396000f3fe6080604052600436106100865760003560e01c80638da5cb5b116100595780638da5cb5b146101145780638f32d59b1461013f578063a21183651461016a578063f064c32e14610186578063f2fde38b146101b157610086565b80630f08efe01461008b57806312e85585146100b657806358eb2df5146100e1578063715018a6146100fd575b600080fd5b34801561009757600080fd5b506100a06101da565b6040516100ad9190611656565b60405180910390f35b3480156100c257600080fd5b506100cb610515565b6040516100d891906116f3565b60405180910390f35b6100fb60048036038101906100f69190611310565b61051f565b005b34801561010957600080fd5b5061011261085e565b005b34801561012057600080fd5b5061012961092d565b6040516101369190611596565b60405180910390f35b34801561014b57600080fd5b50610154610956565b6040516101619190611678565b60405180910390f35b610184600480360381019061017f91906112c1565b6109ad565b005b34801561019257600080fd5b5061019b610cb5565b6040516101a89190611656565b60405180910390f35b3480156101bd57600080fd5b506101d860048036038101906101d39190611298565b61105d565b005b606060008060149054906101000a900463ffffffff1663ffffffff16905060008060189054906101000a900463ffffffff16600060149054906101000a900463ffffffff1661022991906117ae565b63ffffffff1690506000808267ffffffffffffffff811115610274577f4e487b7100000000000000000000000000000000000000000000000000000000600052604160045260246000fd5b6040519080825280602002602001820160405280156102ad57816020015b61029a6111c3565b8152602001906001900390816102925790505b50905060005b8481101561050a57600073ffffffffffffffffffffffffffffffffffffffff16600260006001846102e49190611758565b815260200190815260200160002060040160009054906101000a900473ffffffffffffffffffffffffffffffffffffffff1673ffffffffffffffffffffffffffffffffffffffff1614156104f75760006001826103419190611758565b90506000600260008381526020019081526020016000209050806040518060e0016040529081600082015481526020016001820160009054906101000a900473ffffffffffffffffffffffffffffffffffffffff1673ffffffffffffffffffffffffffffffffffffffff1673ffffffffffffffffffffffffffffffffffffffff168152602001600282015481526020016003820160009054906101000a900473ffffffffffffffffffffffffffffffffffffffff1673ffffffffffffffffffffffffffffffffffffffff1673ffffffffffffffffffffffffffffffffffffffff1681526020016004820160009054906101000a900473ffffffffffffffffffffffffffffffffffffffff1673ffffffffffffffffffffffffffffffffffffffff1673ffffffffffffffffffffffffffffffffffffffff168152602001600582015481526020016006820160009054906101000a900460ff1615151515815250508486815181106104da577f4e487b7100000000000000000000000000000000000000000000000000000000600052603260045260246000fd5b60200260200101819052506001856104f29190611758565b945050505b808061050290611882565b9150506102b3565b508094505050505090565b6000600154905090565b60008111610562576040517f08c379a0000000000000000000000000000000000000000000000000000000008152600401610559906116d3565b60405180910390fd5b60015434146105a6576040517f08c379a000000000000000000000000000000000000000000000000000000000815260040161059d906116b3565b60405180910390fd5b6105d26001600060149054906101000a900463ffffffff1663ffffffff1661107a90919063ffffffff16565b5060008060149054906101000a900463ffffffff1663ffffffff1690506040518060e001604052808281526020018573ffffffffffffffffffffffffffffffffffffffff1681526020018481526020013373ffffffffffffffffffffffffffffffffffffffff168152602001600073ffffffffffffffffffffffffffffffffffffffff16815260200183815260200160001515815250600260008381526020019081526020016000206000820151816000015560208201518160010160006101000a81548173ffffffffffffffffffffffffffffffffffffffff021916908373ffffffffffffffffffffffffffffffffffffffff1602179055506040820151816002015560608201518160030160006101000a81548173ffffffffffffffffffffffffffffffffffffffff021916908373ffffffffffffffffffffffffffffffffffffffff16021790555060808201518160040160006101000a81548173ffffffffffffffffffffffffffffffffffffffff021916908373ffffffffffffffffffffffffffffffffffffffff16021790555060a0820151816005015560c08201518160060160006101000a81548160ff0219169083151502179055509050508373ffffffffffffffffffffffffffffffffffffffff166323b872dd3330866040518463ffffffff1660e01b81526004016107ce939291906115da565b600060405180830381600087803b1580156107e857600080fd5b505af11580156107fc573d6000803e3d6000fd5b50505050828473ffffffffffffffffffffffffffffffffffffffff16827f045dfa01dcba2b36aba1d3dc4a874f4b0c5d2fbeb8d2c4b34a7d88c8d8f929d13360008760006040516108509493929190611611565b60405180910390a450505050565b610866610956565b61086f57600080fd5b600073ffffffffffffffffffffffffffffffffffffffff1660008054906101000a900473ffffffffffffffffffffffffffffffffffffffff1673ffffffffffffffffffffffffffffffffffffffff167f8be0079c531659141344cd1fd0a4f28419497f9722a3daafe3b4186f6b6457e060405160405180910390a360008060006101000a81548173ffffffffffffffffffffffffffffffffffffffff021916908373ffffffffffffffffffffffffffffffffffffffff160217905550565b60008060009054906101000a900473ffffffffffffffffffffffffffffffffffffffff16905090565b60008060009054906101000a900473ffffffffffffffffffffffffffffffffffffffff1673ffffffffffffffffffffffffffffffffffffffff163373ffffffffffffffffffffffffffffffffffffffff1614905090565b60006002600083815260200190815260200160002060050154905060006002600084815260200190815260200160002060020154905060008573ffffffffffffffffffffffffffffffffffffffff166370a08231336040518263ffffffff1660e01b8152600401610a1e9190611596565b60206040518083038186803b158015610a3657600080fd5b505afa158015610a4a573d6000803e3d6000fd5b505050506040513d601f19601f82011682018060405250810190610a6e9190611388565b905082811015610ab3576040517f08c379a0000000000000000000000000000000000000000000000000000000008152600401610aaa90611693565b60405180910390fd5b8573ffffffffffffffffffffffffffffffffffffffff1663a9059cbb6002600087815260200190815260200160002060030160009054906101000a900473ffffffffffffffffffffffffffffffffffffffff1660026000888152602001908152602001600020600501546040518363ffffffff1660e01b8152600401610b3a9291906115b1565b602060405180830381600087803b158015610b5457600080fd5b505af1158015610b68573d6000803e3d6000fd5b505050506040513d601f19601f82011682018060405250810190610b8c919061135f565b508473ffffffffffffffffffffffffffffffffffffffff166323b872dd3033856040518463ffffffff1660e01b8152600401610bca939291906115da565b600060405180830381600087803b158015610be457600080fd5b505af1158015610bf8573d6000803e3d6000fd5b50505050336002600086815260200190815260200160002060040160006101000a81548173ffffffffffffffffffffffffffffffffffffffff021916908373ffffffffffffffffffffffffffffffffffffffff16021790555060016002600086815260200190815260200160002060060160006101000a81548160ff021916908315150217905550610cac6001600060189054906101000a900463ffffffff1663ffffffff1661107a90919063ffffffff16565b50505050505050565b606060008060149054906101000a900463ffffffff1663ffffffff16905060008060005b83811015610d7a573373ffffffffffffffffffffffffffffffffffffffff1660026000600184610d099190611758565b815260200190815260200160002060030160009054906101000a900473ffffffffffffffffffffffffffffffffffffffff1673ffffffffffffffffffffffffffffffffffffffff161415610d6757600183610d649190611758565b92505b8080610d7290611882565b915050610cd9565b5060008267ffffffffffffffff811115610dbd577f4e487b7100000000000000000000000000000000000000000000000000000000600052604160045260246000fd5b604051908082528060200260200182016040528015610df657816020015b610de36111c3565b815260200190600190039081610ddb5790505b50905060005b84811015611052573373ffffffffffffffffffffffffffffffffffffffff1660026000600184610e2c9190611758565b815260200190815260200160002060030160009054906101000a900473ffffffffffffffffffffffffffffffffffffffff1673ffffffffffffffffffffffffffffffffffffffff16141561103f576000600182610e899190611758565b90506000600260008381526020019081526020016000209050806040518060e0016040529081600082015481526020016001820160009054906101000a900473ffffffffffffffffffffffffffffffffffffffff1673ffffffffffffffffffffffffffffffffffffffff1673ffffffffffffffffffffffffffffffffffffffff168152602001600282015481526020016003820160009054906101000a900473ffffffffffffffffffffffffffffffffffffffff1673ffffffffffffffffffffffffffffffffffffffff1673ffffffffffffffffffffffffffffffffffffffff1681526020016004820160009054906101000a900473ffffffffffffffffffffffffffffffffffffffff1673ffffffffffffffffffffffffffffffffffffffff1673ffffffffffffffffffffffffffffffffffffffff168152602001600582015481526020016006820160009054906101000a900460ff161515151581525050848681518110611022577f4e487b7100000000000000000000000000000000000000000000000000000000600052603260045260246000fd5b602002602001018190525060018561103a9190611758565b945050505b808061104a90611882565b915050610dfc565b508094505050505090565b611065610956565b61106e57600080fd5b611077816110cc565b50565b60008082846110899190611758565b9050838110156110c2577f4e487b7100000000000000000000000000000000000000000000000000000000600052600160045260246000fd5b8091505092915050565b600073ffffffffffffffffffffffffffffffffffffffff168173ffffffffffffffffffffffffffffffffffffffff16141561110657600080fd5b8073ffffffffffffffffffffffffffffffffffffffff1660008054906101000a900473ffffffffffffffffffffffffffffffffffffffff1673ffffffffffffffffffffffffffffffffffffffff167f8be0079c531659141344cd1fd0a4f28419497f9722a3daafe3b4186f6b6457e060405160405180910390a3806000806101000a81548173ffffffffffffffffffffffffffffffffffffffff021916908373ffffffffffffffffffffffffffffffffffffffff16021790555050565b6040518060e0016040528060008152602001600073ffffffffffffffffffffffffffffffffffffffff16815260200160008152602001600073ffffffffffffffffffffffffffffffffffffffff168152602001600073ffffffffffffffffffffffffffffffffffffffff168152602001600081526020016000151581525090565b600081359050611253816119c1565b92915050565b600081519050611268816119d8565b92915050565b60008135905061127d816119ef565b92915050565b600081519050611292816119ef565b92915050565b6000602082840312156112aa57600080fd5b60006112b884828501611244565b91505092915050565b6000806000606084860312156112d657600080fd5b60006112e486828701611244565b93505060206112f586828701611244565b92505060406113068682870161126e565b9150509250925092565b60008060006060848603121561132557600080fd5b600061133386828701611244565b93505060206113448682870161126e565b92505060406113558682870161126e565b9150509250925092565b60006020828403121561137157600080fd5b600061137f84828501611259565b91505092915050565b60006020828403121561139a57600080fd5b60006113a884828501611283565b91505092915050565b60006113bd83836114ea565b60e08301905092915050565b6113d28161184c565b82525050565b6113e1816117f4565b82525050565b6113f0816117e2565b82525050565b6113ff816117e2565b82525050565b60006114108261171e565b61141a8185611736565b93506114258361170e565b8060005b8381101561145657815161143d88826113b1565b975061144883611729565b925050600181019050611429565b5085935050505092915050565b61146c81611806565b82525050565b61147b81611806565b82525050565b600061148e604083611747565b9150611499826118fa565b604082019050919050565b60006114b1602483611747565b91506114bc82611949565b604082019050919050565b60006114d4601c83611747565b91506114df82611998565b602082019050919050565b60e0820160008201516115006000850182611578565b50602082015161151360208501826113e7565b5060408201516115266040850182611578565b50606082015161153960608501826113d8565b50608082015161154c60808501826113d8565b5060a082015161155f60a0850182611578565b5060c082015161157260c0850182611463565b50505050565b61158181611832565b82525050565b61159081611832565b82525050565b60006020820190506115ab60008301846113f6565b92915050565b60006040820190506115c660008301856113c9565b6115d36020830184611587565b9392505050565b60006060820190506115ef60008301866113f6565b6115fc60208301856113f6565b6116096040830184611587565b949350505050565b600060808201905061162660008301876113f6565b61163360208301866113f6565b6116406040830185611587565b61164d6060830184611472565b95945050505050565b600060208201905081810360008301526116708184611405565b905092915050565b600060208201905061168d6000830184611472565b92915050565b600060208201905081810360008301526116ac81611481565b9050919050565b600060208201905081810360008301526116cc816114a4565b9050919050565b600060208201905081810360008301526116ec816114c7565b9050919050565b60006020820190506117086000830184611587565b92915050565b6000819050602082019050919050565b600081519050919050565b6000602082019050919050565b600082825260208201905092915050565b600082825260208201905092915050565b600061176382611832565b915061176e83611832565b9250827fffffffffffffffffffffffffffffffffffffffffffffffffffffffffffffffff038211156117a3576117a26118cb565b5b828201905092915050565b60006117b98261183c565b91506117c48361183c565b9250828210156117d7576117d66118cb565b5b828203905092915050565b60006117ed82611812565b9050919050565b60006117ff82611812565b9050919050565b60008115159050919050565b600073ffffffffffffffffffffffffffffffffffffffff82169050919050565b6000819050919050565b600063ffffffff82169050919050565b60006118578261185e565b9050919050565b600061186982611870565b9050919050565b600061187b82611812565b9050919050565b600061188d82611832565b91507fffffffffffffffffffffffffffffffffffffffffffffffffffffffffffffffff8214156118c0576118bf6118cb565b5b600182019050919050565b7f4e487b7100000000000000000000000000000000000000000000000000000000600052601160045260246000fd5b7f506c65617365207375626d6974207468652061736b696e67207072696365206960008201527f6e206f7264657220746f20636f6d706c65746520746865207075726368617365602082015250565b7f5072696365206d75737420626520657175616c20746f206c697374696e67207060008201527f7269636500000000000000000000000000000000000000000000000000000000602082015250565b7f5072696365206d757374206265206174206c6561737420312077656900000000600082015250565b6119ca816117e2565b81146119d557600080fd5b50565b6119e181611806565b81146119ec57600080fd5b50565b6119f881611832565b8114611a0357600080fd5b5056fea2646970667358221220924ab7fe2776b294e41cfb16be7b1a62a5abca12d1e5695e7ba47ca0d11b28fa64736f6c63430008040033",
  "linkReferences": {},
  "deployedLinkReferences": {}
}