{
  "_format": "hh-sol-artifact-1",
  "contractName": "Marketplace",
  "sourceName": "contracts/Marketplace.sol",
  "abi": [
    {
      "inputs": [],
      "stateMutability": "nonpayable",
      "type": "constructor"
    },
    {
      "anonymous": false,
      "inputs": [
        {
          "indexed": true,
          "internalType": "uint256",
          "name": "itemId",
          "type": "uint256"
        },
        {
          "indexed": true,
          "internalType": "address",
          "name": "nftContract",
          "type": "address"
        },
        {
          "indexed": true,
          "internalType": "uint256",
          "name": "tokenId",
          "type": "uint256"
        },
        {
          "indexed": false,
          "internalType": "address",
          "name": "seller",
          "type": "address"
        },
        {
          "indexed": false,
          "internalType": "address",
          "name": "owner",
          "type": "address"
        },
        {
          "indexed": false,
          "internalType": "uint256",
          "name": "price",
          "type": "uint256"
        },
        {
          "indexed": false,
          "internalType": "bool",
          "name": "sold",
          "type": "bool"
        }
      ],
      "name": "MarketItemCreated",
      "type": "event"
    },
    {
      "anonymous": false,
      "inputs": [
        {
          "indexed": true,
          "internalType": "address",
          "name": "previousOwner",
          "type": "address"
        },
        {
          "indexed": true,
          "internalType": "address",
          "name": "newOwner",
          "type": "address"
        }
      ],
      "name": "OwnershipTransferred",
      "type": "event"
    },
    {
      "inputs": [
        {
          "internalType": "address",
          "name": "nftContract",
          "type": "address"
        },
        {
          "internalType": "uint256",
          "name": "tokenId",
          "type": "uint256"
        },
        {
          "internalType": "uint256",
          "name": "price",
          "type": "uint256"
        }
      ],
      "name": "createMarketItem",
      "outputs": [
        {
          "internalType": "uint256",
          "name": "",
          "type": "uint256"
        }
      ],
      "stateMutability": "payable",
      "type": "function"
    },
    {
      "inputs": [
        {
          "internalType": "address",
          "name": "tokenContract",
          "type": "address"
        },
        {
          "internalType": "address",
          "name": "nftContract",
          "type": "address"
        },
        {
          "internalType": "uint256",
          "name": "itemId",
          "type": "uint256"
        }
      ],
      "name": "createMarketSale",
      "outputs": [],
      "stateMutability": "payable",
      "type": "function"
    },
    {
      "inputs": [],
      "name": "fetchItemsCreated",
      "outputs": [
        {
          "components": [
            {
              "internalType": "uint256",
              "name": "itemId",
              "type": "uint256"
            },
            {
              "internalType": "address",
              "name": "nftContract",
              "type": "address"
            },
            {
              "internalType": "uint256",
              "name": "tokenId",
              "type": "uint256"
            },
            {
              "internalType": "address payable",
              "name": "seller",
              "type": "address"
            },
            {
              "internalType": "address payable",
              "name": "owner",
              "type": "address"
            },
            {
              "internalType": "uint256",
              "name": "price",
              "type": "uint256"
            },
            {
              "internalType": "bool",
              "name": "sold",
              "type": "bool"
            }
          ],
          "internalType": "struct Marketplace.MarketItem[]",
          "name": "",
          "type": "tuple[]"
        }
      ],
      "stateMutability": "view",
      "type": "function"
    },
    {
      "inputs": [],
      "name": "fetchMarketItems",
      "outputs": [
        {
          "components": [
            {
              "internalType": "uint256",
              "name": "itemId",
              "type": "uint256"
            },
            {
              "internalType": "address",
              "name": "nftContract",
              "type": "address"
            },
            {
              "internalType": "uint256",
              "name": "tokenId",
              "type": "uint256"
            },
            {
              "internalType": "address payable",
              "name": "seller",
              "type": "address"
            },
            {
              "internalType": "address payable",
              "name": "owner",
              "type": "address"
            },
            {
              "internalType": "uint256",
              "name": "price",
              "type": "uint256"
            },
            {
              "internalType": "bool",
              "name": "sold",
              "type": "bool"
            }
          ],
          "internalType": "struct Marketplace.MarketItem[]",
          "name": "",
          "type": "tuple[]"
        }
      ],
      "stateMutability": "view",
      "type": "function"
    },
    {
      "inputs": [],
      "name": "getListingPrice",
      "outputs": [
        {
          "internalType": "uint256",
          "name": "",
          "type": "uint256"
        }
      ],
      "stateMutability": "view",
      "type": "function"
    },
    {
      "inputs": [],
      "name": "getUnsoldItemCount",
      "outputs": [
        {
          "internalType": "uint256",
          "name": "",
          "type": "uint256"
        }
      ],
      "stateMutability": "view",
      "type": "function"
    },
    {
      "inputs": [],
      "name": "isOwner",
      "outputs": [
        {
          "internalType": "bool",
          "name": "",
          "type": "bool"
        }
      ],
      "stateMutability": "view",
      "type": "function"
    },
    {
      "inputs": [
        {
          "internalType": "uint256",
          "name": "",
          "type": "uint256"
        }
      ],
      "name": "marketItems",
      "outputs": [
        {
          "internalType": "uint256",
          "name": "itemId",
          "type": "uint256"
        },
        {
          "internalType": "address",
          "name": "nftContract",
          "type": "address"
        },
        {
          "internalType": "uint256",
          "name": "tokenId",
          "type": "uint256"
        },
        {
          "internalType": "address payable",
          "name": "seller",
          "type": "address"
        },
        {
          "internalType": "address payable",
          "name": "owner",
          "type": "address"
        },
        {
          "internalType": "uint256",
          "name": "price",
          "type": "uint256"
        },
        {
          "internalType": "bool",
          "name": "sold",
          "type": "bool"
        }
      ],
      "stateMutability": "view",
      "type": "function"
    },
    {
      "inputs": [],
      "name": "owner",
      "outputs": [
        {
          "internalType": "address",
          "name": "",
          "type": "address"
        }
      ],
      "stateMutability": "view",
      "type": "function"
    },
    {
      "inputs": [],
      "name": "renounceOwnership",
      "outputs": [],
      "stateMutability": "nonpayable",
      "type": "function"
    },
    {
      "inputs": [],
      "name": "somthing",
      "outputs": [
        {
          "internalType": "uint256",
          "name": "",
          "type": "uint256"
        }
      ],
      "stateMutability": "view",
      "type": "function"
    },
    {
      "inputs": [
        {
          "internalType": "address",
          "name": "newOwner",
          "type": "address"
        }
      ],
      "name": "transferOwnership",
      "outputs": [],
      "stateMutability": "nonpayable",
      "type": "function"
    }
  ],
  "bytecode": "0x608060405234801561001057600080fd5b50336000806101000a81548173ffffffffffffffffffffffffffffffffffffffff021916908373ffffffffffffffffffffffffffffffffffffffff16021790555060008054906101000a900473ffffffffffffffffffffffffffffffffffffffff1673ffffffffffffffffffffffffffffffffffffffff16600073ffffffffffffffffffffffffffffffffffffffff167f8be0079c531659141344cd1fd0a4f28419497f9722a3daafe3b4186f6b6457e060405160405180910390a360008060146101000a81548163ffffffff021916908363ffffffff1602179055506608e1bc9bf04000600181905550611ee08061010a6000396000f3fe6080604052600436106100a75760003560e01c8063715018a611610064578063715018a6146101cb5780638da5cb5b146101e25780638f32d59b1461020d578063a211836514610238578063f064c32e14610254578063f2fde38b1461027f576100a7565b80630f08efe0146100ac57806312e85585146100d75780632832f2d51461010257806351f28e141461012d57806358eb2df514610170578063591ea998146101a0575b600080fd5b3480156100b857600080fd5b506100c16102a8565b6040516100ce9190611a9b565b60405180910390f35b3480156100e357600080fd5b506100ec610603565b6040516100f99190611b38565b60405180910390f35b34801561010e57600080fd5b5061011761060d565b6040516101249190611b38565b60405180910390f35b34801561013957600080fd5b50610154600480360381019061014f919061176c565b61063c565b6040516101679796959493929190611b53565b60405180910390f35b61018a600480360381019061018591906116f4565b6106fb565b6040516101979190611b38565b60405180910390f35b3480156101ac57600080fd5b506101b5610a8a565b6040516101c29190611b38565b60405180910390f35b3480156101d757600080fd5b506101e0610aa9565b005b3480156101ee57600080fd5b506101f7610b78565b60405161020491906119b2565b60405180910390f35b34801561021957600080fd5b50610222610ba1565b60405161022f9190611abd565b60405180910390f35b610252600480360381019061024d91906116a5565b610bf8565b005b34801561026057600080fd5b5061026961103e565b6040516102769190611a9b565b60405180910390f35b34801561028b57600080fd5b506102a660048036038101906102a1919061167c565b611441565b005b606060008060149054906101000a900463ffffffff1663ffffffff166002805490506102d49190611c62565b90506000808267ffffffffffffffff811115610319577f4e487b7100000000000000000000000000000000000000000000000000000000600052604160045260246000fd5b60405190808252806020026020018201604052801561035257816020015b61033f6115a7565b8152602001906001900390816103375790505b50905060005b6002805490508110156105f957600073ffffffffffffffffffffffffffffffffffffffff16600282815481106103b7577f4e487b7100000000000000000000000000000000000000000000000000000000600052603260045260246000fd5b906000526020600020906007020160040160009054906101000a900473ffffffffffffffffffffffffffffffffffffffff1673ffffffffffffffffffffffffffffffffffffffff1614156105e6576002818154811061043f577f4e487b7100000000000000000000000000000000000000000000000000000000600052603260045260246000fd5b90600052602060002090600702016040518060e0016040529081600082015481526020016001820160009054906101000a900473ffffffffffffffffffffffffffffffffffffffff1673ffffffffffffffffffffffffffffffffffffffff1673ffffffffffffffffffffffffffffffffffffffff168152602001600282015481526020016003820160009054906101000a900473ffffffffffffffffffffffffffffffffffffffff1673ffffffffffffffffffffffffffffffffffffffff1673ffffffffffffffffffffffffffffffffffffffff1681526020016004820160009054906101000a900473ffffffffffffffffffffffffffffffffffffffff1673ffffffffffffffffffffffffffffffffffffffff1673ffffffffffffffffffffffffffffffffffffffff168152602001600582015481526020016006820160009054906101000a900460ff1615151515815250508284815181106105cc577f4e487b7100000000000000000000000000000000000000000000000000000000600052603260045260246000fd5b602002602001018190525082806105e290611d26565b9350505b80806105f190611d26565b915050610358565b5080935050505090565b6000600154905090565b60008060149054906101000a900463ffffffff1663ffffffff166002805490506106379190611c62565b905090565b6002818154811061064c57600080fd5b90600052602060002090600702016000915090508060000154908060010160009054906101000a900473ffffffffffffffffffffffffffffffffffffffff16908060020154908060030160009054906101000a900473ffffffffffffffffffffffffffffffffffffffff16908060040160009054906101000a900473ffffffffffffffffffffffffffffffffffffffff16908060050154908060060160009054906101000a900460ff16905087565b600080821161073f576040517f08c379a000000000000000000000000000000000000000000000000000000000815260040161073690611b18565b60405180910390fd5b6001543414610783576040517f08c379a000000000000000000000000000000000000000000000000000000000815260040161077a90611af8565b60405180910390fd5b6000600280549050905060026040518060e001604052808381526020018773ffffffffffffffffffffffffffffffffffffffff1681526020018681526020013373ffffffffffffffffffffffffffffffffffffffff168152602001600073ffffffffffffffffffffffffffffffffffffffff1681526020018581526020016000151581525090806001815401808255809150506001900390600052602060002090600702016000909190919091506000820151816000015560208201518160010160006101000a81548173ffffffffffffffffffffffffffffffffffffffff021916908373ffffffffffffffffffffffffffffffffffffffff1602179055506040820151816002015560608201518160030160006101000a81548173ffffffffffffffffffffffffffffffffffffffff021916908373ffffffffffffffffffffffffffffffffffffffff16021790555060808201518160040160006101000a81548173ffffffffffffffffffffffffffffffffffffffff021916908373ffffffffffffffffffffffffffffffffffffffff16021790555060a0820151816005015560c08201518160060160006101000a81548160ff02191690831515021790555050508473ffffffffffffffffffffffffffffffffffffffff1663095ea7b330866040518363ffffffff1660e01b8152600401610981929190611a72565b600060405180830381600087803b15801561099b57600080fd5b505af11580156109af573d6000803e3d6000fd5b505050508473ffffffffffffffffffffffffffffffffffffffff166323b872dd3330876040518463ffffffff1660e01b81526004016109f0939291906119f6565b600060405180830381600087803b158015610a0a57600080fd5b505af1158015610a1e573d6000803e3d6000fd5b50505050838573ffffffffffffffffffffffffffffffffffffffff16827f045dfa01dcba2b36aba1d3dc4a874f4b0c5d2fbeb8d2c4b34a7d88c8d8f929d1336000886000604051610a729493929190611a2d565b60405180910390a46002805490509150509392505050565b60008060149054906101000a900463ffffffff1663ffffffff16905090565b610ab1610ba1565b610aba57600080fd5b600073ffffffffffffffffffffffffffffffffffffffff1660008054906101000a900473ffffffffffffffffffffffffffffffffffffffff1673ffffffffffffffffffffffffffffffffffffffff167f8be0079c531659141344cd1fd0a4f28419497f9722a3daafe3b4186f6b6457e060405160405180910390a360008060006101000a81548173ffffffffffffffffffffffffffffffffffffffff021916908373ffffffffffffffffffffffffffffffffffffffff160217905550565b60008060009054906101000a900473ffffffffffffffffffffffffffffffffffffffff16905090565b60008060009054906101000a900473ffffffffffffffffffffffffffffffffffffffff1673ffffffffffffffffffffffffffffffffffffffff163373ffffffffffffffffffffffffffffffffffffffff1614905090565b600060028281548110610c34577f4e487b7100000000000000000000000000000000000000000000000000000000600052603260045260246000fd5b9060005260206000209060070201600501549050600060028381548110610c84577f4e487b7100000000000000000000000000000000000000000000000000000000600052603260045260246000fd5b906000526020600020906007020160020154905060008573ffffffffffffffffffffffffffffffffffffffff166370a08231336040518263ffffffff1660e01b8152600401610cd391906119b2565b60206040518083038186803b158015610ceb57600080fd5b505afa158015610cff573d6000803e3d6000fd5b505050506040513d601f19601f82011682018060405250810190610d239190611795565b905082811015610d68576040517f08c379a0000000000000000000000000000000000000000000000000000000008152600401610d5f90611ad8565b60405180910390fd5b8573ffffffffffffffffffffffffffffffffffffffff1663a9059cbb60028681548110610dbe577f4e487b7100000000000000000000000000000000000000000000000000000000600052603260045260246000fd5b906000526020600020906007020160030160009054906101000a900473ffffffffffffffffffffffffffffffffffffffff1660028781548110610e2a577f4e487b7100000000000000000000000000000000000000000000000000000000600052603260045260246000fd5b9060005260206000209060070201600501546040518363ffffffff1660e01b8152600401610e599291906119cd565b602060405180830381600087803b158015610e7357600080fd5b505af1158015610e87573d6000803e3d6000fd5b505050506040513d601f19601f82011682018060405250810190610eab9190611743565b508473ffffffffffffffffffffffffffffffffffffffff166323b872dd3033856040518463ffffffff1660e01b8152600401610ee9939291906119f6565b600060405180830381600087803b158015610f0357600080fd5b505af1158015610f17573d6000803e3d6000fd5b505050503360028581548110610f56577f4e487b7100000000000000000000000000000000000000000000000000000000600052603260045260246000fd5b906000526020600020906007020160040160006101000a81548173ffffffffffffffffffffffffffffffffffffffff021916908373ffffffffffffffffffffffffffffffffffffffff160217905550600160028581548110610fe1577f4e487b7100000000000000000000000000000000000000000000000000000000600052603260045260246000fd5b906000526020600020906007020160060160006101000a81548160ff0219169083151502179055506110356001600060149054906101000a900463ffffffff1663ffffffff1661145e90919063ffffffff16565b50505050505050565b606060008060005b600280549050811015611115573373ffffffffffffffffffffffffffffffffffffffff16600282815481106110a4577f4e487b7100000000000000000000000000000000000000000000000000000000600052603260045260246000fd5b906000526020600020906007020160030160009054906101000a900473ffffffffffffffffffffffffffffffffffffffff1673ffffffffffffffffffffffffffffffffffffffff161415611102576001836110ff9190611c0c565b92505b808061110d90611d26565b915050611046565b5060008267ffffffffffffffff811115611158577f4e487b7100000000000000000000000000000000000000000000000000000000600052604160045260246000fd5b60405190808252806020026020018201604052801561119157816020015b61117e6115a7565b8152602001906001900390816111765790505b50905060005b600280549050811015611437573373ffffffffffffffffffffffffffffffffffffffff16600282815481106111f5577f4e487b7100000000000000000000000000000000000000000000000000000000600052603260045260246000fd5b906000526020600020906007020160030160009054906101000a900473ffffffffffffffffffffffffffffffffffffffff1673ffffffffffffffffffffffffffffffffffffffff161415611424576002818154811061127d577f4e487b7100000000000000000000000000000000000000000000000000000000600052603260045260246000fd5b90600052602060002090600702016040518060e0016040529081600082015481526020016001820160009054906101000a900473ffffffffffffffffffffffffffffffffffffffff1673ffffffffffffffffffffffffffffffffffffffff1673ffffffffffffffffffffffffffffffffffffffff168152602001600282015481526020016003820160009054906101000a900473ffffffffffffffffffffffffffffffffffffffff1673ffffffffffffffffffffffffffffffffffffffff1673ffffffffffffffffffffffffffffffffffffffff1681526020016004820160009054906101000a900473ffffffffffffffffffffffffffffffffffffffff1673ffffffffffffffffffffffffffffffffffffffff1673ffffffffffffffffffffffffffffffffffffffff168152602001600582015481526020016006820160009054906101000a900460ff16151515158152505082848151811061140a577f4e487b7100000000000000000000000000000000000000000000000000000000600052603260045260246000fd5b6020026020010181905250828061142090611d26565b9350505b808061142f90611d26565b915050611197565b5080935050505090565b611449610ba1565b61145257600080fd5b61145b816114b0565b50565b600080828461146d9190611c0c565b9050838110156114a6577f4e487b7100000000000000000000000000000000000000000000000000000000600052600160045260246000fd5b8091505092915050565b600073ffffffffffffffffffffffffffffffffffffffff168173ffffffffffffffffffffffffffffffffffffffff1614156114ea57600080fd5b8073ffffffffffffffffffffffffffffffffffffffff1660008054906101000a900473ffffffffffffffffffffffffffffffffffffffff1673ffffffffffffffffffffffffffffffffffffffff167f8be0079c531659141344cd1fd0a4f28419497f9722a3daafe3b4186f6b6457e060405160405180910390a3806000806101000a81548173ffffffffffffffffffffffffffffffffffffffff021916908373ffffffffffffffffffffffffffffffffffffffff16021790555050565b6040518060e0016040528060008152602001600073ffffffffffffffffffffffffffffffffffffffff16815260200160008152602001600073ffffffffffffffffffffffffffffffffffffffff168152602001600073ffffffffffffffffffffffffffffffffffffffff168152602001600081526020016000151581525090565b60008135905061163781611e65565b92915050565b60008151905061164c81611e7c565b92915050565b60008135905061166181611e93565b92915050565b60008151905061167681611e93565b92915050565b60006020828403121561168e57600080fd5b600061169c84828501611628565b91505092915050565b6000806000606084860312156116ba57600080fd5b60006116c886828701611628565b93505060206116d986828701611628565b92505060406116ea86828701611652565b9150509250925092565b60008060006060848603121561170957600080fd5b600061171786828701611628565b935050602061172886828701611652565b925050604061173986828701611652565b9150509250925092565b60006020828403121561175557600080fd5b60006117638482850161163d565b91505092915050565b60006020828403121561177e57600080fd5b600061178c84828501611652565b91505092915050565b6000602082840312156117a757600080fd5b60006117b584828501611667565b91505092915050565b60006117ca8383611906565b60e08301905092915050565b6117df81611cf0565b82525050565b6117ee81611ca8565b82525050565b6117fd81611ca8565b82525050565b61180c81611c96565b82525050565b61181b81611c96565b82525050565b600061182c82611bd2565b6118368185611bea565b935061184183611bc2565b8060005b8381101561187257815161185988826117be565b975061186483611bdd565b925050600181019050611845565b5085935050505092915050565b61188881611cba565b82525050565b61189781611cba565b82525050565b60006118aa604083611bfb565b91506118b582611d9e565b604082019050919050565b60006118cd602483611bfb565b91506118d882611ded565b604082019050919050565b60006118f0601c83611bfb565b91506118fb82611e3c565b602082019050919050565b60e08201600082015161191c6000850182611994565b50602082015161192f6020850182611803565b5060408201516119426040850182611994565b50606082015161195560608501826117e5565b50608082015161196860808501826117e5565b5060a082015161197b60a0850182611994565b5060c082015161198e60c085018261187f565b50505050565b61199d81611ce6565b82525050565b6119ac81611ce6565b82525050565b60006020820190506119c76000830184611812565b92915050565b60006040820190506119e260008301856117d6565b6119ef60208301846119a3565b9392505050565b6000606082019050611a0b6000830186611812565b611a186020830185611812565b611a2560408301846119a3565b949350505050565b6000608082019050611a426000830187611812565b611a4f6020830186611812565b611a5c60408301856119a3565b611a69606083018461188e565b95945050505050565b6000604082019050611a876000830185611812565b611a9460208301846119a3565b9392505050565b60006020820190508181036000830152611ab58184611821565b905092915050565b6000602082019050611ad2600083018461188e565b92915050565b60006020820190508181036000830152611af18161189d565b9050919050565b60006020820190508181036000830152611b11816118c0565b9050919050565b60006020820190508181036000830152611b31816118e3565b9050919050565b6000602082019050611b4d60008301846119a3565b92915050565b600060e082019050611b68600083018a6119a3565b611b756020830189611812565b611b8260408301886119a3565b611b8f60608301876117f4565b611b9c60808301866117f4565b611ba960a08301856119a3565b611bb660c083018461188e565b98975050505050505050565b6000819050602082019050919050565b600081519050919050565b6000602082019050919050565b600082825260208201905092915050565b600082825260208201905092915050565b6000611c1782611ce6565b9150611c2283611ce6565b9250827fffffffffffffffffffffffffffffffffffffffffffffffffffffffffffffffff03821115611c5757611c56611d6f565b5b828201905092915050565b6000611c6d82611ce6565b9150611c7883611ce6565b925082821015611c8b57611c8a611d6f565b5b828203905092915050565b6000611ca182611cc6565b9050919050565b6000611cb382611cc6565b9050919050565b60008115159050919050565b600073ffffffffffffffffffffffffffffffffffffffff82169050919050565b6000819050919050565b6000611cfb82611d02565b9050919050565b6000611d0d82611d14565b9050919050565b6000611d1f82611cc6565b9050919050565b6000611d3182611ce6565b91507fffffffffffffffffffffffffffffffffffffffffffffffffffffffffffffffff821415611d6457611d63611d6f565b5b600182019050919050565b7f4e487b7100000000000000000000000000000000000000000000000000000000600052601160045260246000fd5b7f506c65617365207375626d6974207468652061736b696e67207072696365206960008201527f6e206f7264657220746f20636f6d706c65746520746865207075726368617365602082015250565b7f5072696365206d75737420626520657175616c20746f206c697374696e67207060008201527f7269636500000000000000000000000000000000000000000000000000000000602082015250565b7f5072696365206d757374206265206174206c6561737420312077656900000000600082015250565b611e6e81611c96565b8114611e7957600080fd5b50565b611e8581611cba565b8114611e9057600080fd5b50565b611e9c81611ce6565b8114611ea757600080fd5b5056fea2646970667358221220fe9ecc06cf5e2252e2a79d19b02411ef9cb5e77d216f49690871037dc800995d64736f6c63430008040033",
  "linkReferences": {},
  "deployedLinkReferences": {}
}