{
  "_format": "hh-sol-artifact-1",
  "contractName": "Marketplace",
  "sourceName": "contracts/Marketplace.sol",
  "abi": [
    {
      "inputs": [],
      "stateMutability": "nonpayable",
      "type": "constructor"
    },
    {
      "anonymous": false,
      "inputs": [
        {
          "indexed": true,
          "internalType": "uint256",
          "name": "itemId",
          "type": "uint256"
        },
        {
          "indexed": true,
          "internalType": "address",
          "name": "nftContract",
          "type": "address"
        },
        {
          "indexed": true,
          "internalType": "uint256",
          "name": "tokenId",
          "type": "uint256"
        },
        {
          "indexed": false,
          "internalType": "address",
          "name": "seller",
          "type": "address"
        },
        {
          "indexed": false,
          "internalType": "address",
          "name": "owner",
          "type": "address"
        },
        {
          "indexed": false,
          "internalType": "uint256",
          "name": "price",
          "type": "uint256"
        },
        {
          "indexed": false,
          "internalType": "bool",
          "name": "sold",
          "type": "bool"
        }
      ],
      "name": "MarketItemCreated",
      "type": "event"
    },
    {
      "anonymous": false,
      "inputs": [
        {
          "indexed": true,
          "internalType": "address",
          "name": "previousOwner",
          "type": "address"
        },
        {
          "indexed": true,
          "internalType": "address",
          "name": "newOwner",
          "type": "address"
        }
      ],
      "name": "OwnershipTransferred",
      "type": "event"
    },
    {
      "inputs": [
        {
          "internalType": "address",
          "name": "nftContract",
          "type": "address"
        },
        {
          "internalType": "uint256",
          "name": "tokenId",
          "type": "uint256"
        },
        {
          "internalType": "uint256",
          "name": "price",
          "type": "uint256"
        }
      ],
      "name": "createMarketItem",
      "outputs": [
        {
          "internalType": "uint256",
          "name": "",
          "type": "uint256"
        }
      ],
      "stateMutability": "payable",
      "type": "function"
    },
    {
      "inputs": [
        {
          "internalType": "address",
          "name": "tokenContract",
          "type": "address"
        },
        {
          "internalType": "address",
          "name": "nftContract",
          "type": "address"
        },
        {
          "internalType": "uint256",
          "name": "itemId",
          "type": "uint256"
        }
      ],
      "name": "createMarketSale",
      "outputs": [],
      "stateMutability": "payable",
      "type": "function"
    },
    {
      "inputs": [],
      "name": "fetchItemsCreated",
      "outputs": [
        {
          "components": [
            {
              "internalType": "uint256",
              "name": "itemId",
              "type": "uint256"
            },
            {
              "internalType": "address",
              "name": "nftContract",
              "type": "address"
            },
            {
              "internalType": "uint256",
              "name": "tokenId",
              "type": "uint256"
            },
            {
              "internalType": "address payable",
              "name": "seller",
              "type": "address"
            },
            {
              "internalType": "address payable",
              "name": "owner",
              "type": "address"
            },
            {
              "internalType": "uint256",
              "name": "price",
              "type": "uint256"
            },
            {
              "internalType": "bool",
              "name": "sold",
              "type": "bool"
            }
          ],
          "internalType": "struct Marketplace.MarketItem[]",
          "name": "",
          "type": "tuple[]"
        }
      ],
      "stateMutability": "view",
      "type": "function"
    },
    {
      "inputs": [],
      "name": "fetchMarketItems",
      "outputs": [
        {
          "components": [
            {
              "internalType": "uint256",
              "name": "itemId",
              "type": "uint256"
            },
            {
              "internalType": "address",
              "name": "nftContract",
              "type": "address"
            },
            {
              "internalType": "uint256",
              "name": "tokenId",
              "type": "uint256"
            },
            {
              "internalType": "address payable",
              "name": "seller",
              "type": "address"
            },
            {
              "internalType": "address payable",
              "name": "owner",
              "type": "address"
            },
            {
              "internalType": "uint256",
              "name": "price",
              "type": "uint256"
            },
            {
              "internalType": "bool",
              "name": "sold",
              "type": "bool"
            }
          ],
          "internalType": "struct Marketplace.MarketItem[]",
          "name": "",
          "type": "tuple[]"
        }
      ],
      "stateMutability": "view",
      "type": "function"
    },
    {
      "inputs": [],
      "name": "getListingPrice",
      "outputs": [
        {
          "internalType": "uint256",
          "name": "",
          "type": "uint256"
        }
      ],
      "stateMutability": "view",
      "type": "function"
    },
    {
      "inputs": [],
      "name": "getUnsoldItemCount",
      "outputs": [
        {
          "internalType": "uint256",
          "name": "",
          "type": "uint256"
        }
      ],
      "stateMutability": "view",
      "type": "function"
    },
    {
      "inputs": [],
      "name": "isOwner",
      "outputs": [
        {
          "internalType": "bool",
          "name": "",
          "type": "bool"
        }
      ],
      "stateMutability": "view",
      "type": "function"
    },
    {
      "inputs": [
        {
          "internalType": "uint256",
          "name": "",
          "type": "uint256"
        }
      ],
      "name": "marketItems",
      "outputs": [
        {
          "internalType": "uint256",
          "name": "itemId",
          "type": "uint256"
        },
        {
          "internalType": "address",
          "name": "nftContract",
          "type": "address"
        },
        {
          "internalType": "uint256",
          "name": "tokenId",
          "type": "uint256"
        },
        {
          "internalType": "address payable",
          "name": "seller",
          "type": "address"
        },
        {
          "internalType": "address payable",
          "name": "owner",
          "type": "address"
        },
        {
          "internalType": "uint256",
          "name": "price",
          "type": "uint256"
        },
        {
          "internalType": "bool",
          "name": "sold",
          "type": "bool"
        }
      ],
      "stateMutability": "view",
      "type": "function"
    },
    {
      "inputs": [],
      "name": "owner",
      "outputs": [
        {
          "internalType": "address",
          "name": "",
          "type": "address"
        }
      ],
      "stateMutability": "view",
      "type": "function"
    },
    {
      "inputs": [],
      "name": "renounceOwnership",
      "outputs": [],
      "stateMutability": "nonpayable",
      "type": "function"
    },
    {
      "inputs": [
        {
          "internalType": "address",
          "name": "newOwner",
          "type": "address"
        }
      ],
      "name": "transferOwnership",
      "outputs": [],
      "stateMutability": "nonpayable",
      "type": "function"
    }
  ],
  "bytecode": "0x608060405234801561001057600080fd5b50336000806101000a81548173ffffffffffffffffffffffffffffffffffffffff021916908373ffffffffffffffffffffffffffffffffffffffff16021790555060008054906101000a900473ffffffffffffffffffffffffffffffffffffffff1673ffffffffffffffffffffffffffffffffffffffff16600073ffffffffffffffffffffffffffffffffffffffff167f8be0079c531659141344cd1fd0a4f28419497f9722a3daafe3b4186f6b6457e060405160405180910390a360008060146101000a81548163ffffffff021916908363ffffffff1602179055506608e1bc9bf04000600181905550611fe18061010a6000396000f3fe60806040526004361061009c5760003560e01c8063715018a611610064578063715018a6146101955780638da5cb5b146101ac5780638f32d59b146101d7578063a211836514610202578063f064c32e1461021e578063f2fde38b146102495761009c565b80630f08efe0146100a157806312e85585146100cc5780632832f2d5146100f757806351f28e141461012257806358eb2df514610165575b600080fd5b3480156100ad57600080fd5b506100b6610272565b6040516100c39190611b53565b60405180910390f35b3480156100d857600080fd5b506100e16105cd565b6040516100ee9190611c10565b60405180910390f35b34801561010357600080fd5b5061010c6105d7565b6040516101199190611c10565b60405180910390f35b34801561012e57600080fd5b50610149600480360381019061014491906117f3565b610606565b60405161015c9796959493929190611c2b565b60405180910390f35b61017f600480360381019061017a919061177b565b6106c5565b60405161018c9190611c10565b60405180910390f35b3480156101a157600080fd5b506101aa610a54565b005b3480156101b857600080fd5b506101c1610b23565b6040516101ce9190611a5c565b60405180910390f35b3480156101e357600080fd5b506101ec610b4c565b6040516101f99190611b75565b60405180910390f35b61021c6004803603810190610217919061172c565b610ba3565b005b34801561022a57600080fd5b506102336110c5565b6040516102409190611b53565b60405180910390f35b34801561025557600080fd5b50610270600480360381019061026b9190611703565b6114c8565b005b606060008060149054906101000a900463ffffffff1663ffffffff1660028054905061029e9190611d3a565b90506000808267ffffffffffffffff8111156102e3577f4e487b7100000000000000000000000000000000000000000000000000000000600052604160045260246000fd5b60405190808252806020026020018201604052801561031c57816020015b61030961162e565b8152602001906001900390816103015790505b50905060005b6002805490508110156105c357600073ffffffffffffffffffffffffffffffffffffffff1660028281548110610381577f4e487b7100000000000000000000000000000000000000000000000000000000600052603260045260246000fd5b906000526020600020906007020160040160009054906101000a900473ffffffffffffffffffffffffffffffffffffffff1673ffffffffffffffffffffffffffffffffffffffff1614156105b05760028181548110610409577f4e487b7100000000000000000000000000000000000000000000000000000000600052603260045260246000fd5b90600052602060002090600702016040518060e0016040529081600082015481526020016001820160009054906101000a900473ffffffffffffffffffffffffffffffffffffffff1673ffffffffffffffffffffffffffffffffffffffff1673ffffffffffffffffffffffffffffffffffffffff168152602001600282015481526020016003820160009054906101000a900473ffffffffffffffffffffffffffffffffffffffff1673ffffffffffffffffffffffffffffffffffffffff1673ffffffffffffffffffffffffffffffffffffffff1681526020016004820160009054906101000a900473ffffffffffffffffffffffffffffffffffffffff1673ffffffffffffffffffffffffffffffffffffffff1673ffffffffffffffffffffffffffffffffffffffff168152602001600582015481526020016006820160009054906101000a900460ff161515151581525050828481518110610596577f4e487b7100000000000000000000000000000000000000000000000000000000600052603260045260246000fd5b602002602001018190525082806105ac90611dfe565b9350505b80806105bb90611dfe565b915050610322565b5080935050505090565b6000600154905090565b60008060149054906101000a900463ffffffff1663ffffffff166002805490506106019190611d3a565b905090565b6002818154811061061657600080fd5b90600052602060002090600702016000915090508060000154908060010160009054906101000a900473ffffffffffffffffffffffffffffffffffffffff16908060020154908060030160009054906101000a900473ffffffffffffffffffffffffffffffffffffffff16908060040160009054906101000a900473ffffffffffffffffffffffffffffffffffffffff16908060050154908060060160009054906101000a900460ff16905087565b6000808211610709576040517f08c379a000000000000000000000000000000000000000000000000000000000815260040161070090611bf0565b60405180910390fd5b600154341461074d576040517f08c379a000000000000000000000000000000000000000000000000000000000815260040161074490611bd0565b60405180910390fd5b6000600280549050905060026040518060e001604052808381526020018773ffffffffffffffffffffffffffffffffffffffff1681526020018681526020013373ffffffffffffffffffffffffffffffffffffffff168152602001600073ffffffffffffffffffffffffffffffffffffffff1681526020018581526020016000151581525090806001815401808255809150506001900390600052602060002090600702016000909190919091506000820151816000015560208201518160010160006101000a81548173ffffffffffffffffffffffffffffffffffffffff021916908373ffffffffffffffffffffffffffffffffffffffff1602179055506040820151816002015560608201518160030160006101000a81548173ffffffffffffffffffffffffffffffffffffffff021916908373ffffffffffffffffffffffffffffffffffffffff16021790555060808201518160040160006101000a81548173ffffffffffffffffffffffffffffffffffffffff021916908373ffffffffffffffffffffffffffffffffffffffff16021790555060a0820151816005015560c08201518160060160006101000a81548160ff02191690831515021790555050508473ffffffffffffffffffffffffffffffffffffffff1663095ea7b330866040518363ffffffff1660e01b815260040161094b929190611b2a565b600060405180830381600087803b15801561096557600080fd5b505af1158015610979573d6000803e3d6000fd5b505050508473ffffffffffffffffffffffffffffffffffffffff166323b872dd3330876040518463ffffffff1660e01b81526004016109ba93929190611aae565b600060405180830381600087803b1580156109d457600080fd5b505af11580156109e8573d6000803e3d6000fd5b50505050838573ffffffffffffffffffffffffffffffffffffffff16827f045dfa01dcba2b36aba1d3dc4a874f4b0c5d2fbeb8d2c4b34a7d88c8d8f929d1336000886000604051610a3c9493929190611ae5565b60405180910390a46002805490509150509392505050565b610a5c610b4c565b610a6557600080fd5b600073ffffffffffffffffffffffffffffffffffffffff1660008054906101000a900473ffffffffffffffffffffffffffffffffffffffff1673ffffffffffffffffffffffffffffffffffffffff167f8be0079c531659141344cd1fd0a4f28419497f9722a3daafe3b4186f6b6457e060405160405180910390a360008060006101000a81548173ffffffffffffffffffffffffffffffffffffffff021916908373ffffffffffffffffffffffffffffffffffffffff160217905550565b60008060009054906101000a900473ffffffffffffffffffffffffffffffffffffffff16905090565b60008060009054906101000a900473ffffffffffffffffffffffffffffffffffffffff1673ffffffffffffffffffffffffffffffffffffffff163373ffffffffffffffffffffffffffffffffffffffff1614905090565b60028181548110610bdd577f4e487b7100000000000000000000000000000000000000000000000000000000600052603260045260246000fd5b906000526020600020906007020160030160009054906101000a900473ffffffffffffffffffffffffffffffffffffffff1673ffffffffffffffffffffffffffffffffffffffff163373ffffffffffffffffffffffffffffffffffffffff161415610c7d576040517f08c379a0000000000000000000000000000000000000000000000000000000008152600401610c7490611b90565b60405180910390fd5b600060028281548110610cb9577f4e487b7100000000000000000000000000000000000000000000000000000000600052603260045260246000fd5b9060005260206000209060070201600501549050600060028381548110610d09577f4e487b7100000000000000000000000000000000000000000000000000000000600052603260045260246000fd5b906000526020600020906007020160020154905060008573ffffffffffffffffffffffffffffffffffffffff166370a08231336040518263ffffffff1660e01b8152600401610d589190611a5c565b60206040518083038186803b158015610d7057600080fd5b505afa158015610d84573d6000803e3d6000fd5b505050506040513d601f19601f82011682018060405250810190610da8919061181c565b905082811015610ded576040517f08c379a0000000000000000000000000000000000000000000000000000000008152600401610de490611bb0565b60405180910390fd5b8573ffffffffffffffffffffffffffffffffffffffff166323b872dd3360028781548110610e44577f4e487b7100000000000000000000000000000000000000000000000000000000600052603260045260246000fd5b906000526020600020906007020160030160009054906101000a900473ffffffffffffffffffffffffffffffffffffffff1660028881548110610eb0577f4e487b7100000000000000000000000000000000000000000000000000000000600052603260045260246000fd5b9060005260206000209060070201600501546040518463ffffffff1660e01b8152600401610ee093929190611a77565b602060405180830381600087803b158015610efa57600080fd5b505af1158015610f0e573d6000803e3d6000fd5b505050506040513d601f19601f82011682018060405250810190610f3291906117ca565b508473ffffffffffffffffffffffffffffffffffffffff166323b872dd3033856040518463ffffffff1660e01b8152600401610f7093929190611aae565b600060405180830381600087803b158015610f8a57600080fd5b505af1158015610f9e573d6000803e3d6000fd5b505050503360028581548110610fdd577f4e487b7100000000000000000000000000000000000000000000000000000000600052603260045260246000fd5b906000526020600020906007020160040160006101000a81548173ffffffffffffffffffffffffffffffffffffffff021916908373ffffffffffffffffffffffffffffffffffffffff160217905550600160028581548110611068577f4e487b7100000000000000000000000000000000000000000000000000000000600052603260045260246000fd5b906000526020600020906007020160060160006101000a81548160ff0219169083151502179055506110bc6001600060149054906101000a900463ffffffff1663ffffffff166114e590919063ffffffff16565b50505050505050565b606060008060005b60028054905081101561119c573373ffffffffffffffffffffffffffffffffffffffff166002828154811061112b577f4e487b7100000000000000000000000000000000000000000000000000000000600052603260045260246000fd5b906000526020600020906007020160030160009054906101000a900473ffffffffffffffffffffffffffffffffffffffff1673ffffffffffffffffffffffffffffffffffffffff161415611189576001836111869190611ce4565b92505b808061119490611dfe565b9150506110cd565b5060008267ffffffffffffffff8111156111df577f4e487b7100000000000000000000000000000000000000000000000000000000600052604160045260246000fd5b60405190808252806020026020018201604052801561121857816020015b61120561162e565b8152602001906001900390816111fd5790505b50905060005b6002805490508110156114be573373ffffffffffffffffffffffffffffffffffffffff166002828154811061127c577f4e487b7100000000000000000000000000000000000000000000000000000000600052603260045260246000fd5b906000526020600020906007020160030160009054906101000a900473ffffffffffffffffffffffffffffffffffffffff1673ffffffffffffffffffffffffffffffffffffffff1614156114ab5760028181548110611304577f4e487b7100000000000000000000000000000000000000000000000000000000600052603260045260246000fd5b90600052602060002090600702016040518060e0016040529081600082015481526020016001820160009054906101000a900473ffffffffffffffffffffffffffffffffffffffff1673ffffffffffffffffffffffffffffffffffffffff1673ffffffffffffffffffffffffffffffffffffffff168152602001600282015481526020016003820160009054906101000a900473ffffffffffffffffffffffffffffffffffffffff1673ffffffffffffffffffffffffffffffffffffffff1673ffffffffffffffffffffffffffffffffffffffff1681526020016004820160009054906101000a900473ffffffffffffffffffffffffffffffffffffffff1673ffffffffffffffffffffffffffffffffffffffff1673ffffffffffffffffffffffffffffffffffffffff168152602001600582015481526020016006820160009054906101000a900460ff161515151581525050828481518110611491577f4e487b7100000000000000000000000000000000000000000000000000000000600052603260045260246000fd5b602002602001018190525082806114a790611dfe565b9350505b80806114b690611dfe565b91505061121e565b5080935050505090565b6114d0610b4c565b6114d957600080fd5b6114e281611537565b50565b60008082846114f49190611ce4565b90508381101561152d577f4e487b7100000000000000000000000000000000000000000000000000000000600052600160045260246000fd5b8091505092915050565b600073ffffffffffffffffffffffffffffffffffffffff168173ffffffffffffffffffffffffffffffffffffffff16141561157157600080fd5b8073ffffffffffffffffffffffffffffffffffffffff1660008054906101000a900473ffffffffffffffffffffffffffffffffffffffff1673ffffffffffffffffffffffffffffffffffffffff167f8be0079c531659141344cd1fd0a4f28419497f9722a3daafe3b4186f6b6457e060405160405180910390a3806000806101000a81548173ffffffffffffffffffffffffffffffffffffffff021916908373ffffffffffffffffffffffffffffffffffffffff16021790555050565b6040518060e0016040528060008152602001600073ffffffffffffffffffffffffffffffffffffffff16815260200160008152602001600073ffffffffffffffffffffffffffffffffffffffff168152602001600073ffffffffffffffffffffffffffffffffffffffff168152602001600081526020016000151581525090565b6000813590506116be81611f66565b92915050565b6000815190506116d381611f7d565b92915050565b6000813590506116e881611f94565b92915050565b6000815190506116fd81611f94565b92915050565b60006020828403121561171557600080fd5b6000611723848285016116af565b91505092915050565b60008060006060848603121561174157600080fd5b600061174f868287016116af565b9350506020611760868287016116af565b9250506040611771868287016116d9565b9150509250925092565b60008060006060848603121561179057600080fd5b600061179e868287016116af565b93505060206117af868287016116d9565b92505060406117c0868287016116d9565b9150509250925092565b6000602082840312156117dc57600080fd5b60006117ea848285016116c4565b91505092915050565b60006020828403121561180557600080fd5b6000611813848285016116d9565b91505092915050565b60006020828403121561182e57600080fd5b600061183c848285016116ee565b91505092915050565b600061185183836119b0565b60e08301905092915050565b61186681611dc8565b82525050565b61187581611d80565b82525050565b61188481611d80565b82525050565b61189381611d6e565b82525050565b6118a281611d6e565b82525050565b60006118b382611caa565b6118bd8185611cc2565b93506118c883611c9a565b8060005b838110156118f95781516118e08882611845565b97506118eb83611cb5565b9250506001810190506118cc565b5085935050505092915050565b61190f81611d92565b82525050565b61191e81611d92565b82525050565b6000611931601c83611cd3565b915061193c82611e76565b602082019050919050565b6000611954604083611cd3565b915061195f82611e9f565b604082019050919050565b6000611977602483611cd3565b915061198282611eee565b604082019050919050565b600061199a601c83611cd3565b91506119a582611f3d565b602082019050919050565b60e0820160008201516119c66000850182611a3e565b5060208201516119d9602085018261188a565b5060408201516119ec6040850182611a3e565b5060608201516119ff606085018261186c565b506080820151611a12608085018261186c565b5060a0820151611a2560a0850182611a3e565b5060c0820151611a3860c0850182611906565b50505050565b611a4781611dbe565b82525050565b611a5681611dbe565b82525050565b6000602082019050611a716000830184611899565b92915050565b6000606082019050611a8c6000830186611899565b611a99602083018561185d565b611aa66040830184611a4d565b949350505050565b6000606082019050611ac36000830186611899565b611ad06020830185611899565b611add6040830184611a4d565b949350505050565b6000608082019050611afa6000830187611899565b611b076020830186611899565b611b146040830185611a4d565b611b216060830184611915565b95945050505050565b6000604082019050611b3f6000830185611899565b611b4c6020830184611a4d565b9392505050565b60006020820190508181036000830152611b6d81846118a8565b905092915050565b6000602082019050611b8a6000830184611915565b92915050565b60006020820190508181036000830152611ba981611924565b9050919050565b60006020820190508181036000830152611bc981611947565b9050919050565b60006020820190508181036000830152611be98161196a565b9050919050565b60006020820190508181036000830152611c098161198d565b9050919050565b6000602082019050611c256000830184611a4d565b92915050565b600060e082019050611c40600083018a611a4d565b611c4d6020830189611899565b611c5a6040830188611a4d565b611c67606083018761187b565b611c74608083018661187b565b611c8160a0830185611a4d565b611c8e60c0830184611915565b98975050505050505050565b6000819050602082019050919050565b600081519050919050565b6000602082019050919050565b600082825260208201905092915050565b600082825260208201905092915050565b6000611cef82611dbe565b9150611cfa83611dbe565b9250827fffffffffffffffffffffffffffffffffffffffffffffffffffffffffffffffff03821115611d2f57611d2e611e47565b5b828201905092915050565b6000611d4582611dbe565b9150611d5083611dbe565b925082821015611d6357611d62611e47565b5b828203905092915050565b6000611d7982611d9e565b9050919050565b6000611d8b82611d9e565b9050919050565b60008115159050919050565b600073ffffffffffffffffffffffffffffffffffffffff82169050919050565b6000819050919050565b6000611dd382611dda565b9050919050565b6000611de582611dec565b9050919050565b6000611df782611d9e565b9050919050565b6000611e0982611dbe565b91507fffffffffffffffffffffffffffffffffffffffffffffffffffffffffffffffff821415611e3c57611e3b611e47565b5b600182019050919050565b7f4e487b7100000000000000000000000000000000000000000000000000000000600052601160045260246000fd5b7f596f752063616e6e6f742062757920796f7572206f776e206974656d00000000600082015250565b7f506c65617365207375626d6974207468652061736b696e67207072696365206960008201527f6e206f7264657220746f20636f6d706c65746520746865207075726368617365602082015250565b7f5072696365206d75737420626520657175616c20746f206c697374696e67207060008201527f7269636500000000000000000000000000000000000000000000000000000000602082015250565b7f5072696365206d757374206265206174206c6561737420312077656900000000600082015250565b611f6f81611d6e565b8114611f7a57600080fd5b50565b611f8681611d92565b8114611f9157600080fd5b50565b611f9d81611dbe565b8114611fa857600080fd5b5056fea2646970667358221220f58f1d1bc6ee9a87201ae1ded7def251f22023a62c60c8989b80901fb96c0d2a64736f6c63430008040033",
  "linkReferences": {},
  "deployedLinkReferences": {}
}