{
  "_format": "hh-sol-artifact-1",
  "contractName": "Marketplace",
  "sourceName": "contracts/Marketplace.sol",
  "abi": [
    {
      "inputs": [],
      "stateMutability": "nonpayable",
      "type": "constructor"
    },
    {
      "anonymous": false,
      "inputs": [
        {
          "indexed": true,
          "internalType": "uint256",
          "name": "itemId",
          "type": "uint256"
        },
        {
          "indexed": true,
          "internalType": "address",
          "name": "nftContract",
          "type": "address"
        },
        {
          "indexed": true,
          "internalType": "uint256",
          "name": "tokenId",
          "type": "uint256"
        },
        {
          "indexed": false,
          "internalType": "address",
          "name": "seller",
          "type": "address"
        },
        {
          "indexed": false,
          "internalType": "address",
          "name": "owner",
          "type": "address"
        },
        {
          "indexed": false,
          "internalType": "uint256",
          "name": "price",
          "type": "uint256"
        },
        {
          "indexed": false,
          "internalType": "bool",
          "name": "sold",
          "type": "bool"
        }
      ],
      "name": "MarketItemCreated",
      "type": "event"
    },
    {
      "anonymous": false,
      "inputs": [
        {
          "indexed": true,
          "internalType": "address",
          "name": "previousOwner",
          "type": "address"
        },
        {
          "indexed": true,
          "internalType": "address",
          "name": "newOwner",
          "type": "address"
        }
      ],
      "name": "OwnershipTransferred",
      "type": "event"
    },
    {
      "inputs": [
        {
          "internalType": "address",
          "name": "nftContract",
          "type": "address"
        },
        {
          "internalType": "uint256",
          "name": "tokenId",
          "type": "uint256"
        },
        {
          "internalType": "uint256",
          "name": "price",
          "type": "uint256"
        }
      ],
      "name": "createMarketItem",
      "outputs": [],
      "stateMutability": "payable",
      "type": "function"
    },
    {
      "inputs": [
        {
          "internalType": "address",
          "name": "tokenContract",
          "type": "address"
        },
        {
          "internalType": "address",
          "name": "nftContract",
          "type": "address"
        },
        {
          "internalType": "uint256",
          "name": "itemId",
          "type": "uint256"
        }
      ],
      "name": "createMarketSale",
      "outputs": [],
      "stateMutability": "payable",
      "type": "function"
    },
    {
      "inputs": [],
      "name": "fetchItemsCreated",
      "outputs": [
        {
          "components": [
            {
              "internalType": "uint256",
              "name": "itemId",
              "type": "uint256"
            },
            {
              "internalType": "address",
              "name": "nftContract",
              "type": "address"
            },
            {
              "internalType": "uint256",
              "name": "tokenId",
              "type": "uint256"
            },
            {
              "internalType": "address payable",
              "name": "seller",
              "type": "address"
            },
            {
              "internalType": "address payable",
              "name": "owner",
              "type": "address"
            },
            {
              "internalType": "uint256",
              "name": "price",
              "type": "uint256"
            },
            {
              "internalType": "bool",
              "name": "sold",
              "type": "bool"
            }
          ],
          "internalType": "struct Marketplace.MarketItem[]",
          "name": "",
          "type": "tuple[]"
        }
      ],
      "stateMutability": "view",
      "type": "function"
    },
    {
      "inputs": [],
      "name": "fetchMarketItems",
      "outputs": [
        {
          "components": [
            {
              "internalType": "uint256",
              "name": "itemId",
              "type": "uint256"
            },
            {
              "internalType": "address",
              "name": "nftContract",
              "type": "address"
            },
            {
              "internalType": "uint256",
              "name": "tokenId",
              "type": "uint256"
            },
            {
              "internalType": "address payable",
              "name": "seller",
              "type": "address"
            },
            {
              "internalType": "address payable",
              "name": "owner",
              "type": "address"
            },
            {
              "internalType": "uint256",
              "name": "price",
              "type": "uint256"
            },
            {
              "internalType": "bool",
              "name": "sold",
              "type": "bool"
            }
          ],
          "internalType": "struct Marketplace.MarketItem[]",
          "name": "",
          "type": "tuple[]"
        }
      ],
      "stateMutability": "view",
      "type": "function"
    },
    {
      "inputs": [],
      "name": "getListingPrice",
      "outputs": [
        {
          "internalType": "uint256",
          "name": "",
          "type": "uint256"
        }
      ],
      "stateMutability": "view",
      "type": "function"
    },
    {
      "inputs": [],
      "name": "getUnsoldItemCount",
      "outputs": [
        {
          "internalType": "uint32",
          "name": "",
          "type": "uint32"
        }
      ],
      "stateMutability": "view",
      "type": "function"
    },
    {
      "inputs": [],
      "name": "isOwner",
      "outputs": [
        {
          "internalType": "bool",
          "name": "",
          "type": "bool"
        }
      ],
      "stateMutability": "view",
      "type": "function"
    },
    {
      "inputs": [],
      "name": "owner",
      "outputs": [
        {
          "internalType": "address",
          "name": "",
          "type": "address"
        }
      ],
      "stateMutability": "view",
      "type": "function"
    },
    {
      "inputs": [],
      "name": "renounceOwnership",
      "outputs": [],
      "stateMutability": "nonpayable",
      "type": "function"
    },
    {
      "inputs": [
        {
          "internalType": "address",
          "name": "newOwner",
          "type": "address"
        }
      ],
      "name": "transferOwnership",
      "outputs": [],
      "stateMutability": "nonpayable",
      "type": "function"
    }
  ],
  "bytecode": "0x608060405234801561001057600080fd5b50336000806101000a81548173ffffffffffffffffffffffffffffffffffffffff021916908373ffffffffffffffffffffffffffffffffffffffff16021790555060008054906101000a900473ffffffffffffffffffffffffffffffffffffffff1673ffffffffffffffffffffffffffffffffffffffff16600073ffffffffffffffffffffffffffffffffffffffff167f8be0079c531659141344cd1fd0a4f28419497f9722a3daafe3b4186f6b6457e060405160405180910390a360008060186101000a81548163ffffffff021916908363ffffffff1602179055506608e1bc9bf04000600181905550611ad28061010a6000396000f3fe6080604052600436106100915760003560e01c80638da5cb5b116100595780638da5cb5b1461014a5780638f32d59b14610175578063a2118365146101a0578063f064c32e146101bc578063f2fde38b146101e757610091565b80630f08efe01461009657806312e85585146100c15780632832f2d5146100ec57806358eb2df514610117578063715018a614610133575b600080fd5b3480156100a257600080fd5b506100ab610210565b6040516100b891906116d1565b60405180910390f35b3480156100cd57600080fd5b506100d661054b565b6040516100e3919061176e565b60405180910390f35b3480156100f857600080fd5b50610101610555565b60405161010e9190611789565b60405180910390f35b610131600480360381019061012c919061137c565b61058b565b005b34801561013f57600080fd5b506101486108ca565b005b34801561015657600080fd5b5061015f610999565b60405161016c9190611611565b60405180910390f35b34801561018157600080fd5b5061018a6109c2565b60405161019791906116f3565b60405180910390f35b6101ba60048036038101906101b5919061132d565b610a19565b005b3480156101c857600080fd5b506101d1610d21565b6040516101de91906116d1565b60405180910390f35b3480156101f357600080fd5b5061020e60048036038101906102099190611304565b6110c9565b005b606060008060149054906101000a900463ffffffff1663ffffffff16905060008060189054906101000a900463ffffffff16600060149054906101000a900463ffffffff1661025f9190611844565b63ffffffff1690506000808267ffffffffffffffff8111156102aa577f4e487b7100000000000000000000000000000000000000000000000000000000600052604160045260246000fd5b6040519080825280602002602001820160405280156102e357816020015b6102d061122f565b8152602001906001900390816102c85790505b50905060005b8481101561054057600073ffffffffffffffffffffffffffffffffffffffff166002600060018461031a91906117ee565b815260200190815260200160002060040160009054906101000a900473ffffffffffffffffffffffffffffffffffffffff1673ffffffffffffffffffffffffffffffffffffffff16141561052d57600060018261037791906117ee565b90506000600260008381526020019081526020016000209050806040518060e0016040529081600082015481526020016001820160009054906101000a900473ffffffffffffffffffffffffffffffffffffffff1673ffffffffffffffffffffffffffffffffffffffff1673ffffffffffffffffffffffffffffffffffffffff168152602001600282015481526020016003820160009054906101000a900473ffffffffffffffffffffffffffffffffffffffff1673ffffffffffffffffffffffffffffffffffffffff1673ffffffffffffffffffffffffffffffffffffffff1681526020016004820160009054906101000a900473ffffffffffffffffffffffffffffffffffffffff1673ffffffffffffffffffffffffffffffffffffffff1673ffffffffffffffffffffffffffffffffffffffff168152602001600582015481526020016006820160009054906101000a900460ff161515151581525050848681518110610510577f4e487b7100000000000000000000000000000000000000000000000000000000600052603260045260246000fd5b602002602001018190525060018561052891906117ee565b945050505b808061053890611918565b9150506102e9565b508094505050505090565b6000600154905090565b60008060189054906101000a900463ffffffff16600060149054906101000a900463ffffffff166105869190611844565b905090565b600081116105ce576040517f08c379a00000000000000000000000000000000000000000000000000000000081526004016105c59061174e565b60405180910390fd5b6001543414610612576040517f08c379a00000000000000000000000000000000000000000000000000000000081526004016106099061172e565b60405180910390fd5b61063e6001600060149054906101000a900463ffffffff1663ffffffff166110e690919063ffffffff16565b5060008060149054906101000a900463ffffffff1663ffffffff1690506040518060e001604052808281526020018573ffffffffffffffffffffffffffffffffffffffff1681526020018481526020013373ffffffffffffffffffffffffffffffffffffffff168152602001600073ffffffffffffffffffffffffffffffffffffffff16815260200183815260200160001515815250600260008381526020019081526020016000206000820151816000015560208201518160010160006101000a81548173ffffffffffffffffffffffffffffffffffffffff021916908373ffffffffffffffffffffffffffffffffffffffff1602179055506040820151816002015560608201518160030160006101000a81548173ffffffffffffffffffffffffffffffffffffffff021916908373ffffffffffffffffffffffffffffffffffffffff16021790555060808201518160040160006101000a81548173ffffffffffffffffffffffffffffffffffffffff021916908373ffffffffffffffffffffffffffffffffffffffff16021790555060a0820151816005015560c08201518160060160006101000a81548160ff0219169083151502179055509050508373ffffffffffffffffffffffffffffffffffffffff166323b872dd3330866040518463ffffffff1660e01b815260040161083a93929190611655565b600060405180830381600087803b15801561085457600080fd5b505af1158015610868573d6000803e3d6000fd5b50505050828473ffffffffffffffffffffffffffffffffffffffff16827f045dfa01dcba2b36aba1d3dc4a874f4b0c5d2fbeb8d2c4b34a7d88c8d8f929d13360008760006040516108bc949392919061168c565b60405180910390a450505050565b6108d26109c2565b6108db57600080fd5b600073ffffffffffffffffffffffffffffffffffffffff1660008054906101000a900473ffffffffffffffffffffffffffffffffffffffff1673ffffffffffffffffffffffffffffffffffffffff167f8be0079c531659141344cd1fd0a4f28419497f9722a3daafe3b4186f6b6457e060405160405180910390a360008060006101000a81548173ffffffffffffffffffffffffffffffffffffffff021916908373ffffffffffffffffffffffffffffffffffffffff160217905550565b60008060009054906101000a900473ffffffffffffffffffffffffffffffffffffffff16905090565b60008060009054906101000a900473ffffffffffffffffffffffffffffffffffffffff1673ffffffffffffffffffffffffffffffffffffffff163373ffffffffffffffffffffffffffffffffffffffff1614905090565b60006002600083815260200190815260200160002060050154905060006002600084815260200190815260200160002060020154905060008573ffffffffffffffffffffffffffffffffffffffff166370a08231336040518263ffffffff1660e01b8152600401610a8a9190611611565b60206040518083038186803b158015610aa257600080fd5b505afa158015610ab6573d6000803e3d6000fd5b505050506040513d601f19601f82011682018060405250810190610ada91906113f4565b905082811015610b1f576040517f08c379a0000000000000000000000000000000000000000000000000000000008152600401610b169061170e565b60405180910390fd5b8573ffffffffffffffffffffffffffffffffffffffff1663a9059cbb6002600087815260200190815260200160002060030160009054906101000a900473ffffffffffffffffffffffffffffffffffffffff1660026000888152602001908152602001600020600501546040518363ffffffff1660e01b8152600401610ba692919061162c565b602060405180830381600087803b158015610bc057600080fd5b505af1158015610bd4573d6000803e3d6000fd5b505050506040513d601f19601f82011682018060405250810190610bf891906113cb565b508473ffffffffffffffffffffffffffffffffffffffff166323b872dd3033856040518463ffffffff1660e01b8152600401610c3693929190611655565b600060405180830381600087803b158015610c5057600080fd5b505af1158015610c64573d6000803e3d6000fd5b50505050336002600086815260200190815260200160002060040160006101000a81548173ffffffffffffffffffffffffffffffffffffffff021916908373ffffffffffffffffffffffffffffffffffffffff16021790555060016002600086815260200190815260200160002060060160006101000a81548160ff021916908315150217905550610d186001600060189054906101000a900463ffffffff1663ffffffff166110e690919063ffffffff16565b50505050505050565b606060008060149054906101000a900463ffffffff1663ffffffff16905060008060005b83811015610de6573373ffffffffffffffffffffffffffffffffffffffff1660026000600184610d7591906117ee565b815260200190815260200160002060030160009054906101000a900473ffffffffffffffffffffffffffffffffffffffff1673ffffffffffffffffffffffffffffffffffffffff161415610dd357600183610dd091906117ee565b92505b8080610dde90611918565b915050610d45565b5060008267ffffffffffffffff811115610e29577f4e487b7100000000000000000000000000000000000000000000000000000000600052604160045260246000fd5b604051908082528060200260200182016040528015610e6257816020015b610e4f61122f565b815260200190600190039081610e475790505b50905060005b848110156110be573373ffffffffffffffffffffffffffffffffffffffff1660026000600184610e9891906117ee565b815260200190815260200160002060030160009054906101000a900473ffffffffffffffffffffffffffffffffffffffff1673ffffffffffffffffffffffffffffffffffffffff1614156110ab576000600182610ef591906117ee565b90506000600260008381526020019081526020016000209050806040518060e0016040529081600082015481526020016001820160009054906101000a900473ffffffffffffffffffffffffffffffffffffffff1673ffffffffffffffffffffffffffffffffffffffff1673ffffffffffffffffffffffffffffffffffffffff168152602001600282015481526020016003820160009054906101000a900473ffffffffffffffffffffffffffffffffffffffff1673ffffffffffffffffffffffffffffffffffffffff1673ffffffffffffffffffffffffffffffffffffffff1681526020016004820160009054906101000a900473ffffffffffffffffffffffffffffffffffffffff1673ffffffffffffffffffffffffffffffffffffffff1673ffffffffffffffffffffffffffffffffffffffff168152602001600582015481526020016006820160009054906101000a900460ff16151515158152505084868151811061108e577f4e487b7100000000000000000000000000000000000000000000000000000000600052603260045260246000fd5b60200260200101819052506001856110a691906117ee565b945050505b80806110b690611918565b915050610e68565b508094505050505090565b6110d16109c2565b6110da57600080fd5b6110e381611138565b50565b60008082846110f591906117ee565b90508381101561112e577f4e487b7100000000000000000000000000000000000000000000000000000000600052600160045260246000fd5b8091505092915050565b600073ffffffffffffffffffffffffffffffffffffffff168173ffffffffffffffffffffffffffffffffffffffff16141561117257600080fd5b8073ffffffffffffffffffffffffffffffffffffffff1660008054906101000a900473ffffffffffffffffffffffffffffffffffffffff1673ffffffffffffffffffffffffffffffffffffffff167f8be0079c531659141344cd1fd0a4f28419497f9722a3daafe3b4186f6b6457e060405160405180910390a3806000806101000a81548173ffffffffffffffffffffffffffffffffffffffff021916908373ffffffffffffffffffffffffffffffffffffffff16021790555050565b6040518060e0016040528060008152602001600073ffffffffffffffffffffffffffffffffffffffff16815260200160008152602001600073ffffffffffffffffffffffffffffffffffffffff168152602001600073ffffffffffffffffffffffffffffffffffffffff168152602001600081526020016000151581525090565b6000813590506112bf81611a57565b92915050565b6000815190506112d481611a6e565b92915050565b6000813590506112e981611a85565b92915050565b6000815190506112fe81611a85565b92915050565b60006020828403121561131657600080fd5b6000611324848285016112b0565b91505092915050565b60008060006060848603121561134257600080fd5b6000611350868287016112b0565b9350506020611361868287016112b0565b9250506040611372868287016112da565b9150509250925092565b60008060006060848603121561139157600080fd5b600061139f868287016112b0565b93505060206113b0868287016112da565b92505060406113c1868287016112da565b9150509250925092565b6000602082840312156113dd57600080fd5b60006113eb848285016112c5565b91505092915050565b60006020828403121561140657600080fd5b6000611414848285016112ef565b91505092915050565b60006114298383611556565b60e08301905092915050565b61143e816118e2565b82525050565b61144d8161188a565b82525050565b61145c81611878565b82525050565b61146b81611878565b82525050565b600061147c826117b4565b61148681856117cc565b9350611491836117a4565b8060005b838110156114c25781516114a9888261141d565b97506114b4836117bf565b925050600181019050611495565b5085935050505092915050565b6114d88161189c565b82525050565b6114e78161189c565b82525050565b60006114fa6040836117dd565b915061150582611990565b604082019050919050565b600061151d6024836117dd565b9150611528826119df565b604082019050919050565b6000611540601c836117dd565b915061154b82611a2e565b602082019050919050565b60e08201600082015161156c60008501826115e4565b50602082015161157f6020850182611453565b50604082015161159260408501826115e4565b5060608201516115a56060850182611444565b5060808201516115b86080850182611444565b5060a08201516115cb60a08501826115e4565b5060c08201516115de60c08501826114cf565b50505050565b6115ed816118c8565b82525050565b6115fc816118c8565b82525050565b61160b816118d2565b82525050565b60006020820190506116266000830184611462565b92915050565b60006040820190506116416000830185611435565b61164e60208301846115f3565b9392505050565b600060608201905061166a6000830186611462565b6116776020830185611462565b61168460408301846115f3565b949350505050565b60006080820190506116a16000830187611462565b6116ae6020830186611462565b6116bb60408301856115f3565b6116c860608301846114de565b95945050505050565b600060208201905081810360008301526116eb8184611471565b905092915050565b600060208201905061170860008301846114de565b92915050565b60006020820190508181036000830152611727816114ed565b9050919050565b6000602082019050818103600083015261174781611510565b9050919050565b6000602082019050818103600083015261176781611533565b9050919050565b600060208201905061178360008301846115f3565b92915050565b600060208201905061179e6000830184611602565b92915050565b6000819050602082019050919050565b600081519050919050565b6000602082019050919050565b600082825260208201905092915050565b600082825260208201905092915050565b60006117f9826118c8565b9150611804836118c8565b9250827fffffffffffffffffffffffffffffffffffffffffffffffffffffffffffffffff0382111561183957611838611961565b5b828201905092915050565b600061184f826118d2565b915061185a836118d2565b92508282101561186d5761186c611961565b5b828203905092915050565b6000611883826118a8565b9050919050565b6000611895826118a8565b9050919050565b60008115159050919050565b600073ffffffffffffffffffffffffffffffffffffffff82169050919050565b6000819050919050565b600063ffffffff82169050919050565b60006118ed826118f4565b9050919050565b60006118ff82611906565b9050919050565b6000611911826118a8565b9050919050565b6000611923826118c8565b91507fffffffffffffffffffffffffffffffffffffffffffffffffffffffffffffffff82141561195657611955611961565b5b600182019050919050565b7f4e487b7100000000000000000000000000000000000000000000000000000000600052601160045260246000fd5b7f506c65617365207375626d6974207468652061736b696e67207072696365206960008201527f6e206f7264657220746f20636f6d706c65746520746865207075726368617365602082015250565b7f5072696365206d75737420626520657175616c20746f206c697374696e67207060008201527f7269636500000000000000000000000000000000000000000000000000000000602082015250565b7f5072696365206d757374206265206174206c6561737420312077656900000000600082015250565b611a6081611878565b8114611a6b57600080fd5b50565b611a778161189c565b8114611a8257600080fd5b50565b611a8e816118c8565b8114611a9957600080fd5b5056fea264697066735822122007285e2e47003d0db2c1d77bad61e3a38f47ba90b2e7d13eb8e0832cff9a4d2e64736f6c63430008040033",
  "linkReferences": {},
  "deployedLinkReferences": {}
}