{
  "_format": "hh-sol-artifact-1",
  "contractName": "BattleShipCombat",
  "sourceName": "contracts/BattleShipCombat.sol",
  "abi": [
    {
      "anonymous": false,
      "inputs": [
        {
          "indexed": false,
          "internalType": "uint256",
          "name": "shipId",
          "type": "uint256"
        }
      ],
      "name": "NewBattleShip",
      "type": "event"
    },
    {
      "anonymous": false,
      "inputs": [
        {
          "indexed": true,
          "internalType": "address",
          "name": "previousOwner",
          "type": "address"
        },
        {
          "indexed": true,
          "internalType": "address",
          "name": "newOwner",
          "type": "address"
        }
      ],
      "name": "OwnershipTransferred",
      "type": "event"
    },
    {
      "inputs": [
        {
          "internalType": "uint256",
          "name": "",
          "type": "uint256"
        }
      ],
      "name": "battleShips",
      "outputs": [
        {
          "internalType": "uint256",
          "name": "shipType",
          "type": "uint256"
        },
        {
          "internalType": "uint256",
          "name": "exp",
          "type": "uint256"
        },
        {
          "internalType": "uint32",
          "name": "level",
          "type": "uint32"
        },
        {
          "internalType": "uint256",
          "name": "health",
          "type": "uint256"
        },
        {
          "internalType": "uint256",
          "name": "damage",
          "type": "uint256"
        }
      ],
      "stateMutability": "view",
      "type": "function"
    },
    {
      "inputs": [
        {
          "internalType": "address",
          "name": "tokenAddress",
          "type": "address"
        }
      ],
      "name": "createRandomBattleShip",
      "outputs": [],
      "stateMutability": "nonpayable",
      "type": "function"
    },
    {
      "inputs": [
        {
          "internalType": "address",
          "name": "_owner",
          "type": "address"
        }
      ],
      "name": "getShipsByOwner",
      "outputs": [
        {
          "internalType": "uint256[]",
          "name": "",
          "type": "uint256[]"
        }
      ],
      "stateMutability": "view",
      "type": "function"
    },
    {
      "inputs": [],
      "name": "isOwner",
      "outputs": [
        {
          "internalType": "bool",
          "name": "",
          "type": "bool"
        }
      ],
      "stateMutability": "view",
      "type": "function"
    },
    {
      "inputs": [],
      "name": "owner",
      "outputs": [
        {
          "internalType": "address",
          "name": "",
          "type": "address"
        }
      ],
      "stateMutability": "view",
      "type": "function"
    },
    {
      "inputs": [],
      "name": "renounceOwnership",
      "outputs": [],
      "stateMutability": "nonpayable",
      "type": "function"
    },
    {
      "inputs": [
        {
          "internalType": "uint256",
          "name": "_fee",
          "type": "uint256"
        }
      ],
      "name": "setLevelUpFee",
      "outputs": [],
      "stateMutability": "nonpayable",
      "type": "function"
    },
    {
      "inputs": [
        {
          "internalType": "uint256",
          "name": "_shipId",
          "type": "uint256"
        }
      ],
      "name": "shipLevelUp",
      "outputs": [],
      "stateMutability": "payable",
      "type": "function"
    },
    {
      "inputs": [
        {
          "internalType": "uint256",
          "name": "_shipId",
          "type": "uint256"
        }
      ],
      "name": "shipURI",
      "outputs": [
        {
          "internalType": "string",
          "name": "",
          "type": "string"
        }
      ],
      "stateMutability": "view",
      "type": "function"
    },
    {
      "inputs": [
        {
          "internalType": "uint256",
          "name": "_shipId",
          "type": "uint256"
        },
        {
          "internalType": "uint16",
          "name": "killCount",
          "type": "uint16"
        }
      ],
      "name": "slainEnemies",
      "outputs": [],
      "stateMutability": "nonpayable",
      "type": "function"
    },
    {
      "inputs": [
        {
          "internalType": "address",
          "name": "newOwner",
          "type": "address"
        }
      ],
      "name": "transferOwnership",
      "outputs": [],
      "stateMutability": "nonpayable",
      "type": "function"
    },
    {
      "inputs": [],
      "name": "withdraw",
      "outputs": [],
      "stateMutability": "nonpayable",
      "type": "function"
    }
  ],
  "bytecode": "0x6080604052601e600260006101000a81548161ffff021916908361ffff1602179055506509184e72a00060055534801561003857600080fd5b50336000806101000a81548173ffffffffffffffffffffffffffffffffffffffff021916908373ffffffffffffffffffffffffffffffffffffffff16021790555060008054906101000a900473ffffffffffffffffffffffffffffffffffffffff1673ffffffffffffffffffffffffffffffffffffffff16600073ffffffffffffffffffffffffffffffffffffffff167f8be0079c531659141344cd1fd0a4f28419497f9722a3daafe3b4186f6b6457e060405160405180910390a3611a56806101036000396000f3fe6080604052600436106100a75760003560e01c8063a1fc85de11610064578063a1fc85de14610182578063a8e23a36146101bf578063cacc9e0b146101fc578063ccf670f81461023d578063ce8a2f3d14610266578063f2fde38b14610282576100a7565b806306fb6326146100ac5780633ccfd60b146100d5578063590cd721146100ec578063715018a6146101155780638da5cb5b1461012c5780638f32d59b14610157575b600080fd5b3480156100b857600080fd5b506100d360048036038101906100ce919061122e565b6102ab565b005b3480156100e157600080fd5b506100ea61064b565b005b3480156100f857600080fd5b50610113600480360381019061010e91906112a9565b6106b2565b005b34801561012157600080fd5b5061012a610976565b005b34801561013857600080fd5b50610141610a45565b60405161014e91906114e1565b60405180910390f35b34801561016357600080fd5b5061016c610a6e565b6040516101799190611547565b60405180910390f35b34801561018e57600080fd5b506101a960048036038101906101a49190611257565b610ac5565b6040516101b69190611562565b60405180910390f35b3480156101cb57600080fd5b506101e660048036038101906101e1919061122e565b610bb4565b6040516101f39190611525565b60405180910390f35b34801561020857600080fd5b50610223600480360381019061021e9190611257565b610d53565b6040516102349594939291906115df565b60405180910390f35b34801561024957600080fd5b50610264600480360381019061025f9190611257565b610da9565b005b610280600480360381019061027b9190611257565b610dc4565b005b34801561028e57600080fd5b506102a960048036038101906102a4919061122e565b610eb2565b005b600260009054906101000a900461ffff1661ffff168173ffffffffffffffffffffffffffffffffffffffff166370a08231336040518263ffffffff1660e01b81526004016102f991906114e1565b60206040518083038186803b15801561031157600080fd5b505afa158015610325573d6000803e3d6000fd5b505050506040513d601f19601f820116820180604052508101906103499190611280565b11610389576040517f08c379a000000000000000000000000000000000000000000000000000000000815260040161038090611584565b60405180910390fd5b6000610393610ecf565b905060006103d66040518060400160405280600381526020017f646d67000000000000000000000000000000000000000000000000000000000081525083610f47565b905060006003826103e79190611753565b6104266040518060400160405280600281526020017f687000000000000000000000000000000000000000000000000000000000000081525085610f47565b6104309190611692565b905060016040518060a0016040528085815260200160008152602001600163ffffffff168152602001838152602001848152509080600181540180825580915050600190039060005260206000209060050201600090919091909150600082015181600001556020820151816001015560408201518160020160006101000a81548163ffffffff021916908363ffffffff16021790555060608201518160030155608082015181600401555050600060018054905090506001600460003373ffffffffffffffffffffffffffffffffffffffff1673ffffffffffffffffffffffffffffffffffffffff16815260200190815260200160002060008282546105379190611692565b92505081905550336003600083815260200190815260200160002060006101000a81548173ffffffffffffffffffffffffffffffffffffffff021916908373ffffffffffffffffffffffffffffffffffffffff1602179055508473ffffffffffffffffffffffffffffffffffffffff16639dc29fac33600260009054906101000a900461ffff166040518363ffffffff1660e01b81526004016105db9291906114fc565b600060405180830381600087803b1580156105f557600080fd5b505af1158015610609573d6000803e3d6000fd5b505050507f489c3e474816917eca955f4c7664a3bdb292d84aa72bb5246c73dfb300e795ae8160405161063c91906115c4565b60405180910390a15050505050565b610653610a6e565b61065c57600080fd5b6000610666610a45565b90508073ffffffffffffffffffffffffffffffffffffffff166108fc479081150290604051600060405180830381858888f193505050501580156106ae573d6000803e3d6000fd5b5050565b813373ffffffffffffffffffffffffffffffffffffffff166003600083815260200190815260200160002060009054906101000a900473ffffffffffffffffffffffffffffffffffffffff1673ffffffffffffffffffffffffffffffffffffffff1614610754576040517f08c379a000000000000000000000000000000000000000000000000000000000815260040161074b906115a4565b60405180910390fd5b600060018481548110610790577f4e487b7100000000000000000000000000000000000000000000000000000000600052603260045260246000fd5b90600052602060002090600502019050600a8160020160009054906101000a900463ffffffff1663ffffffff1610156108e457600a8160020160009054906101000a900463ffffffff166107e491906117ad565b63ffffffff168361ffff1682600101546107fe9190611692565b11156108c657600a8160020160009054906101000a900463ffffffff1661082591906117ad565b63ffffffff168361ffff16826001015461083f9190611692565b61084991906118e9565b816001018190555061087f60018260020160009054906101000a900463ffffffff1663ffffffff16610fb290919063ffffffff16565b8160020160006101000a81548163ffffffff021916908363ffffffff1602179055506108b96005826004015461101090919063ffffffff16565b81600401819055506108e3565b8261ffff1681600101546108da9190611692565b81600101819055505b5b61091260018260020160009054906101000a900463ffffffff1663ffffffff16610fb290919063ffffffff16565b8160020160006101000a81548163ffffffff021916908363ffffffff160217905550610962600a8260020160009054906101000a900463ffffffff1663ffffffff1661106290919063ffffffff16565b63ffffffff16816004018190555050505050565b61097e610a6e565b61098757600080fd5b600073ffffffffffffffffffffffffffffffffffffffff1660008054906101000a900473ffffffffffffffffffffffffffffffffffffffff1673ffffffffffffffffffffffffffffffffffffffff167f8be0079c531659141344cd1fd0a4f28419497f9722a3daafe3b4186f6b6457e060405160405180910390a360008060006101000a81548173ffffffffffffffffffffffffffffffffffffffff021916908373ffffffffffffffffffffffffffffffffffffffff160217905550565b60008060009054906101000a900473ffffffffffffffffffffffffffffffffffffffff16905090565b60008060009054906101000a900473ffffffffffffffffffffffffffffffffffffffff1673ffffffffffffffffffffffffffffffffffffffff163373ffffffffffffffffffffffffffffffffffffffff1614905090565b60606001808381548110610b02577f4e487b7100000000000000000000000000000000000000000000000000000000600052603260045260246000fd5b9060005260206000209060050201600001541415610b3157604051806020016040528060008152509050610baf565b600260018381548110610b6d577f4e487b7100000000000000000000000000000000000000000000000000000000600052603260045260246000fd5b9060005260206000209060050201600001541415610b9c57604051806020016040528060008152509050610baf565b6040518060200160405280600081525090505b919050565b60606000600460008473ffffffffffffffffffffffffffffffffffffffff1673ffffffffffffffffffffffffffffffffffffffff1681526020019081526020016000205467ffffffffffffffff811115610c37577f4e487b7100000000000000000000000000000000000000000000000000000000600052604160045260246000fd5b604051908082528060200260200182016040528015610c655781602001602082028036833780820191505090505b5090506000805b600180549050811015610d48578473ffffffffffffffffffffffffffffffffffffffff166003600083815260200190815260200160002060009054906101000a900473ffffffffffffffffffffffffffffffffffffffff1673ffffffffffffffffffffffffffffffffffffffff161415610d355780838381518110610d1a577f4e487b7100000000000000000000000000000000000000000000000000000000600052603260045260246000fd5b6020026020010181815250508180610d3190611896565b9250505b8080610d4090611896565b915050610c6c565b508192505050919050565b60018181548110610d6357600080fd5b90600052602060002090600502016000915090508060000154908060010154908060020160009054906101000a900463ffffffff16908060030154908060040154905085565b610db1610a6e565b610dba57600080fd5b8060058190555050565b6005543414610dd257600080fd5b610e466001808381548110610e10577f4e487b7100000000000000000000000000000000000000000000000000000000600052603260045260246000fd5b906000526020600020906005020160020160009054906101000a900463ffffffff1663ffffffff16610fb290919063ffffffff16565b60018281548110610e80577f4e487b7100000000000000000000000000000000000000000000000000000000600052603260045260246000fd5b906000526020600020906005020160020160006101000a81548163ffffffff021916908363ffffffff16021790555050565b610eba610a6e565b610ec357600080fd5b610ecc816110e3565b50565b6000804442604051602001610ee592919061147c565b6040516020818303038152906040528051906020012060001c9050603c606482610f0f91906118e9565b1015610f1f576001915050610f44565b605a606482610f2e91906118e9565b1015610f3e576002915050610f44565b60039150505b90565b600080444285604051602001610f5f939291906114a8565b6040516020818303038152906040528051906020012060001c905082600a610f879190611753565b83600a83610f9591906118e9565b610f9f9190611753565b610fa99190611692565b91505092915050565b6000808284610fc191906116e8565b90508363ffffffff168163ffffffff161015611006577f4e487b7100000000000000000000000000000000000000000000000000000000600052600160045260246000fd5b8091505092915050565b600080828461101f9190611692565b905083811015611058577f4e487b7100000000000000000000000000000000000000000000000000000000600052600160045260246000fd5b8091505092915050565b6000808363ffffffff16141561107b57600090506110dd565b6000828461108991906117ad565b90508263ffffffff16848261109e9190611722565b63ffffffff16146110d8577f4e487b7100000000000000000000000000000000000000000000000000000000600052600160045260246000fd5b809150505b92915050565b600073ffffffffffffffffffffffffffffffffffffffff168173ffffffffffffffffffffffffffffffffffffffff16141561111d57600080fd5b8073ffffffffffffffffffffffffffffffffffffffff1660008054906101000a900473ffffffffffffffffffffffffffffffffffffffff1673ffffffffffffffffffffffffffffffffffffffff167f8be0079c531659141344cd1fd0a4f28419497f9722a3daafe3b4186f6b6457e060405160405180910390a3806000806101000a81548173ffffffffffffffffffffffffffffffffffffffff021916908373ffffffffffffffffffffffffffffffffffffffff16021790555050565b6000813590506111e9816119db565b92915050565b6000813590506111fe816119f2565b92915050565b60008135905061121381611a09565b92915050565b60008151905061122881611a09565b92915050565b60006020828403121561124057600080fd5b600061124e848285016111da565b91505092915050565b60006020828403121561126957600080fd5b600061127784828501611204565b91505092915050565b60006020828403121561129257600080fd5b60006112a084828501611219565b91505092915050565b600080604083850312156112bc57600080fd5b60006112ca85828601611204565b92505060206112db858286016111ef565b9150509250929050565b60006112f18383611438565b60208301905092915050565b611306816117eb565b82525050565b600061131782611642565b6113218185611665565b935061132c83611632565b8060005b8381101561135d57815161134488826112e5565b975061134f83611658565b925050600181019050611330565b5085935050505092915050565b611373816117fd565b82525050565b60006113848261164d565b61138e8185611676565b935061139e818560208601611863565b6113a781611978565b840191505092915050565b60006113bd8261164d565b6113c78185611687565b93506113d7818560208601611863565b80840191505092915050565b60006113f0601583611676565b91506113fb82611989565b602082019050919050565b6000611413601a83611676565b915061141e826119b2565b602082019050919050565b61143281611851565b82525050565b61144181611837565b82525050565b61145081611837565b82525050565b61146761146282611837565b6118df565b82525050565b61147681611841565b82525050565b60006114888285611456565b6020820191506114988284611456565b6020820191508190509392505050565b60006114b48286611456565b6020820191506114c48285611456565b6020820191506114d482846113b2565b9150819050949350505050565b60006020820190506114f660008301846112fd565b92915050565b600060408201905061151160008301856112fd565b61151e6020830184611429565b9392505050565b6000602082019050818103600083015261153f818461130c565b905092915050565b600060208201905061155c600083018461136a565b92915050565b6000602082019050818103600083015261157c8184611379565b905092915050565b6000602082019050818103600083015261159d816113e3565b9050919050565b600060208201905081810360008301526115bd81611406565b9050919050565b60006020820190506115d96000830184611447565b92915050565b600060a0820190506115f46000830188611447565b6116016020830187611447565b61160e604083018661146d565b61161b6060830185611447565b6116286080830184611447565b9695505050505050565b6000819050602082019050919050565b600081519050919050565b600081519050919050565b6000602082019050919050565b600082825260208201905092915050565b600082825260208201905092915050565b600081905092915050565b600061169d82611837565b91506116a883611837565b9250827fffffffffffffffffffffffffffffffffffffffffffffffffffffffffffffffff038211156116dd576116dc61191a565b5b828201905092915050565b60006116f382611841565b91506116fe83611841565b92508263ffffffff038211156117175761171661191a565b5b828201905092915050565b600061172d82611841565b915061173883611841565b92508261174857611747611949565b5b828204905092915050565b600061175e82611837565b915061176983611837565b9250817fffffffffffffffffffffffffffffffffffffffffffffffffffffffffffffffff04831182151516156117a2576117a161191a565b5b828202905092915050565b60006117b882611841565b91506117c383611841565b92508163ffffffff04831182151516156117e0576117df61191a565b5b828202905092915050565b60006117f682611817565b9050919050565b60008115159050919050565b600061ffff82169050919050565b600073ffffffffffffffffffffffffffffffffffffffff82169050919050565b6000819050919050565b600063ffffffff82169050919050565b600061185c82611809565b9050919050565b60005b83811015611881578082015181840152602081019050611866565b83811115611890576000848401525b50505050565b60006118a182611837565b91507fffffffffffffffffffffffffffffffffffffffffffffffffffffffffffffffff8214156118d4576118d361191a565b5b600182019050919050565b6000819050919050565b60006118f482611837565b91506118ff83611837565b92508261190f5761190e611949565b5b828206905092915050565b7f4e487b7100000000000000000000000000000000000000000000000000000000600052601160045260246000fd5b7f4e487b7100000000000000000000000000000000000000000000000000000000600052601260045260246000fd5b6000601f19601f8301169050919050565b7f496e73756666696369656e742062616c616e6365210000000000000000000000600082015250565b7f596f7520646f6e7420706f737365737320746869732073686970000000000000600082015250565b6119e4816117eb565b81146119ef57600080fd5b50565b6119fb81611809565b8114611a0657600080fd5b50565b611a1281611837565b8114611a1d57600080fd5b5056fea2646970667358221220393506641bc66732e3a4d97030b75204e4a4fde21a1f9e5f110545fd2b5f53c364736f6c63430008040033",
  "linkReferences": {},
  "deployedLinkReferences": {}
}