{
  "_format": "hh-sol-artifact-1",
  "contractName": "BattleShipCombat",
  "sourceName": "contracts/BattleShipCombat.sol",
  "abi": [
    {
      "anonymous": false,
      "inputs": [
        {
          "indexed": false,
          "internalType": "uint256",
          "name": "shipId",
          "type": "uint256"
        },
        {
          "indexed": false,
          "internalType": "string",
          "name": "name",
          "type": "string"
        }
      ],
      "name": "NewBattleShip",
      "type": "event"
    },
    {
      "anonymous": false,
      "inputs": [
        {
          "indexed": true,
          "internalType": "address",
          "name": "previousOwner",
          "type": "address"
        },
        {
          "indexed": true,
          "internalType": "address",
          "name": "newOwner",
          "type": "address"
        }
      ],
      "name": "OwnershipTransferred",
      "type": "event"
    },
    {
      "inputs": [
        {
          "internalType": "uint256",
          "name": "",
          "type": "uint256"
        }
      ],
      "name": "battleShips",
      "outputs": [
        {
          "internalType": "string",
          "name": "name",
          "type": "string"
        },
        {
          "internalType": "uint256",
          "name": "shipType",
          "type": "uint256"
        },
        {
          "internalType": "uint256",
          "name": "exp",
          "type": "uint256"
        },
        {
          "internalType": "uint32",
          "name": "level",
          "type": "uint32"
        },
        {
          "internalType": "uint16",
          "name": "health",
          "type": "uint16"
        },
        {
          "internalType": "uint32",
          "name": "damage",
          "type": "uint32"
        }
      ],
      "stateMutability": "view",
      "type": "function"
    },
    {
      "inputs": [
        {
          "internalType": "uint256",
          "name": "_shipId",
          "type": "uint256"
        },
        {
          "internalType": "string",
          "name": "_newName",
          "type": "string"
        }
      ],
      "name": "changeName",
      "outputs": [],
      "stateMutability": "nonpayable",
      "type": "function"
    },
    {
      "inputs": [
        {
          "internalType": "address",
          "name": "_owner",
          "type": "address"
        }
      ],
      "name": "getShipsByOwner",
      "outputs": [
        {
          "internalType": "uint256[]",
          "name": "",
          "type": "uint256[]"
        }
      ],
      "stateMutability": "view",
      "type": "function"
    },
    {
      "inputs": [],
      "name": "isOwner",
      "outputs": [
        {
          "internalType": "bool",
          "name": "",
          "type": "bool"
        }
      ],
      "stateMutability": "view",
      "type": "function"
    },
    {
      "inputs": [],
      "name": "owner",
      "outputs": [
        {
          "internalType": "address",
          "name": "",
          "type": "address"
        }
      ],
      "stateMutability": "view",
      "type": "function"
    },
    {
      "inputs": [],
      "name": "renounceOwnership",
      "outputs": [],
      "stateMutability": "nonpayable",
      "type": "function"
    },
    {
      "inputs": [
        {
          "internalType": "uint256",
          "name": "_fee",
          "type": "uint256"
        }
      ],
      "name": "setLevelUpFee",
      "outputs": [],
      "stateMutability": "nonpayable",
      "type": "function"
    },
    {
      "inputs": [
        {
          "internalType": "uint256",
          "name": "_shipId",
          "type": "uint256"
        }
      ],
      "name": "shipLevelUp",
      "outputs": [],
      "stateMutability": "payable",
      "type": "function"
    },
    {
      "inputs": [
        {
          "internalType": "uint256",
          "name": "_shipId",
          "type": "uint256"
        },
        {
          "internalType": "uint16",
          "name": "killCount",
          "type": "uint16"
        }
      ],
      "name": "slainEnemies",
      "outputs": [],
      "stateMutability": "nonpayable",
      "type": "function"
    },
    {
      "inputs": [
        {
          "internalType": "address",
          "name": "newOwner",
          "type": "address"
        }
      ],
      "name": "transferOwnership",
      "outputs": [],
      "stateMutability": "nonpayable",
      "type": "function"
    },
    {
      "inputs": [],
      "name": "withdraw",
      "outputs": [],
      "stateMutability": "nonpayable",
      "type": "function"
    }
  ],
  "bytecode": "0x60806040526509184e72a00060045534801561001a57600080fd5b50336000806101000a81548173ffffffffffffffffffffffffffffffffffffffff021916908373ffffffffffffffffffffffffffffffffffffffff16021790555060008054906101000a900473ffffffffffffffffffffffffffffffffffffffff1673ffffffffffffffffffffffffffffffffffffffff16600073ffffffffffffffffffffffffffffffffffffffff167f8be0079c531659141344cd1fd0a4f28419497f9722a3daafe3b4186f6b6457e060405160405180910390a3611711806100e56000396000f3fe60806040526004361061009c5760003560e01c8063a8e23a3611610064578063a8e23a361461014e578063c39cbef11461018b578063cacc9e0b146101b4578063ccf670f8146101f6578063ce8a2f3d1461021f578063f2fde38b1461023b5761009c565b80633ccfd60b146100a1578063590cd721146100b8578063715018a6146100e15780638da5cb5b146100f85780638f32d59b14610123575b600080fd5b3480156100ad57600080fd5b506100b6610264565b005b3480156100c457600080fd5b506100df60048036038101906100da9190611029565b6102cb565b005b3480156100ed57600080fd5b506100f66105d3565b005b34801561010457600080fd5b5061010d6106a2565b60405161011a9190611191565b60405180910390f35b34801561012f57600080fd5b506101386106cb565b60405161014591906111ce565b60405180910390f35b34801561015a57600080fd5b5061017560048036038101906101709190610f83565b610722565b60405161018291906111ac565b60405180910390f35b34801561019757600080fd5b506101b260048036038101906101ad9190610fd5565b6108c1565b005b3480156101c057600080fd5b506101db60048036038101906101d69190610fac565b610a3b565b6040516101ed969594939291906111e9565b60405180910390f35b34801561020257600080fd5b5061021d60048036038101906102189190610fac565b610b3d565b005b61023960048036038101906102349190610fac565b610b58565b005b34801561024757600080fd5b50610262600480360381019061025d9190610f83565b610c46565b005b61026c6106cb565b61027557600080fd5b600061027f6106a2565b90508073ffffffffffffffffffffffffffffffffffffffff166108fc479081150290604051600060405180830381858888f193505050501580156102c7573d6000803e3d6000fd5b5050565b813373ffffffffffffffffffffffffffffffffffffffff166002600083815260200190815260200160002060009054906101000a900473ffffffffffffffffffffffffffffffffffffffff1673ffffffffffffffffffffffffffffffffffffffff161461036d576040517f08c379a000000000000000000000000000000000000000000000000000000000815260040161036490611251565b60405180910390fd5b6000600184815481106103a9577f4e487b7100000000000000000000000000000000000000000000000000000000600052603260045260246000fd5b90600052602060002090600402019050600a8160030160009054906101000a900463ffffffff1663ffffffff16101561052d57600a8160030160009054906101000a900463ffffffff166103fd91906113dd565b63ffffffff168361ffff168260020154610417919061131c565b111561050f57600a8160030160009054906101000a900463ffffffff1661043e91906113dd565b63ffffffff168361ffff168260020154610458919061131c565b610462919061156f565b816002018190555061049860018260030160009054906101000a900463ffffffff1663ffffffff16610c6390919063ffffffff16565b8160030160006101000a81548163ffffffff021916908363ffffffff1602179055506104e860058260030160069054906101000a900463ffffffff1663ffffffff16610c6390919063ffffffff16565b8160030160066101000a81548163ffffffff021916908363ffffffff16021790555061052c565b8261ffff168160020154610523919061131c565b81600201819055505b5b61055b60018260030160009054906101000a900463ffffffff1663ffffffff16610c6390919063ffffffff16565b8160030160006101000a81548163ffffffff021916908363ffffffff1602179055506105ab600a8260030160009054906101000a900463ffffffff1663ffffffff16610cc190919063ffffffff16565b8160030160066101000a81548163ffffffff021916908363ffffffff16021790555050505050565b6105db6106cb565b6105e457600080fd5b600073ffffffffffffffffffffffffffffffffffffffff1660008054906101000a900473ffffffffffffffffffffffffffffffffffffffff1673ffffffffffffffffffffffffffffffffffffffff167f8be0079c531659141344cd1fd0a4f28419497f9722a3daafe3b4186f6b6457e060405160405180910390a360008060006101000a81548173ffffffffffffffffffffffffffffffffffffffff021916908373ffffffffffffffffffffffffffffffffffffffff160217905550565b60008060009054906101000a900473ffffffffffffffffffffffffffffffffffffffff16905090565b60008060009054906101000a900473ffffffffffffffffffffffffffffffffffffffff1673ffffffffffffffffffffffffffffffffffffffff163373ffffffffffffffffffffffffffffffffffffffff1614905090565b60606000600360008473ffffffffffffffffffffffffffffffffffffffff1673ffffffffffffffffffffffffffffffffffffffff1681526020019081526020016000205467ffffffffffffffff8111156107a5577f4e487b7100000000000000000000000000000000000000000000000000000000600052604160045260246000fd5b6040519080825280602002602001820160405280156107d35781602001602082028036833780820191505090505b5090506000805b6001805490508110156108b6578473ffffffffffffffffffffffffffffffffffffffff166002600083815260200190815260200160002060009054906101000a900473ffffffffffffffffffffffffffffffffffffffff1673ffffffffffffffffffffffffffffffffffffffff1614156108a35780838381518110610888577f4e487b7100000000000000000000000000000000000000000000000000000000600052603260045260246000fd5b602002602001018181525050818061089f90611526565b9250505b80806108ae90611526565b9150506107da565b508192505050919050565b600a8281600182815481106108ff577f4e487b7100000000000000000000000000000000000000000000000000000000600052603260045260246000fd5b906000526020600020906004020160030160009054906101000a900463ffffffff1663ffffffff16101561093257600080fd5b833373ffffffffffffffffffffffffffffffffffffffff166002600083815260200190815260200160002060009054906101000a900473ffffffffffffffffffffffffffffffffffffffff1673ffffffffffffffffffffffffffffffffffffffff16146109d4576040517f08c379a00000000000000000000000000000000000000000000000000000000081526004016109cb90611251565b60405180910390fd5b8360018681548110610a0f577f4e487b7100000000000000000000000000000000000000000000000000000000600052603260045260246000fd5b90600052602060002090600402016000019080519060200190610a33929190610e39565b505050505050565b60018181548110610a4b57600080fd5b9060005260206000209060040201600091509050806000018054610a6e906114c3565b80601f0160208091040260200160405190810160405280929190818152602001828054610a9a906114c3565b8015610ae75780601f10610abc57610100808354040283529160200191610ae7565b820191906000526020600020905b815481529060010190602001808311610aca57829003601f168201915b5050505050908060010154908060020154908060030160009054906101000a900463ffffffff16908060030160049054906101000a900461ffff16908060030160069054906101000a900463ffffffff16905086565b610b456106cb565b610b4e57600080fd5b8060048190555050565b6004543414610b6657600080fd5b610bda6001808381548110610ba4577f4e487b7100000000000000000000000000000000000000000000000000000000600052603260045260246000fd5b906000526020600020906004020160030160009054906101000a900463ffffffff1663ffffffff16610c6390919063ffffffff16565b60018281548110610c14577f4e487b7100000000000000000000000000000000000000000000000000000000600052603260045260246000fd5b906000526020600020906004020160030160006101000a81548163ffffffff021916908363ffffffff16021790555050565b610c4e6106cb565b610c5757600080fd5b610c6081610d42565b50565b6000808284610c729190611372565b90508363ffffffff168163ffffffff161015610cb7577f4e487b7100000000000000000000000000000000000000000000000000000000600052600160045260246000fd5b8091505092915050565b6000808363ffffffff161415610cda5760009050610d3c565b60008284610ce891906113dd565b90508263ffffffff168482610cfd91906113ac565b63ffffffff1614610d37577f4e487b7100000000000000000000000000000000000000000000000000000000600052600160045260246000fd5b809150505b92915050565b600073ffffffffffffffffffffffffffffffffffffffff168173ffffffffffffffffffffffffffffffffffffffff161415610d7c57600080fd5b8073ffffffffffffffffffffffffffffffffffffffff1660008054906101000a900473ffffffffffffffffffffffffffffffffffffffff1673ffffffffffffffffffffffffffffffffffffffff167f8be0079c531659141344cd1fd0a4f28419497f9722a3daafe3b4186f6b6457e060405160405180910390a3806000806101000a81548173ffffffffffffffffffffffffffffffffffffffff021916908373ffffffffffffffffffffffffffffffffffffffff16021790555050565b828054610e45906114c3565b90600052602060002090601f016020900481019282610e675760008555610eae565b82601f10610e8057805160ff1916838001178555610eae565b82800160010185558215610eae579182015b82811115610ead578251825591602001919060010190610e92565b5b509050610ebb9190610ebf565b5090565b5b80821115610ed8576000816000905550600101610ec0565b5090565b6000610eef610eea84611296565b611271565b905082815260208101848484011115610f0757600080fd5b610f12848285611481565b509392505050565b600081359050610f2981611696565b92915050565b600082601f830112610f4057600080fd5b8135610f50848260208601610edc565b91505092915050565b600081359050610f68816116ad565b92915050565b600081359050610f7d816116c4565b92915050565b600060208284031215610f9557600080fd5b6000610fa384828501610f1a565b91505092915050565b600060208284031215610fbe57600080fd5b6000610fcc84828501610f6e565b91505092915050565b60008060408385031215610fe857600080fd5b6000610ff685828601610f6e565b925050602083013567ffffffffffffffff81111561101357600080fd5b61101f85828601610f2f565b9150509250929050565b6000806040838503121561103c57600080fd5b600061104a85828601610f6e565b925050602061105b85828601610f59565b9150509250929050565b60006110718383611164565b60208301905092915050565b6110868161141b565b82525050565b6000611097826112d7565b6110a181856112fa565b93506110ac836112c7565b8060005b838110156110dd5781516110c48882611065565b97506110cf836112ed565b9250506001810190506110b0565b5085935050505092915050565b6110f38161142d565b82525050565b6000611104826112e2565b61110e818561130b565b935061111e818560208601611490565b6111278161165c565b840191505092915050565b600061113f601a8361130b565b915061114a8261166d565b602082019050919050565b61115e81611439565b82525050565b61116d81611467565b82525050565b61117c81611467565b82525050565b61118b81611471565b82525050565b60006020820190506111a6600083018461107d565b92915050565b600060208201905081810360008301526111c6818461108c565b905092915050565b60006020820190506111e360008301846110ea565b92915050565b600060c082019050818103600083015261120381896110f9565b90506112126020830188611173565b61121f6040830187611173565b61122c6060830186611182565b6112396080830185611155565b61124660a0830184611182565b979650505050505050565b6000602082019050818103600083015261126a81611132565b9050919050565b600061127b61128c565b905061128782826114f5565b919050565b6000604051905090565b600067ffffffffffffffff8211156112b1576112b061162d565b5b6112ba8261165c565b9050602081019050919050565b6000819050602082019050919050565b600081519050919050565b600081519050919050565b6000602082019050919050565b600082825260208201905092915050565b600082825260208201905092915050565b600061132782611467565b915061133283611467565b9250827fffffffffffffffffffffffffffffffffffffffffffffffffffffffffffffffff03821115611367576113666115a0565b5b828201905092915050565b600061137d82611471565b915061138883611471565b92508263ffffffff038211156113a1576113a06115a0565b5b828201905092915050565b60006113b782611471565b91506113c283611471565b9250826113d2576113d16115cf565b5b828204905092915050565b60006113e882611471565b91506113f383611471565b92508163ffffffff04831182151516156114105761140f6115a0565b5b828202905092915050565b600061142682611447565b9050919050565b60008115159050919050565b600061ffff82169050919050565b600073ffffffffffffffffffffffffffffffffffffffff82169050919050565b6000819050919050565b600063ffffffff82169050919050565b82818337600083830152505050565b60005b838110156114ae578082015181840152602081019050611493565b838111156114bd576000848401525b50505050565b600060028204905060018216806114db57607f821691505b602082108114156114ef576114ee6115fe565b5b50919050565b6114fe8261165c565b810181811067ffffffffffffffff8211171561151d5761151c61162d565b5b80604052505050565b600061153182611467565b91507fffffffffffffffffffffffffffffffffffffffffffffffffffffffffffffffff821415611564576115636115a0565b5b600182019050919050565b600061157a82611467565b915061158583611467565b925082611595576115946115cf565b5b828206905092915050565b7f4e487b7100000000000000000000000000000000000000000000000000000000600052601160045260246000fd5b7f4e487b7100000000000000000000000000000000000000000000000000000000600052601260045260246000fd5b7f4e487b7100000000000000000000000000000000000000000000000000000000600052602260045260246000fd5b7f4e487b7100000000000000000000000000000000000000000000000000000000600052604160045260246000fd5b6000601f19601f8301169050919050565b7f596f7520646f6e7420706f737365737320746869732073686970000000000000600082015250565b61169f8161141b565b81146116aa57600080fd5b50565b6116b681611439565b81146116c157600080fd5b50565b6116cd81611467565b81146116d857600080fd5b5056fea26469706673582212201cc3f6cd6d3fbbe2155bf19bec64333811b669db0c0d23d8cfdc7874ab9e915f64736f6c63430008040033",
  "linkReferences": {},
  "deployedLinkReferences": {}
}