{
  "_format": "hh-sol-artifact-1",
  "contractName": "BattleShipCombat",
  "sourceName": "contracts/BattleShipCombat.sol",
  "abi": [
    {
      "anonymous": false,
      "inputs": [
        {
          "indexed": false,
          "internalType": "uint256",
          "name": "shipId",
          "type": "uint256"
        }
      ],
      "name": "NewBattleShip",
      "type": "event"
    },
    {
      "anonymous": false,
      "inputs": [
        {
          "indexed": true,
          "internalType": "address",
          "name": "previousOwner",
          "type": "address"
        },
        {
          "indexed": true,
          "internalType": "address",
          "name": "newOwner",
          "type": "address"
        }
      ],
      "name": "OwnershipTransferred",
      "type": "event"
    },
    {
      "inputs": [
        {
          "internalType": "uint256",
          "name": "",
          "type": "uint256"
        }
      ],
      "name": "battleShips",
      "outputs": [
        {
          "internalType": "uint256",
          "name": "id",
          "type": "uint256"
        },
        {
          "internalType": "uint256",
          "name": "shipType",
          "type": "uint256"
        },
        {
          "internalType": "uint256",
          "name": "exp",
          "type": "uint256"
        },
        {
          "internalType": "uint32",
          "name": "level",
          "type": "uint32"
        },
        {
          "internalType": "uint256",
          "name": "health",
          "type": "uint256"
        },
        {
          "internalType": "uint256",
          "name": "damage",
          "type": "uint256"
        }
      ],
      "stateMutability": "view",
      "type": "function"
    },
    {
      "inputs": [
        {
          "internalType": "address",
          "name": "tokenAddress",
          "type": "address"
        }
      ],
      "name": "createRandomBattleShip",
      "outputs": [],
      "stateMutability": "nonpayable",
      "type": "function"
    },
    {
      "inputs": [
        {
          "internalType": "address",
          "name": "_owner",
          "type": "address"
        }
      ],
      "name": "getShipsByOwner",
      "outputs": [
        {
          "internalType": "uint256[]",
          "name": "",
          "type": "uint256[]"
        }
      ],
      "stateMutability": "view",
      "type": "function"
    },
    {
      "inputs": [],
      "name": "isOwner",
      "outputs": [
        {
          "internalType": "bool",
          "name": "",
          "type": "bool"
        }
      ],
      "stateMutability": "view",
      "type": "function"
    },
    {
      "inputs": [],
      "name": "owner",
      "outputs": [
        {
          "internalType": "address",
          "name": "",
          "type": "address"
        }
      ],
      "stateMutability": "view",
      "type": "function"
    },
    {
      "inputs": [],
      "name": "renounceOwnership",
      "outputs": [],
      "stateMutability": "nonpayable",
      "type": "function"
    },
    {
      "inputs": [
        {
          "internalType": "uint256",
          "name": "_fee",
          "type": "uint256"
        }
      ],
      "name": "setLevelUpFee",
      "outputs": [],
      "stateMutability": "nonpayable",
      "type": "function"
    },
    {
      "inputs": [
        {
          "internalType": "uint256",
          "name": "_shipId",
          "type": "uint256"
        }
      ],
      "name": "shipLevelUp",
      "outputs": [],
      "stateMutability": "payable",
      "type": "function"
    },
    {
      "inputs": [
        {
          "internalType": "uint256",
          "name": "_shipId",
          "type": "uint256"
        }
      ],
      "name": "shipURI",
      "outputs": [
        {
          "internalType": "string",
          "name": "",
          "type": "string"
        }
      ],
      "stateMutability": "view",
      "type": "function"
    },
    {
      "inputs": [
        {
          "internalType": "uint256",
          "name": "_shipId",
          "type": "uint256"
        },
        {
          "internalType": "uint16",
          "name": "killCount",
          "type": "uint16"
        }
      ],
      "name": "slainEnemies",
      "outputs": [],
      "stateMutability": "nonpayable",
      "type": "function"
    },
    {
      "inputs": [
        {
          "internalType": "address",
          "name": "newOwner",
          "type": "address"
        }
      ],
      "name": "transferOwnership",
      "outputs": [],
      "stateMutability": "nonpayable",
      "type": "function"
    },
    {
      "inputs": [],
      "name": "withdraw",
      "outputs": [],
      "stateMutability": "nonpayable",
      "type": "function"
    }
  ],
  "bytecode": "0x6080604052601e600260006101000a81548161ffff021916908361ffff1602179055506509184e72a00060055534801561003857600080fd5b50336000806101000a81548173ffffffffffffffffffffffffffffffffffffffff021916908373ffffffffffffffffffffffffffffffffffffffff16021790555060008054906101000a900473ffffffffffffffffffffffffffffffffffffffff1673ffffffffffffffffffffffffffffffffffffffff16600073ffffffffffffffffffffffffffffffffffffffff167f8be0079c531659141344cd1fd0a4f28419497f9722a3daafe3b4186f6b6457e060405160405180910390a3611a7b806101036000396000f3fe6080604052600436106100a75760003560e01c8063a1fc85de11610064578063a1fc85de14610182578063a8e23a36146101bf578063cacc9e0b146101fc578063ccf670f81461023e578063ce8a2f3d14610267578063f2fde38b14610283576100a7565b806306fb6326146100ac5780633ccfd60b146100d5578063590cd721146100ec578063715018a6146101155780638da5cb5b1461012c5780638f32d59b14610157575b600080fd5b3480156100b857600080fd5b506100d360048036038101906100ce9190611245565b6102ac565b005b3480156100e157600080fd5b506100ea61065c565b005b3480156100f857600080fd5b50610113600480360381019061010e91906112c0565b6106c3565b005b34801561012157600080fd5b5061012a610987565b005b34801561013857600080fd5b50610141610a56565b60405161014e91906114f8565b60405180910390f35b34801561016357600080fd5b5061016c610a7f565b604051610179919061155e565b60405180910390f35b34801561018e57600080fd5b506101a960048036038101906101a4919061126e565b610ad6565b6040516101b69190611579565b60405180910390f35b3480156101cb57600080fd5b506101e660048036038101906101e19190611245565b610bc5565b6040516101f3919061153c565b60405180910390f35b34801561020857600080fd5b50610223600480360381019061021e919061126e565b610d64565b604051610235969594939291906115f6565b60405180910390f35b34801561024a57600080fd5b506102656004803603810190610260919061126e565b610dc0565b005b610281600480360381019061027c919061126e565b610ddb565b005b34801561028f57600080fd5b506102aa60048036038101906102a59190611245565b610ec9565b005b600260009054906101000a900461ffff1661ffff168173ffffffffffffffffffffffffffffffffffffffff166370a08231336040518263ffffffff1660e01b81526004016102fa91906114f8565b60206040518083038186803b15801561031257600080fd5b505afa158015610326573d6000803e3d6000fd5b505050506040513d601f19601f8201168201806040525081019061034a9190611297565b1161038a576040517f08c379a00000000000000000000000000000000000000000000000000000000081526004016103819061159b565b60405180910390fd5b6000610394610ee6565b905060006103d76040518060400160405280600381526020017f646d67000000000000000000000000000000000000000000000000000000000081525083610f5e565b905060006003826103e89190611778565b6104276040518060400160405280600281526020017f687000000000000000000000000000000000000000000000000000000000000081525085610f5e565b61043191906116b7565b9050600060018054905090506001600460003373ffffffffffffffffffffffffffffffffffffffff1673ffffffffffffffffffffffffffffffffffffffff168152602001908152602001600020600082825461048d91906116b7565b92505081905550336003600083815260200190815260200160002060006101000a81548173ffffffffffffffffffffffffffffffffffffffff021916908373ffffffffffffffffffffffffffffffffffffffff16021790555060016040518060c0016040528083815260200186815260200160008152602001600163ffffffff16815260200184815260200185815250908060018154018082558091505060019003906000526020600020906006020160009091909190915060008201518160000155602082015181600101556040820151816002015560608201518160030160006101000a81548163ffffffff021916908363ffffffff1602179055506080820151816004015560a0820151816005015550508473ffffffffffffffffffffffffffffffffffffffff16639dc29fac33600260009054906101000a900461ffff166040518363ffffffff1660e01b81526004016105ec929190611513565b600060405180830381600087803b15801561060657600080fd5b505af115801561061a573d6000803e3d6000fd5b505050507f489c3e474816917eca955f4c7664a3bdb292d84aa72bb5246c73dfb300e795ae8160405161064d91906115db565b60405180910390a15050505050565b610664610a7f565b61066d57600080fd5b6000610677610a56565b90508073ffffffffffffffffffffffffffffffffffffffff166108fc479081150290604051600060405180830381858888f193505050501580156106bf573d6000803e3d6000fd5b5050565b813373ffffffffffffffffffffffffffffffffffffffff166003600083815260200190815260200160002060009054906101000a900473ffffffffffffffffffffffffffffffffffffffff1673ffffffffffffffffffffffffffffffffffffffff1614610765576040517f08c379a000000000000000000000000000000000000000000000000000000000815260040161075c906115bb565b60405180910390fd5b6000600184815481106107a1577f4e487b7100000000000000000000000000000000000000000000000000000000600052603260045260246000fd5b90600052602060002090600602019050600a8160030160009054906101000a900463ffffffff1663ffffffff1610156108f557600a8160030160009054906101000a900463ffffffff166107f591906117d2565b63ffffffff168361ffff16826002015461080f91906116b7565b11156108d757600a8160030160009054906101000a900463ffffffff1661083691906117d2565b63ffffffff168361ffff16826002015461085091906116b7565b61085a919061190e565b816002018190555061089060018260030160009054906101000a900463ffffffff1663ffffffff16610fc990919063ffffffff16565b8160030160006101000a81548163ffffffff021916908363ffffffff1602179055506108ca6005826005015461102790919063ffffffff16565b81600501819055506108f4565b8261ffff1681600201546108eb91906116b7565b81600201819055505b5b61092360018260030160009054906101000a900463ffffffff1663ffffffff16610fc990919063ffffffff16565b8160030160006101000a81548163ffffffff021916908363ffffffff160217905550610973600a8260030160009054906101000a900463ffffffff1663ffffffff1661107990919063ffffffff16565b63ffffffff16816005018190555050505050565b61098f610a7f565b61099857600080fd5b600073ffffffffffffffffffffffffffffffffffffffff1660008054906101000a900473ffffffffffffffffffffffffffffffffffffffff1673ffffffffffffffffffffffffffffffffffffffff167f8be0079c531659141344cd1fd0a4f28419497f9722a3daafe3b4186f6b6457e060405160405180910390a360008060006101000a81548173ffffffffffffffffffffffffffffffffffffffff021916908373ffffffffffffffffffffffffffffffffffffffff160217905550565b60008060009054906101000a900473ffffffffffffffffffffffffffffffffffffffff16905090565b60008060009054906101000a900473ffffffffffffffffffffffffffffffffffffffff1673ffffffffffffffffffffffffffffffffffffffff163373ffffffffffffffffffffffffffffffffffffffff1614905090565b60606001808381548110610b13577f4e487b7100000000000000000000000000000000000000000000000000000000600052603260045260246000fd5b9060005260206000209060060201600101541415610b4257604051806020016040528060008152509050610bc0565b600260018381548110610b7e577f4e487b7100000000000000000000000000000000000000000000000000000000600052603260045260246000fd5b9060005260206000209060060201600101541415610bad57604051806020016040528060008152509050610bc0565b6040518060200160405280600081525090505b919050565b60606000600460008473ffffffffffffffffffffffffffffffffffffffff1673ffffffffffffffffffffffffffffffffffffffff1681526020019081526020016000205467ffffffffffffffff811115610c48577f4e487b7100000000000000000000000000000000000000000000000000000000600052604160045260246000fd5b604051908082528060200260200182016040528015610c765781602001602082028036833780820191505090505b5090506000805b600180549050811015610d59578473ffffffffffffffffffffffffffffffffffffffff166003600083815260200190815260200160002060009054906101000a900473ffffffffffffffffffffffffffffffffffffffff1673ffffffffffffffffffffffffffffffffffffffff161415610d465780838381518110610d2b577f4e487b7100000000000000000000000000000000000000000000000000000000600052603260045260246000fd5b6020026020010181815250508180610d42906118bb565b9250505b8080610d51906118bb565b915050610c7d565b508192505050919050565b60018181548110610d7457600080fd5b90600052602060002090600602016000915090508060000154908060010154908060020154908060030160009054906101000a900463ffffffff16908060040154908060050154905086565b610dc8610a7f565b610dd157600080fd5b8060058190555050565b6005543414610de957600080fd5b610e5d6001808381548110610e27577f4e487b7100000000000000000000000000000000000000000000000000000000600052603260045260246000fd5b906000526020600020906006020160030160009054906101000a900463ffffffff1663ffffffff16610fc990919063ffffffff16565b60018281548110610e97577f4e487b7100000000000000000000000000000000000000000000000000000000600052603260045260246000fd5b906000526020600020906006020160030160006101000a81548163ffffffff021916908363ffffffff16021790555050565b610ed1610a7f565b610eda57600080fd5b610ee3816110fa565b50565b6000804442604051602001610efc929190611493565b6040516020818303038152906040528051906020012060001c9050603c606482610f26919061190e565b1015610f36576001915050610f5b565b605a606482610f45919061190e565b1015610f55576002915050610f5b565b60039150505b90565b600080444285604051602001610f76939291906114bf565b6040516020818303038152906040528051906020012060001c905082600a610f9e9190611778565b83600a83610fac919061190e565b610fb69190611778565b610fc091906116b7565b91505092915050565b6000808284610fd8919061170d565b90508363ffffffff168163ffffffff16101561101d577f4e487b7100000000000000000000000000000000000000000000000000000000600052600160045260246000fd5b8091505092915050565b600080828461103691906116b7565b90508381101561106f577f4e487b7100000000000000000000000000000000000000000000000000000000600052600160045260246000fd5b8091505092915050565b6000808363ffffffff16141561109257600090506110f4565b600082846110a091906117d2565b90508263ffffffff1684826110b59190611747565b63ffffffff16146110ef577f4e487b7100000000000000000000000000000000000000000000000000000000600052600160045260246000fd5b809150505b92915050565b600073ffffffffffffffffffffffffffffffffffffffff168173ffffffffffffffffffffffffffffffffffffffff16141561113457600080fd5b8073ffffffffffffffffffffffffffffffffffffffff1660008054906101000a900473ffffffffffffffffffffffffffffffffffffffff1673ffffffffffffffffffffffffffffffffffffffff167f8be0079c531659141344cd1fd0a4f28419497f9722a3daafe3b4186f6b6457e060405160405180910390a3806000806101000a81548173ffffffffffffffffffffffffffffffffffffffff021916908373ffffffffffffffffffffffffffffffffffffffff16021790555050565b60008135905061120081611a00565b92915050565b60008135905061121581611a17565b92915050565b60008135905061122a81611a2e565b92915050565b60008151905061123f81611a2e565b92915050565b60006020828403121561125757600080fd5b6000611265848285016111f1565b91505092915050565b60006020828403121561128057600080fd5b600061128e8482850161121b565b91505092915050565b6000602082840312156112a957600080fd5b60006112b784828501611230565b91505092915050565b600080604083850312156112d357600080fd5b60006112e18582860161121b565b92505060206112f285828601611206565b9150509250929050565b6000611308838361144f565b60208301905092915050565b61131d81611810565b82525050565b600061132e82611667565b611338818561168a565b935061134383611657565b8060005b8381101561137457815161135b88826112fc565b97506113668361167d565b925050600181019050611347565b5085935050505092915050565b61138a81611822565b82525050565b600061139b82611672565b6113a5818561169b565b93506113b5818560208601611888565b6113be8161199d565b840191505092915050565b60006113d482611672565b6113de81856116ac565b93506113ee818560208601611888565b80840191505092915050565b600061140760158361169b565b9150611412826119ae565b602082019050919050565b600061142a601a8361169b565b9150611435826119d7565b602082019050919050565b61144981611876565b82525050565b6114588161185c565b82525050565b6114678161185c565b82525050565b61147e6114798261185c565b611904565b82525050565b61148d81611866565b82525050565b600061149f828561146d565b6020820191506114af828461146d565b6020820191508190509392505050565b60006114cb828661146d565b6020820191506114db828561146d565b6020820191506114eb82846113c9565b9150819050949350505050565b600060208201905061150d6000830184611314565b92915050565b60006040820190506115286000830185611314565b6115356020830184611440565b9392505050565b600060208201905081810360008301526115568184611323565b905092915050565b60006020820190506115736000830184611381565b92915050565b600060208201905081810360008301526115938184611390565b905092915050565b600060208201905081810360008301526115b4816113fa565b9050919050565b600060208201905081810360008301526115d48161141d565b9050919050565b60006020820190506115f0600083018461145e565b92915050565b600060c08201905061160b600083018961145e565b611618602083018861145e565b611625604083018761145e565b6116326060830186611484565b61163f608083018561145e565b61164c60a083018461145e565b979650505050505050565b6000819050602082019050919050565b600081519050919050565b600081519050919050565b6000602082019050919050565b600082825260208201905092915050565b600082825260208201905092915050565b600081905092915050565b60006116c28261185c565b91506116cd8361185c565b9250827fffffffffffffffffffffffffffffffffffffffffffffffffffffffffffffffff038211156117025761170161193f565b5b828201905092915050565b600061171882611866565b915061172383611866565b92508263ffffffff0382111561173c5761173b61193f565b5b828201905092915050565b600061175282611866565b915061175d83611866565b92508261176d5761176c61196e565b5b828204905092915050565b60006117838261185c565b915061178e8361185c565b9250817fffffffffffffffffffffffffffffffffffffffffffffffffffffffffffffffff04831182151516156117c7576117c661193f565b5b828202905092915050565b60006117dd82611866565b91506117e883611866565b92508163ffffffff04831182151516156118055761180461193f565b5b828202905092915050565b600061181b8261183c565b9050919050565b60008115159050919050565b600061ffff82169050919050565b600073ffffffffffffffffffffffffffffffffffffffff82169050919050565b6000819050919050565b600063ffffffff82169050919050565b60006118818261182e565b9050919050565b60005b838110156118a657808201518184015260208101905061188b565b838111156118b5576000848401525b50505050565b60006118c68261185c565b91507fffffffffffffffffffffffffffffffffffffffffffffffffffffffffffffffff8214156118f9576118f861193f565b5b600182019050919050565b6000819050919050565b60006119198261185c565b91506119248361185c565b9250826119345761193361196e565b5b828206905092915050565b7f4e487b7100000000000000000000000000000000000000000000000000000000600052601160045260246000fd5b7f4e487b7100000000000000000000000000000000000000000000000000000000600052601260045260246000fd5b6000601f19601f8301169050919050565b7f496e73756666696369656e742062616c616e6365210000000000000000000000600082015250565b7f596f7520646f6e7420706f737365737320746869732073686970000000000000600082015250565b611a0981611810565b8114611a1457600080fd5b50565b611a208161182e565b8114611a2b57600080fd5b50565b611a378161185c565b8114611a4257600080fd5b5056fea2646970667358221220b2bdabb23d93008302f57e01189fde758b2c99f5d3c41e8dccb69979f715b42664736f6c63430008040033",
  "linkReferences": {},
  "deployedLinkReferences": {}
}