{
  "_format": "hh-sol-artifact-1",
  "contractName": "AztecToken",
  "sourceName": "contracts/AztecToken/AztecToken.sol",
  "abi": [
    {
      "inputs": [
        {
          "internalType": "string",
          "name": "name_",
          "type": "string"
        },
        {
          "internalType": "string",
          "name": "symbol_",
          "type": "string"
        }
      ],
      "stateMutability": "nonpayable",
      "type": "constructor"
    },
    {
      "anonymous": false,
      "inputs": [
        {
          "indexed": true,
          "internalType": "address",
          "name": "_owner",
          "type": "address"
        },
        {
          "indexed": true,
          "internalType": "address",
          "name": "_spender",
          "type": "address"
        },
        {
          "indexed": false,
          "internalType": "uint256",
          "name": "_value",
          "type": "uint256"
        }
      ],
      "name": "Approval",
      "type": "event"
    },
    {
      "anonymous": false,
      "inputs": [
        {
          "indexed": true,
          "internalType": "address",
          "name": "_from",
          "type": "address"
        },
        {
          "indexed": true,
          "internalType": "address",
          "name": "_to",
          "type": "address"
        },
        {
          "indexed": false,
          "internalType": "uint256",
          "name": "_value",
          "type": "uint256"
        }
      ],
      "name": "Transfer",
      "type": "event"
    },
    {
      "inputs": [
        {
          "internalType": "address",
          "name": "owner",
          "type": "address"
        },
        {
          "internalType": "address",
          "name": "spender",
          "type": "address"
        }
      ],
      "name": "allowance",
      "outputs": [
        {
          "internalType": "uint256",
          "name": "",
          "type": "uint256"
        }
      ],
      "stateMutability": "view",
      "type": "function"
    },
    {
      "inputs": [
        {
          "internalType": "address",
          "name": "spender",
          "type": "address"
        },
        {
          "internalType": "uint256",
          "name": "amount",
          "type": "uint256"
        }
      ],
      "name": "approve",
      "outputs": [
        {
          "internalType": "bool",
          "name": "",
          "type": "bool"
        }
      ],
      "stateMutability": "nonpayable",
      "type": "function"
    },
    {
      "inputs": [
        {
          "internalType": "address",
          "name": "account",
          "type": "address"
        }
      ],
      "name": "balanceOf",
      "outputs": [
        {
          "internalType": "uint256",
          "name": "",
          "type": "uint256"
        }
      ],
      "stateMutability": "view",
      "type": "function"
    },
    {
      "inputs": [
        {
          "internalType": "address",
          "name": "sender",
          "type": "address"
        },
        {
          "internalType": "uint256",
          "name": "amount",
          "type": "uint256"
        }
      ],
      "name": "burn",
      "outputs": [],
      "stateMutability": "nonpayable",
      "type": "function"
    },
    {
      "inputs": [],
      "name": "decimals",
      "outputs": [
        {
          "internalType": "uint8",
          "name": "",
          "type": "uint8"
        }
      ],
      "stateMutability": "view",
      "type": "function"
    },
    {
      "inputs": [],
      "name": "getPrice",
      "outputs": [
        {
          "internalType": "uint256",
          "name": "",
          "type": "uint256"
        }
      ],
      "stateMutability": "view",
      "type": "function"
    },
    {
      "inputs": [
        {
          "internalType": "uint256",
          "name": "amount",
          "type": "uint256"
        }
      ],
      "name": "mint",
      "outputs": [],
      "stateMutability": "payable",
      "type": "function"
    },
    {
      "inputs": [],
      "name": "name",
      "outputs": [
        {
          "internalType": "string",
          "name": "",
          "type": "string"
        }
      ],
      "stateMutability": "view",
      "type": "function"
    },
    {
      "inputs": [],
      "name": "symbol",
      "outputs": [
        {
          "internalType": "string",
          "name": "",
          "type": "string"
        }
      ],
      "stateMutability": "view",
      "type": "function"
    },
    {
      "inputs": [],
      "name": "totalSupply",
      "outputs": [
        {
          "internalType": "uint256",
          "name": "",
          "type": "uint256"
        }
      ],
      "stateMutability": "view",
      "type": "function"
    },
    {
      "inputs": [
        {
          "internalType": "address",
          "name": "recipient",
          "type": "address"
        },
        {
          "internalType": "uint256",
          "name": "amount",
          "type": "uint256"
        }
      ],
      "name": "transfer",
      "outputs": [
        {
          "internalType": "bool",
          "name": "",
          "type": "bool"
        }
      ],
      "stateMutability": "nonpayable",
      "type": "function"
    },
    {
      "inputs": [
        {
          "internalType": "address",
          "name": "sender",
          "type": "address"
        },
        {
          "internalType": "address",
          "name": "recipient",
          "type": "address"
        },
        {
          "internalType": "uint256",
          "name": "amount",
          "type": "uint256"
        }
      ],
      "name": "transferFrom",
      "outputs": [
        {
          "internalType": "bool",
          "name": "",
          "type": "bool"
        }
      ],
      "stateMutability": "nonpayable",
      "type": "function"
    }
  ],
  "bytecode": "0x60806040526509184e72a0006007553480156200001b57600080fd5b506040516200275e3803806200275e833981810160405281019062000041919062000377565b69d3c21bcecceda10000006003819055506200007433600560035462000068919062000577565b620000ae60201b60201c565b81600590805190602001906200008c92919062000255565b508060069080519060200190620000a592919062000255565b5050506200077a565b600073ffffffffffffffffffffffffffffffffffffffff168273ffffffffffffffffffffffffffffffffffffffff16141562000121576040517f08c379a000000000000000000000000000000000000000000000000000000000815260040162000118906200046b565b60405180910390fd5b600354816002546200013491906200051a565b1062000177576040517f08c379a00000000000000000000000000000000000000000000000000000000081526004016200016e9062000449565b60405180910390fd5b80600260008282546200018b91906200051a565b92505081905550806000808473ffffffffffffffffffffffffffffffffffffffff1673ffffffffffffffffffffffffffffffffffffffff1681526020019081526020016000206000828254620001e291906200051a565b925050819055508173ffffffffffffffffffffffffffffffffffffffff16600073ffffffffffffffffffffffffffffffffffffffff167fddf252ad1be2c89b69c2b068fc378daa952ba7f163c4a11628f55a4df523b3ef836040516200024991906200048d565b60405180910390a35050565b8280546200026390620005ef565b90600052602060002090601f016020900481019282620002875760008555620002d3565b82601f10620002a257805160ff1916838001178555620002d3565b82800160010185558215620002d3579182015b82811115620002d2578251825591602001919060010190620002b5565b5b509050620002e29190620002e6565b5090565b5b8082111562000301576000816000905550600101620002e7565b5090565b60006200031c6200031684620004d3565b620004aa565b9050828152602081018484840111156200033557600080fd5b62000342848285620005b9565b509392505050565b600082601f8301126200035c57600080fd5b81516200036e84826020860162000305565b91505092915050565b600080604083850312156200038b57600080fd5b600083015167ffffffffffffffff811115620003a657600080fd5b620003b4858286016200034a565b925050602083015167ffffffffffffffff811115620003d257600080fd5b620003e0858286016200034a565b9150509250929050565b6000620003f960118362000509565b9150620004068262000728565b602082019050919050565b600062000420601f8362000509565b91506200042d8262000751565b602082019050919050565b6200044381620005af565b82525050565b600060208201905081810360008301526200046481620003ea565b9050919050565b60006020820190508181036000830152620004868162000411565b9050919050565b6000602082019050620004a4600083018462000438565b92915050565b6000620004b6620004c9565b9050620004c4828262000625565b919050565b6000604051905090565b600067ffffffffffffffff821115620004f157620004f0620006e8565b5b620004fc8262000717565b9050602081019050919050565b600082825260208201905092915050565b60006200052782620005af565b91506200053483620005af565b9250827fffffffffffffffffffffffffffffffffffffffffffffffffffffffffffffffff038211156200056c576200056b6200065b565b5b828201905092915050565b60006200058482620005af565b91506200059183620005af565b925082620005a457620005a36200068a565b5b828204905092915050565b6000819050919050565b60005b83811015620005d9578082015181840152602081019050620005bc565b83811115620005e9576000848401525b50505050565b600060028204905060018216806200060857607f821691505b602082108114156200061f576200061e620006b9565b5b50919050565b620006308262000717565b810181811067ffffffffffffffff82111715620006525762000651620006e8565b5b80604052505050565b7f4e487b7100000000000000000000000000000000000000000000000000000000600052601160045260246000fd5b7f4e487b7100000000000000000000000000000000000000000000000000000000600052601260045260246000fd5b7f4e487b7100000000000000000000000000000000000000000000000000000000600052602260045260246000fd5b7f4e487b7100000000000000000000000000000000000000000000000000000000600052604160045260246000fd5b6000601f19601f8301169050919050565b7f457874656e64206d617820737570706c79000000000000000000000000000000600082015250565b7f45524332303a206d696e7420746f20746865207a65726f206164647265737300600082015250565b611fd4806200078a6000396000f3fe6080604052600436106100a75760003560e01c806395d89b411161006457806395d89b41146101e457806398d5fdca1461020f5780639dc29fac1461023a578063a0712d6814610263578063a9059cbb1461027f578063dd62ed3e146102bc576100a7565b806306fdde03146100ac578063095ea7b3146100d757806318160ddd1461011457806323b872dd1461013f578063313ce5671461017c57806370a08231146101a7575b600080fd5b3480156100b857600080fd5b506100c16102f9565b6040516100ce91906115dc565b60405180910390f35b3480156100e357600080fd5b506100fe60048036038101906100f99190611398565b61038b565b60405161010b91906115c1565b60405180910390f35b34801561012057600080fd5b506101296103a2565b604051610136919061173e565b60405180910390f35b34801561014b57600080fd5b5061016660048036038101906101619190611349565b6103ac565b60405161017391906115c1565b60405180910390f35b34801561018857600080fd5b50610191610496565b60405161019e9190611759565b60405180910390f35b3480156101b357600080fd5b506101ce60048036038101906101c991906112e4565b61049f565b6040516101db919061173e565b60405180910390f35b3480156101f057600080fd5b506101f96104e7565b60405161020691906115dc565b60405180910390f35b34801561021b57600080fd5b50610224610579565b604051610231919061173e565b60405180910390f35b34801561024657600080fd5b50610261600480360381019061025c9190611398565b610583565b005b61027d600480360381019061027891906113d4565b610591565b005b34801561028b57600080fd5b506102a660048036038101906102a19190611398565b61064e565b6040516102b391906115c1565b60405180910390f35b3480156102c857600080fd5b506102e360048036038101906102de919061130d565b610665565b6040516102f0919061173e565b60405180910390f35b60606005805461030890611b75565b80601f016020809104026020016040519081016040528092919081815260200182805461033490611b75565b80156103815780601f1061035657610100808354040283529160200191610381565b820191906000526020600020905b81548152906001019060200180831161036457829003601f168201915b5050505050905090565b60006103983384846106ec565b6001905092915050565b6000600254905090565b60006103b98484846108b7565b6000600160008673ffffffffffffffffffffffffffffffffffffffff1673ffffffffffffffffffffffffffffffffffffffff16815260200190815260200160002060003373ffffffffffffffffffffffffffffffffffffffff1673ffffffffffffffffffffffffffffffffffffffff1681526020019081526020016000205490508281101561047d576040517f08c379a00000000000000000000000000000000000000000000000000000000081526004016104749061167e565b60405180910390fd5b61048a85338584036106ec565b60019150509392505050565b60006012905090565b60008060008373ffffffffffffffffffffffffffffffffffffffff1673ffffffffffffffffffffffffffffffffffffffff168152602001908152602001600020549050919050565b6060600680546104f690611b75565b80601f016020809104026020016040519081016040528092919081815260200182805461052290611b75565b801561056f5780601f106105445761010080835404028352916020019161056f565b820191906000526020600020905b81548152906001019060200180831161055257829003601f168201915b5050505050905090565b6000600754905090565b61058d8282610b2e565b5050565b6000811180156105ad57506000600a826105ab9190611bf0565b145b6105ec576040517f08c379a00000000000000000000000000000000000000000000000000000000081526004016105e39061163e565b60405180910390fd5b6000600754826105fc91906119f0565b9050803414610640576040517f08c379a0000000000000000000000000000000000000000000000000000000008152600401610637906116fe565b60405180910390fd5b61064a3383610cf9565b5050565b600061065b3384846108b7565b6001905092915050565b6000600160008473ffffffffffffffffffffffffffffffffffffffff1673ffffffffffffffffffffffffffffffffffffffff16815260200190815260200160002060008373ffffffffffffffffffffffffffffffffffffffff1673ffffffffffffffffffffffffffffffffffffffff16815260200190815260200160002054905092915050565b600073ffffffffffffffffffffffffffffffffffffffff168373ffffffffffffffffffffffffffffffffffffffff16141561075c576040517f08c379a0000000000000000000000000000000000000000000000000000000008152600401610753906116de565b60405180910390fd5b600073ffffffffffffffffffffffffffffffffffffffff168273ffffffffffffffffffffffffffffffffffffffff1614156107cc576040517f08c379a00000000000000000000000000000000000000000000000000000000081526004016107c39061161e565b60405180910390fd5b80600160008573ffffffffffffffffffffffffffffffffffffffff1673ffffffffffffffffffffffffffffffffffffffff16815260200190815260200160002060008473ffffffffffffffffffffffffffffffffffffffff1673ffffffffffffffffffffffffffffffffffffffff168152602001908152602001600020819055508173ffffffffffffffffffffffffffffffffffffffff168373ffffffffffffffffffffffffffffffffffffffff167f8c5be1e5ebec7d5bd14f71427d1e84f3dd0314c0f7b2291e5b200ac8c7c3b925836040516108aa919061173e565b60405180910390a3505050565b600073ffffffffffffffffffffffffffffffffffffffff168373ffffffffffffffffffffffffffffffffffffffff161415610927576040517f08c379a000000000000000000000000000000000000000000000000000000000815260040161091e906116be565b60405180910390fd5b600073ffffffffffffffffffffffffffffffffffffffff168273ffffffffffffffffffffffffffffffffffffffff161415610997576040517f08c379a000000000000000000000000000000000000000000000000000000000815260040161098e906115fe565b60405180910390fd5b60008060008573ffffffffffffffffffffffffffffffffffffffff1673ffffffffffffffffffffffffffffffffffffffff168152602001908152602001600020549050818110156109e782610e92565b90610a28576040517f08c379a0000000000000000000000000000000000000000000000000000000008152600401610a1f91906115dc565b60405180910390fd5b508181036000808673ffffffffffffffffffffffffffffffffffffffff1673ffffffffffffffffffffffffffffffffffffffff16815260200190815260200160002081905550816000808573ffffffffffffffffffffffffffffffffffffffff1673ffffffffffffffffffffffffffffffffffffffff1681526020019081526020016000206000828254610abc9190611790565b925050819055508273ffffffffffffffffffffffffffffffffffffffff168473ffffffffffffffffffffffffffffffffffffffff167fddf252ad1be2c89b69c2b068fc378daa952ba7f163c4a11628f55a4df523b3ef84604051610b20919061173e565b60405180910390a350505050565b600073ffffffffffffffffffffffffffffffffffffffff168273ffffffffffffffffffffffffffffffffffffffff161415610b9e576040517f08c379a0000000000000000000000000000000000000000000000000000000008152600401610b959061169e565b60405180910390fd5b60008060008473ffffffffffffffffffffffffffffffffffffffff1673ffffffffffffffffffffffffffffffffffffffff16815260200190815260200160002054905081811015610bee8461103f565b90610c2f576040517f08c379a0000000000000000000000000000000000000000000000000000000008152600401610c2691906115dc565b60405180910390fd5b508181036000808573ffffffffffffffffffffffffffffffffffffffff1673ffffffffffffffffffffffffffffffffffffffff168152602001908152602001600020819055508160026000828254610c879190611a85565b92505081905550600073ffffffffffffffffffffffffffffffffffffffff168373ffffffffffffffffffffffffffffffffffffffff167fddf252ad1be2c89b69c2b068fc378daa952ba7f163c4a11628f55a4df523b3ef84604051610cec919061173e565b60405180910390a3505050565b600073ffffffffffffffffffffffffffffffffffffffff168273ffffffffffffffffffffffffffffffffffffffff161415610d69576040517f08c379a0000000000000000000000000000000000000000000000000000000008152600401610d609061171e565b60405180910390fd5b60035481600254610d7a9190611790565b10610dba576040517f08c379a0000000000000000000000000000000000000000000000000000000008152600401610db19061165e565b60405180910390fd5b8060026000828254610dcc9190611790565b92505081905550806000808473ffffffffffffffffffffffffffffffffffffffff1673ffffffffffffffffffffffffffffffffffffffff1681526020019081526020016000206000828254610e219190611790565b925050819055508173ffffffffffffffffffffffffffffffffffffffff16600073ffffffffffffffffffffffffffffffffffffffff167fddf252ad1be2c89b69c2b068fc378daa952ba7f163c4a11628f55a4df523b3ef83604051610e86919061173e565b60405180910390a35050565b60606000821415610eda576040518060400160405280600181526020017f3000000000000000000000000000000000000000000000000000000000000000815250905061103a565b600082905060005b60008214610f0c578080610ef590611ba7565b915050600a82610f05919061181d565b9150610ee2565b60008167ffffffffffffffff811115610f4e577f4e487b7100000000000000000000000000000000000000000000000000000000600052604160045260246000fd5b6040519080825280601f01601f191660200182016040528015610f805781602001600182028036833780820191505090505b5090505b6000851461103357600182610f999190611a85565b9150600a85610fa89190611bf0565b6030610fb49190611790565b60f81b818381518110610ff0577f4e487b7100000000000000000000000000000000000000000000000000000000600052603260045260246000fd5b60200101907effffffffffffffffffffffffffffffffffffffffffffffffffffffffffffff1916908160001a905350600a8561102c919061181d565b9450610f84565b8093505050505b919050565b60606000602867ffffffffffffffff811115611084577f4e487b7100000000000000000000000000000000000000000000000000000000600052604160045260246000fd5b6040519080825280601f01601f1916602001820160405280156110b65781602001600182028036833780820191505090505b50905060005b601481101561126a5760008160136110d49190611a85565b60086110e091906119f0565b60026110ec91906118d2565b8573ffffffffffffffffffffffffffffffffffffffff1661110d919061181d565b60f81b9050600060108260f81c611124919061184e565b60f81b905060008160f81c601061113b9190611a4a565b8360f81c6111499190611ab9565b60f81b905061115782611274565b8585600261116591906119f0565b8151811061119c577f4e487b7100000000000000000000000000000000000000000000000000000000600052603260045260246000fd5b60200101907effffffffffffffffffffffffffffffffffffffffffffffffffffffffffffff1916908160001a9053506111d481611274565b8560018660026111e491906119f0565b6111ee9190611790565b81518110611225577f4e487b7100000000000000000000000000000000000000000000000000000000600052603260045260246000fd5b60200101907effffffffffffffffffffffffffffffffffffffffffffffffffffffffffffff1916908160001a905350505050808061126290611ba7565b9150506110bc565b5080915050919050565b6000600a8260f81c60ff16101561129f5760308260f81c61129591906117e6565b60f81b90506112b5565b60578260f81c6112af91906117e6565b60f81b90505b919050565b6000813590506112c981611f70565b92915050565b6000813590506112de81611f87565b92915050565b6000602082840312156112f657600080fd5b6000611304848285016112ba565b91505092915050565b6000806040838503121561132057600080fd5b600061132e858286016112ba565b925050602061133f858286016112ba565b9150509250929050565b60008060006060848603121561135e57600080fd5b600061136c868287016112ba565b935050602061137d868287016112ba565b925050604061138e868287016112cf565b9150509250925092565b600080604083850312156113ab57600080fd5b60006113b9858286016112ba565b92505060206113ca858286016112cf565b9150509250929050565b6000602082840312156113e657600080fd5b60006113f4848285016112cf565b91505092915050565b61140681611aff565b82525050565b600061141782611774565b611421818561177f565b9350611431818560208601611b42565b61143a81611cae565b840191505092915050565b600061145260238361177f565b915061145d82611ccc565b604082019050919050565b600061147560228361177f565b915061148082611d1b565b604082019050919050565b600061149860218361177f565b91506114a382611d6a565b604082019050919050565b60006114bb60118361177f565b91506114c682611db9565b602082019050919050565b60006114de60288361177f565b91506114e982611de2565b604082019050919050565b600061150160218361177f565b915061150c82611e31565b604082019050919050565b600061152460258361177f565b915061152f82611e80565b604082019050919050565b600061154760248361177f565b915061155282611ecf565b604082019050919050565b600061156a601b8361177f565b915061157582611f1e565b602082019050919050565b600061158d601f8361177f565b915061159882611f47565b602082019050919050565b6115ac81611b2b565b82525050565b6115bb81611b35565b82525050565b60006020820190506115d660008301846113fd565b92915050565b600060208201905081810360008301526115f6818461140c565b905092915050565b6000602082019050818103600083015261161781611445565b9050919050565b6000602082019050818103600083015261163781611468565b9050919050565b600060208201905081810360008301526116578161148b565b9050919050565b60006020820190508181036000830152611677816114ae565b9050919050565b60006020820190508181036000830152611697816114d1565b9050919050565b600060208201905081810360008301526116b7816114f4565b9050919050565b600060208201905081810360008301526116d781611517565b9050919050565b600060208201905081810360008301526116f78161153a565b9050919050565b600060208201905081810360008301526117178161155d565b9050919050565b6000602082019050818103600083015261173781611580565b9050919050565b600060208201905061175360008301846115a3565b92915050565b600060208201905061176e60008301846115b2565b92915050565b600081519050919050565b600082825260208201905092915050565b600061179b82611b2b565b91506117a683611b2b565b9250827fffffffffffffffffffffffffffffffffffffffffffffffffffffffffffffffff038211156117db576117da611c21565b5b828201905092915050565b60006117f182611b35565b91506117fc83611b35565b92508260ff0382111561181257611811611c21565b5b828201905092915050565b600061182882611b2b565b915061183383611b2b565b92508261184357611842611c50565b5b828204905092915050565b600061185982611b35565b915061186483611b35565b92508261187457611873611c50565b5b828204905092915050565b6000808291508390505b60018511156118c9578086048111156118a5576118a4611c21565b5b60018516156118b45780820291505b80810290506118c285611cbf565b9450611889565b94509492505050565b60006118dd82611b2b565b91506118e883611b2b565b92506119157fffffffffffffffffffffffffffffffffffffffffffffffffffffffffffffffff848461191d565b905092915050565b60008261192d57600190506119e9565b8161193b57600090506119e9565b8160018114611951576002811461195b5761198a565b60019150506119e9565b60ff84111561196d5761196c611c21565b5b8360020a91508482111561198457611983611c21565b5b506119e9565b5060208310610133831016604e8410600b84101617156119bf5782820a9050838111156119ba576119b9611c21565b5b6119e9565b6119cc848484600161187f565b925090508184048111156119e3576119e2611c21565b5b81810290505b9392505050565b60006119fb82611b2b565b9150611a0683611b2b565b9250817fffffffffffffffffffffffffffffffffffffffffffffffffffffffffffffffff0483118215151615611a3f57611a3e611c21565b5b828202905092915050565b6000611a5582611b35565b9150611a6083611b35565b92508160ff0483118215151615611a7a57611a79611c21565b5b828202905092915050565b6000611a9082611b2b565b9150611a9b83611b2b565b925082821015611aae57611aad611c21565b5b828203905092915050565b6000611ac482611b35565b9150611acf83611b35565b925082821015611ae257611ae1611c21565b5b828203905092915050565b6000611af882611b0b565b9050919050565b60008115159050919050565b600073ffffffffffffffffffffffffffffffffffffffff82169050919050565b6000819050919050565b600060ff82169050919050565b60005b83811015611b60578082015181840152602081019050611b45565b83811115611b6f576000848401525b50505050565b60006002820490506001821680611b8d57607f821691505b60208210811415611ba157611ba0611c7f565b5b50919050565b6000611bb282611b2b565b91507fffffffffffffffffffffffffffffffffffffffffffffffffffffffffffffffff821415611be557611be4611c21565b5b600182019050919050565b6000611bfb82611b2b565b9150611c0683611b2b565b925082611c1657611c15611c50565b5b828206905092915050565b7f4e487b7100000000000000000000000000000000000000000000000000000000600052601160045260246000fd5b7f4e487b7100000000000000000000000000000000000000000000000000000000600052601260045260246000fd5b7f4e487b7100000000000000000000000000000000000000000000000000000000600052602260045260246000fd5b6000601f19601f8301169050919050565b60008160011c9050919050565b7f45524332303a207472616e7366657220746f20746865207a65726f206164647260008201527f6573730000000000000000000000000000000000000000000000000000000000602082015250565b7f45524332303a20617070726f766520746f20746865207a65726f20616464726560008201527f7373000000000000000000000000000000000000000000000000000000000000602082015250565b7f7265717569726520616d6f756e7420697320646976697369626c65206279203160008201527f3000000000000000000000000000000000000000000000000000000000000000602082015250565b7f457874656e64206d617820737570706c79000000000000000000000000000000600082015250565b7f45524332303a207472616e7366657220616d6f756e742065786365656473206160008201527f6c6c6f77616e6365000000000000000000000000000000000000000000000000602082015250565b7f45524332303a206275726e2066726f6d20746865207a65726f2061646472657360008201527f7300000000000000000000000000000000000000000000000000000000000000602082015250565b7f45524332303a207472616e736665722066726f6d20746865207a65726f20616460008201527f6472657373000000000000000000000000000000000000000000000000000000602082015250565b7f45524332303a20617070726f76652066726f6d20746865207a65726f2061646460008201527f7265737300000000000000000000000000000000000000000000000000000000602082015250565b7f7265717569726520636f72726573706f6e64696e672076616c75650000000000600082015250565b7f45524332303a206d696e7420746f20746865207a65726f206164647265737300600082015250565b611f7981611aed565b8114611f8457600080fd5b50565b611f9081611b2b565b8114611f9b57600080fd5b5056fea2646970667358221220a0fc91dd921ea27e9688296412339ff379c67f361843200494e8498d66554ba464736f6c63430008040033",
  "linkReferences": {},
  "deployedLinkReferences": {}
}