{
  "_format": "hh-sol-artifact-1",
  "contractName": "AztecToken",
  "sourceName": "contracts/AztecToken/AztecToken.sol",
  "abi": [
    {
      "inputs": [
        {
          "internalType": "string",
          "name": "name_",
          "type": "string"
        },
        {
          "internalType": "string",
          "name": "symbol_",
          "type": "string"
        }
      ],
      "stateMutability": "nonpayable",
      "type": "constructor"
    },
    {
      "anonymous": false,
      "inputs": [
        {
          "indexed": true,
          "internalType": "address",
          "name": "_owner",
          "type": "address"
        },
        {
          "indexed": true,
          "internalType": "address",
          "name": "_spender",
          "type": "address"
        },
        {
          "indexed": false,
          "internalType": "uint256",
          "name": "_value",
          "type": "uint256"
        }
      ],
      "name": "Approval",
      "type": "event"
    },
    {
      "anonymous": false,
      "inputs": [
        {
          "indexed": true,
          "internalType": "address",
          "name": "_from",
          "type": "address"
        },
        {
          "indexed": true,
          "internalType": "address",
          "name": "_to",
          "type": "address"
        },
        {
          "indexed": false,
          "internalType": "uint256",
          "name": "_value",
          "type": "uint256"
        }
      ],
      "name": "Transfer",
      "type": "event"
    },
    {
      "inputs": [
        {
          "internalType": "address",
          "name": "owner",
          "type": "address"
        },
        {
          "internalType": "address",
          "name": "spender",
          "type": "address"
        }
      ],
      "name": "allowance",
      "outputs": [
        {
          "internalType": "uint256",
          "name": "",
          "type": "uint256"
        }
      ],
      "stateMutability": "view",
      "type": "function"
    },
    {
      "inputs": [
        {
          "internalType": "address",
          "name": "spender",
          "type": "address"
        },
        {
          "internalType": "uint256",
          "name": "amount",
          "type": "uint256"
        }
      ],
      "name": "approve",
      "outputs": [
        {
          "internalType": "bool",
          "name": "",
          "type": "bool"
        }
      ],
      "stateMutability": "nonpayable",
      "type": "function"
    },
    {
      "inputs": [
        {
          "internalType": "address",
          "name": "account",
          "type": "address"
        }
      ],
      "name": "balanceOf",
      "outputs": [
        {
          "internalType": "uint256",
          "name": "",
          "type": "uint256"
        }
      ],
      "stateMutability": "view",
      "type": "function"
    },
    {
      "inputs": [
        {
          "internalType": "address",
          "name": "sender",
          "type": "address"
        },
        {
          "internalType": "uint256",
          "name": "amount",
          "type": "uint256"
        }
      ],
      "name": "burn",
      "outputs": [],
      "stateMutability": "nonpayable",
      "type": "function"
    },
    {
      "inputs": [],
      "name": "decimals",
      "outputs": [
        {
          "internalType": "uint8",
          "name": "",
          "type": "uint8"
        }
      ],
      "stateMutability": "view",
      "type": "function"
    },
    {
      "inputs": [],
      "name": "name",
      "outputs": [
        {
          "internalType": "string",
          "name": "",
          "type": "string"
        }
      ],
      "stateMutability": "view",
      "type": "function"
    },
    {
      "inputs": [],
      "name": "symbol",
      "outputs": [
        {
          "internalType": "string",
          "name": "",
          "type": "string"
        }
      ],
      "stateMutability": "view",
      "type": "function"
    },
    {
      "inputs": [],
      "name": "totalSupply",
      "outputs": [
        {
          "internalType": "uint256",
          "name": "",
          "type": "uint256"
        }
      ],
      "stateMutability": "view",
      "type": "function"
    },
    {
      "inputs": [
        {
          "internalType": "address",
          "name": "recipient",
          "type": "address"
        },
        {
          "internalType": "uint256",
          "name": "amount",
          "type": "uint256"
        }
      ],
      "name": "transfer",
      "outputs": [
        {
          "internalType": "bool",
          "name": "",
          "type": "bool"
        }
      ],
      "stateMutability": "nonpayable",
      "type": "function"
    },
    {
      "inputs": [
        {
          "internalType": "address",
          "name": "sender",
          "type": "address"
        },
        {
          "internalType": "address",
          "name": "recipient",
          "type": "address"
        },
        {
          "internalType": "uint256",
          "name": "amount",
          "type": "uint256"
        }
      ],
      "name": "transferFrom",
      "outputs": [
        {
          "internalType": "bool",
          "name": "",
          "type": "bool"
        }
      ],
      "stateMutability": "nonpayable",
      "type": "function"
    }
  ],
  "bytecode": "0x60806040523480156200001157600080fd5b50604051620020d2380380620020d28339818101604052810190620000379190620002f9565b6200004c33620f42406200008660201b60201c565b816003908051906020019062000064929190620001d7565b5080600490805190602001906200007d929190620001d7565b50505062000623565b600073ffffffffffffffffffffffffffffffffffffffff168273ffffffffffffffffffffffffffffffffffffffff161415620000f9576040517f08c379a0000000000000000000000000000000000000000000000000000000008152600401620000f090620003a4565b60405180910390fd5b80600260008282546200010d919062000453565b92505081905550806000808473ffffffffffffffffffffffffffffffffffffffff1673ffffffffffffffffffffffffffffffffffffffff168152602001908152602001600020600082825462000164919062000453565b925050819055508173ffffffffffffffffffffffffffffffffffffffff16600073ffffffffffffffffffffffffffffffffffffffff167fddf252ad1be2c89b69c2b068fc378daa952ba7f163c4a11628f55a4df523b3ef83604051620001cb9190620003c6565b60405180910390a35050565b828054620001e590620004f0565b90600052602060002090601f01602090048101928262000209576000855562000255565b82601f106200022457805160ff191683800117855562000255565b8280016001018555821562000255579182015b828111156200025457825182559160200191906001019062000237565b5b50905062000264919062000268565b5090565b5b808211156200028357600081600090555060010162000269565b5090565b60006200029e62000298846200040c565b620003e3565b905082815260208101848484011115620002b757600080fd5b620002c4848285620004ba565b509392505050565b600082601f830112620002de57600080fd5b8151620002f084826020860162000287565b91505092915050565b600080604083850312156200030d57600080fd5b600083015167ffffffffffffffff8111156200032857600080fd5b6200033685828601620002cc565b925050602083015167ffffffffffffffff8111156200035457600080fd5b6200036285828601620002cc565b9150509250929050565b60006200037b601f8362000442565b91506200038882620005fa565b602082019050919050565b6200039e81620004b0565b82525050565b60006020820190508181036000830152620003bf816200036c565b9050919050565b6000602082019050620003dd600083018462000393565b92915050565b6000620003ef62000402565b9050620003fd828262000526565b919050565b6000604051905090565b600067ffffffffffffffff8211156200042a5762000429620005ba565b5b6200043582620005e9565b9050602081019050919050565b600082825260208201905092915050565b60006200046082620004b0565b91506200046d83620004b0565b9250827fffffffffffffffffffffffffffffffffffffffffffffffffffffffffffffffff03821115620004a557620004a46200055c565b5b828201905092915050565b6000819050919050565b60005b83811015620004da578082015181840152602081019050620004bd565b83811115620004ea576000848401525b50505050565b600060028204905060018216806200050957607f821691505b6020821081141562000520576200051f6200058b565b5b50919050565b6200053182620005e9565b810181811067ffffffffffffffff82111715620005535762000552620005ba565b5b80604052505050565b7f4e487b7100000000000000000000000000000000000000000000000000000000600052601160045260246000fd5b7f4e487b7100000000000000000000000000000000000000000000000000000000600052602260045260246000fd5b7f4e487b7100000000000000000000000000000000000000000000000000000000600052604160045260246000fd5b6000601f19601f8301169050919050565b7f45524332303a206d696e7420746f20746865207a65726f206164647265737300600082015250565b611a9f80620006336000396000f3fe608060405234801561001057600080fd5b506004361061009e5760003560e01c806370a082311161006657806370a082311461015d57806395d89b411461018d5780639dc29fac146101ab578063a9059cbb146101c7578063dd62ed3e146101f75761009e565b806306fdde03146100a3578063095ea7b3146100c157806318160ddd146100f157806323b872dd1461010f578063313ce5671461013f575b600080fd5b6100ab610227565b6040516100b891906111f1565b60405180910390f35b6100db60048036038101906100d69190611062565b6102b9565b6040516100e891906111d6565b60405180910390f35b6100f96102d0565b60405161010691906112d3565b60405180910390f35b61012960048036038101906101249190611013565b6102da565b60405161013691906111d6565b60405180910390f35b6101476103c4565b60405161015491906112ee565b60405180910390f35b61017760048036038101906101729190610fae565b6103c9565b60405161018491906112d3565b60405180910390f35b610195610411565b6040516101a291906111f1565b60405180910390f35b6101c560048036038101906101c09190611062565b6104a3565b005b6101e160048036038101906101dc9190611062565b6104b1565b6040516101ee91906111d6565b60405180910390f35b610211600480360381019061020c9190610fd7565b6104c8565b60405161021e91906112d3565b60405180910390f35b6060600380546102369061170a565b80601f01602080910402602001604051908101604052809291908181526020018280546102629061170a565b80156102af5780601f10610284576101008083540402835291602001916102af565b820191906000526020600020905b81548152906001019060200180831161029257829003601f168201915b5050505050905090565b60006102c633848461054f565b6001905092915050565b6000600254905090565b60006102e784848461071a565b6000600160008673ffffffffffffffffffffffffffffffffffffffff1673ffffffffffffffffffffffffffffffffffffffff16815260200190815260200160002060003373ffffffffffffffffffffffffffffffffffffffff1673ffffffffffffffffffffffffffffffffffffffff168152602001908152602001600020549050828110156103ab576040517f08c379a00000000000000000000000000000000000000000000000000000000081526004016103a290611253565b60405180910390fd5b6103b8853385840361054f565b60019150509392505050565b600090565b60008060008373ffffffffffffffffffffffffffffffffffffffff1673ffffffffffffffffffffffffffffffffffffffff168152602001908152602001600020549050919050565b6060600480546104209061170a565b80601f016020809104026020016040519081016040528092919081815260200182805461044c9061170a565b80156104995780601f1061046e57610100808354040283529160200191610499565b820191906000526020600020905b81548152906001019060200180831161047c57829003601f168201915b5050505050905090565b6104ad8282610991565b5050565b60006104be33848461071a565b6001905092915050565b6000600160008473ffffffffffffffffffffffffffffffffffffffff1673ffffffffffffffffffffffffffffffffffffffff16815260200190815260200160002060008373ffffffffffffffffffffffffffffffffffffffff1673ffffffffffffffffffffffffffffffffffffffff16815260200190815260200160002054905092915050565b600073ffffffffffffffffffffffffffffffffffffffff168373ffffffffffffffffffffffffffffffffffffffff1614156105bf576040517f08c379a00000000000000000000000000000000000000000000000000000000081526004016105b6906112b3565b60405180910390fd5b600073ffffffffffffffffffffffffffffffffffffffff168273ffffffffffffffffffffffffffffffffffffffff16141561062f576040517f08c379a000000000000000000000000000000000000000000000000000000000815260040161062690611233565b60405180910390fd5b80600160008573ffffffffffffffffffffffffffffffffffffffff1673ffffffffffffffffffffffffffffffffffffffff16815260200190815260200160002060008473ffffffffffffffffffffffffffffffffffffffff1673ffffffffffffffffffffffffffffffffffffffff168152602001908152602001600020819055508173ffffffffffffffffffffffffffffffffffffffff168373ffffffffffffffffffffffffffffffffffffffff167f8c5be1e5ebec7d5bd14f71427d1e84f3dd0314c0f7b2291e5b200ac8c7c3b9258360405161070d91906112d3565b60405180910390a3505050565b600073ffffffffffffffffffffffffffffffffffffffff168373ffffffffffffffffffffffffffffffffffffffff16141561078a576040517f08c379a000000000000000000000000000000000000000000000000000000000815260040161078190611293565b60405180910390fd5b600073ffffffffffffffffffffffffffffffffffffffff168273ffffffffffffffffffffffffffffffffffffffff1614156107fa576040517f08c379a00000000000000000000000000000000000000000000000000000000081526004016107f190611213565b60405180910390fd5b60008060008573ffffffffffffffffffffffffffffffffffffffff1673ffffffffffffffffffffffffffffffffffffffff1681526020019081526020016000205490508181101561084a82610b5c565b9061088b576040517f08c379a000000000000000000000000000000000000000000000000000000000815260040161088291906111f1565b60405180910390fd5b508181036000808673ffffffffffffffffffffffffffffffffffffffff1673ffffffffffffffffffffffffffffffffffffffff16815260200190815260200160002081905550816000808573ffffffffffffffffffffffffffffffffffffffff1673ffffffffffffffffffffffffffffffffffffffff168152602001908152602001600020600082825461091f9190611325565b925050819055508273ffffffffffffffffffffffffffffffffffffffff168473ffffffffffffffffffffffffffffffffffffffff167fddf252ad1be2c89b69c2b068fc378daa952ba7f163c4a11628f55a4df523b3ef8460405161098391906112d3565b60405180910390a350505050565b600073ffffffffffffffffffffffffffffffffffffffff168273ffffffffffffffffffffffffffffffffffffffff161415610a01576040517f08c379a00000000000000000000000000000000000000000000000000000000081526004016109f890611273565b60405180910390fd5b60008060008473ffffffffffffffffffffffffffffffffffffffff1673ffffffffffffffffffffffffffffffffffffffff16815260200190815260200160002054905081811015610a5184610d09565b90610a92576040517f08c379a0000000000000000000000000000000000000000000000000000000008152600401610a8991906111f1565b60405180910390fd5b508181036000808573ffffffffffffffffffffffffffffffffffffffff1673ffffffffffffffffffffffffffffffffffffffff168152602001908152602001600020819055508160026000828254610aea919061161a565b92505081905550600073ffffffffffffffffffffffffffffffffffffffff168373ffffffffffffffffffffffffffffffffffffffff167fddf252ad1be2c89b69c2b068fc378daa952ba7f163c4a11628f55a4df523b3ef84604051610b4f91906112d3565b60405180910390a3505050565b60606000821415610ba4576040518060400160405280600181526020017f30000000000000000000000000000000000000000000000000000000000000008152509050610d04565b600082905060005b60008214610bd6578080610bbf9061173c565b915050600a82610bcf91906113b2565b9150610bac565b60008167ffffffffffffffff811115610c18577f4e487b7100000000000000000000000000000000000000000000000000000000600052604160045260246000fd5b6040519080825280601f01601f191660200182016040528015610c4a5781602001600182028036833780820191505090505b5090505b60008514610cfd57600182610c63919061161a565b9150600a85610c729190611785565b6030610c7e9190611325565b60f81b818381518110610cba577f4e487b7100000000000000000000000000000000000000000000000000000000600052603260045260246000fd5b60200101907effffffffffffffffffffffffffffffffffffffffffffffffffffffffffffff1916908160001a905350600a85610cf691906113b2565b9450610c4e565b8093505050505b919050565b60606000602867ffffffffffffffff811115610d4e577f4e487b7100000000000000000000000000000000000000000000000000000000600052604160045260246000fd5b6040519080825280601f01601f191660200182016040528015610d805781602001600182028036833780820191505090505b50905060005b6014811015610f34576000816013610d9e919061161a565b6008610daa9190611585565b6002610db69190611467565b8573ffffffffffffffffffffffffffffffffffffffff16610dd791906113b2565b60f81b9050600060108260f81c610dee91906113e3565b60f81b905060008160f81c6010610e0591906115df565b8360f81c610e13919061164e565b60f81b9050610e2182610f3e565b85856002610e2f9190611585565b81518110610e66577f4e487b7100000000000000000000000000000000000000000000000000000000600052603260045260246000fd5b60200101907effffffffffffffffffffffffffffffffffffffffffffffffffffffffffffff1916908160001a905350610e9e81610f3e565b856001866002610eae9190611585565b610eb89190611325565b81518110610eef577f4e487b7100000000000000000000000000000000000000000000000000000000600052603260045260246000fd5b60200101907effffffffffffffffffffffffffffffffffffffffffffffffffffffffffffff1916908160001a9053505050508080610f2c9061173c565b915050610d86565b5080915050919050565b6000600a8260f81c60ff161015610f695760308260f81c610f5f919061137b565b60f81b9050610f7f565b60578260f81c610f79919061137b565b60f81b90505b919050565b600081359050610f9381611a3b565b92915050565b600081359050610fa881611a52565b92915050565b600060208284031215610fc057600080fd5b6000610fce84828501610f84565b91505092915050565b60008060408385031215610fea57600080fd5b6000610ff885828601610f84565b925050602061100985828601610f84565b9150509250929050565b60008060006060848603121561102857600080fd5b600061103686828701610f84565b935050602061104786828701610f84565b925050604061105886828701610f99565b9150509250925092565b6000806040838503121561107557600080fd5b600061108385828601610f84565b925050602061109485828601610f99565b9150509250929050565b6110a781611694565b82525050565b60006110b882611309565b6110c28185611314565b93506110d28185602086016116d7565b6110db81611843565b840191505092915050565b60006110f3602383611314565b91506110fe82611861565b604082019050919050565b6000611116602283611314565b9150611121826118b0565b604082019050919050565b6000611139602883611314565b9150611144826118ff565b604082019050919050565b600061115c602183611314565b91506111678261194e565b604082019050919050565b600061117f602583611314565b915061118a8261199d565b604082019050919050565b60006111a2602483611314565b91506111ad826119ec565b604082019050919050565b6111c1816116c0565b82525050565b6111d0816116ca565b82525050565b60006020820190506111eb600083018461109e565b92915050565b6000602082019050818103600083015261120b81846110ad565b905092915050565b6000602082019050818103600083015261122c816110e6565b9050919050565b6000602082019050818103600083015261124c81611109565b9050919050565b6000602082019050818103600083015261126c8161112c565b9050919050565b6000602082019050818103600083015261128c8161114f565b9050919050565b600060208201905081810360008301526112ac81611172565b9050919050565b600060208201905081810360008301526112cc81611195565b9050919050565b60006020820190506112e860008301846111b8565b92915050565b600060208201905061130360008301846111c7565b92915050565b600081519050919050565b600082825260208201905092915050565b6000611330826116c0565b915061133b836116c0565b9250827fffffffffffffffffffffffffffffffffffffffffffffffffffffffffffffffff038211156113705761136f6117b6565b5b828201905092915050565b6000611386826116ca565b9150611391836116ca565b92508260ff038211156113a7576113a66117b6565b5b828201905092915050565b60006113bd826116c0565b91506113c8836116c0565b9250826113d8576113d76117e5565b5b828204905092915050565b60006113ee826116ca565b91506113f9836116ca565b925082611409576114086117e5565b5b828204905092915050565b6000808291508390505b600185111561145e5780860481111561143a576114396117b6565b5b60018516156114495780820291505b808102905061145785611854565b945061141e565b94509492505050565b6000611472826116c0565b915061147d836116c0565b92506114aa7fffffffffffffffffffffffffffffffffffffffffffffffffffffffffffffffff84846114b2565b905092915050565b6000826114c2576001905061157e565b816114d0576000905061157e565b81600181146114e657600281146114f05761151f565b600191505061157e565b60ff841115611502576115016117b6565b5b8360020a915084821115611519576115186117b6565b5b5061157e565b5060208310610133831016604e8410600b84101617156115545782820a90508381111561154f5761154e6117b6565b5b61157e565b6115618484846001611414565b92509050818404811115611578576115776117b6565b5b81810290505b9392505050565b6000611590826116c0565b915061159b836116c0565b9250817fffffffffffffffffffffffffffffffffffffffffffffffffffffffffffffffff04831182151516156115d4576115d36117b6565b5b828202905092915050565b60006115ea826116ca565b91506115f5836116ca565b92508160ff048311821515161561160f5761160e6117b6565b5b828202905092915050565b6000611625826116c0565b9150611630836116c0565b925082821015611643576116426117b6565b5b828203905092915050565b6000611659826116ca565b9150611664836116ca565b925082821015611677576116766117b6565b5b828203905092915050565b600061168d826116a0565b9050919050565b60008115159050919050565b600073ffffffffffffffffffffffffffffffffffffffff82169050919050565b6000819050919050565b600060ff82169050919050565b60005b838110156116f55780820151818401526020810190506116da565b83811115611704576000848401525b50505050565b6000600282049050600182168061172257607f821691505b6020821081141561173657611735611814565b5b50919050565b6000611747826116c0565b91507fffffffffffffffffffffffffffffffffffffffffffffffffffffffffffffffff82141561177a576117796117b6565b5b600182019050919050565b6000611790826116c0565b915061179b836116c0565b9250826117ab576117aa6117e5565b5b828206905092915050565b7f4e487b7100000000000000000000000000000000000000000000000000000000600052601160045260246000fd5b7f4e487b7100000000000000000000000000000000000000000000000000000000600052601260045260246000fd5b7f4e487b7100000000000000000000000000000000000000000000000000000000600052602260045260246000fd5b6000601f19601f8301169050919050565b60008160011c9050919050565b7f45524332303a207472616e7366657220746f20746865207a65726f206164647260008201527f6573730000000000000000000000000000000000000000000000000000000000602082015250565b7f45524332303a20617070726f766520746f20746865207a65726f20616464726560008201527f7373000000000000000000000000000000000000000000000000000000000000602082015250565b7f45524332303a207472616e7366657220616d6f756e742065786365656473206160008201527f6c6c6f77616e6365000000000000000000000000000000000000000000000000602082015250565b7f45524332303a206275726e2066726f6d20746865207a65726f2061646472657360008201527f7300000000000000000000000000000000000000000000000000000000000000602082015250565b7f45524332303a207472616e736665722066726f6d20746865207a65726f20616460008201527f6472657373000000000000000000000000000000000000000000000000000000602082015250565b7f45524332303a20617070726f76652066726f6d20746865207a65726f2061646460008201527f7265737300000000000000000000000000000000000000000000000000000000602082015250565b611a4481611682565b8114611a4f57600080fd5b50565b611a5b816116c0565b8114611a6657600080fd5b5056fea264697066735822122081dda00c76a5d5c18ee4c46bcd8ffebf398321c07fda286dfe15c9f9c4b2939264736f6c63430008040033",
  "linkReferences": {},
  "deployedLinkReferences": {}
}