{
  "_format": "hh-sol-artifact-1",
  "contractName": "AztecToken",
  "sourceName": "contracts/AztecToken/AztecToken.sol",
  "abi": [
    {
      "inputs": [
        {
          "internalType": "string",
          "name": "name_",
          "type": "string"
        },
        {
          "internalType": "string",
          "name": "symbol_",
          "type": "string"
        }
      ],
      "stateMutability": "nonpayable",
      "type": "constructor"
    },
    {
      "anonymous": false,
      "inputs": [
        {
          "indexed": true,
          "internalType": "address",
          "name": "_owner",
          "type": "address"
        },
        {
          "indexed": true,
          "internalType": "address",
          "name": "_spender",
          "type": "address"
        },
        {
          "indexed": false,
          "internalType": "uint256",
          "name": "_value",
          "type": "uint256"
        }
      ],
      "name": "Approval",
      "type": "event"
    },
    {
      "anonymous": false,
      "inputs": [
        {
          "indexed": true,
          "internalType": "address",
          "name": "_from",
          "type": "address"
        },
        {
          "indexed": true,
          "internalType": "address",
          "name": "_to",
          "type": "address"
        },
        {
          "indexed": false,
          "internalType": "uint256",
          "name": "_value",
          "type": "uint256"
        }
      ],
      "name": "Transfer",
      "type": "event"
    },
    {
      "inputs": [
        {
          "internalType": "address",
          "name": "owner",
          "type": "address"
        },
        {
          "internalType": "address",
          "name": "spender",
          "type": "address"
        }
      ],
      "name": "allowance",
      "outputs": [
        {
          "internalType": "uint256",
          "name": "",
          "type": "uint256"
        }
      ],
      "stateMutability": "view",
      "type": "function"
    },
    {
      "inputs": [
        {
          "internalType": "address",
          "name": "spender",
          "type": "address"
        },
        {
          "internalType": "uint256",
          "name": "amount",
          "type": "uint256"
        }
      ],
      "name": "approve",
      "outputs": [
        {
          "internalType": "bool",
          "name": "",
          "type": "bool"
        }
      ],
      "stateMutability": "nonpayable",
      "type": "function"
    },
    {
      "inputs": [
        {
          "internalType": "address",
          "name": "account",
          "type": "address"
        }
      ],
      "name": "balanceOf",
      "outputs": [
        {
          "internalType": "uint256",
          "name": "",
          "type": "uint256"
        }
      ],
      "stateMutability": "view",
      "type": "function"
    },
    {
      "inputs": [
        {
          "internalType": "address",
          "name": "sender",
          "type": "address"
        },
        {
          "internalType": "uint256",
          "name": "amount",
          "type": "uint256"
        }
      ],
      "name": "burn",
      "outputs": [],
      "stateMutability": "nonpayable",
      "type": "function"
    },
    {
      "inputs": [],
      "name": "decimals",
      "outputs": [
        {
          "internalType": "uint8",
          "name": "",
          "type": "uint8"
        }
      ],
      "stateMutability": "view",
      "type": "function"
    },
    {
      "inputs": [],
      "name": "getPrice",
      "outputs": [
        {
          "internalType": "uint256",
          "name": "",
          "type": "uint256"
        }
      ],
      "stateMutability": "view",
      "type": "function"
    },
    {
      "inputs": [
        {
          "internalType": "uint256",
          "name": "amount",
          "type": "uint256"
        }
      ],
      "name": "mint",
      "outputs": [],
      "stateMutability": "payable",
      "type": "function"
    },
    {
      "inputs": [],
      "name": "name",
      "outputs": [
        {
          "internalType": "string",
          "name": "",
          "type": "string"
        }
      ],
      "stateMutability": "view",
      "type": "function"
    },
    {
      "inputs": [],
      "name": "symbol",
      "outputs": [
        {
          "internalType": "string",
          "name": "",
          "type": "string"
        }
      ],
      "stateMutability": "view",
      "type": "function"
    },
    {
      "inputs": [],
      "name": "totalSupply",
      "outputs": [
        {
          "internalType": "uint256",
          "name": "",
          "type": "uint256"
        }
      ],
      "stateMutability": "view",
      "type": "function"
    },
    {
      "inputs": [
        {
          "internalType": "address",
          "name": "recipient",
          "type": "address"
        },
        {
          "internalType": "uint256",
          "name": "amount",
          "type": "uint256"
        }
      ],
      "name": "transfer",
      "outputs": [
        {
          "internalType": "bool",
          "name": "",
          "type": "bool"
        }
      ],
      "stateMutability": "nonpayable",
      "type": "function"
    },
    {
      "inputs": [
        {
          "internalType": "address",
          "name": "sender",
          "type": "address"
        },
        {
          "internalType": "address",
          "name": "recipient",
          "type": "address"
        },
        {
          "internalType": "uint256",
          "name": "amount",
          "type": "uint256"
        }
      ],
      "name": "transferFrom",
      "outputs": [
        {
          "internalType": "bool",
          "name": "",
          "type": "bool"
        }
      ],
      "stateMutability": "nonpayable",
      "type": "function"
    }
  ],
  "bytecode": "0x60806040526509184e72a0006005553480156200001b57600080fd5b506040516200255038038062002550833981810160405281019062000041919062000303565b6200005633620f42406200009060201b60201c565b81600390805190602001906200006e929190620001e1565b50806004908051906020019062000087929190620001e1565b5050506200062d565b600073ffffffffffffffffffffffffffffffffffffffff168273ffffffffffffffffffffffffffffffffffffffff16141562000103576040517f08c379a0000000000000000000000000000000000000000000000000000000008152600401620000fa90620003ae565b60405180910390fd5b80600260008282546200011791906200045d565b92505081905550806000808473ffffffffffffffffffffffffffffffffffffffff1673ffffffffffffffffffffffffffffffffffffffff16815260200190815260200160002060008282546200016e91906200045d565b925050819055508173ffffffffffffffffffffffffffffffffffffffff16600073ffffffffffffffffffffffffffffffffffffffff167fddf252ad1be2c89b69c2b068fc378daa952ba7f163c4a11628f55a4df523b3ef83604051620001d59190620003d0565b60405180910390a35050565b828054620001ef90620004fa565b90600052602060002090601f0160209004810192826200021357600085556200025f565b82601f106200022e57805160ff19168380011785556200025f565b828001600101855582156200025f579182015b828111156200025e57825182559160200191906001019062000241565b5b5090506200026e919062000272565b5090565b5b808211156200028d57600081600090555060010162000273565b5090565b6000620002a8620002a28462000416565b620003ed565b905082815260208101848484011115620002c157600080fd5b620002ce848285620004c4565b509392505050565b600082601f830112620002e857600080fd5b8151620002fa84826020860162000291565b91505092915050565b600080604083850312156200031757600080fd5b600083015167ffffffffffffffff8111156200033257600080fd5b6200034085828601620002d6565b925050602083015167ffffffffffffffff8111156200035e57600080fd5b6200036c85828601620002d6565b9150509250929050565b600062000385601f836200044c565b9150620003928262000604565b602082019050919050565b620003a881620004ba565b82525050565b60006020820190508181036000830152620003c98162000376565b9050919050565b6000602082019050620003e760008301846200039d565b92915050565b6000620003f96200040c565b905062000407828262000530565b919050565b6000604051905090565b600067ffffffffffffffff821115620004345762000433620005c4565b5b6200043f82620005f3565b9050602081019050919050565b600082825260208201905092915050565b60006200046a82620004ba565b91506200047783620004ba565b9250827fffffffffffffffffffffffffffffffffffffffffffffffffffffffffffffffff03821115620004af57620004ae62000566565b5b828201905092915050565b6000819050919050565b60005b83811015620004e4578082015181840152602081019050620004c7565b83811115620004f4576000848401525b50505050565b600060028204905060018216806200051357607f821691505b602082108114156200052a576200052962000595565b5b50919050565b6200053b82620005f3565b810181811067ffffffffffffffff821117156200055d576200055c620005c4565b5b80604052505050565b7f4e487b7100000000000000000000000000000000000000000000000000000000600052601160045260246000fd5b7f4e487b7100000000000000000000000000000000000000000000000000000000600052602260045260246000fd5b7f4e487b7100000000000000000000000000000000000000000000000000000000600052604160045260246000fd5b6000601f19601f8301169050919050565b7f45524332303a206d696e7420746f20746865207a65726f206164647265737300600082015250565b611f13806200063d6000396000f3fe6080604052600436106100a75760003560e01c806395d89b411161006457806395d89b41146101e457806398d5fdca1461020f5780639dc29fac1461023a578063a0712d6814610263578063a9059cbb1461027f578063dd62ed3e146102bc576100a7565b806306fdde03146100ac578063095ea7b3146100d757806318160ddd1461011457806323b872dd1461013f578063313ce5671461017c57806370a08231146101a7575b600080fd5b3480156100b857600080fd5b506100c16102f9565b6040516100ce9190611564565b60405180910390f35b3480156100e357600080fd5b506100fe60048036038101906100f99190611343565b61038b565b60405161010b9190611549565b60405180910390f35b34801561012057600080fd5b506101296103a2565b60405161013691906116a6565b60405180910390f35b34801561014b57600080fd5b50610166600480360381019061016191906112f4565b6103ac565b6040516101739190611549565b60405180910390f35b34801561018857600080fd5b50610191610496565b60405161019e91906116c1565b60405180910390f35b3480156101b357600080fd5b506101ce60048036038101906101c9919061128f565b61049b565b6040516101db91906116a6565b60405180910390f35b3480156101f057600080fd5b506101f96104e3565b6040516102069190611564565b60405180910390f35b34801561021b57600080fd5b50610224610575565b60405161023191906116a6565b60405180910390f35b34801561024657600080fd5b50610261600480360381019061025c9190611343565b61057f565b005b61027d6004803603810190610278919061137f565b61058d565b005b34801561028b57600080fd5b506102a660048036038101906102a19190611343565b61064a565b6040516102b39190611549565b60405180910390f35b3480156102c857600080fd5b506102e360048036038101906102de91906112b8565b610661565b6040516102f091906116a6565b60405180910390f35b60606003805461030890611add565b80601f016020809104026020016040519081016040528092919081815260200182805461033490611add565b80156103815780601f1061035657610100808354040283529160200191610381565b820191906000526020600020905b81548152906001019060200180831161036457829003601f168201915b5050505050905090565b60006103983384846106e8565b6001905092915050565b6000600254905090565b60006103b98484846108b3565b6000600160008673ffffffffffffffffffffffffffffffffffffffff1673ffffffffffffffffffffffffffffffffffffffff16815260200190815260200160002060003373ffffffffffffffffffffffffffffffffffffffff1673ffffffffffffffffffffffffffffffffffffffff1681526020019081526020016000205490508281101561047d576040517f08c379a0000000000000000000000000000000000000000000000000000000008152600401610474906115e6565b60405180910390fd5b61048a85338584036106e8565b60019150509392505050565b600090565b60008060008373ffffffffffffffffffffffffffffffffffffffff1673ffffffffffffffffffffffffffffffffffffffff168152602001908152602001600020549050919050565b6060600480546104f290611add565b80601f016020809104026020016040519081016040528092919081815260200182805461051e90611add565b801561056b5780601f106105405761010080835404028352916020019161056b565b820191906000526020600020905b81548152906001019060200180831161054e57829003601f168201915b5050505050905090565b6000600554905090565b6105898282610b2a565b5050565b6000811180156105a957506000600a826105a79190611b58565b145b6105e8576040517f08c379a00000000000000000000000000000000000000000000000000000000081526004016105df906115c6565b60405180910390fd5b6000600554826105f89190611958565b905080341461063c576040517f08c379a000000000000000000000000000000000000000000000000000000000815260040161063390611666565b60405180910390fd5b6106463383610cf5565b5050565b60006106573384846108b3565b6001905092915050565b6000600160008473ffffffffffffffffffffffffffffffffffffffff1673ffffffffffffffffffffffffffffffffffffffff16815260200190815260200160002060008373ffffffffffffffffffffffffffffffffffffffff1673ffffffffffffffffffffffffffffffffffffffff16815260200190815260200160002054905092915050565b600073ffffffffffffffffffffffffffffffffffffffff168373ffffffffffffffffffffffffffffffffffffffff161415610758576040517f08c379a000000000000000000000000000000000000000000000000000000000815260040161074f90611646565b60405180910390fd5b600073ffffffffffffffffffffffffffffffffffffffff168273ffffffffffffffffffffffffffffffffffffffff1614156107c8576040517f08c379a00000000000000000000000000000000000000000000000000000000081526004016107bf906115a6565b60405180910390fd5b80600160008573ffffffffffffffffffffffffffffffffffffffff1673ffffffffffffffffffffffffffffffffffffffff16815260200190815260200160002060008473ffffffffffffffffffffffffffffffffffffffff1673ffffffffffffffffffffffffffffffffffffffff168152602001908152602001600020819055508173ffffffffffffffffffffffffffffffffffffffff168373ffffffffffffffffffffffffffffffffffffffff167f8c5be1e5ebec7d5bd14f71427d1e84f3dd0314c0f7b2291e5b200ac8c7c3b925836040516108a691906116a6565b60405180910390a3505050565b600073ffffffffffffffffffffffffffffffffffffffff168373ffffffffffffffffffffffffffffffffffffffff161415610923576040517f08c379a000000000000000000000000000000000000000000000000000000000815260040161091a90611626565b60405180910390fd5b600073ffffffffffffffffffffffffffffffffffffffff168273ffffffffffffffffffffffffffffffffffffffff161415610993576040517f08c379a000000000000000000000000000000000000000000000000000000000815260040161098a90611586565b60405180910390fd5b60008060008573ffffffffffffffffffffffffffffffffffffffff1673ffffffffffffffffffffffffffffffffffffffff168152602001908152602001600020549050818110156109e382610e3d565b90610a24576040517f08c379a0000000000000000000000000000000000000000000000000000000008152600401610a1b9190611564565b60405180910390fd5b508181036000808673ffffffffffffffffffffffffffffffffffffffff1673ffffffffffffffffffffffffffffffffffffffff16815260200190815260200160002081905550816000808573ffffffffffffffffffffffffffffffffffffffff1673ffffffffffffffffffffffffffffffffffffffff1681526020019081526020016000206000828254610ab891906116f8565b925050819055508273ffffffffffffffffffffffffffffffffffffffff168473ffffffffffffffffffffffffffffffffffffffff167fddf252ad1be2c89b69c2b068fc378daa952ba7f163c4a11628f55a4df523b3ef84604051610b1c91906116a6565b60405180910390a350505050565b600073ffffffffffffffffffffffffffffffffffffffff168273ffffffffffffffffffffffffffffffffffffffff161415610b9a576040517f08c379a0000000000000000000000000000000000000000000000000000000008152600401610b9190611606565b60405180910390fd5b60008060008473ffffffffffffffffffffffffffffffffffffffff1673ffffffffffffffffffffffffffffffffffffffff16815260200190815260200160002054905081811015610bea84610fea565b90610c2b576040517f08c379a0000000000000000000000000000000000000000000000000000000008152600401610c229190611564565b60405180910390fd5b508181036000808573ffffffffffffffffffffffffffffffffffffffff1673ffffffffffffffffffffffffffffffffffffffff168152602001908152602001600020819055508160026000828254610c8391906119ed565b92505081905550600073ffffffffffffffffffffffffffffffffffffffff168373ffffffffffffffffffffffffffffffffffffffff167fddf252ad1be2c89b69c2b068fc378daa952ba7f163c4a11628f55a4df523b3ef84604051610ce891906116a6565b60405180910390a3505050565b600073ffffffffffffffffffffffffffffffffffffffff168273ffffffffffffffffffffffffffffffffffffffff161415610d65576040517f08c379a0000000000000000000000000000000000000000000000000000000008152600401610d5c90611686565b60405180910390fd5b8060026000828254610d7791906116f8565b92505081905550806000808473ffffffffffffffffffffffffffffffffffffffff1673ffffffffffffffffffffffffffffffffffffffff1681526020019081526020016000206000828254610dcc91906116f8565b925050819055508173ffffffffffffffffffffffffffffffffffffffff16600073ffffffffffffffffffffffffffffffffffffffff167fddf252ad1be2c89b69c2b068fc378daa952ba7f163c4a11628f55a4df523b3ef83604051610e3191906116a6565b60405180910390a35050565b60606000821415610e85576040518060400160405280600181526020017f30000000000000000000000000000000000000000000000000000000000000008152509050610fe5565b600082905060005b60008214610eb7578080610ea090611b0f565b915050600a82610eb09190611785565b9150610e8d565b60008167ffffffffffffffff811115610ef9577f4e487b7100000000000000000000000000000000000000000000000000000000600052604160045260246000fd5b6040519080825280601f01601f191660200182016040528015610f2b5781602001600182028036833780820191505090505b5090505b60008514610fde57600182610f4491906119ed565b9150600a85610f539190611b58565b6030610f5f91906116f8565b60f81b818381518110610f9b577f4e487b7100000000000000000000000000000000000000000000000000000000600052603260045260246000fd5b60200101907effffffffffffffffffffffffffffffffffffffffffffffffffffffffffffff1916908160001a905350600a85610fd79190611785565b9450610f2f565b8093505050505b919050565b60606000602867ffffffffffffffff81111561102f577f4e487b7100000000000000000000000000000000000000000000000000000000600052604160045260246000fd5b6040519080825280601f01601f1916602001820160405280156110615781602001600182028036833780820191505090505b50905060005b601481101561121557600081601361107f91906119ed565b600861108b9190611958565b6002611097919061183a565b8573ffffffffffffffffffffffffffffffffffffffff166110b89190611785565b60f81b9050600060108260f81c6110cf91906117b6565b60f81b905060008160f81c60106110e691906119b2565b8360f81c6110f49190611a21565b60f81b90506111028261121f565b858560026111109190611958565b81518110611147577f4e487b7100000000000000000000000000000000000000000000000000000000600052603260045260246000fd5b60200101907effffffffffffffffffffffffffffffffffffffffffffffffffffffffffffff1916908160001a90535061117f8161121f565b85600186600261118f9190611958565b61119991906116f8565b815181106111d0577f4e487b7100000000000000000000000000000000000000000000000000000000600052603260045260246000fd5b60200101907effffffffffffffffffffffffffffffffffffffffffffffffffffffffffffff1916908160001a905350505050808061120d90611b0f565b915050611067565b5080915050919050565b6000600a8260f81c60ff16101561124a5760308260f81c611240919061174e565b60f81b9050611260565b60578260f81c61125a919061174e565b60f81b90505b919050565b60008135905061127481611eaf565b92915050565b60008135905061128981611ec6565b92915050565b6000602082840312156112a157600080fd5b60006112af84828501611265565b91505092915050565b600080604083850312156112cb57600080fd5b60006112d985828601611265565b92505060206112ea85828601611265565b9150509250929050565b60008060006060848603121561130957600080fd5b600061131786828701611265565b935050602061132886828701611265565b92505060406113398682870161127a565b9150509250925092565b6000806040838503121561135657600080fd5b600061136485828601611265565b92505060206113758582860161127a565b9150509250929050565b60006020828403121561139157600080fd5b600061139f8482850161127a565b91505092915050565b6113b181611a67565b82525050565b60006113c2826116dc565b6113cc81856116e7565b93506113dc818560208601611aaa565b6113e581611c16565b840191505092915050565b60006113fd6023836116e7565b915061140882611c34565b604082019050919050565b60006114206022836116e7565b915061142b82611c83565b604082019050919050565b60006114436021836116e7565b915061144e82611cd2565b604082019050919050565b60006114666028836116e7565b915061147182611d21565b604082019050919050565b60006114896021836116e7565b915061149482611d70565b604082019050919050565b60006114ac6025836116e7565b91506114b782611dbf565b604082019050919050565b60006114cf6024836116e7565b91506114da82611e0e565b604082019050919050565b60006114f2601b836116e7565b91506114fd82611e5d565b602082019050919050565b6000611515601f836116e7565b915061152082611e86565b602082019050919050565b61153481611a93565b82525050565b61154381611a9d565b82525050565b600060208201905061155e60008301846113a8565b92915050565b6000602082019050818103600083015261157e81846113b7565b905092915050565b6000602082019050818103600083015261159f816113f0565b9050919050565b600060208201905081810360008301526115bf81611413565b9050919050565b600060208201905081810360008301526115df81611436565b9050919050565b600060208201905081810360008301526115ff81611459565b9050919050565b6000602082019050818103600083015261161f8161147c565b9050919050565b6000602082019050818103600083015261163f8161149f565b9050919050565b6000602082019050818103600083015261165f816114c2565b9050919050565b6000602082019050818103600083015261167f816114e5565b9050919050565b6000602082019050818103600083015261169f81611508565b9050919050565b60006020820190506116bb600083018461152b565b92915050565b60006020820190506116d6600083018461153a565b92915050565b600081519050919050565b600082825260208201905092915050565b600061170382611a93565b915061170e83611a93565b9250827fffffffffffffffffffffffffffffffffffffffffffffffffffffffffffffffff0382111561174357611742611b89565b5b828201905092915050565b600061175982611a9d565b915061176483611a9d565b92508260ff0382111561177a57611779611b89565b5b828201905092915050565b600061179082611a93565b915061179b83611a93565b9250826117ab576117aa611bb8565b5b828204905092915050565b60006117c182611a9d565b91506117cc83611a9d565b9250826117dc576117db611bb8565b5b828204905092915050565b6000808291508390505b60018511156118315780860481111561180d5761180c611b89565b5b600185161561181c5780820291505b808102905061182a85611c27565b94506117f1565b94509492505050565b600061184582611a93565b915061185083611a93565b925061187d7fffffffffffffffffffffffffffffffffffffffffffffffffffffffffffffffff8484611885565b905092915050565b6000826118955760019050611951565b816118a35760009050611951565b81600181146118b957600281146118c3576118f2565b6001915050611951565b60ff8411156118d5576118d4611b89565b5b8360020a9150848211156118ec576118eb611b89565b5b50611951565b5060208310610133831016604e8410600b84101617156119275782820a90508381111561192257611921611b89565b5b611951565b61193484848460016117e7565b9250905081840481111561194b5761194a611b89565b5b81810290505b9392505050565b600061196382611a93565b915061196e83611a93565b9250817fffffffffffffffffffffffffffffffffffffffffffffffffffffffffffffffff04831182151516156119a7576119a6611b89565b5b828202905092915050565b60006119bd82611a9d565b91506119c883611a9d565b92508160ff04831182151516156119e2576119e1611b89565b5b828202905092915050565b60006119f882611a93565b9150611a0383611a93565b925082821015611a1657611a15611b89565b5b828203905092915050565b6000611a2c82611a9d565b9150611a3783611a9d565b925082821015611a4a57611a49611b89565b5b828203905092915050565b6000611a6082611a73565b9050919050565b60008115159050919050565b600073ffffffffffffffffffffffffffffffffffffffff82169050919050565b6000819050919050565b600060ff82169050919050565b60005b83811015611ac8578082015181840152602081019050611aad565b83811115611ad7576000848401525b50505050565b60006002820490506001821680611af557607f821691505b60208210811415611b0957611b08611be7565b5b50919050565b6000611b1a82611a93565b91507fffffffffffffffffffffffffffffffffffffffffffffffffffffffffffffffff821415611b4d57611b4c611b89565b5b600182019050919050565b6000611b6382611a93565b9150611b6e83611a93565b925082611b7e57611b7d611bb8565b5b828206905092915050565b7f4e487b7100000000000000000000000000000000000000000000000000000000600052601160045260246000fd5b7f4e487b7100000000000000000000000000000000000000000000000000000000600052601260045260246000fd5b7f4e487b7100000000000000000000000000000000000000000000000000000000600052602260045260246000fd5b6000601f19601f8301169050919050565b60008160011c9050919050565b7f45524332303a207472616e7366657220746f20746865207a65726f206164647260008201527f6573730000000000000000000000000000000000000000000000000000000000602082015250565b7f45524332303a20617070726f766520746f20746865207a65726f20616464726560008201527f7373000000000000000000000000000000000000000000000000000000000000602082015250565b7f7265717569726520616d6f756e7420697320646976697369626c65206279203160008201527f3000000000000000000000000000000000000000000000000000000000000000602082015250565b7f45524332303a207472616e7366657220616d6f756e742065786365656473206160008201527f6c6c6f77616e6365000000000000000000000000000000000000000000000000602082015250565b7f45524332303a206275726e2066726f6d20746865207a65726f2061646472657360008201527f7300000000000000000000000000000000000000000000000000000000000000602082015250565b7f45524332303a207472616e736665722066726f6d20746865207a65726f20616460008201527f6472657373000000000000000000000000000000000000000000000000000000602082015250565b7f45524332303a20617070726f76652066726f6d20746865207a65726f2061646460008201527f7265737300000000000000000000000000000000000000000000000000000000602082015250565b7f7265717569726520636f72726573706f6e64696e672076616c75650000000000600082015250565b7f45524332303a206d696e7420746f20746865207a65726f206164647265737300600082015250565b611eb881611a55565b8114611ec357600080fd5b50565b611ecf81611a93565b8114611eda57600080fd5b5056fea264697066735822122070e227a6920172e66d3dba9bfbfe1b62be48b08e5d8c145f9ca3b6bca521fef864736f6c63430008040033",
  "linkReferences": {},
  "deployedLinkReferences": {}
}