{
  "_format": "hh-sol-artifact-1",
  "contractName": "BattleShipNFT",
  "sourceName": "contracts/BattleShipNFT.sol",
  "abi": [
    {
      "anonymous": false,
      "inputs": [
        {
          "indexed": true,
          "internalType": "address",
          "name": "_owner",
          "type": "address"
        },
        {
          "indexed": true,
          "internalType": "address",
          "name": "_approved",
          "type": "address"
        },
        {
          "indexed": true,
          "internalType": "uint256",
          "name": "_tokenId",
          "type": "uint256"
        }
      ],
      "name": "Approval",
      "type": "event"
    },
    {
      "anonymous": false,
      "inputs": [
        {
          "indexed": true,
          "internalType": "address",
          "name": "_owner",
          "type": "address"
        },
        {
          "indexed": true,
          "internalType": "address",
          "name": "_operator",
          "type": "address"
        },
        {
          "indexed": false,
          "internalType": "bool",
          "name": "_approved",
          "type": "bool"
        }
      ],
      "name": "ApprovalForAll",
      "type": "event"
    },
    {
      "anonymous": false,
      "inputs": [
        {
          "indexed": false,
          "internalType": "uint256",
          "name": "shipId",
          "type": "uint256"
        }
      ],
      "name": "NewBattleShip",
      "type": "event"
    },
    {
      "anonymous": false,
      "inputs": [
        {
          "indexed": true,
          "internalType": "address",
          "name": "previousOwner",
          "type": "address"
        },
        {
          "indexed": true,
          "internalType": "address",
          "name": "newOwner",
          "type": "address"
        }
      ],
      "name": "OwnershipTransferred",
      "type": "event"
    },
    {
      "anonymous": false,
      "inputs": [
        {
          "indexed": true,
          "internalType": "address",
          "name": "_from",
          "type": "address"
        },
        {
          "indexed": true,
          "internalType": "address",
          "name": "_to",
          "type": "address"
        },
        {
          "indexed": true,
          "internalType": "uint256",
          "name": "_tokenId",
          "type": "uint256"
        }
      ],
      "name": "Transfer",
      "type": "event"
    },
    {
      "inputs": [
        {
          "internalType": "address",
          "name": "_approved",
          "type": "address"
        },
        {
          "internalType": "uint256",
          "name": "_tokenId",
          "type": "uint256"
        }
      ],
      "name": "approve",
      "outputs": [],
      "stateMutability": "payable",
      "type": "function"
    },
    {
      "inputs": [
        {
          "internalType": "address",
          "name": "_owner",
          "type": "address"
        }
      ],
      "name": "balanceOf",
      "outputs": [
        {
          "internalType": "uint256",
          "name": "",
          "type": "uint256"
        }
      ],
      "stateMutability": "view",
      "type": "function"
    },
    {
      "inputs": [
        {
          "internalType": "uint256",
          "name": "",
          "type": "uint256"
        }
      ],
      "name": "battleShips",
      "outputs": [
        {
          "internalType": "uint256",
          "name": "shipType",
          "type": "uint256"
        },
        {
          "internalType": "uint256",
          "name": "exp",
          "type": "uint256"
        },
        {
          "internalType": "uint32",
          "name": "level",
          "type": "uint32"
        },
        {
          "internalType": "uint256",
          "name": "health",
          "type": "uint256"
        },
        {
          "internalType": "uint256",
          "name": "damage",
          "type": "uint256"
        }
      ],
      "stateMutability": "view",
      "type": "function"
    },
    {
      "inputs": [
        {
          "internalType": "address",
          "name": "tokenAddress",
          "type": "address"
        }
      ],
      "name": "createRandomBattleShip",
      "outputs": [],
      "stateMutability": "nonpayable",
      "type": "function"
    },
    {
      "inputs": [
        {
          "internalType": "uint256",
          "name": "_tokenId",
          "type": "uint256"
        }
      ],
      "name": "getApproved",
      "outputs": [
        {
          "internalType": "address",
          "name": "",
          "type": "address"
        }
      ],
      "stateMutability": "view",
      "type": "function"
    },
    {
      "inputs": [
        {
          "internalType": "address",
          "name": "_owner",
          "type": "address"
        }
      ],
      "name": "getShipsByOwner",
      "outputs": [
        {
          "internalType": "uint256[]",
          "name": "",
          "type": "uint256[]"
        }
      ],
      "stateMutability": "view",
      "type": "function"
    },
    {
      "inputs": [],
      "name": "isOwner",
      "outputs": [
        {
          "internalType": "bool",
          "name": "",
          "type": "bool"
        }
      ],
      "stateMutability": "view",
      "type": "function"
    },
    {
      "inputs": [],
      "name": "owner",
      "outputs": [
        {
          "internalType": "address",
          "name": "",
          "type": "address"
        }
      ],
      "stateMutability": "view",
      "type": "function"
    },
    {
      "inputs": [
        {
          "internalType": "uint256",
          "name": "_tokenId",
          "type": "uint256"
        }
      ],
      "name": "ownerOf",
      "outputs": [
        {
          "internalType": "address",
          "name": "",
          "type": "address"
        }
      ],
      "stateMutability": "view",
      "type": "function"
    },
    {
      "inputs": [],
      "name": "renounceOwnership",
      "outputs": [],
      "stateMutability": "nonpayable",
      "type": "function"
    },
    {
      "inputs": [
        {
          "internalType": "uint256",
          "name": "_fee",
          "type": "uint256"
        }
      ],
      "name": "setLevelUpFee",
      "outputs": [],
      "stateMutability": "nonpayable",
      "type": "function"
    },
    {
      "inputs": [
        {
          "internalType": "uint256",
          "name": "_shipId",
          "type": "uint256"
        }
      ],
      "name": "shipLevelUp",
      "outputs": [],
      "stateMutability": "payable",
      "type": "function"
    },
    {
      "inputs": [
        {
          "internalType": "uint256",
          "name": "_shipId",
          "type": "uint256"
        }
      ],
      "name": "shipURI",
      "outputs": [
        {
          "internalType": "string",
          "name": "",
          "type": "string"
        }
      ],
      "stateMutability": "view",
      "type": "function"
    },
    {
      "inputs": [
        {
          "internalType": "address",
          "name": "_from",
          "type": "address"
        },
        {
          "internalType": "address",
          "name": "_to",
          "type": "address"
        },
        {
          "internalType": "uint256",
          "name": "_tokenId",
          "type": "uint256"
        }
      ],
      "name": "transferFrom",
      "outputs": [],
      "stateMutability": "payable",
      "type": "function"
    },
    {
      "inputs": [
        {
          "internalType": "address",
          "name": "newOwner",
          "type": "address"
        }
      ],
      "name": "transferOwnership",
      "outputs": [],
      "stateMutability": "nonpayable",
      "type": "function"
    },
    {
      "inputs": [],
      "name": "withdraw",
      "outputs": [],
      "stateMutability": "nonpayable",
      "type": "function"
    }
  ],
  "bytecode": "0x6080604052601e600260006101000a81548161ffff021916908361ffff1602179055506509184e72a00060055534801561003857600080fd5b50336000806101000a81548173ffffffffffffffffffffffffffffffffffffffff021916908373ffffffffffffffffffffffffffffffffffffffff16021790555060008054906101000a900473ffffffffffffffffffffffffffffffffffffffff1673ffffffffffffffffffffffffffffffffffffffff16600073ffffffffffffffffffffffffffffffffffffffff167f8be0079c531659141344cd1fd0a4f28419497f9722a3daafe3b4186f6b6457e060405160405180910390a3611c22806101036000396000f3fe6080604052600436106100f35760003560e01c80638da5cb5b1161008a578063cacc9e0b11610059578063cacc9e0b1461030e578063ccf670f81461034f578063ce8a2f3d14610378578063f2fde38b14610394576100f3565b80638da5cb5b1461023e5780638f32d59b14610269578063a1fc85de14610294578063a8e23a36146102d1576100f3565b80633ccfd60b116100c65780633ccfd60b146101965780636352211e146101ad57806370a08231146101ea578063715018a614610227576100f3565b806306fb6326146100f8578063081812fc14610121578063095ea7b31461015e57806323b872dd1461017a575b600080fd5b34801561010457600080fd5b5061011f600480360381019061011a9190611469565b6103bd565b005b34801561012d57600080fd5b506101486004803603810190610143919061151d565b61075d565b6040516101559190611748565b60405180910390f35b610178600480360381019061017391906114e1565b61079a565b005b610194600480360381019061018f9190611492565b61084b565b005b3480156101a257600080fd5b506101ab61092f565b005b3480156101b957600080fd5b506101d460048036038101906101cf919061151d565b610996565b6040516101e19190611748565b60405180910390f35b3480156101f657600080fd5b50610211600480360381019061020c9190611469565b6109d3565b60405161021e919061180b565b60405180910390f35b34801561023357600080fd5b5061023c610a1c565b005b34801561024a57600080fd5b50610253610aeb565b6040516102609190611748565b60405180910390f35b34801561027557600080fd5b5061027e610b14565b60405161028b91906117ae565b60405180910390f35b3480156102a057600080fd5b506102bb60048036038101906102b6919061151d565b610b6b565b6040516102c891906117c9565b60405180910390f35b3480156102dd57600080fd5b506102f860048036038101906102f39190611469565b610c5a565b604051610305919061178c565b60405180910390f35b34801561031a57600080fd5b506103356004803603810190610330919061151d565b610df9565b604051610346959493929190611826565b60405180910390f35b34801561035b57600080fd5b506103766004803603810190610371919061151d565b610e4f565b005b610392600480360381019061038d919061151d565b610e6a565b005b3480156103a057600080fd5b506103bb60048036038101906103b69190611469565b610f58565b005b600260009054906101000a900461ffff1661ffff168173ffffffffffffffffffffffffffffffffffffffff166370a08231336040518263ffffffff1660e01b815260040161040b9190611748565b60206040518083038186803b15801561042357600080fd5b505afa158015610437573d6000803e3d6000fd5b505050506040513d601f19601f8201168201806040525081019061045b9190611546565b1161049b576040517f08c379a0000000000000000000000000000000000000000000000000000000008152600401610492906117eb565b60405180910390fd5b60006104a5610f75565b905060006104e86040518060400160405280600381526020017f646d67000000000000000000000000000000000000000000000000000000000081525083610fed565b905060006003826104f99190611969565b6105386040518060400160405280600281526020017f687000000000000000000000000000000000000000000000000000000000000081525085610fed565b61054291906118d9565b905060016040518060a0016040528085815260200160008152602001600163ffffffff168152602001838152602001848152509080600181540180825580915050600190039060005260206000209060050201600090919091909150600082015181600001556020820151816001015560408201518160020160006101000a81548163ffffffff021916908363ffffffff16021790555060608201518160030155608082015181600401555050600060018054905090506001600460003373ffffffffffffffffffffffffffffffffffffffff1673ffffffffffffffffffffffffffffffffffffffff168152602001908152602001600020600082825461064991906118d9565b92505081905550336003600083815260200190815260200160002060006101000a81548173ffffffffffffffffffffffffffffffffffffffff021916908373ffffffffffffffffffffffffffffffffffffffff1602179055508473ffffffffffffffffffffffffffffffffffffffff16639dc29fac33600260009054906101000a900461ffff166040518363ffffffff1660e01b81526004016106ed929190611763565b600060405180830381600087803b15801561070757600080fd5b505af115801561071b573d6000803e3d6000fd5b505050507f489c3e474816917eca955f4c7664a3bdb292d84aa72bb5246c73dfb300e795ae8160405161074e919061180b565b60405180910390a15050505050565b60006006600083815260200190815260200160002060009054906101000a900473ffffffffffffffffffffffffffffffffffffffff169050919050565b816006600083815260200190815260200160002060006101000a81548173ffffffffffffffffffffffffffffffffffffffff021916908373ffffffffffffffffffffffffffffffffffffffff160217905550808273ffffffffffffffffffffffffffffffffffffffff163373ffffffffffffffffffffffffffffffffffffffff167f8c5be1e5ebec7d5bd14f71427d1e84f3dd0314c0f7b2291e5b200ac8c7c3b92560405160405180910390a45050565b3373ffffffffffffffffffffffffffffffffffffffff166003600083815260200190815260200160002060009054906101000a900473ffffffffffffffffffffffffffffffffffffffff1673ffffffffffffffffffffffffffffffffffffffff16148061091657503373ffffffffffffffffffffffffffffffffffffffff166006600083815260200190815260200160002060009054906101000a900473ffffffffffffffffffffffffffffffffffffffff1673ffffffffffffffffffffffffffffffffffffffff16145b61091f57600080fd5b61092a838383611058565b505050565b610937610b14565b61094057600080fd5b600061094a610aeb565b90508073ffffffffffffffffffffffffffffffffffffffff166108fc479081150290604051600060405180830381858888f19350505050158015610992573d6000803e3d6000fd5b5050565b60006003600083815260200190815260200160002060009054906101000a900473ffffffffffffffffffffffffffffffffffffffff169050919050565b6000600460008373ffffffffffffffffffffffffffffffffffffffff1673ffffffffffffffffffffffffffffffffffffffff168152602001908152602001600020549050919050565b610a24610b14565b610a2d57600080fd5b600073ffffffffffffffffffffffffffffffffffffffff1660008054906101000a900473ffffffffffffffffffffffffffffffffffffffff1673ffffffffffffffffffffffffffffffffffffffff167f8be0079c531659141344cd1fd0a4f28419497f9722a3daafe3b4186f6b6457e060405160405180910390a360008060006101000a81548173ffffffffffffffffffffffffffffffffffffffff021916908373ffffffffffffffffffffffffffffffffffffffff160217905550565b60008060009054906101000a900473ffffffffffffffffffffffffffffffffffffffff16905090565b60008060009054906101000a900473ffffffffffffffffffffffffffffffffffffffff1673ffffffffffffffffffffffffffffffffffffffff163373ffffffffffffffffffffffffffffffffffffffff1614905090565b60606001808381548110610ba8577f4e487b7100000000000000000000000000000000000000000000000000000000600052603260045260246000fd5b9060005260206000209060050201600001541415610bd757604051806020016040528060008152509050610c55565b600260018381548110610c13577f4e487b7100000000000000000000000000000000000000000000000000000000600052603260045260246000fd5b9060005260206000209060050201600001541415610c4257604051806020016040528060008152509050610c55565b6040518060200160405280600081525090505b919050565b60606000600460008473ffffffffffffffffffffffffffffffffffffffff1673ffffffffffffffffffffffffffffffffffffffff1681526020019081526020016000205467ffffffffffffffff811115610cdd577f4e487b7100000000000000000000000000000000000000000000000000000000600052604160045260246000fd5b604051908082528060200260200182016040528015610d0b5781602001602082028036833780820191505090505b5090506000805b600180549050811015610dee578473ffffffffffffffffffffffffffffffffffffffff166003600083815260200190815260200160002060009054906101000a900473ffffffffffffffffffffffffffffffffffffffff1673ffffffffffffffffffffffffffffffffffffffff161415610ddb5780838381518110610dc0577f4e487b7100000000000000000000000000000000000000000000000000000000600052603260045260246000fd5b6020026020010181815250508180610dd790611aa2565b9250505b8080610de690611aa2565b915050610d12565b508192505050919050565b60018181548110610e0957600080fd5b90600052602060002090600502016000915090508060000154908060010154908060020160009054906101000a900463ffffffff16908060030154908060040154905085565b610e57610b14565b610e6057600080fd5b8060058190555050565b6005543414610e7857600080fd5b610eec6001808381548110610eb6577f4e487b7100000000000000000000000000000000000000000000000000000000600052603260045260246000fd5b906000526020600020906005020160020160009054906101000a900463ffffffff1663ffffffff1661123690919063ffffffff16565b60018281548110610f26577f4e487b7100000000000000000000000000000000000000000000000000000000600052603260045260246000fd5b906000526020600020906005020160020160006101000a81548163ffffffff021916908363ffffffff16021790555050565b610f60610b14565b610f6957600080fd5b610f7281611294565b50565b6000804442604051602001610f8b9291906116e3565b6040516020818303038152906040528051906020012060001c9050603c606482610fb59190611af5565b1015610fc5576001915050610fea565b605a606482610fd49190611af5565b1015610fe4576002915050610fea565b60039150505b90565b6000804442856040516020016110059392919061170f565b6040516020818303038152906040528051906020012060001c905082600a61102d9190611969565b83600a8361103b9190611af5565b6110459190611969565b61104f91906118d9565b91505092915050565b816003600083815260200190815260200160002060006101000a81548173ffffffffffffffffffffffffffffffffffffffff021916908373ffffffffffffffffffffffffffffffffffffffff1602179055506110fd6001600460008573ffffffffffffffffffffffffffffffffffffffff1673ffffffffffffffffffffffffffffffffffffffff1681526020019081526020016000205461138b90919063ffffffff16565b600460008473ffffffffffffffffffffffffffffffffffffffff1673ffffffffffffffffffffffffffffffffffffffff168152602001908152602001600020819055506111936001600460008673ffffffffffffffffffffffffffffffffffffffff1673ffffffffffffffffffffffffffffffffffffffff168152602001908152602001600020546113dd90919063ffffffff16565b600460008573ffffffffffffffffffffffffffffffffffffffff1673ffffffffffffffffffffffffffffffffffffffff16815260200190815260200160002081905550808273ffffffffffffffffffffffffffffffffffffffff168473ffffffffffffffffffffffffffffffffffffffff167fddf252ad1be2c89b69c2b068fc378daa952ba7f163c4a11628f55a4df523b3ef60405160405180910390a4505050565b6000808284611245919061192f565b90508363ffffffff168163ffffffff16101561128a577f4e487b7100000000000000000000000000000000000000000000000000000000600052600160045260246000fd5b8091505092915050565b600073ffffffffffffffffffffffffffffffffffffffff168173ffffffffffffffffffffffffffffffffffffffff1614156112ce57600080fd5b8073ffffffffffffffffffffffffffffffffffffffff1660008054906101000a900473ffffffffffffffffffffffffffffffffffffffff1673ffffffffffffffffffffffffffffffffffffffff167f8be0079c531659141344cd1fd0a4f28419497f9722a3daafe3b4186f6b6457e060405160405180910390a3806000806101000a81548173ffffffffffffffffffffffffffffffffffffffff021916908373ffffffffffffffffffffffffffffffffffffffff16021790555050565b600080828461139a91906118d9565b9050838110156113d3577f4e487b7100000000000000000000000000000000000000000000000000000000600052600160045260246000fd5b8091505092915050565b600082821115611416577f4e487b7100000000000000000000000000000000000000000000000000000000600052600160045260246000fd5b818361142291906119c3565b905092915050565b60008135905061143981611bbe565b92915050565b60008135905061144e81611bd5565b92915050565b60008151905061146381611bd5565b92915050565b60006020828403121561147b57600080fd5b60006114898482850161142a565b91505092915050565b6000806000606084860312156114a757600080fd5b60006114b58682870161142a565b93505060206114c68682870161142a565b92505060406114d78682870161143f565b9150509250925092565b600080604083850312156114f457600080fd5b60006115028582860161142a565b92505060206115138582860161143f565b9150509250929050565b60006020828403121561152f57600080fd5b600061153d8482850161143f565b91505092915050565b60006020828403121561155857600080fd5b600061156684828501611454565b91505092915050565b600061157b838361169f565b60208301905092915050565b611590816119f7565b82525050565b60006115a182611889565b6115ab81856118ac565b93506115b683611879565b8060005b838110156115e75781516115ce888261156f565b97506115d98361189f565b9250506001810190506115ba565b5085935050505092915050565b6115fd81611a09565b82525050565b600061160e82611894565b61161881856118bd565b9350611628818560208601611a6f565b61163181611b84565b840191505092915050565b600061164782611894565b61165181856118ce565b9350611661818560208601611a6f565b80840191505092915050565b600061167a6015836118bd565b915061168582611b95565b602082019050919050565b61169981611a5d565b82525050565b6116a881611a43565b82525050565b6116b781611a43565b82525050565b6116ce6116c982611a43565b611aeb565b82525050565b6116dd81611a4d565b82525050565b60006116ef82856116bd565b6020820191506116ff82846116bd565b6020820191508190509392505050565b600061171b82866116bd565b60208201915061172b82856116bd565b60208201915061173b828461163c565b9150819050949350505050565b600060208201905061175d6000830184611587565b92915050565b60006040820190506117786000830185611587565b6117856020830184611690565b9392505050565b600060208201905081810360008301526117a68184611596565b905092915050565b60006020820190506117c360008301846115f4565b92915050565b600060208201905081810360008301526117e38184611603565b905092915050565b600060208201905081810360008301526118048161166d565b9050919050565b600060208201905061182060008301846116ae565b92915050565b600060a08201905061183b60008301886116ae565b61184860208301876116ae565b61185560408301866116d4565b61186260608301856116ae565b61186f60808301846116ae565b9695505050505050565b6000819050602082019050919050565b600081519050919050565b600081519050919050565b6000602082019050919050565b600082825260208201905092915050565b600082825260208201905092915050565b600081905092915050565b60006118e482611a43565b91506118ef83611a43565b9250827fffffffffffffffffffffffffffffffffffffffffffffffffffffffffffffffff0382111561192457611923611b26565b5b828201905092915050565b600061193a82611a4d565b915061194583611a4d565b92508263ffffffff0382111561195e5761195d611b26565b5b828201905092915050565b600061197482611a43565b915061197f83611a43565b9250817fffffffffffffffffffffffffffffffffffffffffffffffffffffffffffffffff04831182151516156119b8576119b7611b26565b5b828202905092915050565b60006119ce82611a43565b91506119d983611a43565b9250828210156119ec576119eb611b26565b5b828203905092915050565b6000611a0282611a23565b9050919050565b60008115159050919050565b600061ffff82169050919050565b600073ffffffffffffffffffffffffffffffffffffffff82169050919050565b6000819050919050565b600063ffffffff82169050919050565b6000611a6882611a15565b9050919050565b60005b83811015611a8d578082015181840152602081019050611a72565b83811115611a9c576000848401525b50505050565b6000611aad82611a43565b91507fffffffffffffffffffffffffffffffffffffffffffffffffffffffffffffffff821415611ae057611adf611b26565b5b600182019050919050565b6000819050919050565b6000611b0082611a43565b9150611b0b83611a43565b925082611b1b57611b1a611b55565b5b828206905092915050565b7f4e487b7100000000000000000000000000000000000000000000000000000000600052601160045260246000fd5b7f4e487b7100000000000000000000000000000000000000000000000000000000600052601260045260246000fd5b6000601f19601f8301169050919050565b7f496e73756666696369656e742062616c616e6365210000000000000000000000600082015250565b611bc7816119f7565b8114611bd257600080fd5b50565b611bde81611a43565b8114611be957600080fd5b5056fea2646970667358221220c318d528c43fdfc2d541782183e7c592b5e54e86d665b0ddde62a1fbb3c359c464736f6c63430008040033",
  "linkReferences": {},
  "deployedLinkReferences": {}
}