{
  "_format": "hh-sol-artifact-1",
  "contractName": "BattleShipNFT",
  "sourceName": "contracts/BattleShipNFT.sol",
  "abi": [
    {
      "anonymous": false,
      "inputs": [
        {
          "indexed": true,
          "internalType": "address",
          "name": "_owner",
          "type": "address"
        },
        {
          "indexed": true,
          "internalType": "address",
          "name": "_approved",
          "type": "address"
        },
        {
          "indexed": true,
          "internalType": "uint256",
          "name": "_tokenId",
          "type": "uint256"
        }
      ],
      "name": "Approval",
      "type": "event"
    },
    {
      "anonymous": false,
      "inputs": [
        {
          "indexed": true,
          "internalType": "address",
          "name": "_owner",
          "type": "address"
        },
        {
          "indexed": true,
          "internalType": "address",
          "name": "_operator",
          "type": "address"
        },
        {
          "indexed": false,
          "internalType": "bool",
          "name": "_approved",
          "type": "bool"
        }
      ],
      "name": "ApprovalForAll",
      "type": "event"
    },
    {
      "anonymous": false,
      "inputs": [
        {
          "indexed": false,
          "internalType": "uint256",
          "name": "shipId",
          "type": "uint256"
        }
      ],
      "name": "NewBattleShip",
      "type": "event"
    },
    {
      "anonymous": false,
      "inputs": [
        {
          "indexed": true,
          "internalType": "address",
          "name": "previousOwner",
          "type": "address"
        },
        {
          "indexed": true,
          "internalType": "address",
          "name": "newOwner",
          "type": "address"
        }
      ],
      "name": "OwnershipTransferred",
      "type": "event"
    },
    {
      "anonymous": false,
      "inputs": [
        {
          "indexed": true,
          "internalType": "address",
          "name": "_from",
          "type": "address"
        },
        {
          "indexed": true,
          "internalType": "address",
          "name": "_to",
          "type": "address"
        },
        {
          "indexed": true,
          "internalType": "uint256",
          "name": "_tokenId",
          "type": "uint256"
        }
      ],
      "name": "Transfer",
      "type": "event"
    },
    {
      "inputs": [
        {
          "internalType": "address",
          "name": "_approved",
          "type": "address"
        },
        {
          "internalType": "uint256",
          "name": "_tokenId",
          "type": "uint256"
        }
      ],
      "name": "approve",
      "outputs": [],
      "stateMutability": "payable",
      "type": "function"
    },
    {
      "inputs": [
        {
          "internalType": "address",
          "name": "_owner",
          "type": "address"
        }
      ],
      "name": "balanceOf",
      "outputs": [
        {
          "internalType": "uint256",
          "name": "",
          "type": "uint256"
        }
      ],
      "stateMutability": "view",
      "type": "function"
    },
    {
      "inputs": [
        {
          "internalType": "uint256",
          "name": "",
          "type": "uint256"
        }
      ],
      "name": "battleShips",
      "outputs": [
        {
          "internalType": "uint256",
          "name": "shipType",
          "type": "uint256"
        },
        {
          "internalType": "uint256",
          "name": "exp",
          "type": "uint256"
        },
        {
          "internalType": "uint32",
          "name": "level",
          "type": "uint32"
        },
        {
          "internalType": "uint256",
          "name": "health",
          "type": "uint256"
        },
        {
          "internalType": "uint256",
          "name": "damage",
          "type": "uint256"
        }
      ],
      "stateMutability": "view",
      "type": "function"
    },
    {
      "inputs": [
        {
          "internalType": "address",
          "name": "tokenAddress",
          "type": "address"
        }
      ],
      "name": "createRandomBattleShip",
      "outputs": [],
      "stateMutability": "nonpayable",
      "type": "function"
    },
    {
      "inputs": [
        {
          "internalType": "uint256",
          "name": "_tokenId",
          "type": "uint256"
        }
      ],
      "name": "getApproved",
      "outputs": [
        {
          "internalType": "address",
          "name": "",
          "type": "address"
        }
      ],
      "stateMutability": "view",
      "type": "function"
    },
    {
      "inputs": [
        {
          "internalType": "address",
          "name": "_owner",
          "type": "address"
        }
      ],
      "name": "getShipsByOwner",
      "outputs": [
        {
          "internalType": "uint256[]",
          "name": "",
          "type": "uint256[]"
        }
      ],
      "stateMutability": "view",
      "type": "function"
    },
    {
      "inputs": [],
      "name": "isOwner",
      "outputs": [
        {
          "internalType": "bool",
          "name": "",
          "type": "bool"
        }
      ],
      "stateMutability": "view",
      "type": "function"
    },
    {
      "inputs": [],
      "name": "owner",
      "outputs": [
        {
          "internalType": "address",
          "name": "",
          "type": "address"
        }
      ],
      "stateMutability": "view",
      "type": "function"
    },
    {
      "inputs": [
        {
          "internalType": "uint256",
          "name": "_tokenId",
          "type": "uint256"
        }
      ],
      "name": "ownerOf",
      "outputs": [
        {
          "internalType": "address",
          "name": "",
          "type": "address"
        }
      ],
      "stateMutability": "view",
      "type": "function"
    },
    {
      "inputs": [],
      "name": "renounceOwnership",
      "outputs": [],
      "stateMutability": "nonpayable",
      "type": "function"
    },
    {
      "inputs": [
        {
          "internalType": "uint256",
          "name": "_fee",
          "type": "uint256"
        }
      ],
      "name": "setLevelUpFee",
      "outputs": [],
      "stateMutability": "nonpayable",
      "type": "function"
    },
    {
      "inputs": [
        {
          "internalType": "uint256",
          "name": "_shipId",
          "type": "uint256"
        }
      ],
      "name": "shipLevelUp",
      "outputs": [],
      "stateMutability": "payable",
      "type": "function"
    },
    {
      "inputs": [
        {
          "internalType": "uint256",
          "name": "_shipId",
          "type": "uint256"
        }
      ],
      "name": "shipURI",
      "outputs": [
        {
          "internalType": "string",
          "name": "",
          "type": "string"
        }
      ],
      "stateMutability": "view",
      "type": "function"
    },
    {
      "inputs": [
        {
          "internalType": "address",
          "name": "_from",
          "type": "address"
        },
        {
          "internalType": "address",
          "name": "_to",
          "type": "address"
        },
        {
          "internalType": "uint256",
          "name": "_tokenId",
          "type": "uint256"
        }
      ],
      "name": "transferFrom",
      "outputs": [],
      "stateMutability": "payable",
      "type": "function"
    },
    {
      "inputs": [
        {
          "internalType": "address",
          "name": "newOwner",
          "type": "address"
        }
      ],
      "name": "transferOwnership",
      "outputs": [],
      "stateMutability": "nonpayable",
      "type": "function"
    },
    {
      "inputs": [],
      "name": "withdraw",
      "outputs": [],
      "stateMutability": "nonpayable",
      "type": "function"
    }
  ],
  "bytecode": "0x60806040526509184e72a00060045534801561001a57600080fd5b50336000806101000a81548173ffffffffffffffffffffffffffffffffffffffff021916908373ffffffffffffffffffffffffffffffffffffffff16021790555060008054906101000a900473ffffffffffffffffffffffffffffffffffffffff1673ffffffffffffffffffffffffffffffffffffffff16600073ffffffffffffffffffffffffffffffffffffffff167f8be0079c531659141344cd1fd0a4f28419497f9722a3daafe3b4186f6b6457e060405160405180910390a3611ce2806100e56000396000f3fe6080604052600436106100f35760003560e01c80638da5cb5b1161008a578063cacc9e0b11610059578063cacc9e0b1461030e578063ccf670f81461034f578063ce8a2f3d14610378578063f2fde38b14610394576100f3565b80638da5cb5b1461023e5780638f32d59b14610269578063a1fc85de14610294578063a8e23a36146102d1576100f3565b80633ccfd60b116100c65780633ccfd60b146101965780636352211e146101ad57806370a08231146101ea578063715018a614610227576100f3565b806306fb6326146100f8578063081812fc14610121578063095ea7b31461015e57806323b872dd1461017a575b600080fd5b34801561010457600080fd5b5061011f600480360381019061011a9190611413565b6103bd565b005b34801561012d57600080fd5b50610148600480360381019061014391906114c7565b610752565b60405161015591906116f2565b60405180910390f35b6101786004803603810190610173919061148b565b61078f565b005b610194600480360381019061018f919061143c565b610840565b005b3480156101a257600080fd5b506101ab610924565b005b3480156101b957600080fd5b506101d460048036038101906101cf91906114c7565b61098b565b6040516101e191906116f2565b60405180910390f35b3480156101f657600080fd5b50610211600480360381019061020c9190611413565b6109c8565b60405161021e91906117b5565b60405180910390f35b34801561023357600080fd5b5061023c610a11565b005b34801561024a57600080fd5b50610253610ae0565b60405161026091906116f2565b60405180910390f35b34801561027557600080fd5b5061027e610b09565b60405161028b9190611758565b60405180910390f35b3480156102a057600080fd5b506102bb60048036038101906102b691906114c7565b610b60565b6040516102c89190611773565b60405180910390f35b3480156102dd57600080fd5b506102f860048036038101906102f39190611413565b610c4f565b6040516103059190611736565b60405180910390f35b34801561031a57600080fd5b50610335600480360381019061033091906114c7565b610dee565b6040516103469594939291906117d0565b60405180910390f35b34801561035b57600080fd5b50610376600480360381019061037191906114c7565b610e44565b005b610392600480360381019061038d91906114c7565b610e5f565b005b3480156103a057600080fd5b506103bb60048036038101906103b69190611413565b610f4d565b005b610fa08173ffffffffffffffffffffffffffffffffffffffff166370a08231336040518263ffffffff1660e01b81526004016103f991906116f2565b60206040518083038186803b15801561041157600080fd5b505afa158015610425573d6000803e3d6000fd5b505050506040513d601f19601f8201168201806040525081019061044991906114f0565b11610489576040517f08c379a000000000000000000000000000000000000000000000000000000000815260040161048090611795565b60405180910390fd5b6000610493610f6a565b905060008160036104a49190611966565b6104e26040518060400160405280600381526020017f646d670000000000000000000000000000000000000000000000000000000000815250610fba565b6104ec9190611883565b905060008260036104fd9190611966565b61053b6040518060400160405280600281526020017f6870000000000000000000000000000000000000000000000000000000000000815250610fba565b6105459190611883565b905060016040518060a0016040528085815260200160008152602001600163ffffffff168152602001838152602001848152509080600181540180825580915050600190039060005260206000209060050201600090919091909150600082015181600001556020820151816001015560408201518160020160006101000a81548163ffffffff021916908363ffffffff16021790555060608201518160030155608082015181600401555050600060018054905090506001600360003373ffffffffffffffffffffffffffffffffffffffff1673ffffffffffffffffffffffffffffffffffffffff168152602001908152602001600020600082825461064c9190611883565b92505081905550336002600083815260200190815260200160002060006101000a81548173ffffffffffffffffffffffffffffffffffffffff021916908373ffffffffffffffffffffffffffffffffffffffff1602179055508473ffffffffffffffffffffffffffffffffffffffff16639dc29fac33610fa06040518363ffffffff1660e01b81526004016106e292919061170d565b600060405180830381600087803b1580156106fc57600080fd5b505af1158015610710573d6000803e3d6000fd5b505050507f489c3e474816917eca955f4c7664a3bdb292d84aa72bb5246c73dfb300e795ae8160405161074391906117b5565b60405180910390a15050505050565b60006005600083815260200190815260200160002060009054906101000a900473ffffffffffffffffffffffffffffffffffffffff169050919050565b816005600083815260200190815260200160002060006101000a81548173ffffffffffffffffffffffffffffffffffffffff021916908373ffffffffffffffffffffffffffffffffffffffff160217905550808273ffffffffffffffffffffffffffffffffffffffff163373ffffffffffffffffffffffffffffffffffffffff167f8c5be1e5ebec7d5bd14f71427d1e84f3dd0314c0f7b2291e5b200ac8c7c3b92560405160405180910390a45050565b3373ffffffffffffffffffffffffffffffffffffffff166002600083815260200190815260200160002060009054906101000a900473ffffffffffffffffffffffffffffffffffffffff1673ffffffffffffffffffffffffffffffffffffffff16148061090b57503373ffffffffffffffffffffffffffffffffffffffff166005600083815260200190815260200160002060009054906101000a900473ffffffffffffffffffffffffffffffffffffffff1673ffffffffffffffffffffffffffffffffffffffff16145b61091457600080fd5b61091f838383611002565b505050565b61092c610b09565b61093557600080fd5b600061093f610ae0565b90508073ffffffffffffffffffffffffffffffffffffffff166108fc479081150290604051600060405180830381858888f19350505050158015610987573d6000803e3d6000fd5b5050565b60006002600083815260200190815260200160002060009054906101000a900473ffffffffffffffffffffffffffffffffffffffff169050919050565b6000600360008373ffffffffffffffffffffffffffffffffffffffff1673ffffffffffffffffffffffffffffffffffffffff168152602001908152602001600020549050919050565b610a19610b09565b610a2257600080fd5b600073ffffffffffffffffffffffffffffffffffffffff1660008054906101000a900473ffffffffffffffffffffffffffffffffffffffff1673ffffffffffffffffffffffffffffffffffffffff167f8be0079c531659141344cd1fd0a4f28419497f9722a3daafe3b4186f6b6457e060405160405180910390a360008060006101000a81548173ffffffffffffffffffffffffffffffffffffffff021916908373ffffffffffffffffffffffffffffffffffffffff160217905550565b60008060009054906101000a900473ffffffffffffffffffffffffffffffffffffffff16905090565b60008060009054906101000a900473ffffffffffffffffffffffffffffffffffffffff1673ffffffffffffffffffffffffffffffffffffffff163373ffffffffffffffffffffffffffffffffffffffff1614905090565b60606001808381548110610b9d577f4e487b7100000000000000000000000000000000000000000000000000000000600052603260045260246000fd5b9060005260206000209060050201600001541415610bcc57604051806020016040528060008152509050610c4a565b600260018381548110610c08577f4e487b7100000000000000000000000000000000000000000000000000000000600052603260045260246000fd5b9060005260206000209060050201600001541415610c3757604051806020016040528060008152509050610c4a565b6040518060200160405280600081525090505b919050565b60606000600360008473ffffffffffffffffffffffffffffffffffffffff1673ffffffffffffffffffffffffffffffffffffffff1681526020019081526020016000205467ffffffffffffffff811115610cd2577f4e487b7100000000000000000000000000000000000000000000000000000000600052604160045260246000fd5b604051908082528060200260200182016040528015610d005781602001602082028036833780820191505090505b5090506000805b600180549050811015610de3578473ffffffffffffffffffffffffffffffffffffffff166002600083815260200190815260200160002060009054906101000a900473ffffffffffffffffffffffffffffffffffffffff1673ffffffffffffffffffffffffffffffffffffffff161415610dd05780838381518110610db5577f4e487b7100000000000000000000000000000000000000000000000000000000600052603260045260246000fd5b6020026020010181815250508180610dcc90611b55565b9250505b8080610ddb90611b55565b915050610d07565b508192505050919050565b60018181548110610dfe57600080fd5b90600052602060002090600502016000915090508060000154908060010154908060020160009054906101000a900463ffffffff16908060030154908060040154905085565b610e4c610b09565b610e5557600080fd5b8060048190555050565b6004543414610e6d57600080fd5b610ee16001808381548110610eab577f4e487b7100000000000000000000000000000000000000000000000000000000600052603260045260246000fd5b906000526020600020906005020160020160009054906101000a900463ffffffff1663ffffffff166111e090919063ffffffff16565b60018281548110610f1b577f4e487b7100000000000000000000000000000000000000000000000000000000600052603260045260246000fd5b906000526020600020906005020160020160006101000a81548163ffffffff021916908363ffffffff16021790555050565b610f55610b09565b610f5e57600080fd5b610f678161123e565b50565b6000804442604051602001610f8092919061168d565b6040516020818303038152906040528051906020012060001c90506001600382610faa9190611ba8565b610fb49190611883565b91505090565b600080444284604051602001610fd2939291906116b9565b6040516020818303038152906040528051906020012060001c9050601481610ffa9190611ba8565b915050919050565b816002600083815260200190815260200160002060006101000a81548173ffffffffffffffffffffffffffffffffffffffff021916908373ffffffffffffffffffffffffffffffffffffffff1602179055506110a76001600360008573ffffffffffffffffffffffffffffffffffffffff1673ffffffffffffffffffffffffffffffffffffffff1681526020019081526020016000205461133590919063ffffffff16565b600360008473ffffffffffffffffffffffffffffffffffffffff1673ffffffffffffffffffffffffffffffffffffffff1681526020019081526020016000208190555061113d6001600360008673ffffffffffffffffffffffffffffffffffffffff1673ffffffffffffffffffffffffffffffffffffffff1681526020019081526020016000205461138790919063ffffffff16565b600360008573ffffffffffffffffffffffffffffffffffffffff1673ffffffffffffffffffffffffffffffffffffffff16815260200190815260200160002081905550808273ffffffffffffffffffffffffffffffffffffffff168473ffffffffffffffffffffffffffffffffffffffff167fddf252ad1be2c89b69c2b068fc378daa952ba7f163c4a11628f55a4df523b3ef60405160405180910390a4505050565b60008082846111ef91906118d9565b90508363ffffffff168163ffffffff161015611234577f4e487b7100000000000000000000000000000000000000000000000000000000600052600160045260246000fd5b8091505092915050565b600073ffffffffffffffffffffffffffffffffffffffff168173ffffffffffffffffffffffffffffffffffffffff16141561127857600080fd5b8073ffffffffffffffffffffffffffffffffffffffff1660008054906101000a900473ffffffffffffffffffffffffffffffffffffffff1673ffffffffffffffffffffffffffffffffffffffff167f8be0079c531659141344cd1fd0a4f28419497f9722a3daafe3b4186f6b6457e060405160405180910390a3806000806101000a81548173ffffffffffffffffffffffffffffffffffffffff021916908373ffffffffffffffffffffffffffffffffffffffff16021790555050565b60008082846113449190611883565b90508381101561137d577f4e487b7100000000000000000000000000000000000000000000000000000000600052600160045260246000fd5b8091505092915050565b6000828211156113c0577f4e487b7100000000000000000000000000000000000000000000000000000000600052600160045260246000fd5b81836113cc9190611a84565b905092915050565b6000813590506113e381611c7e565b92915050565b6000813590506113f881611c95565b92915050565b60008151905061140d81611c95565b92915050565b60006020828403121561142557600080fd5b6000611433848285016113d4565b91505092915050565b60008060006060848603121561145157600080fd5b600061145f868287016113d4565b9350506020611470868287016113d4565b9250506040611481868287016113e9565b9150509250925092565b6000806040838503121561149e57600080fd5b60006114ac858286016113d4565b92505060206114bd858286016113e9565b9150509250929050565b6000602082840312156114d957600080fd5b60006114e7848285016113e9565b91505092915050565b60006020828403121561150257600080fd5b6000611510848285016113fe565b91505092915050565b60006115258383611649565b60208301905092915050565b61153a81611ab8565b82525050565b600061154b82611833565b6115558185611856565b935061156083611823565b8060005b838110156115915781516115788882611519565b975061158383611849565b925050600181019050611564565b5085935050505092915050565b6115a781611aca565b82525050565b6115b681611b10565b82525050565b60006115c78261183e565b6115d18185611867565b93506115e1818560208601611b22565b6115ea81611c37565b840191505092915050565b60006116008261183e565b61160a8185611878565b935061161a818560208601611b22565b80840191505092915050565b6000611633601583611867565b915061163e82611c55565b602082019050919050565b61165281611af6565b82525050565b61166181611af6565b82525050565b61167861167382611af6565b611b9e565b82525050565b61168781611b00565b82525050565b60006116998285611667565b6020820191506116a98284611667565b6020820191508190509392505050565b60006116c58286611667565b6020820191506116d58285611667565b6020820191506116e582846115f5565b9150819050949350505050565b60006020820190506117076000830184611531565b92915050565b60006040820190506117226000830185611531565b61172f60208301846115ad565b9392505050565b600060208201905081810360008301526117508184611540565b905092915050565b600060208201905061176d600083018461159e565b92915050565b6000602082019050818103600083015261178d81846115bc565b905092915050565b600060208201905081810360008301526117ae81611626565b9050919050565b60006020820190506117ca6000830184611658565b92915050565b600060a0820190506117e56000830188611658565b6117f26020830187611658565b6117ff604083018661167e565b61180c6060830185611658565b6118196080830184611658565b9695505050505050565b6000819050602082019050919050565b600081519050919050565b600081519050919050565b6000602082019050919050565b600082825260208201905092915050565b600082825260208201905092915050565b600081905092915050565b600061188e82611af6565b915061189983611af6565b9250827fffffffffffffffffffffffffffffffffffffffffffffffffffffffffffffffff038211156118ce576118cd611bd9565b5b828201905092915050565b60006118e482611b00565b91506118ef83611b00565b92508263ffffffff0382111561190857611907611bd9565b5b828201905092915050565b6000808291508390505b600185111561195d5780860481111561193957611938611bd9565b5b60018516156119485780820291505b808102905061195685611c48565b945061191d565b94509492505050565b600061197182611af6565b915061197c83611af6565b92506119a97fffffffffffffffffffffffffffffffffffffffffffffffffffffffffffffffff84846119b1565b905092915050565b6000826119c15760019050611a7d565b816119cf5760009050611a7d565b81600181146119e557600281146119ef57611a1e565b6001915050611a7d565b60ff841115611a0157611a00611bd9565b5b8360020a915084821115611a1857611a17611bd9565b5b50611a7d565b5060208310610133831016604e8410600b8410161715611a535782820a905083811115611a4e57611a4d611bd9565b5b611a7d565b611a608484846001611913565b92509050818404811115611a7757611a76611bd9565b5b81810290505b9392505050565b6000611a8f82611af6565b9150611a9a83611af6565b925082821015611aad57611aac611bd9565b5b828203905092915050565b6000611ac382611ad6565b9050919050565b60008115159050919050565b600073ffffffffffffffffffffffffffffffffffffffff82169050919050565b6000819050919050565b600063ffffffff82169050919050565b6000611b1b82611af6565b9050919050565b60005b83811015611b40578082015181840152602081019050611b25565b83811115611b4f576000848401525b50505050565b6000611b6082611af6565b91507fffffffffffffffffffffffffffffffffffffffffffffffffffffffffffffffff821415611b9357611b92611bd9565b5b600182019050919050565b6000819050919050565b6000611bb382611af6565b9150611bbe83611af6565b925082611bce57611bcd611c08565b5b828206905092915050565b7f4e487b7100000000000000000000000000000000000000000000000000000000600052601160045260246000fd5b7f4e487b7100000000000000000000000000000000000000000000000000000000600052601260045260246000fd5b6000601f19601f8301169050919050565b60008160011c9050919050565b7f496e73756666696369656e742062616c616e6365210000000000000000000000600082015250565b611c8781611ab8565b8114611c9257600080fd5b50565b611c9e81611af6565b8114611ca957600080fd5b5056fea2646970667358221220a11ce2e0d135a94e2e1e5b94abc5e9d5fb53b0aae4f430b8263132b1cb598d4564736f6c63430008040033",
  "linkReferences": {},
  "deployedLinkReferences": {}
}