{
  "_format": "hh-sol-artifact-1",
  "contractName": "BattleShipHelper",
  "sourceName": "contracts/BattleShipHelper.sol",
  "abi": [
    {
      "anonymous": false,
      "inputs": [
        {
          "indexed": false,
          "internalType": "uint256",
          "name": "shipId",
          "type": "uint256"
        }
      ],
      "name": "NewBattleShip",
      "type": "event"
    },
    {
      "anonymous": false,
      "inputs": [
        {
          "indexed": true,
          "internalType": "address",
          "name": "previousOwner",
          "type": "address"
        },
        {
          "indexed": true,
          "internalType": "address",
          "name": "newOwner",
          "type": "address"
        }
      ],
      "name": "OwnershipTransferred",
      "type": "event"
    },
    {
      "inputs": [
        {
          "internalType": "uint256",
          "name": "",
          "type": "uint256"
        }
      ],
      "name": "battleShips",
      "outputs": [
        {
          "internalType": "uint256",
          "name": "shipType",
          "type": "uint256"
        },
        {
          "internalType": "uint256",
          "name": "exp",
          "type": "uint256"
        },
        {
          "internalType": "uint32",
          "name": "level",
          "type": "uint32"
        },
        {
          "internalType": "uint256",
          "name": "health",
          "type": "uint256"
        },
        {
          "internalType": "uint256",
          "name": "damage",
          "type": "uint256"
        }
      ],
      "stateMutability": "view",
      "type": "function"
    },
    {
      "inputs": [
        {
          "internalType": "address",
          "name": "tokenAddress",
          "type": "address"
        }
      ],
      "name": "createRandomBattleShip",
      "outputs": [],
      "stateMutability": "nonpayable",
      "type": "function"
    },
    {
      "inputs": [
        {
          "internalType": "address",
          "name": "_owner",
          "type": "address"
        }
      ],
      "name": "getShipsByOwner",
      "outputs": [
        {
          "internalType": "uint256[]",
          "name": "",
          "type": "uint256[]"
        }
      ],
      "stateMutability": "view",
      "type": "function"
    },
    {
      "inputs": [],
      "name": "isOwner",
      "outputs": [
        {
          "internalType": "bool",
          "name": "",
          "type": "bool"
        }
      ],
      "stateMutability": "view",
      "type": "function"
    },
    {
      "inputs": [],
      "name": "owner",
      "outputs": [
        {
          "internalType": "address",
          "name": "",
          "type": "address"
        }
      ],
      "stateMutability": "view",
      "type": "function"
    },
    {
      "inputs": [],
      "name": "renounceOwnership",
      "outputs": [],
      "stateMutability": "nonpayable",
      "type": "function"
    },
    {
      "inputs": [
        {
          "internalType": "uint256",
          "name": "_fee",
          "type": "uint256"
        }
      ],
      "name": "setLevelUpFee",
      "outputs": [],
      "stateMutability": "nonpayable",
      "type": "function"
    },
    {
      "inputs": [
        {
          "internalType": "uint256",
          "name": "_shipId",
          "type": "uint256"
        }
      ],
      "name": "shipLevelUp",
      "outputs": [],
      "stateMutability": "payable",
      "type": "function"
    },
    {
      "inputs": [
        {
          "internalType": "uint256",
          "name": "_shipId",
          "type": "uint256"
        }
      ],
      "name": "shipURI",
      "outputs": [
        {
          "internalType": "string",
          "name": "",
          "type": "string"
        }
      ],
      "stateMutability": "view",
      "type": "function"
    },
    {
      "inputs": [
        {
          "internalType": "address",
          "name": "newOwner",
          "type": "address"
        }
      ],
      "name": "transferOwnership",
      "outputs": [],
      "stateMutability": "nonpayable",
      "type": "function"
    },
    {
      "inputs": [],
      "name": "withdraw",
      "outputs": [],
      "stateMutability": "nonpayable",
      "type": "function"
    }
  ],
  "bytecode": "0x6080604052601e600260006101000a81548161ffff021916908361ffff1602179055506509184e72a00060055534801561003857600080fd5b50336000806101000a81548173ffffffffffffffffffffffffffffffffffffffff021916908373ffffffffffffffffffffffffffffffffffffffff16021790555060008054906101000a900473ffffffffffffffffffffffffffffffffffffffff1673ffffffffffffffffffffffffffffffffffffffff16600073ffffffffffffffffffffffffffffffffffffffff167f8be0079c531659141344cd1fd0a4f28419497f9722a3daafe3b4186f6b6457e060405160405180910390a3611548806101036000396000f3fe60806040526004361061009c5760003560e01c8063a1fc85de11610064578063a1fc85de1461014e578063a8e23a361461018b578063cacc9e0b146101c8578063ccf670f814610209578063ce8a2f3d14610232578063f2fde38b1461024e5761009c565b806306fb6326146100a15780633ccfd60b146100ca578063715018a6146100e15780638da5cb5b146100f85780638f32d59b14610123575b600080fd5b3480156100ad57600080fd5b506100c860048036038101906100c39190610e4e565b610277565b005b3480156100d657600080fd5b506100df610617565b005b3480156100ed57600080fd5b506100f661067e565b005b34801561010457600080fd5b5061010d61074d565b60405161011a91906110a2565b60405180910390f35b34801561012f57600080fd5b50610138610776565b6040516101459190611108565b60405180910390f35b34801561015a57600080fd5b5061017560048036038101906101709190610e77565b6107cd565b6040516101829190611123565b60405180910390f35b34801561019757600080fd5b506101b260048036038101906101ad9190610e4e565b6108bc565b6040516101bf91906110e6565b60405180910390f35b3480156101d457600080fd5b506101ef60048036038101906101ea9190610e77565b610a5b565b604051610200959493929190611180565b60405180910390f35b34801561021557600080fd5b50610230600480360381019061022b9190610e77565b610ab1565b005b61024c60048036038101906102479190610e77565b610acc565b005b34801561025a57600080fd5b5061027560048036038101906102709190610e4e565b610bba565b005b600260009054906101000a900461ffff1661ffff168173ffffffffffffffffffffffffffffffffffffffff166370a08231336040518263ffffffff1660e01b81526004016102c591906110a2565b60206040518083038186803b1580156102dd57600080fd5b505afa1580156102f1573d6000803e3d6000fd5b505050506040513d601f19601f820116820180604052508101906103159190610ea0565b11610355576040517f08c379a000000000000000000000000000000000000000000000000000000000815260040161034c90611145565b60405180910390fd5b600061035f610bd7565b905060006103a26040518060400160405280600381526020017f646d67000000000000000000000000000000000000000000000000000000000081525083610c4f565b905060006003826103b391906112c3565b6103f26040518060400160405280600281526020017f687000000000000000000000000000000000000000000000000000000000000081525085610c4f565b6103fc9190611233565b905060016040518060a0016040528085815260200160008152602001600163ffffffff168152602001838152602001848152509080600181540180825580915050600190039060005260206000209060050201600090919091909150600082015181600001556020820151816001015560408201518160020160006101000a81548163ffffffff021916908363ffffffff16021790555060608201518160030155608082015181600401555050600060018054905090506001600460003373ffffffffffffffffffffffffffffffffffffffff1673ffffffffffffffffffffffffffffffffffffffff16815260200190815260200160002060008282546105039190611233565b92505081905550336003600083815260200190815260200160002060006101000a81548173ffffffffffffffffffffffffffffffffffffffff021916908373ffffffffffffffffffffffffffffffffffffffff1602179055508473ffffffffffffffffffffffffffffffffffffffff16639dc29fac33600260009054906101000a900461ffff166040518363ffffffff1660e01b81526004016105a79291906110bd565b600060405180830381600087803b1580156105c157600080fd5b505af11580156105d5573d6000803e3d6000fd5b505050507f489c3e474816917eca955f4c7664a3bdb292d84aa72bb5246c73dfb300e795ae816040516106089190611165565b60405180910390a15050505050565b61061f610776565b61062857600080fd5b600061063261074d565b90508073ffffffffffffffffffffffffffffffffffffffff166108fc479081150290604051600060405180830381858888f1935050505015801561067a573d6000803e3d6000fd5b5050565b610686610776565b61068f57600080fd5b600073ffffffffffffffffffffffffffffffffffffffff1660008054906101000a900473ffffffffffffffffffffffffffffffffffffffff1673ffffffffffffffffffffffffffffffffffffffff167f8be0079c531659141344cd1fd0a4f28419497f9722a3daafe3b4186f6b6457e060405160405180910390a360008060006101000a81548173ffffffffffffffffffffffffffffffffffffffff021916908373ffffffffffffffffffffffffffffffffffffffff160217905550565b60008060009054906101000a900473ffffffffffffffffffffffffffffffffffffffff16905090565b60008060009054906101000a900473ffffffffffffffffffffffffffffffffffffffff1673ffffffffffffffffffffffffffffffffffffffff163373ffffffffffffffffffffffffffffffffffffffff1614905090565b6060600180838154811061080a577f4e487b7100000000000000000000000000000000000000000000000000000000600052603260045260246000fd5b9060005260206000209060050201600001541415610839576040518060200160405280600081525090506108b7565b600260018381548110610875577f4e487b7100000000000000000000000000000000000000000000000000000000600052603260045260246000fd5b90600052602060002090600502016000015414156108a4576040518060200160405280600081525090506108b7565b6040518060200160405280600081525090505b919050565b60606000600460008473ffffffffffffffffffffffffffffffffffffffff1673ffffffffffffffffffffffffffffffffffffffff1681526020019081526020016000205467ffffffffffffffff81111561093f577f4e487b7100000000000000000000000000000000000000000000000000000000600052604160045260246000fd5b60405190808252806020026020018201604052801561096d5781602001602082028036833780820191505090505b5090506000805b600180549050811015610a50578473ffffffffffffffffffffffffffffffffffffffff166003600083815260200190815260200160002060009054906101000a900473ffffffffffffffffffffffffffffffffffffffff1673ffffffffffffffffffffffffffffffffffffffff161415610a3d5780838381518110610a22577f4e487b7100000000000000000000000000000000000000000000000000000000600052603260045260246000fd5b6020026020010181815250508180610a39906113c8565b9250505b8080610a48906113c8565b915050610974565b508192505050919050565b60018181548110610a6b57600080fd5b90600052602060002090600502016000915090508060000154908060010154908060020160009054906101000a900463ffffffff16908060030154908060040154905085565b610ab9610776565b610ac257600080fd5b8060058190555050565b6005543414610ada57600080fd5b610b4e6001808381548110610b18577f4e487b7100000000000000000000000000000000000000000000000000000000600052603260045260246000fd5b906000526020600020906005020160020160009054906101000a900463ffffffff1663ffffffff16610cba90919063ffffffff16565b60018281548110610b88577f4e487b7100000000000000000000000000000000000000000000000000000000600052603260045260246000fd5b906000526020600020906005020160020160006101000a81548163ffffffff021916908363ffffffff16021790555050565b610bc2610776565b610bcb57600080fd5b610bd481610d18565b50565b6000804442604051602001610bed92919061103d565b6040516020818303038152906040528051906020012060001c9050603c606482610c17919061141b565b1015610c27576001915050610c4c565b605a606482610c36919061141b565b1015610c46576002915050610c4c565b60039150505b90565b600080444285604051602001610c6793929190611069565b6040516020818303038152906040528051906020012060001c905082600a610c8f91906112c3565b83600a83610c9d919061141b565b610ca791906112c3565b610cb19190611233565b91505092915050565b6000808284610cc99190611289565b90508363ffffffff168163ffffffff161015610d0e577f4e487b7100000000000000000000000000000000000000000000000000000000600052600160045260246000fd5b8091505092915050565b600073ffffffffffffffffffffffffffffffffffffffff168173ffffffffffffffffffffffffffffffffffffffff161415610d5257600080fd5b8073ffffffffffffffffffffffffffffffffffffffff1660008054906101000a900473ffffffffffffffffffffffffffffffffffffffff1673ffffffffffffffffffffffffffffffffffffffff167f8be0079c531659141344cd1fd0a4f28419497f9722a3daafe3b4186f6b6457e060405160405180910390a3806000806101000a81548173ffffffffffffffffffffffffffffffffffffffff021916908373ffffffffffffffffffffffffffffffffffffffff16021790555050565b600081359050610e1e816114e4565b92915050565b600081359050610e33816114fb565b92915050565b600081519050610e48816114fb565b92915050565b600060208284031215610e6057600080fd5b6000610e6e84828501610e0f565b91505092915050565b600060208284031215610e8957600080fd5b6000610e9784828501610e24565b91505092915050565b600060208284031215610eb257600080fd5b6000610ec084828501610e39565b91505092915050565b6000610ed58383610ff9565b60208301905092915050565b610eea8161131d565b82525050565b6000610efb826111e3565b610f058185611206565b9350610f10836111d3565b8060005b83811015610f41578151610f288882610ec9565b9750610f33836111f9565b925050600181019050610f14565b5085935050505092915050565b610f578161132f565b82525050565b6000610f68826111ee565b610f728185611217565b9350610f82818560208601611395565b610f8b816114aa565b840191505092915050565b6000610fa1826111ee565b610fab8185611228565b9350610fbb818560208601611395565b80840191505092915050565b6000610fd4601583611217565b9150610fdf826114bb565b602082019050919050565b610ff381611383565b82525050565b61100281611369565b82525050565b61101181611369565b82525050565b61102861102382611369565b611411565b82525050565b61103781611373565b82525050565b60006110498285611017565b6020820191506110598284611017565b6020820191508190509392505050565b60006110758286611017565b6020820191506110858285611017565b6020820191506110958284610f96565b9150819050949350505050565b60006020820190506110b76000830184610ee1565b92915050565b60006040820190506110d26000830185610ee1565b6110df6020830184610fea565b9392505050565b600060208201905081810360008301526111008184610ef0565b905092915050565b600060208201905061111d6000830184610f4e565b92915050565b6000602082019050818103600083015261113d8184610f5d565b905092915050565b6000602082019050818103600083015261115e81610fc7565b9050919050565b600060208201905061117a6000830184611008565b92915050565b600060a0820190506111956000830188611008565b6111a26020830187611008565b6111af604083018661102e565b6111bc6060830185611008565b6111c96080830184611008565b9695505050505050565b6000819050602082019050919050565b600081519050919050565b600081519050919050565b6000602082019050919050565b600082825260208201905092915050565b600082825260208201905092915050565b600081905092915050565b600061123e82611369565b915061124983611369565b9250827fffffffffffffffffffffffffffffffffffffffffffffffffffffffffffffffff0382111561127e5761127d61144c565b5b828201905092915050565b600061129482611373565b915061129f83611373565b92508263ffffffff038211156112b8576112b761144c565b5b828201905092915050565b60006112ce82611369565b91506112d983611369565b9250817fffffffffffffffffffffffffffffffffffffffffffffffffffffffffffffffff04831182151516156113125761131161144c565b5b828202905092915050565b600061132882611349565b9050919050565b60008115159050919050565b600061ffff82169050919050565b600073ffffffffffffffffffffffffffffffffffffffff82169050919050565b6000819050919050565b600063ffffffff82169050919050565b600061138e8261133b565b9050919050565b60005b838110156113b3578082015181840152602081019050611398565b838111156113c2576000848401525b50505050565b60006113d382611369565b91507fffffffffffffffffffffffffffffffffffffffffffffffffffffffffffffffff8214156114065761140561144c565b5b600182019050919050565b6000819050919050565b600061142682611369565b915061143183611369565b9250826114415761144061147b565b5b828206905092915050565b7f4e487b7100000000000000000000000000000000000000000000000000000000600052601160045260246000fd5b7f4e487b7100000000000000000000000000000000000000000000000000000000600052601260045260246000fd5b6000601f19601f8301169050919050565b7f496e73756666696369656e742062616c616e6365210000000000000000000000600082015250565b6114ed8161131d565b81146114f857600080fd5b50565b61150481611369565b811461150f57600080fd5b5056fea2646970667358221220bd2e62e69d39893e368d0470587def37c47e8034e78471150be9866b580ad18b64736f6c63430008040033",
  "linkReferences": {},
  "deployedLinkReferences": {}
}