{
  "_format": "hh-sol-artifact-1",
  "contractName": "BattleShipHelper",
  "sourceName": "contracts/BattleShipHelper.sol",
  "abi": [
    {
      "anonymous": false,
      "inputs": [
        {
          "indexed": false,
          "internalType": "uint256",
          "name": "shipId",
          "type": "uint256"
        }
      ],
      "name": "NewBattleShip",
      "type": "event"
    },
    {
      "anonymous": false,
      "inputs": [
        {
          "indexed": true,
          "internalType": "address",
          "name": "previousOwner",
          "type": "address"
        },
        {
          "indexed": true,
          "internalType": "address",
          "name": "newOwner",
          "type": "address"
        }
      ],
      "name": "OwnershipTransferred",
      "type": "event"
    },
    {
      "inputs": [
        {
          "internalType": "uint256",
          "name": "",
          "type": "uint256"
        }
      ],
      "name": "battleShips",
      "outputs": [
        {
          "internalType": "uint256",
          "name": "shipType",
          "type": "uint256"
        },
        {
          "internalType": "uint256",
          "name": "exp",
          "type": "uint256"
        },
        {
          "internalType": "uint32",
          "name": "level",
          "type": "uint32"
        },
        {
          "internalType": "uint256",
          "name": "health",
          "type": "uint256"
        },
        {
          "internalType": "uint256",
          "name": "damage",
          "type": "uint256"
        }
      ],
      "stateMutability": "view",
      "type": "function"
    },
    {
      "inputs": [
        {
          "internalType": "address",
          "name": "tokenAddress",
          "type": "address"
        }
      ],
      "name": "createRandomBattleShip",
      "outputs": [],
      "stateMutability": "nonpayable",
      "type": "function"
    },
    {
      "inputs": [
        {
          "internalType": "address",
          "name": "_owner",
          "type": "address"
        }
      ],
      "name": "getShipsByOwner",
      "outputs": [
        {
          "internalType": "uint256[]",
          "name": "",
          "type": "uint256[]"
        }
      ],
      "stateMutability": "view",
      "type": "function"
    },
    {
      "inputs": [],
      "name": "isOwner",
      "outputs": [
        {
          "internalType": "bool",
          "name": "",
          "type": "bool"
        }
      ],
      "stateMutability": "view",
      "type": "function"
    },
    {
      "inputs": [],
      "name": "owner",
      "outputs": [
        {
          "internalType": "address",
          "name": "",
          "type": "address"
        }
      ],
      "stateMutability": "view",
      "type": "function"
    },
    {
      "inputs": [],
      "name": "renounceOwnership",
      "outputs": [],
      "stateMutability": "nonpayable",
      "type": "function"
    },
    {
      "inputs": [
        {
          "internalType": "uint256",
          "name": "_fee",
          "type": "uint256"
        }
      ],
      "name": "setLevelUpFee",
      "outputs": [],
      "stateMutability": "nonpayable",
      "type": "function"
    },
    {
      "inputs": [
        {
          "internalType": "uint256",
          "name": "_shipId",
          "type": "uint256"
        }
      ],
      "name": "shipLevelUp",
      "outputs": [],
      "stateMutability": "payable",
      "type": "function"
    },
    {
      "inputs": [
        {
          "internalType": "uint256",
          "name": "_shipId",
          "type": "uint256"
        }
      ],
      "name": "shipURI",
      "outputs": [
        {
          "internalType": "string",
          "name": "",
          "type": "string"
        }
      ],
      "stateMutability": "view",
      "type": "function"
    },
    {
      "inputs": [
        {
          "internalType": "address",
          "name": "newOwner",
          "type": "address"
        }
      ],
      "name": "transferOwnership",
      "outputs": [],
      "stateMutability": "nonpayable",
      "type": "function"
    },
    {
      "inputs": [],
      "name": "withdraw",
      "outputs": [],
      "stateMutability": "nonpayable",
      "type": "function"
    }
  ],
  "bytecode": "0x60806040526509184e72a00060045534801561001a57600080fd5b50336000806101000a81548173ffffffffffffffffffffffffffffffffffffffff021916908373ffffffffffffffffffffffffffffffffffffffff16021790555060008054906101000a900473ffffffffffffffffffffffffffffffffffffffff1673ffffffffffffffffffffffffffffffffffffffff16600073ffffffffffffffffffffffffffffffffffffffff167f8be0079c531659141344cd1fd0a4f28419497f9722a3daafe3b4186f6b6457e060405160405180910390a3611608806100e56000396000f3fe60806040526004361061009c5760003560e01c8063a1fc85de11610064578063a1fc85de1461014e578063a8e23a361461018b578063cacc9e0b146101c8578063ccf670f814610209578063ce8a2f3d14610232578063f2fde38b1461024e5761009c565b806306fb6326146100a15780633ccfd60b146100ca578063715018a6146100e15780638da5cb5b146100f85780638f32d59b14610123575b600080fd5b3480156100ad57600080fd5b506100c860048036038101906100c39190610df8565b610277565b005b3480156100d657600080fd5b506100df61060c565b005b3480156100ed57600080fd5b506100f6610673565b005b34801561010457600080fd5b5061010d610742565b60405161011a919061104c565b60405180910390f35b34801561012f57600080fd5b5061013861076b565b60405161014591906110b2565b60405180910390f35b34801561015a57600080fd5b5061017560048036038101906101709190610e21565b6107c2565b60405161018291906110cd565b60405180910390f35b34801561019757600080fd5b506101b260048036038101906101ad9190610df8565b6108b1565b6040516101bf9190611090565b60405180910390f35b3480156101d457600080fd5b506101ef60048036038101906101ea9190610e21565b610a50565b60405161020095949392919061112a565b60405180910390f35b34801561021557600080fd5b50610230600480360381019061022b9190610e21565b610aa6565b005b61024c60048036038101906102479190610e21565b610ac1565b005b34801561025a57600080fd5b5061027560048036038101906102709190610df8565b610baf565b005b610fa08173ffffffffffffffffffffffffffffffffffffffff166370a08231336040518263ffffffff1660e01b81526004016102b3919061104c565b60206040518083038186803b1580156102cb57600080fd5b505afa1580156102df573d6000803e3d6000fd5b505050506040513d601f19601f820116820180604052508101906103039190610e4a565b11610343576040517f08c379a000000000000000000000000000000000000000000000000000000000815260040161033a906110ef565b60405180910390fd5b600061034d610bcc565b9050600081600361035e91906112c0565b61039c6040518060400160405280600381526020017f646d670000000000000000000000000000000000000000000000000000000000815250610c1c565b6103a691906111dd565b905060008260036103b791906112c0565b6103f56040518060400160405280600281526020017f6870000000000000000000000000000000000000000000000000000000000000815250610c1c565b6103ff91906111dd565b905060016040518060a0016040528085815260200160008152602001600163ffffffff168152602001838152602001848152509080600181540180825580915050600190039060005260206000209060050201600090919091909150600082015181600001556020820151816001015560408201518160020160006101000a81548163ffffffff021916908363ffffffff16021790555060608201518160030155608082015181600401555050600060018054905090506001600360003373ffffffffffffffffffffffffffffffffffffffff1673ffffffffffffffffffffffffffffffffffffffff168152602001908152602001600020600082825461050691906111dd565b92505081905550336002600083815260200190815260200160002060006101000a81548173ffffffffffffffffffffffffffffffffffffffff021916908373ffffffffffffffffffffffffffffffffffffffff1602179055508473ffffffffffffffffffffffffffffffffffffffff16639dc29fac33610fa06040518363ffffffff1660e01b815260040161059c929190611067565b600060405180830381600087803b1580156105b657600080fd5b505af11580156105ca573d6000803e3d6000fd5b505050507f489c3e474816917eca955f4c7664a3bdb292d84aa72bb5246c73dfb300e795ae816040516105fd919061110f565b60405180910390a15050505050565b61061461076b565b61061d57600080fd5b6000610627610742565b90508073ffffffffffffffffffffffffffffffffffffffff166108fc479081150290604051600060405180830381858888f1935050505015801561066f573d6000803e3d6000fd5b5050565b61067b61076b565b61068457600080fd5b600073ffffffffffffffffffffffffffffffffffffffff1660008054906101000a900473ffffffffffffffffffffffffffffffffffffffff1673ffffffffffffffffffffffffffffffffffffffff167f8be0079c531659141344cd1fd0a4f28419497f9722a3daafe3b4186f6b6457e060405160405180910390a360008060006101000a81548173ffffffffffffffffffffffffffffffffffffffff021916908373ffffffffffffffffffffffffffffffffffffffff160217905550565b60008060009054906101000a900473ffffffffffffffffffffffffffffffffffffffff16905090565b60008060009054906101000a900473ffffffffffffffffffffffffffffffffffffffff1673ffffffffffffffffffffffffffffffffffffffff163373ffffffffffffffffffffffffffffffffffffffff1614905090565b606060018083815481106107ff577f4e487b7100000000000000000000000000000000000000000000000000000000600052603260045260246000fd5b906000526020600020906005020160000154141561082e576040518060200160405280600081525090506108ac565b60026001838154811061086a577f4e487b7100000000000000000000000000000000000000000000000000000000600052603260045260246000fd5b9060005260206000209060050201600001541415610899576040518060200160405280600081525090506108ac565b6040518060200160405280600081525090505b919050565b60606000600360008473ffffffffffffffffffffffffffffffffffffffff1673ffffffffffffffffffffffffffffffffffffffff1681526020019081526020016000205467ffffffffffffffff811115610934577f4e487b7100000000000000000000000000000000000000000000000000000000600052604160045260246000fd5b6040519080825280602002602001820160405280156109625781602001602082028036833780820191505090505b5090506000805b600180549050811015610a45578473ffffffffffffffffffffffffffffffffffffffff166002600083815260200190815260200160002060009054906101000a900473ffffffffffffffffffffffffffffffffffffffff1673ffffffffffffffffffffffffffffffffffffffff161415610a325780838381518110610a17577f4e487b7100000000000000000000000000000000000000000000000000000000600052603260045260246000fd5b6020026020010181815250508180610a2e9061147b565b9250505b8080610a3d9061147b565b915050610969565b508192505050919050565b60018181548110610a6057600080fd5b90600052602060002090600502016000915090508060000154908060010154908060020160009054906101000a900463ffffffff16908060030154908060040154905085565b610aae61076b565b610ab757600080fd5b8060048190555050565b6004543414610acf57600080fd5b610b436001808381548110610b0d577f4e487b7100000000000000000000000000000000000000000000000000000000600052603260045260246000fd5b906000526020600020906005020160020160009054906101000a900463ffffffff1663ffffffff16610c6490919063ffffffff16565b60018281548110610b7d577f4e487b7100000000000000000000000000000000000000000000000000000000600052603260045260246000fd5b906000526020600020906005020160020160006101000a81548163ffffffff021916908363ffffffff16021790555050565b610bb761076b565b610bc057600080fd5b610bc981610cc2565b50565b6000804442604051602001610be2929190610fe7565b6040516020818303038152906040528051906020012060001c90506001600382610c0c91906114ce565b610c1691906111dd565b91505090565b600080444284604051602001610c3493929190611013565b6040516020818303038152906040528051906020012060001c9050601481610c5c91906114ce565b915050919050565b6000808284610c739190611233565b90508363ffffffff168163ffffffff161015610cb8577f4e487b7100000000000000000000000000000000000000000000000000000000600052600160045260246000fd5b8091505092915050565b600073ffffffffffffffffffffffffffffffffffffffff168173ffffffffffffffffffffffffffffffffffffffff161415610cfc57600080fd5b8073ffffffffffffffffffffffffffffffffffffffff1660008054906101000a900473ffffffffffffffffffffffffffffffffffffffff1673ffffffffffffffffffffffffffffffffffffffff167f8be0079c531659141344cd1fd0a4f28419497f9722a3daafe3b4186f6b6457e060405160405180910390a3806000806101000a81548173ffffffffffffffffffffffffffffffffffffffff021916908373ffffffffffffffffffffffffffffffffffffffff16021790555050565b600081359050610dc8816115a4565b92915050565b600081359050610ddd816115bb565b92915050565b600081519050610df2816115bb565b92915050565b600060208284031215610e0a57600080fd5b6000610e1884828501610db9565b91505092915050565b600060208284031215610e3357600080fd5b6000610e4184828501610dce565b91505092915050565b600060208284031215610e5c57600080fd5b6000610e6a84828501610de3565b91505092915050565b6000610e7f8383610fa3565b60208301905092915050565b610e94816113de565b82525050565b6000610ea58261118d565b610eaf81856111b0565b9350610eba8361117d565b8060005b83811015610eeb578151610ed28882610e73565b9750610edd836111a3565b925050600181019050610ebe565b5085935050505092915050565b610f01816113f0565b82525050565b610f1081611436565b82525050565b6000610f2182611198565b610f2b81856111c1565b9350610f3b818560208601611448565b610f448161155d565b840191505092915050565b6000610f5a82611198565b610f6481856111d2565b9350610f74818560208601611448565b80840191505092915050565b6000610f8d6015836111c1565b9150610f988261157b565b602082019050919050565b610fac8161141c565b82525050565b610fbb8161141c565b82525050565b610fd2610fcd8261141c565b6114c4565b82525050565b610fe181611426565b82525050565b6000610ff38285610fc1565b6020820191506110038284610fc1565b6020820191508190509392505050565b600061101f8286610fc1565b60208201915061102f8285610fc1565b60208201915061103f8284610f4f565b9150819050949350505050565b60006020820190506110616000830184610e8b565b92915050565b600060408201905061107c6000830185610e8b565b6110896020830184610f07565b9392505050565b600060208201905081810360008301526110aa8184610e9a565b905092915050565b60006020820190506110c76000830184610ef8565b92915050565b600060208201905081810360008301526110e78184610f16565b905092915050565b6000602082019050818103600083015261110881610f80565b9050919050565b60006020820190506111246000830184610fb2565b92915050565b600060a08201905061113f6000830188610fb2565b61114c6020830187610fb2565b6111596040830186610fd8565b6111666060830185610fb2565b6111736080830184610fb2565b9695505050505050565b6000819050602082019050919050565b600081519050919050565b600081519050919050565b6000602082019050919050565b600082825260208201905092915050565b600082825260208201905092915050565b600081905092915050565b60006111e88261141c565b91506111f38361141c565b9250827fffffffffffffffffffffffffffffffffffffffffffffffffffffffffffffffff03821115611228576112276114ff565b5b828201905092915050565b600061123e82611426565b915061124983611426565b92508263ffffffff03821115611262576112616114ff565b5b828201905092915050565b6000808291508390505b60018511156112b757808604811115611293576112926114ff565b5b60018516156112a25780820291505b80810290506112b08561156e565b9450611277565b94509492505050565b60006112cb8261141c565b91506112d68361141c565b92506113037fffffffffffffffffffffffffffffffffffffffffffffffffffffffffffffffff848461130b565b905092915050565b60008261131b57600190506113d7565b8161132957600090506113d7565b816001811461133f576002811461134957611378565b60019150506113d7565b60ff84111561135b5761135a6114ff565b5b8360020a915084821115611372576113716114ff565b5b506113d7565b5060208310610133831016604e8410600b84101617156113ad5782820a9050838111156113a8576113a76114ff565b5b6113d7565b6113ba848484600161126d565b925090508184048111156113d1576113d06114ff565b5b81810290505b9392505050565b60006113e9826113fc565b9050919050565b60008115159050919050565b600073ffffffffffffffffffffffffffffffffffffffff82169050919050565b6000819050919050565b600063ffffffff82169050919050565b60006114418261141c565b9050919050565b60005b8381101561146657808201518184015260208101905061144b565b83811115611475576000848401525b50505050565b60006114868261141c565b91507fffffffffffffffffffffffffffffffffffffffffffffffffffffffffffffffff8214156114b9576114b86114ff565b5b600182019050919050565b6000819050919050565b60006114d98261141c565b91506114e48361141c565b9250826114f4576114f361152e565b5b828206905092915050565b7f4e487b7100000000000000000000000000000000000000000000000000000000600052601160045260246000fd5b7f4e487b7100000000000000000000000000000000000000000000000000000000600052601260045260246000fd5b6000601f19601f8301169050919050565b60008160011c9050919050565b7f496e73756666696369656e742062616c616e6365210000000000000000000000600082015250565b6115ad816113de565b81146115b857600080fd5b50565b6115c48161141c565b81146115cf57600080fd5b5056fea264697066735822122070ca6d2c3ada6737c9aa86fca9c93b5fa1bec92448312df0f28202f72214a02d64736f6c63430008040033",
  "linkReferences": {},
  "deployedLinkReferences": {}
}