{
  "_format": "hh-sol-artifact-1",
  "contractName": "BattleShipHelper",
  "sourceName": "contracts/BattleShipHelper.sol",
  "abi": [
    {
      "anonymous": false,
      "inputs": [
        {
          "indexed": false,
          "internalType": "uint256",
          "name": "shipId",
          "type": "uint256"
        },
        {
          "indexed": false,
          "internalType": "string",
          "name": "name",
          "type": "string"
        }
      ],
      "name": "NewBattleShip",
      "type": "event"
    },
    {
      "anonymous": false,
      "inputs": [
        {
          "indexed": true,
          "internalType": "address",
          "name": "previousOwner",
          "type": "address"
        },
        {
          "indexed": true,
          "internalType": "address",
          "name": "newOwner",
          "type": "address"
        }
      ],
      "name": "OwnershipTransferred",
      "type": "event"
    },
    {
      "inputs": [
        {
          "internalType": "uint256",
          "name": "",
          "type": "uint256"
        }
      ],
      "name": "battleShips",
      "outputs": [
        {
          "internalType": "string",
          "name": "name",
          "type": "string"
        },
        {
          "internalType": "uint256",
          "name": "shipType",
          "type": "uint256"
        },
        {
          "internalType": "uint256",
          "name": "exp",
          "type": "uint256"
        },
        {
          "internalType": "uint32",
          "name": "level",
          "type": "uint32"
        },
        {
          "internalType": "uint16",
          "name": "health",
          "type": "uint16"
        },
        {
          "internalType": "uint32",
          "name": "damage",
          "type": "uint32"
        }
      ],
      "stateMutability": "view",
      "type": "function"
    },
    {
      "inputs": [
        {
          "internalType": "uint256",
          "name": "_shipId",
          "type": "uint256"
        },
        {
          "internalType": "string",
          "name": "_newName",
          "type": "string"
        }
      ],
      "name": "changeName",
      "outputs": [],
      "stateMutability": "nonpayable",
      "type": "function"
    },
    {
      "inputs": [
        {
          "internalType": "address",
          "name": "_owner",
          "type": "address"
        }
      ],
      "name": "getShipsByOwner",
      "outputs": [
        {
          "internalType": "uint256[]",
          "name": "",
          "type": "uint256[]"
        }
      ],
      "stateMutability": "view",
      "type": "function"
    },
    {
      "inputs": [],
      "name": "isOwner",
      "outputs": [
        {
          "internalType": "bool",
          "name": "",
          "type": "bool"
        }
      ],
      "stateMutability": "view",
      "type": "function"
    },
    {
      "inputs": [],
      "name": "owner",
      "outputs": [
        {
          "internalType": "address",
          "name": "",
          "type": "address"
        }
      ],
      "stateMutability": "view",
      "type": "function"
    },
    {
      "inputs": [],
      "name": "renounceOwnership",
      "outputs": [],
      "stateMutability": "nonpayable",
      "type": "function"
    },
    {
      "inputs": [
        {
          "internalType": "uint256",
          "name": "_fee",
          "type": "uint256"
        }
      ],
      "name": "setLevelUpFee",
      "outputs": [],
      "stateMutability": "nonpayable",
      "type": "function"
    },
    {
      "inputs": [
        {
          "internalType": "uint256",
          "name": "_shipId",
          "type": "uint256"
        }
      ],
      "name": "shipLevelUp",
      "outputs": [],
      "stateMutability": "payable",
      "type": "function"
    },
    {
      "inputs": [
        {
          "internalType": "address",
          "name": "newOwner",
          "type": "address"
        }
      ],
      "name": "transferOwnership",
      "outputs": [],
      "stateMutability": "nonpayable",
      "type": "function"
    },
    {
      "inputs": [],
      "name": "withdraw",
      "outputs": [],
      "stateMutability": "nonpayable",
      "type": "function"
    }
  ],
  "bytecode": "0x60806040526509184e72a00060045534801561001a57600080fd5b50336000806101000a81548173ffffffffffffffffffffffffffffffffffffffff021916908373ffffffffffffffffffffffffffffffffffffffff16021790555060008054906101000a900473ffffffffffffffffffffffffffffffffffffffff1673ffffffffffffffffffffffffffffffffffffffff16600073ffffffffffffffffffffffffffffffffffffffff167f8be0079c531659141344cd1fd0a4f28419497f9722a3daafe3b4186f6b6457e060405160405180910390a36111c7806100e56000396000f3fe6080604052600436106100915760003560e01c8063c39cbef111610059578063c39cbef114610157578063cacc9e0b14610180578063ccf670f8146101c2578063ce8a2f3d146101eb578063f2fde38b1461020757610091565b80633ccfd60b14610096578063715018a6146100ad5780638da5cb5b146100c45780638f32d59b146100ef578063a8e23a361461011a575b600080fd5b3480156100a257600080fd5b506100ab610230565b005b3480156100b957600080fd5b506100c2610297565b005b3480156100d057600080fd5b506100d9610366565b6040516100e69190610d83565b60405180910390f35b3480156100fb57600080fd5b5061010461038f565b6040516101119190610dc0565b60405180910390f35b34801561012657600080fd5b50610141600480360381019061013c9190610bb1565b6103e6565b60405161014e9190610d9e565b60405180910390f35b34801561016357600080fd5b5061017e60048036038101906101799190610c03565b610585565b005b34801561018c57600080fd5b506101a760048036038101906101a29190610bda565b6106ff565b6040516101b996959493929190610ddb565b60405180910390f35b3480156101ce57600080fd5b506101e960048036038101906101e49190610bda565b610801565b005b61020560048036038101906102009190610bda565b61081c565b005b34801561021357600080fd5b5061022e60048036038101906102299190610bb1565b61090a565b005b61023861038f565b61024157600080fd5b600061024b610366565b90508073ffffffffffffffffffffffffffffffffffffffff166108fc479081150290604051600060405180830381858888f19350505050158015610293573d6000803e3d6000fd5b5050565b61029f61038f565b6102a857600080fd5b600073ffffffffffffffffffffffffffffffffffffffff1660008054906101000a900473ffffffffffffffffffffffffffffffffffffffff1673ffffffffffffffffffffffffffffffffffffffff167f8be0079c531659141344cd1fd0a4f28419497f9722a3daafe3b4186f6b6457e060405160405180910390a360008060006101000a81548173ffffffffffffffffffffffffffffffffffffffff021916908373ffffffffffffffffffffffffffffffffffffffff160217905550565b60008060009054906101000a900473ffffffffffffffffffffffffffffffffffffffff16905090565b60008060009054906101000a900473ffffffffffffffffffffffffffffffffffffffff1673ffffffffffffffffffffffffffffffffffffffff163373ffffffffffffffffffffffffffffffffffffffff1614905090565b60606000600360008473ffffffffffffffffffffffffffffffffffffffff1673ffffffffffffffffffffffffffffffffffffffff1681526020019081526020016000205467ffffffffffffffff811115610469577f4e487b7100000000000000000000000000000000000000000000000000000000600052604160045260246000fd5b6040519080825280602002602001820160405280156104975781602001602082028036833780820191505090505b5090506000805b60018054905081101561057a578473ffffffffffffffffffffffffffffffffffffffff166002600083815260200190815260200160002060009054906101000a900473ffffffffffffffffffffffffffffffffffffffff1673ffffffffffffffffffffffffffffffffffffffff161415610567578083838151811061054c577f4e487b7100000000000000000000000000000000000000000000000000000000600052603260045260246000fd5b602002602001018181525050818061056390611053565b9250505b808061057290611053565b91505061049e565b508192505050919050565b600a8281600182815481106105c3577f4e487b7100000000000000000000000000000000000000000000000000000000600052603260045260246000fd5b906000526020600020906004020160030160009054906101000a900463ffffffff1663ffffffff1610156105f657600080fd5b833373ffffffffffffffffffffffffffffffffffffffff166002600083815260200190815260200160002060009054906101000a900473ffffffffffffffffffffffffffffffffffffffff1673ffffffffffffffffffffffffffffffffffffffff1614610698576040517f08c379a000000000000000000000000000000000000000000000000000000000815260040161068f90610e43565b60405180910390fd5b83600186815481106106d3577f4e487b7100000000000000000000000000000000000000000000000000000000600052603260045260246000fd5b906000526020600020906004020160000190805190602001906106f7929190610a7c565b505050505050565b6001818154811061070f57600080fd5b906000526020600020906004020160009150905080600001805461073290610ff0565b80601f016020809104026020016040519081016040528092919081815260200182805461075e90610ff0565b80156107ab5780601f10610780576101008083540402835291602001916107ab565b820191906000526020600020905b81548152906001019060200180831161078e57829003601f168201915b5050505050908060010154908060020154908060030160009054906101000a900463ffffffff16908060030160049054906101000a900461ffff16908060030160069054906101000a900463ffffffff16905086565b61080961038f565b61081257600080fd5b8060048190555050565b600454341461082a57600080fd5b61089e6001808381548110610868577f4e487b7100000000000000000000000000000000000000000000000000000000600052603260045260246000fd5b906000526020600020906004020160030160009054906101000a900463ffffffff1663ffffffff1661092790919063ffffffff16565b600182815481106108d8577f4e487b7100000000000000000000000000000000000000000000000000000000600052603260045260246000fd5b906000526020600020906004020160030160006101000a81548163ffffffff021916908363ffffffff16021790555050565b61091261038f565b61091b57600080fd5b61092481610985565b50565b60008082846109369190610f0e565b90508363ffffffff168163ffffffff16101561097b577f4e487b7100000000000000000000000000000000000000000000000000000000600052600160045260246000fd5b8091505092915050565b600073ffffffffffffffffffffffffffffffffffffffff168173ffffffffffffffffffffffffffffffffffffffff1614156109bf57600080fd5b8073ffffffffffffffffffffffffffffffffffffffff1660008054906101000a900473ffffffffffffffffffffffffffffffffffffffff1673ffffffffffffffffffffffffffffffffffffffff167f8be0079c531659141344cd1fd0a4f28419497f9722a3daafe3b4186f6b6457e060405160405180910390a3806000806101000a81548173ffffffffffffffffffffffffffffffffffffffff021916908373ffffffffffffffffffffffffffffffffffffffff16021790555050565b828054610a8890610ff0565b90600052602060002090601f016020900481019282610aaa5760008555610af1565b82601f10610ac357805160ff1916838001178555610af1565b82800160010185558215610af1579182015b82811115610af0578251825591602001919060010190610ad5565b5b509050610afe9190610b02565b5090565b5b80821115610b1b576000816000905550600101610b03565b5090565b6000610b32610b2d84610e88565b610e63565b905082815260208101848484011115610b4a57600080fd5b610b55848285610fae565b509392505050565b600081359050610b6c81611163565b92915050565b600082601f830112610b8357600080fd5b8135610b93848260208601610b1f565b91505092915050565b600081359050610bab8161117a565b92915050565b600060208284031215610bc357600080fd5b6000610bd184828501610b5d565b91505092915050565b600060208284031215610bec57600080fd5b6000610bfa84828501610b9c565b91505092915050565b60008060408385031215610c1657600080fd5b6000610c2485828601610b9c565b925050602083013567ffffffffffffffff811115610c4157600080fd5b610c4d85828601610b72565b9150509250929050565b6000610c638383610d56565b60208301905092915050565b610c7881610f48565b82525050565b6000610c8982610ec9565b610c938185610eec565b9350610c9e83610eb9565b8060005b83811015610ccf578151610cb68882610c57565b9750610cc183610edf565b925050600181019050610ca2565b5085935050505092915050565b610ce581610f5a565b82525050565b6000610cf682610ed4565b610d008185610efd565b9350610d10818560208601610fbd565b610d1981611129565b840191505092915050565b6000610d31601a83610efd565b9150610d3c8261113a565b602082019050919050565b610d5081610f66565b82525050565b610d5f81610f94565b82525050565b610d6e81610f94565b82525050565b610d7d81610f9e565b82525050565b6000602082019050610d986000830184610c6f565b92915050565b60006020820190508181036000830152610db88184610c7e565b905092915050565b6000602082019050610dd56000830184610cdc565b92915050565b600060c0820190508181036000830152610df58189610ceb565b9050610e046020830188610d65565b610e116040830187610d65565b610e1e6060830186610d74565b610e2b6080830185610d47565b610e3860a0830184610d74565b979650505050505050565b60006020820190508181036000830152610e5c81610d24565b9050919050565b6000610e6d610e7e565b9050610e798282611022565b919050565b6000604051905090565b600067ffffffffffffffff821115610ea357610ea26110fa565b5b610eac82611129565b9050602081019050919050565b6000819050602082019050919050565b600081519050919050565b600081519050919050565b6000602082019050919050565b600082825260208201905092915050565b600082825260208201905092915050565b6000610f1982610f9e565b9150610f2483610f9e565b92508263ffffffff03821115610f3d57610f3c61109c565b5b828201905092915050565b6000610f5382610f74565b9050919050565b60008115159050919050565b600061ffff82169050919050565b600073ffffffffffffffffffffffffffffffffffffffff82169050919050565b6000819050919050565b600063ffffffff82169050919050565b82818337600083830152505050565b60005b83811015610fdb578082015181840152602081019050610fc0565b83811115610fea576000848401525b50505050565b6000600282049050600182168061100857607f821691505b6020821081141561101c5761101b6110cb565b5b50919050565b61102b82611129565b810181811067ffffffffffffffff8211171561104a576110496110fa565b5b80604052505050565b600061105e82610f94565b91507fffffffffffffffffffffffffffffffffffffffffffffffffffffffffffffffff8214156110915761109061109c565b5b600182019050919050565b7f4e487b7100000000000000000000000000000000000000000000000000000000600052601160045260246000fd5b7f4e487b7100000000000000000000000000000000000000000000000000000000600052602260045260246000fd5b7f4e487b7100000000000000000000000000000000000000000000000000000000600052604160045260246000fd5b6000601f19601f8301169050919050565b7f596f7520646f6e7420706f737365737320746869732073686970000000000000600082015250565b61116c81610f48565b811461117757600080fd5b50565b61118381610f94565b811461118e57600080fd5b5056fea26469706673582212205c186c08590aef9e27d675865fd8e9393866a1feb9fd01f2f51ac41fad89079064736f6c63430008040033",
  "linkReferences": {},
  "deployedLinkReferences": {}
}